:020000040800F2
:10000000005000206D270008252600082D26000836
:10001000352600083D26000845260008000000009F
:100020000000000000000000000000004D26000855
:100030005926000800000000652600087126000807
:10004000B5270008B5270008B5270008B527000820
:10005000B5270008B5270008B5270008B527000810
:10006000B5270008B5270008B52700087D26000839
:10007000B5270008B5270008B5270008B5270008F0
:10008000B5270008B5270008B5270008B5270008E0
:1000900091260008B5270008B5270008B5270008F5
:1000A000B5270008A5260008B5270008B5270008D1
:1000B000B9260008B5270008B5270008B5270008AD
:1000C000B5270008B5270008B5270008B5270008A0
:1000D000B5270008CD260008E1260008B52700084E
:1000E000B5270008B5270008B52700080000000064
:1000F0000000000000000000000000000000000000
:0C01000000000000000000005FF808F1A3
:10010C0010B5054C237833B9044B13B10448AFF345
:10011C0000800123237010BDF001002000000000BE
:10012C00A4C6000808B5034B1BB103490348AFF341
:10013C00008008BD00000000F4010020A4C60008E7
:10014C00034613F8012B002AFBD1181A013870470B
:10015C0080B582B000AF78603960124B00221A7003
:10016C00114B00221A704022796810480BF0FAFDEE
:10017C000E4B002283F83F20202239680C480BF0EC
:10018C00F1FD0B4B0022DA770A4B32221A60054B39
:10019C000D221A70084B00221A7000BF0837BD469A
:1001AC0080BD00BF0C02002010020020280200209D
:1001BC0068020020140200204404002080B582B0A4
:1001CC0000AF78600B467B8013463B801D4B5B6811
:1001DC00002B02D14FF0FF332FE03B88002B02D1D4
:1001EC0047F230533B80184B184A1A600F2279683B
:1001FC0017480BF0B7FD164B0022DA737B880A22E6
:10020C00144918460BF02CFD3B880A22124918465B
:10021C000BF026FD114B1B78002B01D101230CE0B8
:10022C000F4B1B7803F00203DBB2002B01D1002330
:10023C0003E00C4B09221A70062318460837BD46FA
:10024C0080BD00BF48040020000000205544500031
:10025C008802002098020020B00200202802002012
:10026C00100200200C02002080B400AF084B1B7859
:10027C0003F00203DBB2002B05D0064B1B78002BDE
:10028C0001D0044B00E000231846BD4680BC7047EB
:10029C0010020020A002002080B400AF0A4B5B6863
:1002AC00002B02D14FF0FF3309E0084B1B7803F011
:1002BC004003DBB2002B01D0072300E005231846D6
:1002CC00BD4680BC704700BF4804002010020020CF
:1002DC0080B483B000AF0346FB710D4B9B68002BC1
:1002EC0011D00C4B1B885A1C91B20A4A118019462A
:1002FC00094AFB795354074B1B88802B04D1054BBF
:10030C0000221A8000E000BF0C37BD4680BC70474D
:10031C00480400203C040020BC02002080B588B0BA
:10032C0000AFF860084611461A4603467B810B461F
:10033C003B811346FB80464B5B68002B02D14FF090
:10034C00FF3381E0434B1B7803F04003DBB2002BFF
:10035C0001D1052378E03F4B1B7803F00803DBB297
:10036C00002B68D100237B773B8907F110010A220F
:10037C0018460BF075FC07F110031846FFF7E0FE6A
:10038C0003467B777B7F042B02D87B7F002B01D12C
:10039C000B2359E0304800F0A7FF07F11003184673
:1003AC0000F0A2FF2D4800F09FFF0023FB8320E00C
:1003BC007B895A1C7A811A46FB681A44284B1B8885
:1003CC00591C88B22649088019461278254B5A5474
:1003DC00234B1B88B3F5807F02D1214B00221A805E
:1003EC007A89FB889A4201D100237B81FB8B0133F4
:1003FC00FB83FA8B3B899A42DAD3164A137843F083
:10040C0004031370134A137843F008031370164B4C
:10041C001B68002B0DD0144B1B6814489847124BCB
:10042C001B6807F11002104698470F4B1B681048C9
:10043C009847092308E00C4B1B68002B03D00A4B90
:10044C001B680C489847082318462037BD4680BDCA
:10045C00480400201002002000CB0008BCC6000895
:10046C00420400203C03002024020020C0C60008E7
:10047C00D4C60008D8C6000880B582B000AF78603A
:10048C00142279680D480BF0ADFC0D4B00221A704C
:10049C000C4B00221A700C4B00221A800B4B0022C2
:1004AC001A800B4B00221A800A4B00221A800A4B2E
:1004BC0000221A7000BF0837BD4680BD48040020DA
:1004CC000C020020B6020020400400204204002050
:1004DC003E0400203C0400201002002080B400AF39
:1004EC00124B1B68002B04D0104B1B68013B0F4AAE
:1004FC0013600F4B1B68002B0BD00D4B1B68013B83
:10050C000B4A13600A4B1B68002B02D1094B0022CB
:10051C001A70094B1B68002B04D0074B1B68013B5E
:10052C00054A136000BFBD4680BC70471402002012
:10053C0018020020B60200201C02002080B500AF7B
:10054C00084B1A88084B1B889A4201D000F02CF8F3
:10055C00064B1B68002B01D100F0ECFB00F048FEB1
:10056C0000BF80BD3E0400203C040020140200208B
:10057C0080B483B000AF7860034A7B68136000BF1F
:10058C000C37BD4680BC70472002002080B483B07D
:10059C0000AF7860034A7B68136000BF0C37BD4620
:1005AC0080BC70472402002080B582B000AF7F4B26
:1005BC001B780D2B07D07D4B1B780E2B03D07B4B60
:1005CC001B780F2B04D17A4B1A887A4B1A8092E342
:1005DC00774B1B88FB80784B02221A6085E3754BA6
:1005EC001B881A46754B9B5C7B71754B1B780C2BCF
:1005FC0000F25C8301A252F823F000BF3D06000814
:10060C002D0700080F090008B90C0008B90C0008E8
:10061C00070B00084D0B0008630B00088F0B00083C
:10062C00B90C0008DD0B0008050C00085B0C000879
:10063C00644B00221A70644B04221A703EE0614B2A
:10064C001B781A46614B53F822305F4A12781344D8
:10065C001B787A799A422BD15A4B1B781A465B4BF2
:10066C0053F822301B78303B9AB2594B1A80584BB6
:10067C001B881A46920013445B009AB2544B1A80A2
:10068C00504B1B781A46514B53F8223001331B78D0
:10069C001A464F4B1B8813449BB2303B9AB24C4BBF
:1006AC001A804B4B1B88013B9AB2494B1A800DE0C8
:1006BC00444B1B780133DAB2424B1A70414B1B7816
:1006CC001A46424B53F82230002BB8D13D4B1B78C5
:1006DC001A463E4B53F82230002B09D0384B0122DE
:1006EC001A70394B1B780133DAB2374B1A70E4E2CB
:1006FC00314B00221A60374B1B7803F00103DBB23D
:10070C00002B00F0DA827B793E2B40F0D682314A06
:10071C00137823F0010313702F4B00221A60CCE2E4
:10072C00284B1B781A46294B53F82230264A12784C
:10073C0013441B787A799A4233D1254B1B88013BA1
:10074C009AB2234B1A80224B1B88002B03D07B7947
:10075C000D2B40F0CF801B4B1B781A461B4B53F8CC
:10076C00223002331B78303BDAB2154B1A70144B23
:10077C001B781A46920013445B00DAB2104B1A70C5
:10078C00104B1B781A46114B53F8223003331A784E
:10079C000B4B1B781344DBB2303BDAB2084B1A70AC
:1007AC0096E2084B00221A7088E000BF0C02002071
:1007BC003C0400203E04002018020020BC02002053
:1007CC00B60200205C0400205D04002024CC00084C
:1007DC00B8020020100200201C020020A44B1B7841
:1007EC001A46A44B53F822301B78303B9AB2A24BDA
:1007FC001A80A14B1B881A46920013445B009AB2D4
:10080C009D4B1A809A4B1B781A469A4B53F8223000
:10081C0001331B781A46984B1B8813449BB2303B10
:10082C009AB2954B1A80944B1B88944A12789B1A57
:10083C009BB203339AB2904B1A808F4B1B887F2B41
:10084C0036D88B4B1B781A468A4B53F822308B4A7E
:10085C00127813441B787A799A4229D1864B1B88DB
:10086C00002B34D1824B1B781A46824B53F8223022
:10087C0002331B78303BDAB2814B1A70804B1B78F9
:10088C001A46920013445B00DAB27D4B1A70784B17
:10089C001B781A46774B53F8223003331A78784B6F
:1008AC001B781344DBB2303BDAB2754B1A700EE096
:1008BC006F4B1B780133DAB26D4B1A706C4B1B7893
:1008CC001A466C4B53F82230002B87D100E000BF46
:1008DC00674B1B781A46674B53F82230002B09D113
:1008EC00674B00221A70674B1B88013B9AB2654B11
:1008FC001A80EDE1614B1B780133DAB25F4B1A7051
:10090C00E6E17B790A2B40F0DA815D4B00221A700C
:10091C00574B1B78112B00F2D28101A252F823F015
:10092C00EB0A0008EB0A0008750900089109000899
:10093C00BF090008EB0A0008F5090008F5090008D2
:10094C00290A0008350A0008510A0008AD0A0008F7
:10095C00CB0C0008B90A0008CB0C0008CF0A000821
:10096C00EB0A0008EB0A0008474B1B78022B40F0FF
:10097C00B880464B00221A60454A137843F0200396
:10098C001370AEE0424B1B7803F00803DBB2002B74
:10099C0000F0A9803E4A137823F0080313703C4AF8
:1009AC00137823F0400313703A4B1A883A4B1A8091
:1009BC0099E0364B00221A60334B1B78062B04D17E
:1009CC00334A137843F020031370314A137843F001
:1009DC0002031370314B1B68002B00F086802F4BE9
:1009EC001B680320984780E0294A137823F04003C2
:1009FC001370274A137823F002031370274B1B68DC
:100A0C00002B03D0254B1B68002098471E4B1B78EE
:100A1C00062B6CD01C4B0F221A706DE01C4A1378FD
:100A2C0023F04003137067E0194A137823F008038E
:100A3C0013701A4B1B68002B5BD0184B1B680A20D9
:100A4C00984756E0114B00221A60114A137843F074
:100A5C00200313700E4A137843F0400313700F4BAE
:100A6C001B68002B47D00D4B1B680720984742E0B2
:100A7C005C04002024CC0008B80200205D04002097
:100A8C00B60200203E0400200C02002014020020BC
:100A9C00100200204204002040040020200200200C
:100AAC00964A137823F04003137025E0934A137889
:100ABC0023F040031370914A137823F00203137050
:100ACC001AE08E4A137823F0400313708B4A137884
:100ADC0023F0020313708A4B0F221A700CE000BF34
:100AEC00EDE000BFEBE000BFE9E000BFE7E000BFD6
:100AFC00E5E000BFE3E000BFE1E07B792C2B0CD1FB
:100B0C00804B06221A70804B1B68002B00F0D9809A
:100B1C007D4B1B687D489847D3E07A4B00221A70B6
:100B2C007B4B1B88013B9AB2794B1A80764B1B6826
:100B3C00002B00F0C680744B1B6876489847C0E0C9
:100B4C007B79222B40F0BF806E4B07221A70724BC0
:100B5C0000221A80B7E07B79222B03D06E4B1B88C6
:100B6C00102B03D1674B08221A70B1E06A4B1B881B
:100B7C005A1C91B2684A11801946684A7B795354C1
:100B8C00A6E07B790A2B40F0A0805E4B00221A7005
:100B9C00614B1B880F2B0ED85F4B1B881A465F4B83
:100BAC0000219954554A137843F0200313705C4B81
:100BBC0000221A6002E0594B00221A70594B1B6834
:100BCC00002B00F08280574B1B68042098477CE078
:100BDC007B792C2B06D14B4B0B221A704E4B0022DF
:100BEC001A8075E0474B00221A70494B1B88013B59
:100BFC009AB2474B1A806BE07B793A2B03D1414B6D
:100C0C000C221A7064E07B792F2B02D97B79392B5B
:100C1C0009D93C4B00221A703D4B1B88013B9AB200
:100C2C003B4B1A8054E03C4B1B881A4692001344F1
:100C3C005B009AB2384B1A807B799AB2364B1B8880
:100C4C0013449BB2303B9AB2334B1A8040E0364B84
:100C5C009B68354AD268128813447A791A70324BE1
:100C6C00DB681A88013292B21A802F4BDB681A8823
:100C7C002D4B1B8A9A4203D12B4BDB6800221A8026
:100C8C00254B1B88013B9AB2234B1A80224B1B88A5
:100C9C00002B1CD11B4B00221A701B4B1B68002B0A
:100CAC0015D0194B1B682148984710E0154B0022B2
:100CBC001A701F4B00221A600AE000BF08E000BF48
:100CCC0006E000BF04E000BF02E000BF00E000BF90
:100CDC000F4B1B8801339AB20D4B1A800C4B1B889F
:100CEC00802B02D10A4B00221A80094B1B88FA88F0
:100CFC009A427FF474AC0837BD4680BD10020020C8
:100D0C000C020020B602002024020020F0C60008CD
:100D1C003E04002008C70008B8020020A0020020F2
:100D2C001402002020020020480400201CC70008E8
:100D3C001802002080B596B002AF964B64221A6060
:100D4C00954B1B780F2B00F22B8201A252F823F04B
:100D5C009D0D00080B0E00085D0E00089B0E000890
:100D6C00B90E0008D70E00085D0F0008FD0F000833
:100D7C002B10000885100008AD1000085511000854
:100D8C0073110008A50D0008C50D0008ED0D000835
:100D9C00804B00221A6003E2804B1B6800209847AE
:100DAC007F4B1B68002B03D07D4B1B687D489847FD
:100DBC00794B0E221A70F3E1784B1B68012098478F
:100DCC00774B1B68002B03D0754B1B6876489847F4
:100DDC00714B0F221A706F4B4FF4FA721A60DFE1ED
:100DEC006F4B1B68002B03D06D4B1B686F489847EB
:100DFC00694B01221A706E4B00221A70D0E16C4BB9
:100E0C001B78002B0DD06A4B1B78013BDAB2684B78
:100E1C001A70674B1B78002B06D15F4B0D221A7092
:100E2C00BEE1634B04221A70624A137823F020034C
:100E3C001370614800F058FA594B1B68002B03D013
:100E4C00574B1B685D489847534B02221A70A7E119
:100E5C00584B1B7803F02003DBB2002B0BD0504B0C
:100E6C001B68002B03D04E4B1B68554898474A4BC8
:100E7C0003221A7094E14A4B1B68002B03D0484B99
:100E8C001B6850489847444B01221A7088E14E4821
:100E9C0000F02AFA424B1B68002B03D0404B1B6816
:100EAC004A4898473C4B04221A7079E1484800F0B4
:100EBC001BFA3B4B1B68002B03D0394B1B68454876
:100ECC009847354B05221A706AE13A4B1B7803F0B0
:100EDC000203DBB2002B03D02F4B07221A705FE109
:100EEC003D4B1B78002B00F058813C4800F0FCF97E
:100EFC00222000F029FA384800F0F6F9222000F000
:100F0C0023FA2C2000F020FA222000F01DFA34489D
:100F1C0000F0EAF9222000F017FA0D2000F014FA84
:100F2C000A2000F011FA1E4B1B68002B03D01C4B3F
:100F3C001B682C4898471F4A137823F02003137022
:100F4C00154B06221A70134B40F2DC521A6027E143
:100F5C00184B1B7803F02003DBB2002B0ED0104B88
:100F6C001B68002B03D00E4B1B681F4898470A4B7D
:100F7C0007221A700E4B04221A7011E1084B1B68E1
:100F8C00002B03D0064B1B6818489847024B0122D4
:100F9C001A7005E1140200200C0200204804002005
:100FAC002402002030C7000848C7000860C70008AA
:100FBC004404002010020020A0CA0008A0C70008AA
:100FCC00B0C70008D8C70008B8CA000808C800088D
:100FDC00A8CA00081CC8000828020020C8CA0008BB
:100FEC006802002030C8000844C8000870C8000817
:100FFC006D4B00221A706D4800F076F96C4B1B6833
:10100C00002B03D06A4B1B686A4898476A4A1378CE
:10101C0023F020031370694B08221A70C0E0664B52
:10102C001B7803F02003DBB2002B13D0604B1B6842
:10103C00002B0BD05E4B1B68614898475C4B1B68C0
:10104C00594898475A4B1B685E4898475B4B092296
:10105C001A70A5E05C4B1B78013BDAB25A4B1A7044
:10106C00594B1B78002B03D1544B01221A7097E07B
:10107C00524B07221A7093E0544B1B78002B00F054
:10108C008E80534800F030F9494B1B68002B03D07D
:10109C00474B1B684F489847484B0A221A707FE011
:1010AC004D4800F021F9222000F04EF94B4800F099
:1010BC001BF9222000F048F92C2000F045F92220E1
:1010CC0000F042F9414800F00FF9222000F03CF901
:1010DC002C2000F039F9424800F006F92C2000F0E1
:1010EC0033F9404800F000F92C2000F02DF93020A5
:1010FC0000F02AF90D2000F027F90A2000F024F95D
:10110C002B4B1B68002B0ED03846354B01932F4BC5
:10111C000093324B344A50210AF0E6FD244B1B68F5
:10112C003A4610469847244A137823F0200313704C
:10113C00214A137823F040031370204B0B221A70B2
:10114C002A4BC8221A602BE01B4B1B7803F02003A0
:10115C00DBB2002B03D0194B0C221A7020E0174B7A
:10116C0001221A701CE0144B1B7803F00203DBB253
:10117C00002B03D1114B01221A7011E00E4B1B787E
:10118C0003F04003DBB2002B03D10C4B09221A7085
:10119C0006E0164B00221A6002E000BF00E000BF20
:1011AC0000BF5037BD4680BDA0020020D4CA000845
:1011BC0024020020A8C80008100200200C02002005
:1011CC00BCC80008E0C800084404002088020020C5
:1011DC00F0CA0008E8C80008E0CA000800000020B7
:1011EC0098020020B002002000C900081402002060
:1011FC0080B582B000AF344B1B7803F00103DBB237
:10120C00002B13D0314B1B68002B59D1304B1A8853
:10121C00304B1A802C4A137823F0010313702E4B99
:10122C0001221A702D4B0A221A6049E0294B1A88A8
:10123C00274B1B889A4244D0264B1B881A46284BB6
:10124C009B5CFB71204B1B7803F00403DBB2002B7F
:10125C0004D0FB793E2B01D10A23FB71214B5B6837
:10126C00FA79104698470346002B2AD0164B1B7868
:10127C0003F00403DBB2002B13D0164B1B881A4669
:10128C00174B9B5C3E2B0CD10F4A137823F00403B5
:10129C0013700D4A137843F0010313700B4B0522A6
:1012AC001A600C4B1B8801339AB20A4B1A80094BFB
:1012BC001B88B3F5807F04D1064B00221A8000E016
:1012CC0000BF0837BD4680BD100200201C02002064
:1012DC0042040020400400200C02002014020020D4
:1012EC003C0300204804002080B485B000AF786037
:1012FC000023FB6017E0FB687A681A44104B1B88CC
:10130C00591C88B20E490880194612780D4B5A5454
:10131C000B4B1B88B3F5807F02D1094B00221A803E
:10132C00FB680133FB60FB687A6813441B78002B65
:10133C00E1D100BF00BF1437BD4680BC704700BF71
:10134C00420400203C03002080B483B000AF03466D
:10135C00FB710B4B1B885A1C91B2094A1180194620
:10136C00084AFB795354064B1B88B3F5807F02D196
:10137C00034B00221A8000BF0C37BD4680BC70475F
:10138C00420400203C03002080B483B000AF78609E
:10139C0039601F4A7B6813601E4A3B6813601C4B04
:1013AC001B6800221A711A4B1B6800225A71184BC9
:1013BC001B6800221A72164B1B68FF229A72154B7F
:1013CC001B6800221A71134B1B6800225A71114BB7
:1013DC001B68FF229A710E4B1B6800229A710C4BF2
:1013EC001B680022DA710A4B1B6800225A72084BE8
:1013FC001B6800221A73064B1B680022DA72054B1D
:10140C001B680022DA7100BF0C37BD4680BC7047E8
:10141C00600400206404002080B582B000AF8E4BC5
:10142C001B685B79FB712DE18B4B1B681B7A062BC0
:10143C0000F2088101A252F823F000BF65140008E5
:10144C008F140008DD140008131500084915000856
:10145C006B150008D91500087F4B1B681B687E4A6A
:10146C001268127913441B78DBB2552B40F0EF80D5
:10147C00794B1B6801221A72774B1B6805221A7371
:10148C00E5E0754B1B681B68734A126812791344AC
:10149C001B78DBB24E2B04D16F4B1B6802221A72E5
:1014AC00D7E06D4B1B681B686B4A126812791344AA
:1014BC001B78DBB2552B00F0CC80674B1B680022ED
:1014CC001A72654B1B681A79013AD2B21A71C0E0D4
:1014DC00614B1B681B68604A1268127913441B78B5
:1014EC00DBB2452B04D15C4B1B6803221A72B8E0AB
:1014FC00594B1B6800221A72574B1B681A79013A18
:10150C00D2B21A71ADE0544B1B681B68524A126878
:10151C00127913441B78DBB2522B04D14E4B1B684F
:10152C0004221A729DE04C4B1B6800221A724A4B23
:10153C001B681A79013AD2B21A7192E0464B1B68B9
:10154C001B68454A126812791A44434B1B6812787F
:10155C00D2B2DA71404B1B6805221A7281E03E4B05
:10156C001B681B683C4A1268127913441B78DBB267
:10157C003A2B20D1384B1B6806221A72364B1B684B
:10158C001A79354B1B680132D2B29A71324B1B68F7
:10159C009979314B1B689A7A2F4B1B680A40D2B24F
:1015AC009A712D4B1B68DA792B4B1B6882F0360233
:1015BC00D2B25A7255E0284B1B6800221A72264B85
:1015CC001B681A79013AD2B21A714AE0224B1B6895
:1015DC00DA79013AD2B2DA711F4B1B68DB79002B36
:1015EC0011D01D4B1B681B681B4A126812791344DF
:1015FC001B78D9B2184B1B685A7A174B1B684A4098
:10160C00D2B25A722CE0144B1B6800221A72124B85
:10161C001B681B68104A1268127913441B78DAB2E3
:10162C000D4B1B685B7A9A421AD10B4B1B6801223B
:10163C00DA72094B1B68094A12681146184600F009
:10164C0047F90DE0044B1B6800221A7209E000BF39
:10165C0007E000BF05E000BF600400206404002028
:10166C0000BF0E4B1B681A790132D2B21A710B4BA8
:10167C001B681979094B1B689A7A084B1B680A403E
:10168C00D2B21A71054B1B681B79FA799A427FF416
:10169C00CBAE00BF00BF0837BD4680BD6004002044
:1016AC0080B483B000AF78600B46FB701346BB7000
:1016BC007B680022DA717B681A687B685B79591C3D
:1016CC00C8B279684871134455221A707B685A79EC
:1016DC007B689B791340DAB27B685A717B681A6815
:1016EC007B685B79591CC8B27968487113444E22E7
:1016FC001A707B685A797B689B791340DAB27B68E5
:10170C005A717B681A687B685B79591CC8B2796816
:10171C004871134445221A707B685A797B689B790F
:10172C001340DAB27B685A717B681A687B685B7904
:10173C00591CC8B279684871134452221A707B68DC
:10174C005A797B689B791340DAB27B685A717B6853
:10175C001A687B685B79591CC8B279684871134464
:10176C00BA780132D2B21A707B685A797B689B794D
:10177C001340DAB27B685A717B681A687B685B79B4
:10178C00591CC8B27968487113443A221A707B68A4
:10179C005A797B689B791340DAB27B685A717B6803
:1017AC001A687B685B79591CC8B279684871134414
:1017BC00FA781A707B685A797B689B791340DAB295
:1017CC007B685A717B68DB795AB2BB780133DBB228
:1017DC005BB253405BB2DAB27B68DA717B68DA7960
:1017EC00FB785340DBB283F03603DAB27B68DA71F4
:1017FC007B68DB7918460C37BD4680BC704780B4DB
:10180C0083B000AF78600B46FB707B681A687B680E
:10181C005B79591CC8B2796848711344FA781A700C
:10182C007B685A797B689B791340DAB27B685A7172
:10183C007B68DA79FB785340DAB27B68DA717B68C3
:10184C00DB7918460C37BD4680BC704790B482B02B
:10185C0000AF786039601D4B00221A8027E01B4BCB
:10186C001B881A463B681A447B6819687B685B794D
:10187C00581CC4B2786844710B4412781A707B6897
:10188C005A797B689B791340DAB27B685A710F4B9B
:10189C001B885A1C91B20D4A11801A463B6813449E
:1018AC001A787B68DB795340DAB27B68DA71074BC4
:1018BC001B881A463B6813441B78002BCFD17B68DE
:1018CC00DB7918460837BD4690BC70475E04002093
:1018DC0080B582B000AF786039607B681B687A682D
:1018EC00927913441B78DBB2A02B02D0A12B10D021
:1018FC0021E00222A0213868FFF7D2FEF0213868DF
:10190C00FFF77DFF3B68DB7919463868FFF777FFF7
:10191C0028E00C22A1213868FFF7C2FE134B1B688C
:10192C0019463868FFF792FF3B68DB79194638682F
:10193C00FFF765FF16E07B681B687A6892791344A1
:10194C001B78DBB2022219463868FFF7A9FEFE218C
:10195C003868FFF754FF3B68DB7919463868FFF7A6
:10196C004EFF00BF00BF0837BD4680BD04000020FD
:10197C0080B483B000AF78603960194B55221A706F
:10198C00174B53225A70164B42229A70144B20223A
:10199C00DA70144B00221A7010E0124B1B781A46A6
:1019AC007B681A440F4B1B78043311780C4AD154C2
:1019BC000C4B1B780133DAB20A4B1A70094B1B78AB
:1019CC001A463B689342E8DC064B1B780433DAB2C8
:1019DC00044B1A7000BF0C37BD4680BC704700BF6B
:1019EC00FC050020FC06002080B483B000AF7860BA
:1019FC007B681B680C4A934208D10C4B01221A706D
:101A0C000B4B1B780133DAB2094B1A707B681B68DD
:101A1C00B3F1804F02D1074B01221A7000BF0C3773
:101A2C00BD4680BC704700BF002C0140FD06002065
:101A3C002C090020FF06002080B582B000AF786032
:101A4C007B681B68084A934209D1084B1B781846DF
:101A5C00FEF73EFC01220549054804F052FF00BF89
:101A6C000837BD4680BD00BF00380140010700208B
:101A7C006C05002080B582B000AF0346FB71FB798A
:101A8C00002B14BF01230023DBB21A464FF4006174
:101A9C00034802F011F800BF0837BD4680BD00BFF7
:101AAC00000C014080B582B000AF0346FB71F91DFC
:101ABC0064230122064804F099FE0346002B0CBF58
:101ACC0001230023DBB218460837BD4680BD00BF9A
:101ADC006C050020B0B598B000AF0346FB7197F9C8
:101AEC0007300A2B56D801A252F823F0591B0008D4
:101AFC00A11B0008A11B0008251B00083B1B0008AC
:101B0C00A11B0008A11B0008611B0008A11B0008F9
:101B1C00A11B0008991B0008224800F051F847F25D
:101B2C00305247F23A512048FEF748FB35E0FEF7B9
:101B3C009BFB034607F10C001C4A40210AF0D4F829
:101B4C0007F10C03184600F03BF826E0184800F0AB
:101B5C0037F822E0174800F033F8FEF79DFB0346F8
:101B6C00072B19D1144B07F14C041D460FCD0FC494
:101B7C002B681A46228002341B0C237007F14C0090
:101B8C00122312220021FEF7C9FB05E00B4800F0DE
:101B9C0017F802E000BF00E000BF00BF6037BD4691
:101BAC00B0BD00BF40C900086CC900087CC9000862
:101BBC00A4C90008CCC900081CCA0008FCC900084C
:101BCC0080B584B000AF78607868FEF7B9FA034648
:101BDC00FB81FB89002B04D0FB891946786809F03E
:101BEC003BFC00BF1037BD4680BD000080B5C2B0C5
:101BFC0000AF00F0DBFD00F007F900F011FB00F086
:101C0C00F1FA00F0FFF900F099FA00F0C1FA09F0CE
:101C1C0009FB00F057F900F045FA634809F042FC63
:101C2C00624B00221A7008226149624800F01CFFC6
:101C3C00614804F0E9F9614804F0E6F901226049D1
:101C4C00604804F05EFE6048FEF716FC0120FFF7CA
:101C5C0011FF642000F00CFE5C48FEF797FC5C481A
:101C6C00FEF786FC5B495C48FEF772FA5B4B5C4AFC
:101C7C001A605A4BFF229A725A4B5B4A1A60594BA4
:101C8C00FF229A7157495548FFF77EFB574B0A22A2
:101C9C001A70574B00221A70564B00221A70564B72
:101CAC0000221A70524B1B78002B02D0504B002292
:101CBC001A70504B1B78002B1AD04E4B00221A7006
:101CCC00FEF70CFCFEF73AFCFFF7A6FB474B1B7824
:101CDC00013BDAB2454B1A70444B1B78002B07D1F1
:101CEC00424B0A221A704FF40051444801F0FCFE9A
:101CFC003C4B1A793B4B5B799A423BD0FEF7CCFAC2
:101D0C000346072B36D10023A7F806311CE0354BD0
:101D1C001A68344B1B79591CC8B2324908711A44E1
:101D2C00B7F80631591CA7F806111946127807F5B1
:101D3C008473A3F582735A542A4B1A79294B9B79D5
:101D4C001340DAB2274B1A71264B1A79254B5B7963
:101D5C009A4203D0B7F80631FF2BD8D9B7F8063121
:101D6C00002B07D0B7F80631B7F80621381D002133
:101D7C00FEF7D4FA224B1B78002B08D064230122E7
:101D8C001F49104804F032FD1D4B00221A70074BFE
:101D9C001B7819461B4809F05FFB0346002B81D1C9
:101DAC00024B00221A707DE77D190008FC0600200A
:101DBC001C09002068040020DC04002024050020FD
:101DCC00010700206C05002008000020CD1B000836
:101DDC00E11A000830CA00083CCA000804090020B7
:101DEC00040700201409002004080020FE0600202F
:101DFC00FD060020FF060020020700200010014015
:101E0C0000070020FC05002080B594B000AF07F15E
:101E1C00280328220021184609F09CFF07F114031F
:101E2C0000221A605A609A60DA601A613B1D002227
:101E3C001A605A609A60DA600123BB624FF48033F7
:101E4C00FB6200233B630123BB6302237B644FF4DF
:101E5C008033BB644FF4E013FB6407F1280318468E
:101E6C0003F0BCFB0346002B01D000F047FA0F2314
:101E7C007B610223BB610023FB614FF480633B62F7
:101E8C0000237B6207F114030221184603F028FE9D
:101E9C000346002B01D000F031FA12237B604FF483
:101EAC000043FB6000233B613B1D184603F0A6FF7B
:101EBC000346002B01D000F021FA00BF5037BD467D
:101ECC0080BD000080B584B000AF3B1D00221A60BD
:101EDC005A609A60494B4A4A1A60484B4FF48072D8
:101EEC009A60464B00221A73444B00221A75434BDE
:101EFC000022DA61414B00225A60404B08221A61E1
:101F0C003E4800F0D9FC0346002B01D000F0F6F956
:101F1C0000237B600123BB600023FB603B1D194643
:101F2C00364800F09BFE0346002B01D000F0E6F98A
:101F3C0001237B600223BB603B1D19462F4800F038
:101F4C008DFE0346002B01D000F0D8F904237B60F2
:101F5C000323BB603B1D1946284800F07FFE034657
:101F6C00002B01D000F0CAF905237B600423BB6071
:101F7C003B1D1946214800F071FE0346002B01D091
:101F8C0000F0BCF906237B600523BB603B1D1946A2
:101F9C001A4800F063FE0346002B01D000F0AEF9A6
:101FAC0007237B600623BB603B1D1946134800F0DA
:101FBC0055FE0346002B01D000F0A0F908237B60EE
:101FCC000723BB603B1D19460C4800F047FE034637
:101FDC00002B01D000F092F909237B600823BB6031
:101FEC003B1D1946054800F039FE0346002B01D075
:101FFC0000F084F900BF1037BD4680BD6804002096
:10200C000024014080B586B000AF07F10803002220
:10201C001A605A609A60DA603B4600221A605A6075
:10202C001E4B1F4A1A601D4B47225A601B4B002245
:10203C009A601A4BF922DA60184B00221A61174B7E
:10204C0000225A61154B00229A61144803F08CFF50
:10205C000346002B01D000F051F94FF48053BB60C4
:10206C0007F1080319460D4804F010F90346002B3C
:10207C0001D000F043F920233B6000237B603B46FA
:10208C001946064804F0F2FA0346002B01D000F082
:10209C0035F900BF1837BD4680BD00BFDC040020F9
:1020AC00002C014080B586B000AF07F10803002278
:1020BC001A605A609A60DA603B4600221A605A60D5
:1020CC001D4B4FF080421A601B4B41F61F425A6069
:1020DC00194B00229A60184B6322DA60164B0022CF
:1020EC001A61154B00229A61134803F03DFF034619
:1020FC00002B01D000F002F94FF48053BB6007F1C4
:10210C00080319460C4804F0C1F80346002B01D013
:10211C0000F0F4F800233B6000237B603B4619463B
:10212C00054804F0A3FA0346002B01D000F0E6F8B2
:10213C0000BF1837BD4680BD2405002080B500AF18
:10214C00114B124A1A60104B4FF4E1325A600E4B8D
:10215C0000229A600C4B0022DA600B4B00221A61B1
:10216C00094B0C225A61084B00229A61064B002243
:10217C00DA61054804F0EAFA0346002B01D000F0BE
:10218C00BDF800BF80BD00BF6C05002000380140C9
:10219C0080B500AF114B124A1A60104B4FF4E1326C
:1021AC005A600E4B00229A600C4B0022DA600B4BEB
:1021BC0000221A61094B0C225A61084B00229A61C9
:1021CC00064B0022DA61054804F0C0FA0346002BE6
:1021DC0001D000F093F800BF80BD00BFB405002013
:1021EC000044004080B582B000AF0C4B5B690B4AD9
:1021FC0043F001035361094B5B6903F001037B60FE
:10220C007B68002200210B2000F0F9FF0B2001F06D
:10221C0012F800BF0837BD4680BD00BF0010024059
:10222C0080B588B000AF07F1100300221A605A6025
:10223C009A60DA602E4B9B692D4A43F01003936130
:10224C002B4B9B6903F01003FB60FB68284B9B69CD
:10225C00274A43F020039361254B9B6903F020032D
:10226C00BB60BB68224B9B69214A43F0040393611A
:10227C001F4B9B6903F004037B607B681C4B9B69C1
:10228C001B4A43F008039361194B9B6903F0080345
:10229C003B603B6800224FF40051164801F00CFCE7
:1022AC0000224FF40061144801F006FC4FF4005377
:1022BC003B6101237B610023BB610223FB6107F1BE
:1022CC00100319460B4801F073FA4FF400633B619D
:1022DC0001237B610023BB610223FB6107F1100327
:1022EC001946054801F064FA00BF2037BD4680BD91
:1022FC000010024000100140000C014080B400AFFF
:10230C0072B600BF00BFFDE780B485B000AF154BBF
:10231C009B69144A43F001039361124B9B6903F0D0
:10232C000103BB60BB680F4BDB690E4A43F0805363
:10233C00D3610C4BDB6903F080537B607B680A4BE9
:10234C005B68FB60FB6823F0E063FB60FB6843F0B9
:10235C000073FB60044AFB68536000BF1437BD4632
:10236C0080BC7047001002400000014080B58AB06C
:10237C0000AF786007F1180300221A605A609A6067
:10238C00DA607B681B68344A934260D1334B9B699B
:10239C00324A43F400739361304B9B6903F400732E
:1023AC007B617B692D4B9B692C4A43F00403936141
:1023BC002A4B9B6903F004033B613B69274B9B69E8
:1023CC00264A43F008039361244B9B6903F00803EE
:1023DC00FB60FB68F323BB610323FB6107F118036C
:1023EC0019461F4801F0E4F90323BB610323FB6189
:1023FC0007F1180319461B4801F0DAF91A4B1B4A6E
:10240C001A60194B00225A60174B00229A60164B27
:10241C008022DA60144B4FF480721A61124B4FF425
:10242C0080625A61104B00229A610F4B4FF480521C
:10243C00DA610D4800F01AFF0346002B01D0FFF7BC
:10244C005DFF7B68084A1A62074A7B68536200BFCB
:10245C002837BD4680BD00BF00240140001002405B
:10246C0000080140000C01409804002008000240C4
:10247C0080B584B000AF78607B681B681A4A9342C1
:10248C0014D11A4B9B69194A43F400639361174B9F
:10249C009B6903F40063FB60FB6800220021192098
:1024AC0000F0ADFE192000F0C6FE18E07B681B683A
:1024BC00B3F1804F13D10D4BDB690C4A43F0010390
:1024CC00D3610A4BDB6903F00103BB60BB680022DC
:1024DC0000211C2000F093FE1C2000F0ACFE00BF7D
:1024EC001037BD4680BD00BF002C014000100240DB
:1024FC0080B58AB000AF786007F1180300221A602B
:10250C005A609A60DA607B681B683F4A93423AD102
:10251C003E4B9B693D4A43F4804393613B4B9B6923
:10252C0003F480437B617B69384B9B69374A43F0EA
:10253C0004039361354B9B6903F004033B613B69D6
:10254C004FF40073BB610223FB6103237B6207F131
:10255C00180319462E4801F02BF94FF48063BB6128
:10256C000023FB6100233B6207F11803194628483E
:10257C0001F01EF900220021252000F040FE25204C
:10258C0000F059FE3CE07B681B68224A934237D12D
:10259C001E4BDB691D4A43F40033D3611B4BDB69D3
:1025AC0003F40033FB60FB68184B9B69174A43F03C
:1025BC0004039361154B9B6903F00403BB60BB6878
:1025CC000423BB610223FB6103237B6207F1180325
:1025DC0019460F4801F0ECF80823BB610023FB619E
:1025EC0000233B6207F118031946094801F0E0F893
:1025FC0000220021262000F002FE262000F01BFE07
:10260C0000BF2837BD4680BD003801400010024095
:10261C00000801400044004080B400AF00BFFDE75B
:10262C0080B400AF00BFFDE780B400AF00BFFDE792
:10263C0080B400AF00BFFDE780B400AF00BFFDE782
:10264C0080B400AF00BFBD4680BC704780B400AF03
:10265C0000BFBD4680BC704780B400AF00BFBD4614
:10266C0080BC704780B500AF00F0E6F800BF80BDBD
:10267C0080B500AF024800F067FF00BF80BD00BF0F
:10268C009804002080B500AF024801F062FB00BF47
:10269C0080BD00BF8812002080B500AF024803F057
:1026AC0005FD00BF80BD00BFDC04002080B500AF7D
:1026BC00024803F0FBFC00BF80BD00BF24050020D6
:1026CC0080B500AF024804F041F900BF80BD00BFE7
:1026DC006C05002080B500AF024804F037F900BF4C
:1026EC0080BD00BFB405002080B586B000AF786017
:1026FC00144A154BD31A7B617B693B61134B1B68E6
:10270C00002B02D1114B124A1A60104B1A687B68CD
:10271C0013443A699A4207D209F038FB03460C225B
:10272C001A604FF0FF3309E0084B1B68FB60074B46
:10273C001A687B681344054A1360FB6818461837FF
:10274C00BD4680BD0050002000040000B4090020EC
:10275C00C818002080B400AF00BFBD4680BC7047D5
:10276C00FFF7F8FF0B480C490C4A002302E0D45841
:10277C00C4500433C4188C42F9D3094A094C0023C1
:10278C0001E013600432A242FBD309F005FBFFF712
:10279C002DFA704700000020F001002004CD000845
:1027AC00F0010020C8180020FEE7000080B500AF43
:1027BC00084B1B68074A43F010031360032000F01A
:1027CC0013FD0F2000F008F8FFF79EFD00231846BC
:1027DC0080BD00BF0020024080B582B000AF7860A1
:1027EC00124B1A68124B1B7819464FF47A73B3FBD1
:1027FC00F1F3B2FBF3F3184600F02BFD0346002B6C
:10280C0001D001230EE07B680F2B0AD800227968D7
:10281C004FF0FF3000F0F3FC064A7B681360002396
:10282C0000E0012318460837BD4680BD1C0000207F
:10283C00240000202000002080B400AF054B1B7842
:10284C001A46054B1B681344034A136000BFBD4670
:10285C0080BC704724000020B809002080B400AF71
:10286C00024B1B681846BD4680BC7047B809002057
:10287C0080B584B000AF7860FFF7F0FFB8607B687C
:10288C00FB60FB68B3F1FF3F05D00A4B1B781A467F
:10289C00FB681344FB6000BFFFF7E0FF0246BB6818
:1028AC00D31AFA689A42F7D800BF00BF1037BD465A
:1028BC0080BD00BF2400002080B586B000AF7860DA
:1028CC000023FB7500233B610023BB600023FB60EE
:1028DC007B68002B01D10123BEE07B689B68002B39
:1028EC007B689B6A002B09D17B680022DA627B68CB
:1028FC00002283F824207868FFF738FD786800F010
:10290C00FFFA0346FB757B689B6A03F01003002BF0
:10291C0040F09980FB7D002B40F095807B689B6A92
:10292C0023F4885323F0020343F002027B689A627B
:10293C007B685A687B68DB691A437B681B7B5B008E
:10294C001343BA681343BB607B689B68B3F5807F05
:10295C0003D07B689B68012B02D14FF4807300E09D
:10296C0000233A6913433B617B681B7D012B19D112
:10297C007B681B7B002B09D17B689B69013B5A034D
:10298C003B69134343F400633B610BE07B689B6A38
:10299C0043F020027B689A627B68DB6A43F0010299
:1029AC007B68DA627B681B685B6823F469417B682F
:1029BC001B683A690A435A607B681B689A68284B03
:1029CC0013407A681268B9680B4393607B689B6804
:1029DC00B3F5807F03D07B689B68012B04D17B68A7
:1029EC001B69013B1B05FB607B681B68DB6A23F4DE
:1029FC0070017B681B68FA680A43DA627B681B68A3
:102A0C009A68184B1340BA689A420BD17B68002223
:102A1C00DA627B689B6A23F0030343F001027B6854
:102A2C009A6218E07B689B6A23F0120343F0100251
:102A3C007B689A627B68DB6A43F001027B68DA622E
:102A4C000123FB7507E07B689B6A43F010027B68EF
:102A5C009A620123FB75FB7D18461837BD4680BD75
:102A6C00FDF7E1FFFE0E1FFF80B586B000AFF860EA
:102A7C00B9607A600023FB75FB681B68644A93425B
:102A8C0004D0FB681B68634A934206D1604B5B68B9
:102A9C0003F47023002B40F0B380FB6893F82430D0
:102AAC00012B01D10223AEE0FB68012283F8242024
:102ABC00F86800F0CBF90346FB75FB7D002B40F06A
:102ACC009A80FB689B6A23F4706323F0010343F440
:102ADC008072FB689A62FB681B684E4A934205D170
:102AEC004B4B5B6803F47023002B15D1FB689B6A7E
:102AFC0023F48012FB689A62FB681B685B6803F422
:102B0C008063002B26D0FB689B6A23F4405343F46C
:102B1C008052FB689A621DE0FB689B6A43F480124A
:102B2C00FB689A62FB681B68394A934204D0FB68C5
:102B3C001B68384A93420DD1354B5B6803F48063B4
:102B4C00002B07D0FB689B6A23F4405343F480525C
:102B5C00FB689A62FB689B6A03F48053002B06D0D7
:102B6C00FB68DB6A23F00602FB68DA6202E0FB68B2
:102B7C000022DA62FB68002283F82420FB681B6ABF
:102B8C00254A9A62FB681B6A244ADA62FB681B6A54
:102B9C00234A1A63FB681B686FF002021A60FB6819
:102BAC001B689A68FB681B6842F480729A60FB6829
:102BBC00186AFB681B684C331946BA687B6800F0CE
:102BCC00AFFBFB681B689B6803F46023B3F5602FB5
:102BDC0008D1FB681B689A68FB681B6842F4A0026A
:102BEC009A600FE0FB681B689A68FB681B6842F4EC
:102BFC0080129A6006E0FB68002283F8242001E032
:102C0C000123FB75FB7D18461837BD4680BD00BF00
:102C1C0000240140002801408F2F00080B300008D1
:102C2C002730000880B483B000AF786000BF0C3749
:102C3C00BD4680BC704780B483B000AF786000BFE5
:102C4C000C37BD4680BC704780B483B000AF786051
:102C5C0000BF0C37BD4680BC7047000080B485B007
:102C6C0000AF786039600023FB730023BB607B6886
:102C7C0093F82430012B01D10223DCE07B68012284
:102C8C0083F824203B685B68062B1CD87B681B6888
:102C9C00596B3B685A6813469B001344053B1F2233
:102CAC0002FA03F3DB4319403B6818683B685A6827
:102CBC0013469B001344053B00FA03F27B681B6828
:102CCC000A435A633CE03B685B680C2B1CD87B685E
:102CDC001B68196B3B685A6813469B001344233BD3
:102CEC001F2202FA03F3DB4319403B6818683B6868
:102CFC005A6813469B001344233B00FA03F27B688B
:102D0C001B680A431A631BE07B681B68D96A3B6823
:102D1C005A6813469B001344413B1F2202FA03F3EB
:102D2C00DB4319403B6818683B685A6813469B00A4
:102D3C001344413B00FA03F27B681B680A43DA62D6
:102D4C003B681B68092B1CD97B681B68D9683B68DE
:102D5C001A6813465B0013441E3B072202FA03F366
:102D6C00DB4319403B6898683B681A6813465B0064
:102D7C0013441E3B00FA03F27B681B680A43DA60BB
:102D8C0019E07B681B6819693B681A6813465B007D
:102D9C001344072202FA03F3DB4319403B6898689B
:102DAC003B681A6813465B00134400FA03F27B6815
:102DBC001B680A431A613B681B68102B03D03B68E5
:102DCC001B68112B32D17B681B681D4A934225D19D
:102DDC007B681B689B6803F40003002B26D17B687F
:102DEC001B689A687B681B6842F400029A603B6817
:102DFC001B68102B1AD1134B1B68134AA2FB03231D
:102E0C009A0C13469B0013445B00BB6002E0BB684A
:102E1C00013BBB60BB68002BF9D107E07B689B6A68
:102E2C0043F020027B689A620123FB737B680022CB
:102E3C0083F82420FB7B18461437BD4680BC7047B2
:102E4C00002401401C00002083DE1B4380B584B0AD
:102E5C0000AF78600023FB600023BB607B681B68BD
:102E6C009B6803F00103012B40D07B681B689A68B8
:102E7C007B681B6842F001029A601F4B1B681F4A5B
:102E8C00A2FB03239B0CBB6002E0BB68013BBB6055
:102E9C00BB68002BF9D1FFF7E1FCF8601FE0FFF7EE
:102EAC00DDFC0246FB68D31A022B18D97B681B6821
:102EBC009B6803F00103012B11D07B689B6A43F0E4
:102ECC0010027B689A627B68DB6A43F001027B68C4
:102EDC00DA627B68002283F82420012307E07B68F8
:102EEC001B689B6803F00103012BD8D10023184603
:102EFC001037BD4680BD00BF1C00002083DE1B4385
:102F0C0080B584B000AF78600023FB607B681B68E1
:102F1C009B6803F00103012B2ED17B681B689A6818
:102F2C007B681B6822F001029A60FFF797FCF8603F
:102F3C001BE0FFF793FC0246FB68D31A022B14D953
:102F4C007B681B689B6803F00103012B0DD17B6828
:102F5C009B6A43F010027B689A627B68DB6A43F0E1
:102F6C0001027B68DA62012307E07B681B689B68BF
:102F7C0003F00103012BDCD0002318461037BD46AB
:102F8C0080BD80B584B000AF78607B685B6AFB6005
:102F9C00FB689B6A03F05003002B27D1FB689B6AEC
:102FAC0043F40072FB689A62FB681B689B6803F42D
:102FBC006023B3F5602F15D1FB681B7B002B11D15F
:102FCC00FB689B6A23F48072FB689A62FB689B6ABD
:102FDC0003F48053002B05D1FB689B6A43F001027C
:102FEC00FB689A62F868FFF71DFE04E0FB681B6A39
:102FFC001B6B7868984700BF1037BD4680BD80B505
:10300C0084B000AF78607B685B6AFB60F868FFF7A0
:10301C0012FE00BF1037BD4680BD80B584B000AF36
:10302C0078607B685B6AFB60FB689B6A43F04002DC
:10303C00FB689A62FB68DB6A43F00402FB68DA62A5
:10304C00F868FFF701FE00BF1037BD4680BD0000D9
:10305C0080B485B000AF78607B6803F00703FB6039
:10306C000C4BDB68BB60BA684FF6FF031340BB60C8
:10307C00FB681A02BB68134343F0BF6343F400338D
:10308C00BB60044ABB68D36000BF1437BD4680BC2C
:10309C00704700BF00ED00E080B400AF044BDB686C
:1030AC001B0A03F007031846BD4680BC704700BFDF
:1030BC0000ED00E080B483B000AF0346FB7197F9DC
:1030CC000730002B0BDBFB7903F01F02064997F945
:1030DC0007305B09012000FA02F241F8232000BFFF
:1030EC000C37BD4680BC704700E100E080B483B073
:1030FC0000AF03463960FB7197F90730002B0ADBF0
:10310C003B68DAB20C4997F907301201D2B20B4482
:10311C0083F800230AE03B68DAB20849FB7903F034
:10312C000F03043B1201D2B20B441A7600BF0C37CA
:10313C00BD4680BC704700BF00E100E000ED00E040
:10314C0080B489B000AFF860B9607A60FB6803F0B6
:10315C000703FB61FB69C3F10703042B28BF04239E
:10316C00BB61FB690433062B02D9FB69033B00E00E
:10317C0000237B614FF0FF32BB6902FA03F3DA43A1
:10318C00BB681A407B699A404FF0FF317B6901FAAA
:10319C0003F3D9437B680B40134318462437BD46D1
:1031AC0080BC704780B582B000AF78607B68013B13
:1031BC00B3F1807F01D301230FE00A4A7B68013B06
:1031CC0053600F214FF0FF30FFF790FF054B0022AB
:1031DC009A60044B07221A60002318460837BD4634
:1031EC0080BD00BF10E000E080B582B000AF786019
:1031FC007868FFF72DFF00BF0837BD4680BD80B54E
:10320C0086B000AF0346B9607A60FB7300237B6124
:10321C00FFF742FF78617A68B9687869FFF790FF29
:10322C00024697F90F3011461846FFF75FFF00BFB3
:10323C001837BD4680BD80B582B000AF0346FB7128
:10324C0097F907301846FFF735FF00BF0837BD4622
:10325C0080BD80B582B000AF78607868FFF7A2FFC0
:10326C00034618460837BD4680BD000080B485B0C3
:10327C0000AF78600023FB607B68002B01D1012339
:10328C0043E07B681B681A46224B1344224AA2FB7C
:10329C0003231B099A007B681A647B681F4ADA6354
:1032AC007B68022283F821207B681B681B68FB600B
:1032BC00FB6823F47F5323F03003FB607B685A6870
:1032CC007B689B681A437B68DB681A437B681B69C5
:1032DC001A437B685B691A437B689B691A437B685A
:1032EC00DB691343FA681343FB607B681B68FA685D
:1032FC001A607B6800229A637B68012283F8212084
:10330C007B68002283F82020002318461437BD4622
:10331C0080BC7047F8FFFDBFCDCCCCCC0000024088
:10332C0080B586B000AFF860B9607A603B6000236E
:10333C00FB75FB6893F82030012B01D102234BE085
:10334C00FB68012283F82020FB6893F82130DBB264
:10335C00012B3AD1FB68022283F82120FB68002262
:10336C009A63FB681B681A68FB681B6822F00102F1
:10337C001A603B687A68B968F86800F0EBF9FB688A
:10338C00DB6A002B08D0FB681B681A68FB681B689B
:10339C0042F00E021A600FE0FB681B681A68FB68AB
:1033AC001B6822F004021A60FB681B681A68FB6831
:1033BC001B6842F00A021A60FB681B681A68FB68FB
:1033CC001B6842F001021A6005E0FB68002283F8DA
:1033DC0020200223FB75FB7D18461837BD4680BDA7
:1033EC0080B485B000AF78600023FB737B6893F8E2
:1033FC002130DBB2022B08D07B6804229A637B68F5
:10340C00002283F82020012320E07B681B681A68C7
:10341C007B681B6822F00E021A607B681B681A68B6
:10342C007B681B6822F001021A607B681A6C7B684F
:10343C00DB6B012101FA02F25A607B68012283F8EE
:10344C0021207B68002283F82020FB7B1846143750
:10345C00BD4680BC7047000080B584B000AF78607A
:10346C000023FB737B6893F82130DBB2022B05D071
:10347C007B6804229A630123FB7351E07B681B6811
:10348C001A687B681B6822F00E021A607B681B6846
:10349C001A687B681B6822F001021A607B681B6843
:1034AC00224A934229D07B681B68214A934222D03E
:1034BC007B681B681F4A93421AD07B681B681E4AA4
:1034CC00934212D07B681B681C4A93420AD07B68DB
:1034DC001B681B4A934202D14FF480130EE04FF04D
:1034EC0080730BE04FF4803308E04FF4805305E019
:1034FC004FF4807302E0102300E00123114A536063
:10350C007B68012283F821207B68002283F820202D
:10351C007B685B6B002B03D07B685B6B7868984790
:10352C00FB7B18461037BD4680BD00BF080002402B
:10353C001C0002403000024044000240580002408F
:10354C006C0002400000024080B584B000AF78608F
:10355C007B68DB6B1B68FB607B681B681B68BB6054
:10356C007B681B6C04229A40FB681340002B4FD0E5
:10357C00BB6803F00403002B4AD07B681B681B68F4
:10358C0003F02003002B07D17B681B681A687B684B
:10359C001B6822F004021A607B681B68664A93421F
:1035AC0029D07B681B68654A934222D07B681B68D4
:1035BC00634A93421AD07B681B68624A934212D0CA
:1035CC007B681B68604A93420AD07B681B685F4A21
:1035DC00934202D14FF480030EE04FF080630BE076
:1035EC004FF4802308E04FF4804305E04FF48063F0
:1035FC0002E0402300E00423554A53607B68DB6AF9
:10360C00002B00F094807B68DB6A786898478EE02A
:10361C007B681B6C02229A40FB681340002B56D02F
:10362C00BB6803F00203002B51D07B681B681B683E
:10363C0003F02003002B0BD17B681B681A687B6896
:10364C001B6822F00A021A607B68012283F8212091
:10365C007B681B68384A934229D07B681B68374AC1
:10366C00934222D07B681B68354A93421AD07B6800
:10367C001B68344A934212D07B681B68324A9342CF
:10368C000AD07B681B68314A934202D14FF4001375
:10369C000EE04FF000730BE04FF4003308E04FF4F2
:1036AC00005305E04FF4007302E0202300E00223F6
:1036BC00274A53607B68002283F820207B689B6A32
:1036CC00002B34D07B689B6A786898472FE07B6826
:1036DC001B6C08229A40FB681340002B28D0BB6857
:1036EC0003F00803002B23D07B681B681A687B68E7
:1036FC001B6822F00E021A607B681A6C7B68DB6B0D
:10370C00012101FA02F25A607B6801229A637B68FC
:10371C00012283F821207B68002283F820207B681B
:10372C001B6B002B04D07B681B6B7868984700BF21
:10373C0000BF1037BD4680BD080002401C0002408F
:10374C003000024044000240580002406C0002402D
:10375C000000024080B485B000AFF860B9607A60B8
:10376C003B60FB681A6CFB68DB6B012101FA02F20F
:10377C005A60FB681B683A685A60FB685B68102BE0
:10378C0008D1FB681B687A689A60FB681B68BA688A
:10379C00DA6007E0FB681B68BA689A60FB681B6814
:1037AC007A68DA6000BF1437BD4680BC70470000F1
:1037BC0080B48BB000AF7860396000237B6200234B
:1037CC003B6269E101227B6A02FA03F3FB613B680D
:1037DC001B68FA691340BB61BA69FB699A4240F0F5
:1037EC0058813B685B689A4A93425ED0984A9342F0
:1037FC0075D8984A934258D0964A93426FD8964AB5
:10380C00934252D0944A934269D8944A93424CD0F2
:10381C00924A934263D8924A934246D0904A93423A
:10382C005DD8122B2AD8122B59D801A252F823F0AA
:10383C00B738000891380008A3380008E5380008AC
:10384C00EB380008EB380008EB380008EB380008C0
:10385C00EB380008EB380008EB380008EB380008B0
:10386C00EB380008EB380008EB380008EB380008A0
:10387C00EB38000899380008AD380008794A9342B3
:10388C0013D02CE03B68DB683B6229E03B68DB68CB
:10389C0004333B6224E03B68DB6808333B621FE087
:1038AC003B68DB680C333B621AE03B689B68002B7F
:1038BC0002D104233B6213E03B689B68012B05D1CA
:1038CC0008233B627B68FA691A6109E008233B62B2
:1038DC007B68FA695A6103E000233B6200E000BF99
:1038EC00BB69FF2B01D87B6801E07B6804337B61EB
:1038FC00BB69FF2B02D87B6A9B0002E07B6A083B0A
:10390C009B003B617B691A680F213B6901FA03F349
:10391C00DB431A40396A3B6901FA03F31A437B69AA
:10392C001A603B685B6803F08053002B00F0B18099
:10393C004D4B9B694C4A43F0010393614A4B9B6985
:10394C0003F00103BB60BB68484A7B6A9B080233E7
:10395C0052F82330FB607B6A03F003039B000F22B9
:10396C0002FA03F3DB43FA681340FB607B68404ABE
:10397C00934213D07B683F4A93420DD07B683E4AFA
:10398C00934207D07B683D4A934201D1032306E062
:10399C00042304E0022302E0012300E000237A6AFE
:1039AC0002F0030292009340FA681343FB602F4924
:1039BC007B6A9B080233FA6841F823203B685B68FA
:1039CC0003F48013002B06D02D4B9A682C49BB694D
:1039DC0013438B6006E02A4B9A68BB69DB4328498A
:1039EC0013408B603B685B6803F40013002B06D01C
:1039FC00234BDA682249BB691343CB6006E0204BAA
:103A0C00DA68BB69DB431E491340CB603B685B68DB
:103A1C0003F40033002B06D0194B5A681849BB69C4
:103A2C0013434B6006E0164B5A68BB69DB431449E1
:103A3C0013404B603B685B6803F48033002B21D050
:103A4C000F4B1A680E49BB6913430B6021E000BF92
:103A5C000000321000003110000022100000211074
:103A6C000000121000001110001002400000014074
:103A7C0000080140000C01400010014000140140FE
:103A8C00000401400B4B1A68BB69DB430949134026
:103A9C000B607B6A01337B623B681A687B6A22FA93
:103AAC0003F3002B7FF48EAE00BF00BF2C37BD4656
:103ABC0080BC70470004014080B483B000AF7860D4
:103ACC000B467B8013467B707B78002B03D07A8867
:103ADC007B681A6103E07B881A047B681A6100BF5B
:103AEC000C37BD4680BC704780B485B000AF7860A1
:103AFC000B467B807B68DB68FB607A88FB68134035
:103B0C001A04FB68D9437B880B401A437B681A6103
:103B1C0000BF1437BD4680BC704780B584B000AF81
:103B2C0078607B68002B01D10123E8E07B6893F877
:103B3C009132DBB2002B06D17B68002283F89022F5
:103B4C00786807F0CBFD7B68032283F891227B68B1
:103B5C0000225A717B681B68184603F084FC7B6852
:103B6C0018687B6804330ECB03F05AFC0346002B19
:103B7C0005D07B68022283F891220123BFE07B6889
:103B8C001B680021184603F088FC0346002B05D067
:103B9C007B68022283F891220123B0E00023FB739F
:103BAC003EE0FA7B796813469B001344DB000B4420
:103BBC00113301221A70FA7B796813469B00134467
:103BCC00DB000B441033FA7B1A70FA7B79681346CE
:103BDC009B001344DB000B44133300221A70FA7B56
:103BEC00796813469B001344DB000B4420330022FE
:103BFC001A60FA7B796813469B001344DB000B4474
:103C0C00243300221A60FB7B79685A1C13469B00F4
:103C1C001344DB000B4400221A60FB7B0133FB7363
:103C2C007B681B79FA7B9A42BBD30023FB7344E07D
:103C3C00FA7B796813469B001344DB000B4403F2B8
:103C4C00511300221A70FA7B796813469B001344B7
:103C5C00DB000B4403F5A873FA7B1A70FA7B7968C6
:103C6C0013469B001344DB000B4403F25313002256
:103C7C001A70FA7B796813469B001344DB000B44E3
:103C8C0003F5B07300221A60FA7B796813469B0027
:103C9C001344DB000B4403F5B27300221A60FA7B69
:103CAC00796813469B001344DB000B4403F5B47393
:103CBC0000221A60FB7B0133FB737B681B79FA7B58
:103CCC009A42B5D37B6818687B6804330ECB03F03B
:103CDC00F0FB0346002B05D07B68022283F891226F
:103CEC0001230CE07B6800225A737B68012283F865
:103CFC0091227B681B68184605F06FFE002318465E
:103D0C001037BD4680BD80B582B000AF78607B684F
:103D1C0093F89032012B01D1022316E07B6801222B
:103D2C0083F890227B681B68184603F086FB012100
:103D3C00786807F046FF7B681B68184605F043FE61
:103D4C007B68002283F89022002318460837BD4672
:103D5C0080BD80B588B000AF78607B681B68184662
:103D6C0005F045FEB861BB6903F40043002B03D09A
:103D7C00786800F01AFB19E1BB6903F48063002B2F
:103D8C0013D07B681B68B3F844309AB27B681B680D
:103D9C0022F4806292B2A3F84420786807F019FDEF
:103DAC000021786800F005F900E1BB6903F4804359
:103DBC00002B0CD07B681B68B3F844309AB27B683C
:103DCC001B6822F4804292B2A3F84420EEE0BB6957
:103DDC0003F40053002B0CD07B681B68B3F8443001
:103DEC009AB27B681B6822F4005292B2A3F844206A
:103DFC00DCE0BB6903F48053002B27D07B681B6885
:103E0C00B3F840309AB27B681B6822F0040292B27D
:103E1C00A3F840207B681B68B3F840309AB27B68EB
:103E2C001B6822F0080292B2A3F84020786807F0D1
:103E3C0009FD7B681B68B3F844309AB27B681B6839
:103E4C0022F4805292B2A3F84420AFE0BB6903F491
:103E5C000063002B00F083800023FB7710E07B686D
:103E6C001B681A46FB7F9B001A44FB7F128892B298
:103E7C005B0020333B4423F8182CFB7F0133FB778A
:103E8C00FB7F072BEBD97B681B68B3F840309AB2E9
:103E9C007B681B6842F0010292B2A3F840207B6859
:103EAC001B68B3F840309AB27B681B6822F00102A1
:103EBC0092B2A3F8402000BF7B681B68B3F8443073
:103ECC009BB203F48063002BF6D07B681B68B3F8BD
:103EDC0044309AB27B681B6822F4806292B2A3F8D9
:103EEC0044200023FB770FE0FB7F7A6812681146B1
:103EFC00FA7F92000A445B0020333B4433F8183CB1
:103F0C001380FB7F0133FB77FB7F072BECD97B689E
:103F1C001B68B3F840309AB27B681B6842F0080209
:103F2C0092B2A3F840207B681B68B3F844309AB275
:103F3C007B681B6822F4006292B2A3F844207B6871
:103F4C001B68B3F840309AB27B681B6842F00402DD
:103F5C0092B2A3F84020786807F05AFC26E0BB69BF
:103F6C0003F40073002B0FD07B681B68B3F844304C
:103F7C009AB27B681B6822F4007292B2A3F84420B8
:103F8C00786807F018FC11E0BB6903F48073002B10
:103F9C000CD07B681B68B3F844309AB27B681B6802
:103FAC0022F4807292B2A3F8442000BF2037BD46A1
:103FBC0080BD80B582B000AF78600B46FB707B682B
:103FCC0093F89032012B01D1022312E07B6801227D
:103FDC0083F890227B68FA785A737B681B68FA78AE
:103FEC001146184605F0DCFC7B68002283F8902211
:103FFC00002318460837BD4680BD80B584B000AF9D
:10400C007860084611461A460346FB700B463B8007
:10401C001346BB700023FB7297F90330002B0EDAAA
:10402C00FB7803F0070213469B001344DB001033AC
:10403C007A681344FB60FB6801225A700EE0FB782F
:10404C0003F0070213469B001344DB0003F5A8732F
:10405C007A681344FB60FB6800225A70FB7803F00B
:10406C000703DAB2FB681A703A88FB681A61FB68BE
:10407C00BA78DA70BB78022B02D1FB6800221A7175
:10408C007B6893F89032012B01D102230EE07B6800
:10409C00012283F890227B681B68F968184603F0AC
:1040AC0025FA7B68002283F89022FB7A1846103799
:1040BC00BD4680BD80B584B000AF78600B46FB7008
:1040CC0097F90330002B0EDAFB7803F00702134646
:1040DC009B001344DB0010337A681344FB60FB68CD
:1040EC0001225A700EE0FB7803F0070213469B0086
:1040FC001344DB0003F5A8737A681344FB60FB6878
:10410C0000225A70FB7803F00703DAB2FB681A70CE
:10411C007B6893F89032012B01D102230EE07B686F
:10412C00012283F890227B681B68F968184603F01B
:10413C009DFD7B68002283F89022002318461037DF
:10414C00BD4680BD80B586B000AFF8607A603B603C
:10415C000B46FB72FB7A03F0070213469B001344D9
:10416C00DB0003F5A873FA6813447B617B697A68FA
:10417C005A617B693A689A617B690022DA617B69D2
:10418C0000225A70FB7A03F00703DAB27B691A70CB
:10419C00FB681B687969184603F054FF0023184626
:1041AC001837BD4680BD80B483B000AF78600B4635
:1041BC00FB70FB7803F00702796813469B001344ED
:1041CC00DB000B4403F5B6731B6818460C37BD4671
:1041DC0080BC704780B586B000AFF8607A603B60F9
:1041EC000B46FB72FB7A03F0070213469B00134449
:1041FC00DB001033FA6813447B617B697A685A617F
:10420C007B693A689A617B69012283F824207B6977
:10421C003A681A627B690022DA617B6901225A7062
:10422C00FB7A03F00703DAB27B691A70FB681B6830
:10423C007969184603F006FF002318461837BD4667
:10424C0080BD80B584B000AF78600B46FB70FB7806
:10425C0003F007037A681279934201D901234CE0E9
:10426C0097F90330002B0EDAFB7803F007021346A4
:10427C009B001344DB0010337A681344FB60FB682B
:10428C0001225A700CE0FA7813469B001344DB00B1
:10429C0003F5A8737A681344FB60FB6800225A701C
:1042AC00FB6801229A70FB7803F00703DAB2FB6813
:1042BC001A707B6893F89032012B01D102231CE019
:1042CC007B68012283F890227B681B68F96818468A
:1042DC0005F069FAFB7803F00703002B08D17B6823
:1042EC001A687B6803F526731946104605F08EFB99
:1042FC007B68002283F89022002318461037BD46B5
:10430C0080BD80B584B000AF78600B46FB70FB7845
:10431C0003F00F037A681279934201D9012340E02C
:10432C0097F90330002B0EDAFB7803F007021346E3
:10433C009B001344DB0010337A681344FB60FB686A
:10434C0001225A700EE0FB7803F0070213469B0023
:10435C001344DB0003F5A8737A681344FB60FB6815
:10436C0000225A70FB6800229A70FB7803F0070356
:10437C00DAB2FB681A707B6893F89032012B01D18A
:10438C0002230EE07B68012283F890227B681B6875
:10439C00F968184605F057FA7B68002283F89022DA
:1043AC00002318461037BD4680BD80B596B000AFCF
:1043BC007860BBE37B681B68B3F84430A7F84E30D9
:1043CC00B7F84E30DBB203F00F0387F84D3097F897
:1043DC004D30002B40F07581B7F84E3003F01003D0
:1043EC00002B4ED17B681B681B889BB223F4E143E6
:1043FC0023F07003FB817B681A68FB896FEA4343E7
:10440C006FEA53439BB213807B6810337B657B68E8
:10441C001B68B3F850309BB21A467B6D1B78DB00DF
:10442C00134402335B007A681268134403F580630B
:10443C001B88C3F309027B6DDA617B6D5A697B6D56
:10444C00DB691A447B6D5A610021786807F099F991
:10445C007B685B7BDBB2002B00F068837B6D9B6918
:10446C00002B40F063837B685B7BDBB263F07F03E4
:10447C00DAB27B681B68A3F84C207B6800225A7365
:10448C0054E37B6803F5A8737B657B681B681B880A
:10449C00A7F84A30B7F84A3003F40063002B34D045
:1044AC007B681B68B3F850309BB21A467B6D1B7847
:1044BC00DB00134406335B007A681268134403F57F
:1044CC0080631B88C3F309027B6DDA617B68186813
:1044DC007B6803F526717B6DDA887B6DDB699BB29B
:1044EC0005F0E5FA7B681B681B889AB240F68F735F
:1044FC0013403B827B681B683A8A42F0800292B27E
:10450C001A80786807F010F910E3B7F94A30002BDD
:10451C0080F20C837B681B681B889AB240F68F7301
:10452C001340FB837B681B68FA8B42F0800292B2CB
:10453C001A807B681B68B3F850309BB21A467B6DAF
:10454C001B78DB00134406335B007A681268134453
:10455C0003F580631B88C3F309027B6DDA617B6D05
:10456C00DB69002B19D07B6D5B69002B15D07B6848
:10457C0018687B6D59697B6DDA887B6DDB699BB242
:10458C0005F095FA7B6D5A697B6DDB691A447B6D7E
:10459C005A610021786807F0D9F87B681B681B8882
:1045AC00A7F84A30B7F84A3003F40063002B40F008
:1045BC00BD82B7F84A3003F44053B3F5405F00F0C6
:1045CC00B5827B681B68BB617B681B68B3F8503095
:1045DC009BB21A46BB691344BB61BB6903F20C4323
:1045EC007B617B691B889BB2C3F309039AB27B691D
:1045FC001A807B6D1B693E2B1DD97B6D1B695B097A
:10460C007B647B6D1B6903F01F03002B02D17B6C59
:10461C00013B7B647B691B889AB27B6C9BB29B02CF
:10462C009BB213439BB26FEA43436FEA53439AB274
:10463C007B691A8026E07B6D1B69002B0AD17B6994
:10464C001B889BB26FEA43436FEA53439AB27B6970
:10465C001A8017E07B6D1B695B087B647B6D1B69A3
:10466C0003F00103002B02D07B6C01337B647B696C
:10467C001B889AB27B6C9BB29B029BB213439AB27F
:10468C007B691A807B681B681B889BB223F4804370
:10469C0023F070037B827B8A83F480537B827B8A3A
:1046AC0083F400537B827B681A687B8A43F07F43D8
:1046BC0043F47F0343F4004343F080039BB2138025
:1046CC0034E27B681B681A4697F84D309B00134404
:1046DC001B88A7F84A30B7F94A30002B80F2FC80CF
:1046EC007B681B681A4697F84D309B0013441B8857
:1046FC009AB240F68F731340A7F848307B681B685A
:10470C001A4697F84D309B001344B7F8482042F0F6
:10471C00800292B21A8097F84D2013469B001344E6
:10472C00DB0003F5A8737A6813447B657B6D1B7BF8
:10473C00002B25D17B681B68B3F850309BB21A460E
:10474C007B6D1B78DB00134406335B007A681268C0
:10475C00134403F580631B88C3F30903A7F8503097
:10476C00B7F85030002B00F092807B6818687B6D96
:10477C0059697B6DDA88B7F8503005F098F986E006
:10478C007B6DDB78022B0AD1B7F84A301A46796D6B
:10479C00786800F0D9F90346A7F8503077E07B68C9
:1047AC001B681A467B6D1B789B0013441B889BB2BD
:1047BC0023F4E04323F07003A7F852307B681B68A6
:1047CC001A467B6D1B789B001A44B7F8523043F0A5
:1047DC007F4343F47F0343F4004343F0C0039BB295
:1047EC0013807B681B681A467B6D1B789B001344F7
:1047FC001B889BB203F48043002B24D07B681B687E
:10480C00B3F850309BB21A467B6D1B78DB00134417
:10481C0002335B007A681268134403F580631B88CB
:10482C00C3F30903A7F85030B7F85030002B2ED043
:10483C007B6818687B6D59697B6D1A89B7F85030A5
:10484C0005F035F923E07B681B68B3F850309BB258
:10485C001A467B6D1B78DB00134406335B007A68C9
:10486C001268134403F580631B88C3F30903A7F88C
:10487C005030B7F85030002B09D07B6818687B6D2E
:10488C0059697B6D5A89B7F8503005F010F97B6D7A
:10489C00DA69B7F850301A447B6DDA617B6D5A696E
:1048AC00B7F850301A447B6D5A617B6D9B69002BB5
:1048BC0005D0B7F850207B6D1B699A4206D27B6DF0
:1048CC001B781946786806F041FF05E07B681B6889
:1048DC00796D184603F0B6FBB7F84A3003F0800345
:1048EC00002B00F0238197F84D2013469B001344B6
:1048FC00DB0010337A6813447B657B681B681A46AF
:10490C0097F84D309B0013441B889BB223F4E14372
:10491C0023F07003A7F842307B681B681A4697F89F
:10492C004D309B001A44B7F842306FEA43436FEAAC
:10493C0053439BB213807B6DDB78012B40F0A2803C
:10494C007B6D00229A617B6D1B7B002B00F09380AA
:10495C00B7F84A3003F04003002B46D07B6D5B78F0
:10496C00002B26D17B681B687B627B681B68B3F8C5
:10497C0050309BB21A467B6A13447B627B6D1B786A
:10498C001A017B6A134403F204433B623B6A1B88A3
:10499C009BB2C3F309039AB23B6A1A803B6A1B8829
:1049AC009BB26FEA43436FEA53439AB23B6A1A8055
:1049BC0061E07B6D5B78012B5DD17B681B68FB62D2
:1049CC007B681B68B3F850309BB21A46FB6A1344E1
:1049DC00FB627B6D1B781A01FB6A134403F20443E0
:1049EC00BB62BB6A00221A8045E07B681B68FB63D4
:1049FC007B6D5B78002B26D17B681B687B637B68A7
:104A0C001B68B3F850309BB21A467B6B13447B6324
:104A1C007B6D1B781A017B6B134403F20C433B63D5
:104A2C003B6B1B889BB2C3F309039AB23B6B1A8096
:104A3C003B6B1B889BB26FEA43436FEA53439AB2BA
:104A4C003B6B1A8017E07B6D5B78012B13D17B6875
:104A5C001B68B3F850309BB21A46FB6B1344FB63D4
:104A6C007B6D1B781A01FB6B134403F20C43BB6385
:104A7C00BB6B00221A807B6D1B781946786806F098
:104A8C0080FE53E0B7F84A3003F48073002B46D114
:104A9C007B681B68B3F850309BB21A467B6D1B7851
:104AAC00DB00134402335B007A681268134403F58D
:104ABC0080631B88C3F30903A7F840307B6D9A69A8
:104ACC00B7F840309A4207D97B6D9A69B7F84030F5
:104ADC00D21A7B6D9A6102E07B6D00229A617B6D2C
:104AEC009B69002B06D17B6D1B781946786806F004
:104AFC0048FE1BE07B6D5A69B7F840301A447B6D59
:104B0C005A617B6DDA69B7F840301A447B6DDA6113
:104B1C007B681B68796D184603F094FA06E0B7F8C9
:104B2C004A301A46796D786800F01BF97B681B686F
:104B3C00B3F844309BB21BB2002BFFF63BAC002306
:104B4C0018465837BD4680BD80B588B000AFF860B8
:104B5C00B9601346FB80FB8803F48043002B7ED0A6
:104B6C00FB681B68B3F850309BB21A46BB681B78C5
:104B7C00DB00134402335B00FA681268134403F53C
:104B8C0080631B88C3F309037B83BB689A697B8BA7
:104B9C009A4206D3BB689A697B8BD21ABB689A611E
:104BAC0002E0BB6800229A61BB689B69002B23D191
:104BBC00FB681B681A46BB681B789B0013441B8858
:104BCC009BB223F4804323F070033B833B8B83F431
:104BDC0000533B83FB681B681A46BB681B789B0021
:104BEC001A443B8B43F07F4343F47F0343F400436D
:104BFC0043F080039BB21380FB8803F04003002B2F
:104C0C001FD0FB681B681A46BB681B789B001344BB
:104C1C001B889BB223F4E04323F07003FB82FB68F8
:104C2C001B681A46BB681B789B001A44FB8A43F02E
:104C3C007F4343F47F0343F4004343F0C0039BB230
:104C4C0013807B8B002B00F08780FB681868BB6897
:104C5C005969BB681A897B8B04F029FF7CE0FB68DF
:104C6C001B68B3F850309BB21A46BB681B78DB004C
:104C7C00134406335B00FA681268134403F580632F
:104C8C001B88C3F309037B83BB689A697B8B9A42AD
:104C9C0006D3BB689A697B8BD21ABB689A6102E017
:104CAC00BB6800229A61BB689B69002B23D1FB680F
:104CBC001B681A46BB681B789B0013441B889BB26D
:104CCC0023F4804323F07003FB83FB8B83F40053AA
:104CDC00FB83FB681B681A46BB681B789B001A4455
:104CEC00FB8B43F07F4343F47F0343F4004343F0D7
:104CFC0080039BB21380FB8803F04003002B1FD171
:104D0C00FB681B681A46BB681B789B0013441B8806
:104D1C009BB223F4E04323F07003BB83FB681B6856
:104D2C001A46BB681B789B001A44BB8B43F07F432D
:104D3C0043F47F0343F4004343F0C0039BB213805E
:104D4C007B8B002B08D0FB681868BB685969BB6863
:104D5C005A897B8B04F0ABFE7B8B18462037BD4603
:104D6C0080BD80B5A4B000AFF860B9601346FB807D
:104D7C00FB8803F04003002B00F0DD81FB681B680F
:104D8C00B3F850309BB21A46BB681B78DB00134457
:104D9C0002335B00FA681268134403F580631B88C6
:104DAC00C3F30903A7F88630BB689A69B7F8863055
:104DBC009A4207D9BB689A69B7F88630D21ABB6891
:104DCC009A6102E0BB6800229A61BB689B69002B68
:104DDC0040F0B980BB685B78002B26D1FB681B6860
:104DEC00FB62FB681B68B3F850309BB21A46FB6A37
:104DFC001344FB62BB681B781A01FB6A134403F271
:104E0C000443BB62BB6A1B889BB2C3F309039AB20F
:104E1C00BB6A1A80BB6A1B889BB26FEA43436FEA7A
:104E2C0053439AB2BB6A1A801AE0BB685B78012BB9
:104E3C0016D1FB681B687B63FB681B68B3F85030AA
:104E4C009BB21A467B6B13447B63BB681B781A01BD
:104E5C007B6B134403F204433B633B6B00221A80CD
:104E6C00FB681B687B62BB685B78002B26D1FB68F8
:104E7C001B68FB61FB681B68B3F850309BB21A4689
:104E8C00FB691344FB61BB681B781A01FB69134473
:104E9C0003F20C43BB61BB691B889BB2C3F30903D0
:104EAC009AB2BB691A80BB691B889BB26FEA4343F9
:104EBC006FEA53439AB2BB691A8017E0BB685B7800
:104ECC00012B13D1FB681B68B3F850309BB21A4608
:104EDC007B6A13447B62BB681B781A017B6A1344A0
:104EEC0003F20C433B623B6A00221A80BB681B78BE
:104EFC001946F86806F045FCFB8803F48043002B48
:104F0C0000F0FC82FB681B681A46BB681B789B0090
:104F1C0013441B889BB223F4E04323F07003FB8201
:104F2C00FB681B681A46BB681B789B001A44FB8AFB
:104F3C0043F07F4343F47F0343F4404343F0800347
:104F4C009BB21380DAE2FB8803F48043002B21D060
:104F5C00FB681B681A46BB681B789B0013441B88B4
:104F6C009BB223F4E04323F07003A7F88A30FB686C
:104F7C001B681A46BB681B789B001A44B7F88A302A
:104F8C0043F07F4343F47F0343F4404343F08003F7
:104F9C009BB21380BB6893F82430012B40F0AE8297
:104FAC00BB685A69B7F886301A44BB685A61BB684B
:104FBC00DA69B7F886301A44BB68DA61BB681A6ADA
:104FCC00BB681B699A420BD3BB681B69C7F88C3052
:104FDC00BB681A6AD7F88C30D21ABB681A6217E011
:104FEC00BB681B6A002B08D1B7F88630C7F88C3029
:104FFC00BB68002283F824200AE0BB68002283F8F7
:10500C002420BB681B6AC7F88C30BB6800221A626C
:10501C00BB685B78002B65D1FB681B68FB63FB6886
:10502C001B68B3F850309BB21A46FB6B1344FB63FE
:10503C00BB681B781A01FB6B134403F20443BB637C
:10504C00BB6B1B889BB2C3F309039AB2BB6B1A8070
:10505C00D7F88C303E2B1DD9D7F88C305B09BB644C
:10506C00D7F88C3003F01F03002B02D1BB6C013B33
:10507C00BB64BB6B1B889AB2BB6C9BB29B029BB292
:10508C0013439BB26FEA43436FEA53439AB2BB6B31
:10509C001A8044E0D7F88C30002B0AD1BB6B1B88EC
:1050AC009BB26FEA43436FEA53439AB2BB6B1A80CD
:1050BC0035E0D7F88C305B08BB64D7F88C3003F044
:1050CC000103002B02D0BB6C0133BB64BB6B1B8890
:1050DC009AB2BB6C9BB29B029BB213439AB2BB6B52
:1050EC001A801CE0BB685B78012B18D1FB681B682D
:1050FC007B64FB681B68B3F850309BB21A467B6C20
:10510C0013447B64BB681B781A017B6C134403F259
:10511C0004433B64D7F88C309AB23B6C1A80FB6822
:10512C001868BB685969BB681A89D7F88C309BB270
:10513C0004F077FCE2E1FB681B68B3F850309BB2DB
:10514C001A46BB681B78DB00134406335B00FA6815
:10515C001268134403F580631B88C3F30903A7F893
:10516C008630BB689A69B7F886309A4207D3BB6819
:10517C009A69B7F88630D21ABB689A6102E0BB68AC
:10518C0000229A61BB689B69002B40F0C080BB6811
:10519C005B78002B26D1FB681B68FB67FB681B68E0
:1051AC00B3F850309BB21A46FB6F1344FB67BB68D5
:1051BC001B781A01FB6F134403F20443BB67BB6FEC
:1051CC001B889BB2C3F309039AB2BB6F1A80BB6FE7
:1051DC001B889BB26FEA43436FEA53439AB2BB6F8F
:1051EC001A801AE0BB685B78012B16D1FB681B6830
:1051FC007B66FB681B68B3F850309BB21A467B6E1B
:10520C0013447B66BB681B781A017B6E134403F254
:10521C0004433B663B6E00221A80FB681B687B676D
:10522C00BB685B78002B2BD1FB681B68FB66FB68AB
:10523C001B68B3F850309BB21A46FB6E1344FB66E6
:10524C00BB681B781A01FB6E134403F20C43C7F8BE
:10525C008030D7F880301B889BB2C3F309039AB215
:10526C00D7F880301A80D7F880301B889BB26FEA51
:10527C0043436FEA53439AB2D7F880301A8017E051
:10528C00BB685B78012B13D1FB681B68B3F85030FB
:10529C009BB21A467B6F13447B67BB681B781A0161
:1052AC007B6F134403F20C433B673B6F00221A8065
:1052BC00BB681B781946F86806F063FAFB8803F4A0
:1052CC008043002B40F01A81FB681B681A46BB68B0
:1052DC001B789B0013441B889BB223F4E04323F000
:1052EC007003A7F88830FB681B681A46BB681B78EC
:1052FC009B001A44B7F8883043F07F4343F47F0394
:10530C0043F4404343F080039BB21380F6E0FB88E8
:10531C0003F48043002B21D1FB681B681A46BB6841
:10532C001B789B0013441B889BB223F4E04323F0AF
:10533C007003A7F84E30FB681B681A46BB681B78D5
:10534C009B001A44B7F84E3043F07F4343F47F037D
:10535C0043F4404343F080039BB21380BB6893F843
:10536C002430012B40F0CA80BB685A69B7F88630EC
:10537C001A44BB685A61BB68DA69B7F886301A44BC
:10538C00BB68DA61BB681A6ABB681B699A420BD3AB
:10539C00BB681B69C7F88C30BB681A6AD7F88C30AD
:1053AC00D21ABB681A6217E0BB681B6A002B08D1C3
:1053BC00B7F88630C7F88C30BB68002283F82420FD
:1053CC000AE0BB681B6AC7F88C30BB6800221A6203
:1053DC00BB68002283F82420FB681B687B65BB68D4
:1053EC005B78002B65D1FB681B68FB65FB681B6851
:1053FC00B3F850309BB21A46FB6D1344FB65BB6887
:10540C001B781A01FB6D134403F20C43BB65BB6D97
:10541C001B889BB2C3F309039AB2BB6D1A80D7F8F1
:10542C008C303E2B1DD9D7F88C305B09BB66D7F876
:10543C008C3003F01F03002B02D1BB6E013BBB660B
:10544C00BB6D1B889AB2BB6E9BB29B029BB2134383
:10545C009BB26FEA43436FEA53439AB2BB6D1A8017
:10546C0041E0D7F88C30002B0AD1BB6D1B889BB266
:10547C006FEA43436FEA53439AB2BB6D1A8032E032
:10548C00D7F88C305B08BB66D7F88C3003F001037F
:10549C00002B02D0BB6E0133BB66BB6D1B889AB26E
:1054AC00BB6E9BB29B029BB213439AB2BB6D1A802C
:1054BC0019E0BB685B78012B15D1FB681B68B3F84E
:1054CC0050309BB21A467B6D13447B65BB681B78CE
:1054DC001A017B6D134403F20C433B65D7F88C30F7
:1054EC009AB23B6D1A80FB681868BB685969BB6837
:1054FC005A89D7F88C309BB204F093FAFB681B687E
:10550C001A46BB681B789B0013441B889BB223F480
:10551C00E04323F04003BB82BB8A83F01003BB82C1
:10552C00BB8A83F02003BB82FB681B681A46BB68EE
:10553C001B789B001A44BB8A43F07F4343F47F03E0
:10554C0043F4004343F080039BB2138000231846BE
:10555C009037BD4680BD80B487B000AFF8607B60EB
:10556C000B467B8113463B817B8903F080039BB206
:10557C00002B0BD07B8903F0070213469B001344CE
:10558C00DB001033FA6813447B6109E07A89134617
:10559C009B001344DB0003F5A873FA6813447B618A
:1055AC003B89002B07D17B6900221A737B689AB266
:1055BC007B69DA800BE07B6901221A737B689AB2F3
:1055CC007B691A817B681B0C9AB27B695A81002318
:1055DC0018461C37BD4680BC7047000080B586B0AD
:1055EC0000AF78607B68002B01D1012372E27B68ED
:1055FC001B6803F00103002B00F08780924B5B6863
:10560C0003F00C03042B0CD08F4B5B6803F00C03E2
:10561C00082B12D18C4B5B6803F48033B3F5803FBD
:10562C000BD1894B1B6803F40033002B6CD07B68C7
:10563C005B68002B68D101234CE27B685B68B3F597
:10564C00803F06D1804B1B687F4A43F48033136044
:10565C002EE07B685B68002B0CD17B4B1B687A4A75
:10566C0023F480331360784B1B68774A23F4802330
:10567C0013601DE07B685B68B3F5A02F0CD1724BF7
:10568C001B68714A43F4802313606F4B1B686E4A8E
:10569C0043F4803313600BE06B4B1B686A4A23F4B2
:1056AC0080331360684B1B68674A23F480231360B4
:1056BC007B685B68002B13D0FDF7D0F8386108E0ED
:1056CC00FDF7CCF802463B69D31A642B01D90323AE
:1056DC0000E25D4B1B6803F40033002BF0D014E0A8
:1056EC00FDF7BCF8386108E0FDF7B8F802463B69F5
:1056FC00D31A642B01D90323ECE1534B1B6803F43D
:10570C000033002BF0D100E000BF7B681B6803F076
:10571C000203002B63D04C4B5B6803F00C03002B93
:10572C000BD0494B5B6803F00C03082B1CD1464B88
:10573C005B6803F48033002B16D1434B1B6803F0DA
:10574C000203002B05D07B681B69012B01D00123C0
:10575C00C0E13D4B1B6823F0F8027B685B69DB0002
:10576C00394913430B603AE07B681B69002B20D04E
:10577C00364B01221A60FDF771F8386108E0FDF72D
:10578C006DF802463B69D31A022B01D90323A1E120
:10579C002D4B1B6803F00203002BF0D02A4B1B6827
:1057AC0023F0F8027B685B69DB00274913430B602D
:1057BC0015E0264B00221A60FDF750F8386108E01E
:1057CC00FDF74CF802463B69D31A022B01D903238F
:1057DC0080E11D4B1B6803F00203002BF0D17B68AA
:1057EC001B6803F00803002B3AD07B689B69002BE5
:1057FC0019D0174B01221A60FDF730F8386108E018
:10580C00FDF72CF802463B69D31A022B01D903236E
:10581C0060E10D4B5B6A03F00203002BF0D001201A
:10582C0000F0CEFA1CE00A4B00221A60FDF716F8C5
:10583C0038610FE0FDF712F802463B69D31A022BD0
:10584C0008D9032346E100BF001002400000424289
:10585C0080044242924B5B6A03F00203002BE9D1B5
:10586C007B681B6803F00403002B00F0A680002368
:10587C00FB758B4BDB6903F08053002B0DD1884BF0
:10588C00DB69874A43F08053D361854BDB6903F0B6
:10589C008053BB60BB680123FB75824B1B6803F410
:1058AC008073002B18D17F4B1B687E4A43F48073A6
:1058BC001360FCF7D3FF386108E0FCF7CFFF02461A
:1058CC003B69D31A642B01D9032303E1754B1B6885
:1058DC0003F48073002BF0D07B68DB68012B06D1BE
:1058EC006F4B1B6A6E4A43F0010313622DE07B6819
:1058FC00DB68002B0CD16A4B1B6A694A23F001034D
:10590C001362674B1B6A664A23F0040313621CE0A4
:10591C007B68DB68052B0CD1614B1B6A604A43F03A
:10592C00040313625E4B1B6A5D4A43F0010313626E
:10593C000BE05B4B1B6A5A4A23F001031362584B72
:10594C001B6A574A23F0040313627B68DB68002B45
:10595C0015D0FCF783FF38610AE0FCF77FFF0246A5
:10596C003B69D31A41F28832934201D90323B1E047
:10597C004B4B1B6A03F00203002BEED014E0FCF738
:10598C006DFF38610AE0FCF769FF02463B69D31AE8
:10599C0041F28832934201D903239BE0404B1B6AAE
:1059AC0003F00203002BEED1FB7D012B05D13C4B08
:1059BC00DB693B4A23F08053D3617B68DB69002BA6
:1059CC0000F08780364B5B6803F00C03082B61D02A
:1059DC007B68DB69022B46D1334B00221A60FCF743
:1059EC003DFF386108E0FCF739FF02463B69D31AEA
:1059FC00022B01D903236DE0294B1B6803F00073C4
:105A0C00002BF0D17B681B6AB3F5803F08D1244B87
:105A1C005B6823F400327B689B68214913434B601D
:105A2C001F4B5B6823F474127B68196A7B685B6A92
:105A3C000B431B4913434B601B4B01221A60FCF7B1
:105A4C000DFF386108E0FCF709FF02463B69D31AE9
:105A5C00022B01D903233DE0114B1B6803F00073AB
:105A6C00002BF0D035E0104B00221A60FCF7F6FE4C
:105A7C00386108E0FCF7F2FE02463B69D31A022BB0
:105A8C0001D9032326E0064B1B6803F00073002B9F
:105A9C00F0D11EE07B68DB69012B07D1012319E0F3
:105AAC000010024000700040600042420B4B5B68EB
:105ABC00FB60FB6803F480327B681B6A9A4206D158
:105ACC00FB6803F470127B685B6A9A4201D0012375
