:020000040800F2
:100000000050002041230008752100087D210008D0
:10001000852100088D2100089521000800000000BE
:100020000000000000000000000000009D2100080A
:10003000A921000800000000B5210008C121000826
:1000400089230008892300088923000889230008E0
:1000500089230008892300088923000889230008D0
:1000600089230008892300088923000889230008C0
:1000700089230008892300088923000889230008B0
:1000800089230008892300088923000889230008A0
:100090008923000889230008892300088923000890
:1000A00089230008CD21000889230008892300083E
:1000B0008923000889230008892300088923000870
:1000C0008923000889230008892300088923000860
:1000D00089230008E12100088923000889230008FA
:1000E00089230008892300088923000800000000F4
:1000F0000000000000000000000000000000000000
:0C01000000000000000000005FF808F1A3
:10010C0010B5054C237833B9044B13B10448AFF345
:10011C0000800123237010BD780000200000000037
:10012C007C57000808B5034B1BB103490348AFF3D8
:10013C00008008BD000000007C0000207C570008F7
:10014C00034613F8012B002AFBD1181A013870470B
:10015C0080B582B000AF78603960124B00221A7003
:10016C00114B00221A7040227968104804F0C7FC29
:10017C000E4B002283F83F20202239680C4804F0F3
:10018C00BEFC0B4B0022DA770A4B32221A60054B6D
:10019C000D221A70084B00221A7000BF0837BD469A
:1001AC0080BD00BF9C000020A0000020B8000020F3
:1001BC00F8000020A4000020D402002080B582B0FA
:1001CC0000AF78600B467B8013463B801D4B5B6811
:1001DC00002B02D14FF0FF332FE03B88002B02D1D4
:1001EC0047F230533B80184B184A1A600F2279683B
:1001FC00174804F084FC164B0022DA737B880A2221
:10020C001449184604F018FB3B880A221249184678
:10021C0004F012FB114B1B78002B01D101230CE0D5
:10022C000F4B1B7803F00203DBB2002B01D1002330
:10023C0003E00C4B09221A70062318460837BD46FA
:10024C0080BD00BFD80200200000002055445000A3
:10025C00180100202801002040010020B8000020D7
:10026C00A00000209C00002080B400AF0A4B5B680B
:10027C00002B02D14FF0FF3309E0084B1B7803F041
:10028C000203DBB2002B01D0032300E0002318464D
:10029C00BD4680BC704700BFD8020020A0000020E3
:1002AC0080B400AF0A4B5B68002B02D14FF0FF33D8
:1002BC0009E0084B1B7803F04003DBB2002B01D0A4
:1002CC00072300E005231846BD4680BC704700BFDD
:1002DC00D8020020A000002080B483B000AF0346F9
:1002EC00FB710B4B1B885A1C91B2094A11801946A1
:1002FC00084AFB795354064B1B88802B02D1044BC4
:10030C0000221A8000BF0C37BD4680BC704700BF6E
:10031C00CC0200204C01002080B588B000AFF86002
:10032C00084611461A4603467B810B463B81134611
:10033C00FB80464B5B68002B02D14FF0FF3381E012
:10034C00434B1B7803F04003DBB2002B01D1052398
:10035C0078E03F4B1B7803F00803DBB2002B68D12D
:10036C0000237B773B8907F110010A22184604F021
:10037C0063FA07F110031846FFF7E2FE03467B779A
:10038C007B7F042B02D87B7F002B01D10B2359E000
:10039C00304800F0E5FF07F11003184600F0E0FFCD
:1003AC002D4800F0DDFF0023FB8320E07B895A1CE5
:1003BC007A811A46FB681A44284B1B88591C88B250
:1003CC002649088019461278254B5A54234B1B8812
:1003DC00B3F5807F02D1214B00221A807A89FB88E9
:1003EC009A4201D100237B81FB8B0133FB83FA8B77
:1003FC003B899A42DAD3164A137843F004031370FC
:10040C00134A137843F008031370164B1B68002B28
:10041C000DD0144B1B6814489847124B1B6807F1FE
:10042C001002104698470F4B1B6810489847092339
:10043C0008E00C4B1B68002B03D00A4B1B680C48C4
:10044C009847082318462037BD4680BDD8020020A7
:10045C00A00000204C5B000894570008D20200203A
:10046C00CC010020B400002098570008AC570008BD
:10047C00B057000880B582B000AF78600C22796864
:10048C00104804F0C2FB104B00221A700F4B0022D4
:10049C001A700F4B00221A800E4B00221A800E4B42
:1004AC0000221A800D4B00221A800D4B00221A706C
:1004BC000C4B00221A600C4B00221A6000BF08374C
:1004CC00BD4680BDD80200209C00002046010020C3
:1004DC00D0020020D2020020CE020020CC0200204C
:1004EC00A0000020B0000020B400002080B400AFB9
:1004FC00124B1B68002B04D0104B1B68013B0F4A9E
:10050C0013600F4B1B68002B0BD00D4B1B68013B72
:10051C000B4A13600A4B1B68002B02D1094B0022BB
:10052C001A70094B1B68002B04D0074B1B68013B4E
:10053C00054A136000BFBD4680BC7047A400002074
:10054C00A800002046010020AC00002080B500AFC0
:10055C00084B1A88084B1B889A4201D000F01EF8F1
:10056C00064B1B68002B01D100F074FC00F07CFEE4
:10057C0000BF80BDCE020020CC020020A4000020D1
:10058C0080B483B000AF7860034A7B68136000BF0F
:10059C000C37BD4680BC7047B400002080B582B0DB
:1005AC0000AF804B1B780D2B07D07E4B1B780E2B8E
:1005BC0003D07C4B1B780F2B05D17B4B1A887B4BC4
:1005CC001A8000F036BC784B1B88FB80784B0222DB
:1005DC001A6000F028BC754B1B881A46754B9B5C47
:1005EC007B71754B1B780C2B00F2FE8301A252F829
:1005FC0023F000BF3506000825070008070900088E
:10060C00F50D0008F50D0008110C0008570C00083A
:10061C006D0C0008990C0008F50D0008390D000848
:10062C00610D0008B70D0008644B00221A70644B72
:10063C0004221A703EE0614B1B781A46614B53F84A
:10064C0022305F4A127813441B787A799A422BD164
:10065C005A4B1B781A465B4B53F822301B78303BB5
:10066C009AB2594B1A80584B1B881A469200134465
:10067C005B009AB2544B1A80504B1B781A46514B64
:10068C0053F8223001331B781A464F4B1B88134406
:10069C009BB2303B9AB24C4B1A804B4B1B88013BA4
:1006AC009AB2494B1A800DE0444B1B780133DAB2F5
:1006BC00424B1A70414B1B781A46424B53F822306E
:1006CC00002BB8D13D4B1B781A463E4B53F82230C9
:1006DC00002B09D0384B01221A70394B1B7801338F
:1006EC00DAB2374B1A7086E3314B00221A60374B63
:1006FC001B7803F00103DBB2002B00F07C837B79C9
:10070C003E2B40F07883314A137823F001031370A9
:10071C002F4B00221A606EE3284B1B781A46294B8C
:10072C0053F82230264A127813441B787A799A426D
:10073C0033D1254B1B88013B9AB2234B1A80224B99
:10074C001B88002B03D07B790D2B40F0CF801B4BEB
:10075C001B781A461B4B53F8223002331B78303B64
:10076C00DAB2154B1A70144B1B781A4692001344CC
:10077C005B00DAB2104B1A70104B1B781A46114BF7
:10078C0053F8223003331A780B4B1B781344DBB22B
:10079C00303BDAB2084B1A7038E3084B00221A705F
:1007AC0088E000BF9C000020CC020020CE0200207C
:1007BC00A80000204C01002046010020E40200208B
:1007CC00E5020020705C000848010020A000002019
:1007DC00AC000020984B1B781A46984B53F82230EB
:1007EC001B78303B9AB2964B1A80954B1B881A4655
:1007FC00920013445B009AB2914B1A808E4B1B787B
:10080C001A468E4B53F8223001331B781A468C4B08
:10081C001B8813449BB2303B9AB2894B1A80884B8D
:10082C001B88884A12789B1A9BB203339AB2844B6A
:10083C001A80834B1B887F2B36D87F4B1B781A462C
:10084C007E4B53F822307F4A127813441B787A7906
:10085C009A4229D17A4B1B88002B34D1764B1B78CA
:10086C001A46764B53F8223002331B78303BDAB2FF
:10087C00754B1A70744B1B781A46920013445B002C
:10088C00DAB2714B1A706C4B1B781A466B4B53F8DF
:10089C00223003331A786C4B1B781344DBB2303B99
:1008AC00DAB2694B1A700EE0634B1B780133DAB283
:1008BC00614B1A70604B1B781A46604B53F8223010
:1008CC00002B87D100E000BF5B4B1B781A465B4BBB
:1008DC0053F82230002B09D15B4B00221A705B4B72
:1008EC001B88013B9AB2594B1A808FE2554B1B78EF
:1008FC000133DAB2534B1A7088E27B790A2B40F041
:10090C007C82514B00221A704B4B1B78112B00F23E
:10091C00748201A252F823F06D0900086D090008D9
:10092C0081090008AD090008EB090008310A00082C
:10093C008D0A00088D0A0008D30A0008EF0A000887
:10094C001B0B0008570B0008070E0008730B000860
:10095C00070E0008990B0008C50B0008D70B000800
:10096C003B4B1B68002B00F03981394B1B68394815
:10097C00984733E1364B1B68002B03D0344B1B6874
:10098C0035489847354B1B78022B40F02981344B66
:10099C0000221A60334A137843F0200313701FE1CE
:1009AC002B4B1B68002B03D0294B1B682E489847F8
:1009BC002C4B1B7803F00803DBB2002B00F01281E8
:1009CC00284A137823F008031370264A137823F06F
:1009DC0040031370254B1A88254B1A8002E11C4BDF
:1009EC001B68002B03D01A4B1B68224898471C4BE2
:1009FC0000221A60194B1B78062B04D1194A137864
:100A0C0043F020031370174A137843F0020313705A
:100A1C00194B1B68002B00F0E780174B1B68032059
:100A2C009847E1E00A4B1B68002B00F0DF80084B75
:100A3C001B6812489847D9E0E4020020705C00085B
:100A4C0048010020E502002046010020CE020020D3
:100A5C00B4000020C8570008DC5700089C00002098
:100A6C00A4000020A0000020F0570008D2020020B3
:100A7C00D002002008580008B000002024580008BC
:100A8C00964B1B68002B03D0944B1B6894489847DB
:100A9C00944A137823F040031370924A137823F08E
:100AAC0002031370904B1B68002B03D08E4B1B68FA
:100ABC00002098478D4B1B78062B00F099808B4BB0
:100ACC000F221A709DE0854B1B68002B03D0834BC3
:100ADC001B6887489847834A137823F040031370A8
:100AEC008FE07E4B1B68002B03D07C4B1B6881482E
:100AFC0098477C4A137823F0080313707A4B1B68D1
:100B0C00002B77D0784B1B680A20984772E0734B08
:100B1C001B68002B03D0714B1B6877489847774BA9
:100B2C0000221A606F4A137843F0200313706D4A49
:100B3C00137843F0400313706B4B1B68002B5BD096
:100B4C00694B1B680720984756E0644B1B68002BC9
:100B5C0003D0624B1B686A489847624A137823F0AB
:100B6C00400313704DE05D4B1B68002B03D05B4BB7
:100B7C001B68644898475B4A137823F04003137052
:100B8C00584A137823F0020313703AE0534B1B6856
:100B9C00002B03D0514B1B685B489847514A137884
:100BAC0023F0400313704F4A137823F002031370A1
:100BBC004E4B0F221A7024E0484B1B68002B1DD0A3
:100BCC00464B1B685148984718E0444B1B68002B58
:100BDC0016D0424B1B684E48984711E000BF0CE101
:100BEC0000BF0AE100BF08E100BF06E100BF04E15D
:100BFC0000BF02E100BF00E100BFFEE000BFFCE06F
:100C0C0000BFFAE07B792C2B0CD1424B06221A70D8
:100C1C00324B1B68002B00F0F280304B1B683E48B7
:100C2C009847ECE03B4B00221A703C4B1B88013B75
:100C3C009AB23A4B1A80294B1B68002B00F0DF80CC
:100C4C00264B1B6836489847D9E07B79222B40F01D
:100C5C00D880304B07221A70324B00221A80D0E019
:100C6C007B79222B03D02F4B1B88102B03D1294BC4
:100C7C0008221A70CAE02B4B1B885A1C91B2294AC5
:100C8C0011801946284A7B795354BFE07B790A2B93
:100C9C0040F0B9801F4B00221A70224B1B880F2B7F
:100CAC000ED8204B1B881A461F4B002199540D4A15
:100CBC00137843F020031370104B00221A6002E0EB
:100CCC00194B00221A70084B1B68002B00F09B80FC
:100CDC00054B1B680420984795E000BFB40000202A
:100CEC0044580008A0000020B00000209C00002008
:100CFC00705800088C580008A4580008A400002064
:100D0C00BC580008D4580008E858000800590008DE
:100D1C00185900084601002030590008CE02002066
:100D2C004859000848010020300100207B792C2B09
:100D3C0006D1414B0B221A70404B00221A8065E001
:100D4C003D4B00221A703E4B1B88013B9AB23C4B28
:100D5C001A805BE07B793A2B03D1374B0C221A704B
:100D6C0054E07B792F2B02D97B79392B09D9324B63
:100D7C0000221A70324B1B88013B9AB2304B1A80FE
:100D8C0044E02E4B1B881A46920013445B009AB227
:100D9C002A4B1A807B799AB2284B1B8813449BB23E
:100DAC00303B9AB2254B1A8030E0264B9B68002BC7
:100DBC0004D0244B9B687A79104698471F4B1B88AC
:100DCC00013B9AB21D4B1A801C4B1B88002B1CD16B
:100DDC00194B00221A701C4B1B68002B15D01A4B98
:100DEC001B681A48984710E0134B00221A70184BD6
:100DFC0000221A600AE000BF08E000BF06E000BF56
:100E0C0004E000BF02E000BF00E000BF0C4B1B88F9
:100E1C0001339AB20A4B1A80094B1B88802B02D1E2
:100E2C00074B00221A80064B1B88FA889A427FF4E3
:100E3C00D2AB0837BD4680BD4601002048010020DA
:100E4C00CE020020D8020020B40000205C5900081B
:100E5C00A800002080B500AF9C4B64221A609C4B0C
:100E6C001B780F2B00F2E58101A252F823F000BF92
:100E7C00BD0E00081B0F00086D0F00088B0F00083B
:100E8C00A90F0008C70F00084D10000871100008CA
:100E9C009F1000082D11000855110008E7110008DB
:100EAC0005120008C50E0008E50E00080D0F00081D
:100EBC00864B00221A60BCE1864B1B6800209847C9
:100ECC00854B1B68002B03D0834B1B6883489847CA
:100EDC007F4B0E221A70ACE17E4B1B6801209847A9
:100EEC007D4B1B68002B03D07B4B1B687C489847C1
:100EFC00774B0F221A70754B4FF4FA721A6098E107
:100F0C00734B01221A70774B00221A7091E1754BCA
:100F1C001B78002B0DD0734B1B78013BDAB2714B55
:100F2C001A70704B1B78002B06D1694B0D221A706E
:100F3C007FE16C4B04221A706B4A137823F0200368
:100F4C0013706A4800F00CFA634B1B68002B03D03B
:100F5C00614B1B68664898475D4B02221A7068E12A
:100F6C00614B1B7803F02003DBB2002B03D0584BF2
:100F7C0003221A705DE1564B01221A7059E15D484B
:100F8C0000F0EEF9544B1B68002B03D0524B1B683E
:100F9C00594898474E4B04221A704AE1574800F0C2
:100FAC00DFF94D4B1B68002B03D04B4B1B6854488F
:100FBC009847474B05221A703BE14B4B1B7803F0CB
:100FCC000203DBB2002B03D0414B07221A7030E135
:100FDC004C4B1B78002B00F029814B4800F0C0F9DA
:100FEC00222000F0EDF9474800F0BAF9222000F079
:100FFC00E7F92C2000F0E4F9222000F0E1F9434855
:10100C0000F0AEF9222000F0DBF90D2000F0D8F949
:10101C000A2000F0D5F9304B1B68002B03D02E4B67
:10102C001B683B489847304A137823F02003137011
:10103C00274B06221A70254B40F2DC521A60F8E05E
:10104C00294B1B7803F02003DBB2002B06D0204B7E
:10105C0007221A70234B04221A70EAE01C4B01225F
:10106C001A70E6E02B4B00221A702B4800F078F92E
:10107C00194B1B68002B03D0174B1B68274898474C
:10108C00194A137823F020031370114B08221A709D
:10109C00CFE0154B1B7803F02003DBB2002B03D001
:1010AC000B4B09221A70C4E00E4B1B78013BDAB2D1
:1010BC000C4B1A700B4B1B78002B03D1044B0122E9
:1010CC001A70B6E0024B07221A70B2E0A40000209E
:1010DC009C000020D8020020B400002070590008A9
:1010EC0088590008D4020020A0000020EC5A000807
:1010FC00A0590008045B0008B0590008F45A000815
:10110C00C4590008B8000020145B0008F800002047
:10111C00D859000830010020205B0008EC59000869
:10112C00454B1B78002B00F08380444800F018F9E5
:10113C00434B1B68002B03D0414B1B68414898471D
:10114C00414B0A221A7074E0404800F009F9222041
:10115C0000F036F93E4800F003F9222000F030F997
:10116C002C2000F02DF9222000F02AF9324800F052
:10117C00F7F8222000F024F92C2000F021F9354852
:10118C0000F0EEF82C2000F01BF9334800F0E8F8E2
:10119C002C2000F015F9302000F012F90D2000F091
:1011AC000FF90A2000F00CF9254B1B68002B03D01B
:1011BC00234B1B6829489847294A137823F02003AE
:1011CC001370274A137823F0400313701E4B0B2225
:1011DC001A70244BC8221A602BE0214B1B7803F0A9
:1011EC002003DBB2002B03D0174B0C221A7020E02B
:1011FC00154B01221A701CE0194B1B7803F00203EB
:10120C00DBB2002B03D1104B01221A7011E0144BEE
:10121C001B7803F04003DBB2002B03D10A4B0922ED
:10122C001A7006E00F4B00221A6002E000BF00E0CB
:10123C0000BF00BF80BD00BF180100203C5B000850
:10124C00B4000020005A00089C0000202C5B000811
:10125C00000000202801002040010020185A00083E
:10126C00A0000020A400002080B582B000AF344B59
:10127C001B7803F00103DBB2002B13D0314B1B683E
:10128C00002B59D1304B1A88304B1A802C4A1378CA
:10129C0023F0010313702E4B01221A702D4B0A22DE
:1012AC001A6049E0294B1A88274B1B889A4244D074
:1012BC00264B1B881A46284B9B5CFB71204B1B78DA
:1012CC0003F00403DBB2002B04D0FB793E2B01D1DD
:1012DC000A23FB71214B5B68FA7910469847034649
:1012EC00002B2AD0164B1B7803F00403DBB2002B27
:1012FC0013D0164B1B881A46174B9B5C3E2B0CD1FC
:10130C000F4A137823F0040313700D4A137843F03B
:10131C00010313700B4B05221A600C4B1B88013315
:10132C009AB20A4B1A80094B1B88B3F5807F04D103
:10133C00064B00221A8000E000BF0837BD4680BD76
:10134C00A0000020AC000020D2020020D00200201F
:10135C009C000020A4000020CC010020D80200201A
:10136C0080B485B000AF78600023FB6017E0FB68A9
:10137C007A681A44104B1B88591C88B20E49088095
:10138C00194612780D4B5A540B4B1B88B3F5807FC2
:10139C0002D1094B00221A80FB680133FB60FB6809
:1013AC007A6813441B78002BE1D100BF00BF1437BF
:1013BC00BD4680BC704700BFD2020020CC0100208B
:1013CC0080B483B000AF0346FB710B4B1B885A1CD7
:1013DC0091B2094A11801946084AFB795354064BBD
:1013EC001B88B3F5807F02D1034B00221A8000BF0B
:1013FC000C37BD4680BC7047D2020020CC010020C7
:10140C0080B483B000AF78603960134A7B68136096
:10141C00124A3B681360104B1B6800221A710E4B6A
:10142C001B6800225A710C4B1B6800221A720A4B63
:10143C001B68FF229A72094B1B6800221A71074B1A
:10144C001B6800225A71054B1B68FF229A7100BF62
:10145C000C37BD4680BC70479400002098000020DB
:10146C0080B483B000AF0346FB710E4B1B68196848
:10147C000C4B1B685A79501CC0B2587113460B4464
:10148C00FA791A70074B1B685979064B1B689A7AC4
:10149C00044B1B680A40D2B25A7100BF0C37BD46D0
:1014AC0080BC70479400002080B582B000AF8E4B9A
:1014BC001B685B79FB712DE18B4B1B681B7A062B30
:1014CC0000F2088101A252F823F000BFF5140008C5
:1014DC001F1500086D150008A3150008D915000884
:1014EC00FB150008691600087F4B1B681B687E4AB9
:1014FC001268127913441B78DBB2552B40F0EF8045
:10150C00794B1B6801221A72774B1B6805221A73E0
:10151C00E5E0754B1B681B68734A1268127913441B
:10152C001B78DBB24E2B04D16F4B1B6802221A7254
:10153C00D7E06D4B1B681B686B4A12681279134419
:10154C001B78DBB2552B00F0CC80674B1B6800225C
:10155C001A72654B1B681A79013AD2B21A71C0E043
:10156C00614B1B681B68604A1268127913441B7824
:10157C00DBB2452B04D15C4B1B6803221A72B8E01A
:10158C00594B1B6800221A72574B1B681A79013A87
:10159C00D2B21A71ADE0544B1B681B68524A1268E8
:1015AC00127913441B78DBB2522B04D14E4B1B68BF
:1015BC0004221A729DE04C4B1B6800221A724A4B93
:1015CC001B681A79013AD2B21A7192E0464B1B6829
:1015DC001B68454A126812791A44434B1B681278EF
:1015EC00D2B2DA71404B1B6805221A7281E03E4B75
:1015FC001B681B683C4A1268127913441B78DBB2D7
:10160C003A2B20D1384B1B6806221A72364B1B68BA
:10161C001A79354B1B680132D2B29A71324B1B6866
:10162C009979314B1B689A7A2F4B1B680A40D2B2BE
:10163C009A712D4B1B68DA792B4B1B6882F03602A2
:10164C00D2B25A7255E0284B1B6800221A72264BF4
:10165C001B681A79013AD2B21A714AE0224B1B6804
:10166C00DA79013AD2B2DA711F4B1B68DB79002BA5
:10167C0011D01D4B1B681B681B4A1268127913444E
:10168C001B78D9B2184B1B685A7A174B1B684A4007
:10169C00D2B25A722CE0144B1B6800221A72124BF5
:1016AC001B681B68104A1268127913441B78DAB253
:1016BC000D4B1B685B7A9A421AD10B4B1B680122AB
:1016CC00DA72094B1B68094A12681146184600F079
:1016DC0003F90DE0044B1B6800221A7209E000BFED
:1016EC0007E000BF05E000BF940000209800002038
:1016FC0000BF0E4B1B681A790132D2B21A710B4B18
:10170C001B681979094B1B689A7A084B1B680A40AD
:10171C00D2B21A71054B1B681B79FA799A427FF485
:10172C00CBAE00BF00BF0837BD4680BD9400002083
:10173C0090B486B000AF03463960FB711346BB71A1
:10174C000023FB75624BBB6000233B611EE0614BC9
:10175C001B6819685F4B1B685A79501CC0B25871D2
:10176C0013460B4407F108013A690A4412781A70BF
:10177C00584B1B685979574B1B689A79554B1B680A
:10178C000A40D2B25A713B6901333B613B69032B6E
:10179C00DDDDBB790133BB734E4B1B6819684D4BB8
:1017AC001B685A79501CC0B2587113460B44BA7B53
:1017BC001A70484B1B685979464B1B689A79454BF4
:1017CC001B680A40D2B25A71424B1B681968414BD4
:1017DC001B685A79501CC0B2587113460B443A22FC
:1017EC001A703C4B1B6859793A4B1B689A79394BE8
:1017FC001B680A40D2B25A71364B1B681968354BBC
:10180C001B685A79501CC0B2587113460B44FA79B4
:10181C001A70304B1B6859792E4B1B689A792D4BDB
:10182C001B680A40D2B25A71BA7BFB795340DAB2C8
:10183C00FB7D5340DBB283F03603FB750023FB7357
:10184C0024E0FB7B3A68D118224B1B681868214BAB
:10185C001B685A79541CE4B25C71134603440A7831
:10186C001A701C4B1B6859791A4B1B689A79194BC7
:10187C001B680A40D2B25A71FB7B3A6813441A783F
:10188C00FB7D5340FB75FB7B0133FB73FA7BBB7910
:10189C009A42D6D30F4B1B6819680E4B1B685A79AA
:1018AC00501CC0B2587113460B44FA7D1A70094B88
:1018BC001B685979074B1B689A79064B1B680A40C1
:1018CC00D2B25A7100BF1837BD4690BC704700BFEA
:1018DC00554E45529800002090B58BB000AF786003
:1018EC0039607B681B687A68927913441B7887F897
:1018FC00273097F82730A02B02D0A12B22D032E032
:10190C00F02387F8243007F1240301221946A02084
:10191C00FFF70EFFFEF7C4FC0346072B2FD11C4A22
:10192C0007F1180392E8030018600433198064234C
:10193C0087F8263007F11800082308220021FEF74B
:10194C00EBFC1CE0134B07F108040FCB07C42380FE
:10195C0002341B0C237007F108030E221946A12038
:10196C00FFF7E6FE0CE0FE2387F8203007F120019C
:10197C0097F8273001221846FFF7DAFE00E000BF87
:10198C007B680022DA7200BF2C37BD4690BD00BFC9
:10199C00305A0008385A000880B483B000AF786021
:1019AC007B681B68054A934202D1054B01221A60E1
:1019BC0000BF0C37BD4680BC704700BF002C0140F7
:1019CC00C003002080B582B000AF78607B681B68D4
:1019DC000A4A93420ED10A4B1B781846FEF77CFC40
:1019EC00074B1B781846FFF73BFD012204490548BD
:1019FC0002F07BF900BF0837BD4680BD00380140BE
:101A0C00C90300203003002080B582B000AF03462C
:101A1C00FB71FB79002B14BF01230023DBB21A46A8
:101A2C000121034801F052F800BF0837BD4680BDC4
:101A3C000008014080B582B000AF0346FB71F91D70
:101A4C0064230122064802F0C5F80346002B0CBFA4
:101A5C0001230023DBB218460837BD4680BD00BF0A
:101A6C003003002080B582B000AF0346FB71FB79D8
:101A7C001846FEF731FC00BF0837BD4680BD00009C
:101A8C00B0B59CB000AF00F07BFC00F039F900F071
:101A9C0021FA00F07BF900F0C9F900F0F1F9814866
:101AAC0001F0A6FC01228049804802F01EF9804B0F
:101ABC000A221A607F4B00221A607F4B00221A7098
:101ACC007E48FEF7D7FC7E48FEF75AFD7D497E48DE
:101ADC00FEF73EFBFEF7C8FB0346032B1AD07B4BED
:101AEC0007F158041D460FCD0FC495E80300206084
:101AFC000434218002340B0C237007F15803184670
:101B0C00FEF71EFB03469AB207F158016423704896
:101B1C0002F060F847F23A5247F230516D48FEF746
:101B2C004DFBFEF7BDFB0346072B16D06A4B07F1A6
:101B3C0040041D460FCD0FC495E8030084E8030054
:101B4C0007F140031846FEF7FBFA03469AB207F179
:101B5C00400164235E4802F03DF8604B604A1A6015
:101B6C00604B614A1A605F495C48FFF749FC514B76
:101B7C001B68002B66D04F4B00221A60FEF7B6FC98
:101B8C004B4B1B68013B4A4A1360494B1B68002BAB
:101B9C0007D1474B0A221A604FF40051534800F00A
:101BAC00ADFF534B1B8801339AB2514B1A80504BEB
:101BBC001B88C72B46D94E4B00221A80FEF770FBB0
:101BCC000346072B2AD14B4B07F128041D460FCD9A
:101BDC000FC495E8030020600434218007F128032A
:101BEC001846FEF7ADFA03469AB207F128016423B2
:101BFC00374801F0EFFF404A07F1200392E8030059
:101C0C0018600433198002330A0C1A7007F1200093
:101C1C00062306220021FEF77FFB13E0374B3C1D09
:101C2C001D460FCD0FC495E8070003C422803B1D51
:101C3C001846FEF785FA03469AB2391D64232448E8
:101C4C0001F0C8FFFEF782FCFFF72EFC15E0254BD8
:101C5C001A68244B1B79591CC8B222490871D11837
:101C6C0064230122114801F0B5FF1E4B1A791D4B5C
:101C7C009B791340DAB21B4B1A711A4B1A79194B18
:101C8C005B799A42E3D10C4B1B78002B3FF46FAF7E
:101C9C00642301220849054801F09CFF064B0022F1
:101CAC001A7064E7E8020020C9030020300300200A
:101CBC00C4030020C0030020C8030020040000203F
:101CCC00514A0008485A0008545A0008805A000823
:101CDC0078030020705A0008985A0008CC050020A0
:101CEC00CC030020DC050020CC04002000100140B7
:101CFC00CA030020B05A0008C85A0008D05A00087D
:101D0C0080B590B000AF07F11803282200211846C7
:101D1C0002F0EDFE3B1D00221A605A609A60DA60F8
:101D2C001A610123BB614FF48033FB6100233B62DA
:101D3C000123BB6202237B634FF48033BB634FF4FC
:101D4C00E013FB6307F11803184600F0F1FE03469D
:101D5C00002B01D000F01EF90F237B600223BB6027
:101D6C000023FB604FF480633B6100237B613B1DD0
:101D7C000221184601F05EF90346002B01D000F059
:101D8C0009F900BF4037BD4680BD000080B586B064
:101D9C0000AF07F1080300221A605A609A60DA60FB
:101DAC003B4600221A605A601E4B1F4A1A601D4B9C
:101DBC0047225A601B4B00229A601A4B42F20F7258
:101DCC00DA60184B00221A61164B00225A61154B2F
:101DDC0000229A61134801F0BBFA0346002B01D094
:101DEC0000F0D8F84FF48053BB6007F10803194694
:101DFC000C4801F03FFC0346002B01D000F0CAF860
:101E0C0000233B6000237B603B461946054801F0EC
:101E1C0021FE0346002B01D000F0BCF800BF1837A0
:101E2C00BD4680BDE8020020002C014080B500AF0B
:101E3C00114B124A1A60104B4FF4E1325A600E4BA0
:101E4C0000229A600C4B0022DA600B4B00221A61C4
:101E5C00094B0C225A61084B00229A61064B002256
:101E6C00DA61054801F066FE0346002B01D000F054
:101E7C0091F800BF80BD00BF300300200038014046
:101E8C0080B500AF114B124A1A60104B4FF4E1327F
:101E9C005A600E4B00229A600C4B0022DA600B4BFE
:101EAC0000221A61094B0C225A61084B00229A61DC
:101EBC00064B0022DA61054801F03CFE0346002B7C
:101ECC0001D000F067F800BF80BD00BF7803002090
:101EDC000044004080B588B000AF07F11003002229
:101EEC001A605A609A60DA60274B9B69264A43F065
:101EFC0010039361244B9B6903F01003FB60FB6898
:101F0C00214B9B69204A43F0200393611E4B9B6934
:101F1C0003F02003BB60BB681B4B9B691A4A43F060
:101F2C0004039361184B9B6903F004037B607B688B
:101F3C0000224FF40051154800F0C8FD0122012188
:101F4C00134800F0C3FD4FF400533B6101237B6148
:101F5C000023BB610223FB6107F1100319460B48F8
:101F6C0000F030FC01233B6101237B610023BB614A
:101F7C000223FB6107F110031946054800F022FC0F
:101F8C0000BF2037BD4680BD00100240001001404C
:101F9C000008014080B400AF72B600BF00BFFDE77F
:101FAC0080B485B000AF154B9B69144A43F0010314
:101FBC009361124B9B6903F00103BB60BB680F4B31
:101FCC00DB690E4A43F08053D3610C4BDB6903F0A1
:101FDC0080537B607B680A4B5B68FB60FB6823F07B
:101FEC00E063FB60FB6843F00073FB60044AFB6832
:101FFC00536000BF1437BD4680BC704700100240D0
:10200C000000014080B584B000AF78607B681B682D
:10201C000D4A934213D10D4B9B690C4A43F4006358
:10202C0093610A4B9B6903F40063FB60FB6800221D
:10203C000021192000F0DDFA192000F0F6FA00BF9B
:10204C001037BD4680BD00BF002C0140001002407F
:10205C0080B58AB000AF786007F1180300221A60CF
:10206C005A609A60DA607B681B683B4A93423AD1AB
:10207C003A4B9B69394A43F480439361374B9B69D4
:10208C0003F480437B617B69344B9B69334A43F097
:10209C0004039361314B9B6903F004033B613B697F
:1020AC004FF40073BB610223FB6103237B6207F1D6
:1020BC00180319462A4800F085FB4FF48063BB6176
:1020CC000023FB6100233B6207F1180319462448E7
:1020DC0000F078FB00220021252000F08AFA252050
:1020EC0000F0A3FA34E07B681B681E4A93422FD1A0
:1020FC001A4BDB69194A43F40033D361174BDB6984
:10210C0003F40033FB60FB68144B9B69134A43F0E8
:10211C0004039361114B9B6903F00403BB60BB6820
:10212C000423BB610223FB6103237B6207F11803C9
:10213C0019460B4800F046FB0823BB610023FB61EA
:10214C0000233B6207F118031946054800F03AFBDF
:10215C0000BF2837BD4680BD00380140001002404A
:10216C00000801400044004080B400AF00BFFDE710
:10217C0080B400AF00BFFDE780B400AF00BFFDE747
:10218C0080B400AF00BFFDE780B400AF00BFFDE737
:10219C0080B400AF00BFBD4680BC704780B400AFB8
:1021AC0000BFBD4680BC704780B400AF00BFBD46C9
:1021BC0080BC704780B500AF00F028F900BF80BD2F
:1021CC0080B500AF024801F065F900BF80BD00BFCB
:1021DC00E802002080B500AF024801F0ABFD00BF63
:1021EC0080BD00BF3003002080B586B000AFF86022
:1021FC00B9607A6000237B610AE0AFF3008001468E
:10220C00BB685A1CBA60CAB21A707B6901337B6115
:10221C007A697B689A42F0DB7B6818461837BD46B2
:10222C0080BD80B586B000AFF860B9607A600023DD
:10223C007B6109E0BB685A1CBA601B781846AFF387
:10224C0000807B6901337B617A697B689A42F1DBA0
:10225C007B6818461837BD4680BD80B483B000AF8C
:10226C0078604FF0FF3318460C37BD4680BC704782
:10227C0080B483B000AF786039603B684FF4005293
:10228C005A60002318460C37BD4680BC704780B49A
:10229C0083B000AF7860012318460C37BD4680BC74
:1022AC00704780B485B000AFF860B9607A600023E5
:1022BC0018461437BD4680BC7047000080B586B008
:1022CC0000AF7860144A154BD31A7B617B693B6174
:1022DC00134B1B68002B02D1114B124A1A60104B86
:1022EC001A687B6813443A699A4207D202F060FC80
:1022FC0003460C221A604FF0FF3309E0084B1B68B1
:10230C00FB60074B1A687B681344054A1360FB6833
:10231C0018461837BD4680BD005000200004000050
:10232C00E40500203807002080B400AF00BFBD4694
:10233C0080BC7047FFF7F8FF0B480C490C4A002390
:10234C0002E0D458C4500433C4188C42F9D3094A5F
:10235C00094C002301E013600432A242FBD302F0CB
:10236C002DFCFFF78DFB704700000020780000204B
:10237C00505D00087800002038070020FEE70000C0
:10238C0080B500AF084B1B68074A43F0100313607D
:10239C00032000F023F90F2000F008F8FFF700FEEF
:1023AC000023184680BD00BF0020024080B582B0DB
:1023BC0000AF7860124B1A68124B1B7819464FF419
:1023CC007A73B3FBF1F3B2FBF3F3184600F03BF96D
:1023DC000346002B01D001230EE07B680F2B0AD89B
:1023EC00002279684FF0FF3000F003F9064A7B6851
:1023FC001360002300E0012318460837BD4680BD5A
:10240C0010000020180000201400002080B400AF41
:10241C00054B1B781A46054B1B681344034A136083
:10242C0000BFBD4680BC704718000020E8050020A6
:10243C0080B400AF024B1B681846BD4680BC704789
:10244C00E805002080B485B000AF78607B6803F0AD
:10245C000703FB600C4BDB68BB60BA684FF6FF03ED
:10246C001340BB60FB681A02BB68134343F0BF63A5
:10247C0043F40033BB60044ABB68D36000BF14371D
:10248C00BD4680BC704700BF00ED00E080B400AFDB
:10249C00044BDB681B0A03F007031846BD4680BCDF
:1024AC00704700BF00ED00E080B483B000AF03467E
:1024BC00FB7197F90730002B0BDBFB7903F01F0244
:1024CC00064997F907305B09012000FA02F241F83E
:1024DC00232000BF0C37BD4680BC704700E100E0F4
:1024EC0080B483B000AF03463960FB7197F90730B5
:1024FC00002B0ADB3B68DAB20C4997F90730120162
:10250C00D2B20B4483F800230AE03B68DAB20849E4
:10251C00FB7903F00F03043B1201D2B20B441A7681
:10252C0000BF0C37BD4680BC704700BF00E100E027
:10253C0000ED00E080B489B000AFF860B9607A605B
:10254C00FB6803F00703FB61FB69C3F10703042B72
:10255C0028BF0423BB61FB690433062B02D9FB693A
:10256C00033B00E000237B614FF0FF32BB6902FAB2
:10257C0003F3DA43BB681A407B699A404FF0FF3192
:10258C007B6901FA03F3D9437B680B40134318466C
:10259C002437BD4680BC704780B582B000AF7860F0
:1025AC007B68013BB3F1807F01D301230FE00A4A22
:1025BC007B68013B53600F214FF0FF30FFF790FF1A
:1025CC00054B00229A60044B07221A600023184620
:1025DC000837BD4680BD00BF10E000E080B582B07A
:1025EC0000AF78607868FFF72DFF00BF0837BD4655
:1025FC0080BD80B586B000AF0346B9607A60FB73CE
:10260C0000237B61FFF742FF78617A68B9687869CB
:10261C00FFF790FF024697F90F3011461846FFF767
:10262C005FFF00BF1837BD4680BD80B582B000AFDC
:10263C000346FB7197F907301846FFF735FF00BFCB
:10264C000837BD4680BD80B582B000AF7860786831
:10265C00FFF7A2FF034618460837BD4680BD80B47D
:10266C0085B000AF78600023FB737B6893F8213052
:10267C00DBB2022B08D07B6804229A637B680022B1
:10268C0083F82020012320E07B681B681A687B6894
:10269C001B6822F00E021A607B681B681A687B6844
:1026AC001B6822F001021A607B681A6C7B68DB6B7A
:1026BC00012101FA02F25A607B68012283F8212081
:1026CC007B68002283F82020FB7B18461437BD461C
:1026DC0080BC704780B584B000AF78600023FB737A
:1026EC007B6893F82130DBB2022B05D07B68042287
:1026FC009A630123FB7351E07B681B681A687B6843
:10270C001B6822F00E021A607B681B681A687B68D3
:10271C001B6822F001021A607B681B68224A9342F4
:10272C0029D07B681B68214A934222D07B681B68A6
:10273C001F4A93421AD07B681B681E4A934212D0E0
:10274C007B681B681C4A93420AD07B681B681B4A37
:10275C00934202D14FF480130EE04FF080730BE0E4
:10276C004FF4803308E04FF4805305E04FF480734E
:10277C0002E0102300E00123114A53607B68012220
:10278C0083F821207B68002283F820207B685B6B18
:10279C00002B03D07B685B6B78689847FB7B1846F3
:1027AC001037BD4680BD00BF080002401C0002402F
:1027BC003000024044000240580002406C000240CD
:1027CC000000024080B48BB000AF78603960002309
:1027DC007B6200233B6269E101227B6A02FA03F30C
:1027EC00FB613B681B68FA691340BB61BA69FB6902
:1027FC009A4240F058813B685B689A4A93425ED09B
:10280C00984A934275D8984A934258D0964A934224
:10281C006FD8964A934252D0944A934269D8944ABC
:10282C0093424CD0924A934263D8924A934246D0F8
:10283C00904A93425DD8122B2AD8122B59D801A258
:10284C0052F823F0CB280008A5280008B728000868
:10285C00F9280008FF280008FF280008FF280008B6
:10286C00FF280008FF280008FF280008FF280008A0
:10287C00FF280008FF280008FF280008FF28000890
:10288C00FF280008FF280008AD280008C128000810
:10289C00794A934213D02CE03B68DB683B6229E019
:1028AC003B68DB6804333B6224E03B68DB6808333D
:1028BC003B621FE03B68DB680C333B621AE03B6811
:1028CC009B68002B02D104233B6213E03B689B689E
:1028DC00012B05D108233B627B68FA691A6109E078
:1028EC0008233B627B68FA695A6103E000233B6270
:1028FC0000E000BFBB69FF2B01D87B6801E07B685F
:10290C0004337B61BB69FF2B02D87B6A9B0002E01E
:10291C007B6A083B9B003B617B691A680F213B6912
:10292C0001FA03F3DB431A40396A3B6901FA03F3FA
:10293C001A437B691A603B685B6803F08053002B79
:10294C0000F0B1804D4B9B694C4A43F001039361FD
:10295C004A4B9B6903F00103BB60BB68484A7B6A26
:10296C009B08023352F82330FB607B6A03F00303AD
:10297C009B000F2202FA03F3DB43FA681340FB605F
:10298C007B68404A934213D07B683F4A93420DD0F8
:10299C007B683E4A934207D07B683D4A934201D103
:1029AC00032306E0042304E0022302E0012300E0F9
:1029BC0000237A6A02F0030292009340FA681343F0
:1029CC00FB602F497B6A9B080233FA6841F823208D
:1029DC003B685B6803F48013002B06D02D4B9A6880
:1029EC002C49BB6913438B6006E02A4B9A68BB6980
:1029FC00DB43284913408B603B685B6803F400138E
:102A0C00002B06D0234BDA682249BB691343CB60F9
:102A1C0006E0204BDA68BB69DB431E491340CB60F0
:102A2C003B685B6803F40033002B06D0194B5A68E3
:102A3C001849BB6913434B6006E0164B5A68BB69D7
:102A4C00DB43144913404B603B685B6803F48033F1
:102A5C00002B21D00F4B1A680E49BB6913430B6036
:102A6C0021E000BF000032100000311000002210E5
:102A7C000000211000001210000011100010024084
:102A8C000000014000080140000C01400010014012
:102A9C0000140140000401400B4B1A68BB69DB4376
:102AAC00094913400B607B6A01337B623B681A68EF
:102ABC007B6A22FA03F3002B7FF48EAE00BF00BFBB
:102ACC002C37BD4680BC70470004014080B483B0F5
:102ADC0000AF78600B467B8013467B707B78002BB5
:102AEC0003D07A887B681A6103E07B881A047B68C0
:102AFC001A6100BF0C37BD4680BC704780B485B0EE
:102B0C0000AF78600B467B807B68DB68FB607A8863
:102B1C00FB6813401A04FB68D9437B880B401A43AB
:102B2C007B681A6100BF1437BD4680BC704700003B
:102B3C0080B586B000AF78607B68002B01D1012393
:102B4C0072E27B681B6803F00103002B00F08780A6
:102B5C00924B5B6803F00C03042B0CD08F4B5B681F
:102B6C0003F00C03082B12D18C4B5B6803F48033FD
:102B7C00B3F5803F0BD1894B1B6803F40033002B5A
:102B8C006CD07B685B68002B68D101234CE27B68BE
:102B9C005B68B3F5803F06D1804B1B687F4A43F4DA
:102BAC00803313602EE07B685B68002B0CD17B4B71
:102BBC001B687A4A23F480331360784B1B68774A7E
:102BCC0023F4802313601DE07B685B68B3F5A02FB2
:102BDC000CD1724B1B68714A43F4802313606F4B0A
:102BEC001B686E4A43F4803313600BE06B4B1B681D
:102BFC006A4A23F480331360684B1B68674A23F4DA
:102C0C00802313607B685B68002B13D0FFF710FCEC
:102C1C00386108E0FFF70CFC02463B69D31A642BC1
:102C2C0001D9032300E25D4B1B6803F40033002B36
:102C3C00F0D014E0FFF7FCFB386108E0FFF7F8FB7D
:102C4C0002463B69D31A642B01D90323ECE1534BA5
:102C5C001B6803F40033002BF0D100E000BF7B684D
:102C6C001B6803F00203002B63D04C4B5B6803F032
:102C7C000C03002B0BD0494B5B6803F00C03082BA7
:102C8C001CD1464B5B6803F48033002B16D1434BAD
:102C9C001B6803F00203002B05D07B681B69012B1A
:102CAC0001D00123C0E13D4B1B6823F0F8027B6887
:102CBC005B69DB00394913430B603AE07B681B69A5
:102CCC00002B20D0364B01221A60FFF7B1FB386184
:102CDC0008E0FFF7ADFB02463B69D31A022B01D982
:102CEC000323A1E12D4B1B6803F00203002BF0D052
:102CFC002A4B1B6823F0F8027B685B69DB002749D1
:102D0C0013430B6015E0264B00221A60FFF790FB73
:102D1C00386108E0FFF78CFB02463B69D31A022BA3
:102D2C0001D9032380E11D4B1B6803F00203002B28
:102D3C00F0D17B681B6803F00803002B3AD07B684A
:102D4C009B69002B19D0174B01221A60FFF770FBFF
:102D5C00386108E0FFF76CFB02463B69D31A022B83
:102D6C0001D9032360E10D4B5B6A03F00203002BD6
:102D7C00F0D0012000F0CEFA1CE00A4B00221A60C1
:102D8C00FFF756FB38610FE0FFF752FB02463B6939
:102D9C00D31A022B08D9032346E100BF00100240CE
:102DAC000000424280044242924B5B6A03F00203F1
:102DBC00002BE9D17B681B6803F00403002B00F0A7
:102DCC00A6800023FB758B4BDB6903F08053002B33
:102DDC000DD1884BDB69874A43F08053D361854B17
:102DEC00DB6903F08053BB60BB680123FB75824B2E
:102DFC001B6803F48073002B18D17F4B1B687E4A31
:102E0C0043F480731360FFF713FB386108E0FFF79E
:102E1C000FFB02463B69D31A642B01D9032303E150
:102E2C00754B1B6803F48073002BF0D07B68DB6858
:102E3C00012B06D16F4B1B6A6E4A43F001031362E0
:102E4C002DE07B68DB68002B0CD16A4B1B6A694A4E
:102E5C0023F001031362674B1B6A664A23F00403D9
:102E6C0013621CE07B68DB68052B0CD1614B1B6A81
:102E7C00604A43F0040313625E4B1B6A5D4A43F0E5
:102E8C00010313620BE05B4B1B6A5A4A23F00103EC
:102E9C001362584B1B6A574A23F0040313627B6876
:102EAC00DB68002B15D0FFF7C3FA38610AE0FFF797
:102EBC00BFFA02463B69D31A41F28832934201D9D8
:102ECC000323B1E04B4B1B6A03F00203002BEED043
:102EDC0014E0FFF7ADFA38610AE0FFF7A9FA0246F1
:102EEC003B69D31A41F28832934201D903239BE008
:102EFC00404B1B6A03F00203002BEED1FB7D012B30
:102F0C0005D13C4BDB693B4A23F08053D3617B6892
:102F1C00DB69002B00F08780364B5B6803F00C03F9
:102F2C00082B61D07B68DB69022B46D1334B002226
:102F3C001A60FFF77DFA386108E0FFF779FA02466C
:102F4C003B69D31A022B01D903236DE0294B1B6873
:102F5C0003F00073002BF0D17B681B6AB3F5803F44
:102F6C0008D1244B5B6823F400327B689B682149B1
:102F7C0013434B601F4B5B6823F474127B68196A14
:102F8C007B685B6A0B431B4913434B601B4B012251
:102F9C001A60FFF74DFA386108E0FFF749FA02466C
:102FAC003B69D31A022B01D903233DE0114B1B685B
:102FBC0003F00073002BF0D035E0104B00221A60A8
:102FCC00FFF736FA386108E0FFF732FA02463B6940
:102FDC00D31A022B01D9032326E0064B1B6803F0FE
:102FEC000073002BF0D11EE07B68DB69012B07D14D
:102FFC00012319E0001002400070004060004242C2
:10300C000B4B5B68FB60FB6803F480327B681B6ACC
:10301C009A4206D1FB6803F470127B685B6A9A4291
:10302C0001D0012300E0002318461837BD4680BDAF
:10303C000010024080B584B000AF786039607B68C6
:10304C00002B01D10123D0E06A4B1B6803F007036E
:10305C003A689A4210D9674B1B6823F007026549FE
:10306C003B6813430B60634B1B6803F007033A6820
:10307C009A4201D00123B8E07B681B6803F002037D
:10308C00002B20D07B681B6803F00403002B05D0B9
:10309C00594B5B68584A43F4E06353607B681B6888
:1030AC0003F00803002B05D0534B5B68524A43F4E2
:1030BC0060535360504B5B6823F0F0027B689B6855
:1030CC004D4913434B607B681B6803F00103002BD5
:1030DC0040D07B685B68012B07D1474B1B6803F41E
:1030EC000033002B15D101237FE07B685B68022B3A
:1030FC0007D1414B1B6803F00073002B09D101234E
:10310C0073E03D4B1B6803F00203002B01D101233C
:10311C006BE0394B5B6823F003027B685B683649D4
:10312C0013434B60FFF784F9F8600AE0FFF780F96E
:10313C000246FB68D31A41F28832934201D9032329
:10314C0053E02D4B5B6803F00C027B685B689B00C3
:10315C009A42EBD1274B1B6803F007033A689A425B
:10316C0010D2244B1B6823F0070222493B681343FF
:10317C000B60204B1B6803F007033A689A4201D09E
:10318C00012332E07B681B6803F00403002B08D09A
:10319C00194B5B6823F4E0627B68DB6816491343C8
:1031AC004B607B681B6803F00803002B09D0124BA3
:1031BC005B6823F460527B681B69DB000E49134388
:1031CC004B6000F021F802460B4B5B681B0903F0C7
:1031DC000F030A49CB5C22FA03F3094A1360094B2B
:1031EC001B681846FFF7E2F8002318461037BD4657
:1031FC0080BD00BF0020024000100240BC5C0008F3
:10320C00100000201400002080B487B000AF002311
:10321C00FB600023BB6000237B6100237B600023E9
:10322C003B611E4B5B68FB60FB6803F00C03042BDB
:10323C0002D0082B03D027E0194B3B6127E0FB6839
:10324C009B0C03F00F03174AD35C7B60FB6803F401
:10325C008033002B10D0114B5B685B0C03F0010327
:10326C00114AD35CBB607B680D4A03FB02F2BB685E
:10327C00B2FBF3F37B6104E07B680C4A02FB03F3C3
:10328C007B617B693B6102E0054B3B6100BF3B69A5
:10329C0018461C37BD4680BC704700BF001002406A
:1032AC0000127A00D45C0008E45C000800093D00C0
:1032BC0080B400AF024B1B681846BD4680BC7047FB
:1032CC001000002080B500AFFFF7F2FF0246054B5F
:1032DC005B681B0A03F007030349CB5C22FA03F378
:1032EC00184680BD00100240CC5C000880B500AFD1
:1032FC00FFF7DEFF0246054B5B68DB0A03F00703B2
:10330C000349CB5C22FA03F3184680BD001002403F
:10331C00CC5C000880B485B000AF78600A4B1B68A9
:10332C000A4AA2FB03235B0A7A6802FB03F3FB60E5
:10333C0000BFFB685A1EFA60002BF9D100BF00BF1A
:10334C001437BD4680BC704710000020D34D62106E
:10335C0080B582B000AF78607B68002B01D101236F
:10336C0041E07B6893F83D30DBB2002B06D17B68E3
:10337C00002283F83C207868FEF744FE7B6802222A
:10338C0083F83D207B681A687B6804331946104625
:10339C0000F05CFA7B68012283F846207B680122EE
:1033AC0083F83E207B68012283F83F207B68012252
:1033BC0083F840207B68012283F841207B6801223E
:1033CC0083F842207B68012283F843207B6801222A
:1033DC0083F844207B68012283F845207B68012216
:1033EC0083F83D20002318460837BD4680BD0000F9
:1033FC0080B485B000AF78607B6893F83D30DBB269
:10340C00012B01D001233AE07B68022283F83D2096
:10341C007B681B68DA687B681B6842F00102DA6023
:10342C007B681B68184A93420ED07B681B68B3F10B
:10343C00804F09D07B681B68144A934204D07B6888
:10344C001B68134A934211D17B681B689B6803F07D
:10345C000703FB60FB68062B10D07B681B681A689F
:10346C007B681B6842F001021A6007E07B681B68EE
:10347C001A687B681B6842F001021A600023184628
:10348C001437BD4680BC7047002C0140000400403E
:10349C000008004080B584B000AF78607B681B6882
:1034AC00DB68FB607B681B681B69BB60BB6803F057
:1034BC000203002B20D0FB6803F00203002B1BD06F
:1034CC007B681B686FF002021A617B6801221A7715
:1034DC007B681B689B6903F00303002B03D078689F
:1034EC0000F098F905E0786800F08BF9786800F046
:1034FC009AF97B6800221A77BB6803F00403002B4F
:10350C0020D0FB6803F00403002B1BD07B681B68E6
:10351C006FF004021A617B6802221A777B681B68C1
:10352C009B6903F44073002B03D0786800F072F9A8
:10353C0005E0786800F065F9786800F074F97B684C
:10354C0000221A77BB6803F00803002B20D0FB681D
:10355C0003F00803002B1BD07B681B686FF008027C
:10356C001A617B6804221A777B681B68DB6903F09D
:10357C000303002B03D0786800F04CF905E0786861
:10358C0000F03FF9786800F04EF97B6800221A775A
:10359C00BB6803F01003002B20D0FB6803F0100372
:1035AC00002B1BD07B681B686FF010021A617B68C4
:1035BC0008221A777B681B68DB6903F44073002BC5
:1035CC0003D0786800F026F905E0786800F019F966
:1035DC00786800F028F97B6800221A77BB6803F042
:1035EC000103002B0CD0FB6803F00103002B07D068
:1035FC007B681B686FF001021A617868FEF7CCF9E2
:10360C00BB6803F08003002B0CD0FB6803F0800335
:10361C00002B07D07B681B686FF080021A617868FA
:10362C0000F07FFABB6803F04003002B0CD0FB6862
:10363C0003F04003002B07D07B681B686FF040023F
:10364C001A61786800F0F8F8BB6803F02003002BCF
:10365C000CD0FB6803F02003002B07D07B681B68A1
:10366C006FF020021A61786800F052FA00BF103730
:10367C00BD4680BD80B584B000AF78603960002352
:10368C00FB737B6893F83C30012B01D10223B4E02F
:10369C007B68012283F83C207B68022283F83D2062
:1036AC007B681B689B68BB60BB6823F07703BB60BF
:1036BC00BB6823F47F43BB607B681B68BA689A6065
:1036CC003B681B68B3F5005F3ED0B3F5005F00F2BA
:1036DC008780B3F5805F00F08680B3F5805F7FD87C
:1036EC00702B1AD0702B7BD8602B50D0602B77D8D6
:1036FC00502B3CD0502B73D8402B58D0402B6FD82C
:10370C00302B64D0302B6BD8202B60D0202B67D87B
:10371C00002B5CD0102B5AD062E07B6818683B6899
:10372C0099683B685A683B68DB6800F074F97B6801
:10373C001B689B68BB60BB6843F07703BB607B680E
:10374C001B68BA689A604FE07B6818683B68996898
:10375C003B685A683B68DB6800F05DF97B681B6866
:10376C009A687B681B6842F480429A603CE07B68F4
:10377C0018683B6859683B68DB681A4600F0D4F857
:10378C007B681B685021184600F02BF92CE07B68F5
:10379C0018683B6859683B68DB681A4600F0F2F819
:1037AC007B681B686021184600F01BF91CE07B68E5
:1037BC0018683B6859683B68DB681A4600F0B4F837
:1037CC007B681B684021184600F00BF90CE07B6805
:1037DC001A683B681B681946104600F002F903E0B2
:1037EC000123FB7300E000BF7B68012283F83D20BE
:1037FC007B68002283F83C20FB7B18461037BD46C3
:10380C0080BD80B483B000AF786000BF0C37BD467C
:10381C0080BC704780B483B000AF786000BF0C37B9
:10382C00BD4680BC704780B483B000AF786000BFE9
:10383C000C37BD4680BC704780B483B000AF786055
:10384C0000BF0C37BD4680BC7047000080B485B00B
:10385C0000AF786039607B681B68FB607B682F4A1F
:10386C0093420BD07B68B3F1804F07D07B682C4A16
:10387C00934203D07B682B4A934208D1FB6823F018
:10388C007003FB603B685B68FA681343FB607B6802
:10389C00224A93420BD07B68B3F1804F07D07B68F0
:1038AC001F4A934203D07B681E4A934208D1FB689F
:1038BC0023F44073FB603B68DB68FA681343FB60DE
:1038CC00FB6823F080023B685B691343FB607B68F9
:1038DC00FA681A603B689A687B68DA623B681A6817
:1038EC007B689A627B680D4A934203D13B681A69E4
:1038FC007B681A637B6801225A617B681B6903F041
:10390C000103002B05D07B681B6923F001027B6847
:10391C001A6100BF1437BD4680BC7047002C0140B3
:10392C00000400400008004080B487B000AFF8608D
:10393C00B9607A60FB681B6A7B61FB681B6A23F0C9
:10394C000102FB681A62FB689B693B613B6923F0CF
:10395C00F0033B617B681B013A6913433B617B6954
:10396C0023F00A037B617A69BB6813437B61FB68B4
:10397C003A699A61FB687A691A6200BF1C37BD46C6
:10398C0080BC704780B487B000AFF860B9607A60D3
:10399C00FB681B6A7B61FB681B6A23F01002FB68E7
:1039AC001A62FB689B693B613B6923F470433B6182
:1039BC007B681B033A6913433B617B6923F0A003CB
:1039CC007B61BB681B017A6913437B61FB683A69B5
:1039DC009A61FB687A691A6200BF1C37BD4680BCCD
:1039EC00704780B485B000AF786039607B689B68A5
:1039FC00FB60FB6823F07003FB603A68FB681343C1
:103A0C0043F00703FB607B68FA689A6000BF1437C9
:103A1C00BD4680BC704780B487B000AFF860B96019
:103A2C007A603B60FB689B687B617B6923F47F4316
:103A3C007B613B681A027B681A43BB6813437A6943
:103A4C0013437B61FB687A699A6000BF1C37BD46E3
:103A5C0080BC704780B485B000AF786039607B68FB
:103A6C0093F83C30012B01D1022346E07B68012204
:103A7C0083F83C207B68022283F83D207B681B681E
:103A8C005B68FB607B681B689B68BB60FB6823F012
:103A9C007003FB603B681B68FA681343FB607B6830
:103AAC001B68FA685A607B681B68164A93420ED0F2
:103ABC007B681B68B3F1804F09D07B681B68124A86
:103ACC00934204D07B681B68104A93420CD1BB68AC
:103ADC0023F08003BB603B685B68BA681343BB6030
:103AEC007B681B68BA689A607B68012283F83D206A
:103AFC007B68002283F83C20002318461437BD460F
:103B0C0080BC7047002C01400004004000080040BD
:103B1C0080B483B000AF786000BF0C37BD4680BC6A
:103B2C00704780B483B000AF786000BF0C37BD46DF
:103B3C0080BC704780B582B000AF78607B68002B8A
:103B4C0001D1012342E07B6893F84130DBB2002BBA
:103B5C0006D17B68002283F840207868FEF778FA5B
:103B6C007B68242283F841207B681B68DA687B68B9
:103B7C001B6822F40052DA60786800F0B7FD7B68AD
:103B8C001B681A697B681B6822F490421A617B6877
:103B9C001B685A697B681B6822F02A025A617B6891
:103BAC001B68DA687B681B6842F40052DA607B6839
:103BBC0000225A647B68202283F841207B682022F3
:103BCC0083F842207B6800225A630023184608378A
:103BDC00BD4680BD80B58AB002AFF860B9603B606D
:103BEC001346FB8000237B61FB6893F84130DBB20A
:103BFC00202B75D1BB68002B02D0FB88002B01D188
:103C0C0001236EE0FB6800225A64FB68212283F8D2
:103C1C004120FEF70DFC7861FB68FA889A84FB68FA
:103C2C00FA88DA84FB689B68B3F5805F08D1FB687F
:103C3C001B69002B04D10023FB61BB68BB6103E053
:103C4C00BB68FB610023BB612EE03B6800937B6982
:103C5C0000228021F86800F01CFB0346002B05D0E5
:103C6C00FB68202283F8412003233AE0FB69002BF8
:103C7C000BD1BB691B881A46FB681B68C2F3080290
:103C8C005A60BB690233BB6107E0FB691A78FB68B9
:103C9C001B685A60FB690133FB61FB68DB8C9BB2D0
:103CAC00013B9AB2FB68DA84FB68DB8C9BB2002B7D
:103CBC00CBD13B6800937B6900224021F86800F06F
:103CCC00E8FA0346002B05D0FB68202283F841203C
:103CDC00032306E0FB68202283F84120002300E048
:103CEC00022318462037BD4680BD80B584B000AF96
:103CFC00F860B9601346FB80FB6893F84230DBB286
:103D0C00202B12D1BB68002B02D0FB88002B01D1D9
:103D1C0001230BE0FB6800221A63FB881A46B96882
:103D2C00F86800F00FFB034600E00223184610373A
:103D3C00BD4680BD80B5BAB000AF78607B681B68AB
:103D4C001B68C7F8E4307B681B68DB68C7F8E03099
:103D5C007B681B685B69C7F8DC300023C7F8D83078
:103D6C000023C7F8D430D7F8E43003F00F03C7F8BA
:103D7C00D830D7F8D830002B0FD1D7F8E43003F077
:103D8C002003002B09D0D7F8E03003F02003002BE0
:103D9C0003D0786800F0ECFB5BE2D7F8D830002B4E
:103DAC0000F0DE80D7F8DC3003F00103002B06D1E5
:103DBC00D7F8E03003F49073002B00F0D180D7F8E3
:103DCC00E43003F00103002B0BD0D7F8E03003F400
:103DDC008073002B05D07B685B6C43F001027B6821
:103DEC005A64D7F8E43003F00403002B0BD0D7F857
:103DFC00DC3003F00103002B05D07B685B6C43F0D7
:103E0C0002027B685A64D7F8E43003F00203002BFB
:103E1C000BD0D7F8DC3003F00103002B05D07B6806
:103E2C005B6C43F004027B685A64D7F8E43003F00F
:103E3C000803002B11D0D7F8E03003F02003002B3F
:103E4C0005D1D7F8DC3003F00103002B05D07B68DB
:103E5C005B6C43F008027B685A647B685B6C002BDC
:103E6C0000F0F281D7F8E43003F02003002B08D0E7
:103E7C00D7F8E03003F02003002B02D0786800F074
:103E8C0077FB7B681B685B6903F04003002B14BF56
:103E9C0001230023DBB2C7F8D4307B685B6C03F0E2
:103EAC000803002B03D1D7F8D430002B4FD07868FF
:103EBC0000F081FA7B681B685B6903F04003002B00
:103ECC0041D07B681B681433C7F89C30D7F89C3002
:103EDC0053E8003FC7F89830D7F8983023F04003E8
:103EEC00C7F8D0307B681B681433D7F8D020C7F8DC
:103EFC00A820C7F8A430D7F8A410D7F8A82041E818
:103F0C000023C7F8A030D7F8A030002BD9D17B689C
:103F1C00DB6B002B13D07B68DB6B7E4A5A637B68B0
:103F2C00DB6B1846FEF7D6FB0346002B16D07B68DE
:103F3C00DB6B5B6B7A68D26B104698470EE0786847
:103F4C0000F093F90AE0786800F08FF906E07868E1
:103F5C0000F08BF97B6800225A6475E100BF73E1B5
:103F6C007B681B6B012B40F04F81D7F8E43003F0DA
:103F7C001003002B00F04881D7F8E03003F0100359
:103F8C00002B00F041810023BB607B681B681B6821
:103F9C00BB607B681B685B68BB60BB687B681B682D
:103FAC005B6903F04003002B00F0B6807B68DB6B91
:103FBC001B685B68A7F8BE30B7F8BE30002B00F06A
:103FCC0045817B689B8DB7F8BE209A4280F03E817C
:103FDC007B68B7F8BE20DA857B68DB6B9B69202B8E
:103FEC0000F088807B681B680C33C7F88830D7F8E2
:103FFC00883053E8003FC7F88430D7F8843023F476
:10400C008073C7F8B8307B681B680C33D7F8B820BE
:10401C00C7F89420C7F89030D7F89010D7F89420B0
:10402C0041E80023C7F88C30D7F88C30002BD9D15D
:10403C007B681B6814337B677B6F53E8003F3B67DF
:10404C003B6F23F00103C7F8B4307B681B68143353
:10405C00D7F8B420C7F88020FB67F96FD7F8802019
:10406C0041E80023BB67BB6F002BE1D17B681B6869
:10407C0014333B663B6E53E8003FFB65FB6D23F04E
:10408C004003C7F8B0307B681B681433D7F8B020F6
:10409C00FA66BB66B96EFA6E41E800237B667B6EEE
:1040AC00002BE3D17B68202283F842207B6800221E
:1040BC001A637B681B680C33FB64FB6C53E8003F92
:1040CC00BB64BB6C23F01003C7F8AC307B681B6877
:1040DC000C33D7F8AC20BA657B65796DBA6D41E8C5
:1040EC0000233B653B6D002BE3D17B68DB6B1846F3
:1040FC00FEF7B5FA7B6802225A637B689A8D7B685F
:10410C00DB8D9BB2D31A9BB21946786800F0B6F8D7
:10411C009CE000BF874400087B689A8D7B68DB8D30
:10412C009BB2D31AA7F8CE307B68DB8D9BB2002BE9
:10413C0000F08E80B7F8CE30002B00F089807B68C1
:10414C001B680C33BB63BB6B53E8003F7B637B6B1F
:10415C0023F49073C7F8C8307B681B680C33D7F80E
:10416C00C8207A643B64396C7A6C41E80023FB63A9
:10417C00FB6B002BE3D17B681B6814337B627B6A7F
:10418C0053E8003F3B623B6A23F00103C7F8C4309D
:10419C007B681B681433D7F8C4203A63FB62F96A56
:1041AC003A6B41E80023BB62BB6A002BE3D17B680E
:1041BC00202283F842207B6800221A637B681B68EC
:1041CC000C333B613B6953E8003FFB60FB6823F019
:1041DC001003C7F8C0307B681B680C33D7F8C020BD
:1041EC00FA61BB61B969FA6941E800237B617B69BB
:1041FC00002BE3D17B6802225A63B7F8CE30194604
:10420C00786800F03BF823E0D7F8E43003F0800343
:10421C00002B09D0D7F8E03003F08003002B03D03B
:10422C00786800F03EF914E0D7F8E43003F040036E
:10423C00002B0ED0D7F8E03003F04003002B08D051
:10424C00786800F07DF904E000BF02E000BF00E0F8
:10425C0000BFE837BD4680BD80B483B000AF786046
:10426C0000BF0C37BD4680BC704780B483B000AF34
:10427C00786000BF0C37BD4680BC704780B483B0FB
:10428C0000AF78600B467B8000BF0C37BD4680BC0E
:10429C00704780B586B000AFF860B9603B601346DC
:1042AC00FB713BE03B6AB3F1FF3F37D0FEF7C0F840
:1042BC0002463B68D31A3A6A9A4202D33B6A002BF5
:1042CC0001D103233AE0FB681B68DB6803F00403AD
:1042DC00002B23D0BB68802B20D0BB68402B1DD07B
:1042EC00FB681B681B6803F00803082B16D100231E
:1042FC007B61FB681B681B687B61FB681B685B68E8
:10430C007B617B69F86800F056F8FB6808225A64F8
:10431C00FB68002283F8402001230FE0FB681B6838
:10432C001A68BB681340BA689A420CBF0123002379
:10433C00DBB21A46FB799A42B4D0002318461837E0
:10434C00BD4680BD80B485B000AFF860B96013463F
:10435C00FB80FB68BA689A62FB68FA889A85FB68EE
:10436C00FA88DA85FB6800225A64FB68222283F8FB
:10437C004220FB681B69002B07D0FB681B68DA68BE
:10438C00FB681B6842F48072DA60FB681B685A6930
:10439C00FB681B6842F001025A61FB681B68DA6813
:1043AC00FB681B6842F02002DA60002318461437C1
:1043BC00BD4680BC704780B495B000AF78607B6818
:1043CC001B680C337B637B6B53E8003F3B633B6B9D
:1043DC0023F49073FB647B681B680C33FA6C3A64AF
:1043EC00FB63F96B3A6C41E80023BB63BB6B002B9E
:1043FC00E5D17B681B6814333B623B6A53E8003F92
:10440C00FB61FB6923F00103BB647B681B681433FD
:10441C00BA6CFA62BB62B96AFA6A41E800237B6241
:10442C007B6A002BE5D17B681B6B012B19D17B6858
:10443C001B680C33FB60FB6853E8003FBB60BB6838
:10444C0023F010037B647B681B680C337A6CBA61B5
:10445C007B617969BA6941E800233B613B69002BB8
:10446C00E5D17B68202283F842207B6800221A6306
:10447C0000BF5437BD4680BC704780B584B000AFD8
:10448C0078607B685B6AFB60FB680022DA85FB68FE
:10449C000022DA84F868FFF7E8FE00BF1037BD464B
:1044AC0080BD80B485B000AF78607B6893F84130F4
:1044BC00DBB2212B3ED17B689B68B3F5805F14D1B6
:1044CC007B681B69002B10D17B681B6AFB60FB6847
:1044DC001B881A467B681B68C2F308025A607B680B
:1044EC001B6A9A1C7B681A6208E07B681B6A591C61
:1044FC007A6811621A787B681B685A607B68DB8C5F
:10450C009BB2013B9BB27A681946D184002B0FD128
:10451C007B681B68DA687B681B6822F08002DA60B3
:10452C007B681B68DA687B681B6842F04002DA60C3
:10453C00002300E0022318461437BD4680BC7047A8
:10454C0080B582B000AF78607B681B68DA687B68E6
:10455C001B6822F04002DA607B68202283F841203D
:10456C007868FFF779FE002318460837BD4680BDF2
:10457C0080B58CB000AF78607B6893F84230DBB2CA
:10458C00222B40F0AE807B689B68B3F5805F17D11F
:10459C007B681B69002B13D10023FB627B689B6A31
:1045AC00BB627B681B685B689BB2C3F308039AB25F
:1045BC00BB6A1A807B689B6A9A1C7B689A6226E0AD
:1045CC007B689B6AFB620023BB627B689B68B3F5CC
:1045DC00805F07D07B689B68002B0AD17B681B69C6
:1045EC00002B06D17B681B685B68DAB2FB6A1A7019
:1045FC0008E07B681B685B68DBB203F07F03DAB210
:10460C00FB6A1A707B689B6A5A1C7B689A627B688F
:10461C00DB8D9BB2013B9BB27A681946D185002B8E
:10462C005DD17B681B68DA687B681B6822F020020E
:10463C00DA607B681B68DA687B681B6822F480721E
:10464C00DA607B681B685A697B681B6822F0010280
:10465C005A617B68202283F842207B6800225A63CF
:10466C007B681B6B012B35D17B6800221A637B683E
:10467C001B680C337B617B6953E8003F3B613B69F2
:10468C0023F010037B627B681B680C337A6A3A62F6
:10469C00FB61F9693A6A41E80023BB61BB69002BF5
:1046AC00E5D17B681B681B6803F01003102B0AD143
:1046BC000023FB607B681B681B68FB607B681B68C6
:1046CC005B68FB60FB687B689B8D19467868FFF71D
:1046DC00D5FD02E07868FDF775F9002302E00023B0
:1046EC0000E0022318463037BD4680BD80B584B04B
:1046FC0000AF78607B681B681B6923F440517B68B2
:10470C00DA687B681B680A431A617B689A687B6865
:10471C001B691A437B685B691343BB607B681B682E
:10472C00DB6823F4B05323F00C037A681268B96881
:10473C000B43D3607B681B685B6923F440717B6817
:10474C009A697B681B680A435A617B681B682C4A10
:10475C00934203D1FEF7CAFDF86002E0FEF7B2FD0A
:10476C00F860FA6813469B0013449A001A447B685D
:10477C005B689B00B2FBF3F3224AA2FB03235B09A9
:10478C001901FA6813469B0013449A001A447B687B
:10479C005B689B00B2FBF3F21A4BA3FB02035B09B1
:1047AC00642000FB03F3D31A1B013233154AA2FB1E
:1047BC0003235B0903F0F0031944FA6813469B00CA
:1047CC0013449A001A447B685B689B00B2FBF3F2BB
:1047DC000C4BA3FB02035B09642000FB03F3D31A0D
:1047EC001B013233074AA2FB03235B0903F00F02C0
:1047FC007B681B680A449A6000BF1037BD4680BDB9
:10480C00003801401F85EB51931E222B10B50C462E
:10481C0004D900231C460B70204610BD0A2A09D16E
:10482C00002807DA2D230B7001214042214400F0AF
:10483C0005F8F1E70021F9E7FFF7E6BFF0B58BB01B
:10484C0005460B466E461D4C04F1200C374620687D
:10485C006168083403C764453E46F7D12179206866
:10486C003971911E222938604FF0000104D919705A
:10487C000B4618460BB0F0BD581E8446B5FBF2F73C
:10488C0002FB175628366E4416F8286C0C460CF8AA
:10489C00016F2E46B2423D4601F10101EED90022D4
:1048AC005A541919A51AAA42E3DA10F8015F0E78C6
:1048BC000132067001F80159F4E700BFE65C00080C
:1048CC00002310B50446C0E90033C0E9043383600B
:1048DC0081814366C2818361194608225C3000F0F5
:1048EC0006F90D4B246263620C4BA3620C4BE36222
:1048FC000C4B23630C4B9C4206D003F16802944290
:10490C0002D0D0339C4205D104F15800BDE81040D0
:10491C0000F078B910BD00BF754A0008974A00082E
:10492C00CF4A0008F34A0008EC050020024A03496C
:10493C00034800F069B800BF1C000020C1540008F7
:10494C002C00002041680C4B10B59942044601D054
:10495C0000F0B0FDA168094B994202D0204600F04E
:10496C00A9FDE168064B994204D02046BDE81040F1
:10497C0000F0A0BD10BD00BFEC05002054060020C7
:10498C00BC06002010B50B4B0B4C0C4A20461A6091
:10499C0004210022FFF794FF04F168000122092191
:1049AC00FFF78EFF04F1D0000222BDE81040122167
:1049BC00FFF786BF24070020EC05002039490008CA
:1049CC00014800F020B900BF2D070020014800F07D
:1049DC001BB900BF2D07002010B50446FFF7F0FFF0
:1049EC00236A1BB1BDE81040FFF7F0BF044B2362F4
:1049FC00044B1B68002BF5D1FFF7C4FFF2E700BF97
:104A0C0051490008240700202DE9F8430746884641
:104A1C0014460026D4E90195B9F1010905D524689D
:104A2C00002CF7D13046BDE8F883AB89012B07D9B0
:104A3C00B5F90E30013303D029463846C04706433A
:104A4C006835E9E70FB407B5064904AB086853F8B5
:104A5C00042B8168019300F005FA03B05DF804EBB8
:104A6C0004B070472800002010B50C46B1F90E10A8
:104A7C0000F07AF80028ABBF636DA3891B1823F4F0
:104A8C008053ACBF6365A38110BD2DE9F0411F4677
:104A9C008B890546DB050C46164605D502230022FC
:104AAC00B1F90E1000F04EF8A389324623F480536E
:104ABC00A38128463B46B4F90E10BDE8F04100F046
:104ACC0065B810B50C46B1F90E1000F03BF8431C5C
:104ADC00A38915BF606523F4805343F48053A381ED
:104AEC0018BFA38110BDB1F90E1000F01BB803461E
:104AFC000244934200D1704703F8011BF9E70346C7
:104B0C0010B5013932B111F8014F013A03F8014BDC
:104B1C00002CF7D100211A44934200D110BD03F8A8
:104B2C00011BF9E738B50023054D044608462B60F8
:104B3C00FDF793FB431C02D12B6803B1236038BDF6
:104B4C002807002038B50446084611460022054DBA
:104B5C002A601A46FDF7A5FB431C02D12B6803B152
:104B6C00236038BD2807002038B504460846114696
:104B7C000022054D2A601A46FDF736FB431C02D174
:104B8C002B6803B1236038BD2807002038B50446D4
:104B9C00084611460022054D2A601A46FDF741FBD6
:104BAC00431C02D12B6803B1236038BD28070020B9
:104BBC00014B1868704700BF2800002070B5002614
:104BCC000C4D0D4C641BA410A64209D100F0D0FD75
:104BDC0000260A4D0A4C641BA410A64205D170BDD8
:104BEC0055F8043B98470136EEE755F8043B9847D7
:104BFC000136F2E7485D0008485D0008485D000892
:104C0C004C5D00087047704770470A44914200F1B0
:104C1C00FF3300D1704710B511F8014B914203F8E6
:104C2C00014FF9D110BD000038B50546002940D020
:104C3C0051F8043C0C1F002BB8BFE41800F0DEF850
:104C4C001C4A136833B9636014602846BDE83840C9
:104C5C0000F0DAB8A34208D9206821188B4201BFB2
:104C6C0019685B6809182160EDE71A465B680BB19F
:104C7C00A342FAD911685018A0420BD12068014404
:104C8C00501883421160E0D118685B6808441060CA
:104C9C005360DAE702D90C232B60D6E72068211881
:104CAC008B4201BF19685B6809182160636054600E
:104CBC00CBE738BD3407002070B50F4E0C46316879
:104CCC00054611B900F0B2FC30602146284600F0D0
:104CDC00ADFC431C03D14FF0FF34204670BDC41C07
:104CEC0024F00304A042F8D0211A284600F09EFCC0
:104CFC000130F2D1EFE700BF300700202DE9F84377
:104D0C00CD1C25F0030508350C2D38BF0C25002DC6
:104D1C00064601DBA94204D90C2333600020BDE810
:104D2C00F883DFF8D48000F069F8D8F800301C461E
:104D3C0044BB29463046FFF7BFFF431C044658D1FD
:104D4C00D8F800402746002F43D1002C4BD02368C5
:104D5C003946304604EB030900F068FC814542D12A
:104D6C00216830466D1A2946FFF7A6FF01303AD06C
:104D7C0023682B442360D8F800305A6862BBC8F80B
:104D8C0000700FE02268521B20D40B2A17D961192E
:104D9C00A342256018BF5960636808BFC8F80010AB
:104DAC0062514B60304600F02FF804F10B00231DCC
:104DBC0020F00700C21A1CBF1B1AA350AFE7626891
:104DCC00A3420CBFC8F800205A60EBE72346646886
:104DDC00AEE73C467F68B6E71A465B68A342FBD158
:104DEC0000235360DEE70C233046336000F00CF8F0
:104DFC0094E70560D6E700BF340700200148FFF7B1
:104E0C0002BF00BF2C0700200148FFF7FDBE00BF0A
:104E1C002C070020936810B4013B002B936007DA39
:104E2C009469A34201DB0A2902D110BC00F06ABBD1
:104E3C001368581C10601970084610BC7047F8B500
:104E4C0006460F461446D518AC4201D1002007E0A7
:104E5C003A46304614F8011BFFF7DCFF431CF3D134
:104E6C00F8BD00002DE9F04F0D4614469846064655
:104E7C009DB018B1036A0BB9FFF7AEFD6B6ED90785
:104E8C0005D4AB899A0502D4A86DFFF7BCFEAB899B
:104E9C001B0701D52B699BB92946304600F070FBE6
:104EAC0070B16B6EDC0704D54FF0FF301DB0BDE860
:104EBC00F08FAB899805F7D4A86DFFF7A5FEF3E743
:104ECC000023099320238DF8293030234FF001095A
:104EDC00CDF80C80DFF8A8818DF82A3023469A464D
:104EEC0013F8012B0AB1252AF9D1BAEB040B0BD01C
:104EFC005B46224629463046FFF7A1FF013000F001
:104F0C00A780099A5A4409929AF80030002B00F0B5
:104F1C009F8000234FF0FF32CDE905230AF1010AEF
:104F2C00049307938DF853301A935446052214F8C2
:104F3C00011B534800F08AFB049AD8B9D10644BF30
:104F4C0020238DF85330130744BF2B238DF8533097
:104F5C009AF800302A2B15D0544600204FF00A0C3A
:104F6C00079A214611F8013B303B092B4BD9B0B1C4
:104F7C00079214E0A0EB080309FA03F31343A246CB
:104F8C000493D2E7039B191D1B680391002BBBBF35
:104F9C005B4242F0020207930793B8BF0492237856
:104FAC002E2B0AD163782A2B32D1039B02341A1D83
:104FBC001B68039243EAE3730593DFF8C8A003224E
:104FCC005046217800F042FB38B14022049BA0EB04
:104FDC000A00824013430134049314F8011B062287
:104FEC0029488DF8281000F031FB00283FD0274BC2
:104FFC001BBB039B073323F0070308330393099B65
:10500C003B4409936AE70C4601200CFB0232A8E7EB
:10501C0000234FF00A0C194601340593204610F872
:10502C00012B303A092A03D9002BC6D00591C4E7CD
:10503C00044601230CFB0121F0E703AB00932A4645
:10504C003046134B04A9AFF300800746781CD6D129
:10505C006B6ED90705D4AB899A0502D4A86DFFF7FE
:10506C00D3FDAB895B063FF51FAF09981EE703AB79
:10507C0000932A463046064B04A900F07DF8E4E77D
:10508C000B5D0008115D0008155D000800000000B4
:10509C004B4E00082DE9F047164698468A680B6976
:1050AC0007469342B8BF1346336091F843200C4631
:1050BC00DDF820900AB1013333602368990642BFB2
:1050CC00336802333360256815F0060506D104F108
:1050DC00190AE36832689B1AAB422BDC94F8433014
:1050EC002268003B18BF0123920630D44146384653
:1050FC0004F14302C847013023D02368226903F02E
:10510C000603042B14BF002533684FF0000608BFBC
:10511C00E56804F11A0408BFED1A54F8123C08BFF4
:10512C0025EAE5759342C4BF9B1AED18B5421AD116
:10513C00002008E00123524641463846C84701305A
:10514C0003D14FF0FF30BDE8F0870135C1E73020C7
:10515C00E11881F843005A1C94F84510224402339C
:10516C0082F84310C2E70123224641463846C8471D
:10517C000130E6D00136D9E72DE9FF470F7E914685
:10518C00782F80460C469A460C9E01F1430207D8B4
:10519C00622F0AD8002F00F0D180582F00F0B88071
:1051AC0004F1420684F842703AE0A7F16303152B30
:1051BC00F6D801A151F823F01D5200083152000815
:1051CC00AD510008AD510008AD510008AD510008BB
:1051DC0031520008AD510008AD510008AD51000826
:1051EC00AD5100082F5300085B520008E95200082B
:1051FC00AD510008AD51000851530008AD510008E5
:10520C005B520008AD510008AD510008F152000886
:10521C0033681A1D1B68326004F1420684F8423070
:10522C0001239CE033682068191D3160060601D506
:10523C001D6803E04506FBD5B3F90050002D03DAD9
:10524C002D236D4284F843300A23584811E021681D
:10525C003368080653F8045B02D4490648BFADB264
:10526C006F2F336014BF0A2308235048002184F8A1
:10527C0043106668002EA66005DB21682E4321F0E2
:10528C00040121604BD01646B5FBF3F103FB11571B
:10529C00C75D06F8017D2F46BB420D46F4D9082B9D
:1052AC000BD12368DF0708D5236961689942DEBFFB
:1052BC00302306F8013C06F1FF36921B22614B4667
:1052CC0021464046CDF800A003AAFFF7E3FE0130CB
:1052DC004AD14FF0FF3004B0BDE8F087236843F0AB
:1052EC00200323607827324884F84570236831689E
:1052FC001F0651F8045B02D45F0648BFADB23160A3
:10530C00D90744BF43F0200323601DB11023ADE740
:10531C002648E9E7236823F020032360F6E71646C6
:10532C00BDE733682568181D616930602E061B685F
:10533C0001D5196002E06806FBD5198000231646DA
:10534C002361BCE7336800211A1D32601E68626855
:10535C00304600F07BF908B1801B60606368236104
:10536C00002384F84330AAE7324649464046236975
:10537C00D0470130ADD023689B0713D4E068039B62
:10538C009842B8BF1846A6E7012332464946404624
:10539C00D04701309DD00135E36803995B1AAB42CD
:1053AC00F2DCEBE7002504F11906F5E71C5D0008BB
:1053BC002D5D0008B1F90C20F8B5160705460C4612
:1053CC0054D44B68002B02DC0B6C002B48DDE66AD6
:1053DC00002E45D0002312F480522F68216A2B60D6
:1053EC0030D0626DA389590705D56368D21A636BF7
:1053FC000BB1236CD21A00232846E66A216AB04707
:10540C00431CA38906D129681D292BD8284ACA40D8
:10541C00D60727D5002262602269D904226004D500
:10542C00421C01D12B6803B96065616B2F60B9B167
:10543C0004F14403994202D02846FFF7F5FB002300
:10544C0063630DE001232846B0470246501CC9D1C6
:10545C002B68002BC6D01D2B01D0162B1DD12F6015
:10546C00002021E043F040031BB21AE00F69002F2B
:10547C00F6D0930718BF00230E6808BF4B69F61BC4
:10548C000F608B60002EEBDD33463A462846216ACE
:10549C00D4F828C0E047002807DCB4F90C3043F0FE
:1054AC0040034FF0FF30A381F8BD0744361AE9E7FB
:1054BC000100402038B50B6905460C4613B9002590
:1054CC00284638BD18B1036A0BB9FFF785FAB4F951
:1054DC000C30002BF3D0626ED00704D4990502D4A3
:1054EC00A06DFFF790FB28462146FFF763FF636E24
:1054FC000546DA07E4D4A3899B05E1D4A06DFFF738
:10550C0083FBDDE7F8B50E461446054618B1036A71
:10551C000BB9FFF761FAA369A360A3891A0701D538
:10552C00236943B92146284600F02AF818B14FF0F8
:10553C00FF373846F8BD23682269F6B2981A6369BA
:10554C003746834205DC21462846FFF7B3FF002887
:10555C00EDD1A368013BA36023685A1C22601E7026
:10556C006269431C9A4204D0A389DB07E1D50A2E59
:10557C00DFD121462846FFF79DFF0028D9D0D6E77A
:10558C0038B5294B054618680C4618B1036A0BB997
:10559C00FFF722FAB4F90C30190722D4DA0607D433
:1055AC0009222A6043F040034FF0FF30A38133E01F
:1055BC00580712D5616B41B104F14403994202D0F2
:1055CC002846FFF731FB00236363A38923F02403F0
:1055DC00A3810023636023692360A38943F008033C
:1055EC00A38123694BB9A38903F42073B3F5007F1E
:1055FC0003D02146284600F05CF8B4F90C3013F0C7
:10560C0001020AD00022A26062695242A2612269A0
:10561C0042B913F08000C5D138BD990758BF6269F3
:10562C00A260F4E70020F7E72800002038B500233B
:10563C00054D044608462B60FCF740FE431C02D186
:10564C002B6803B1236038BD28070020034610B532
:10565C00C9B202449342184601D1002003E00478F9
:10566C0001338C42F6D110BD70B50C46B1F90E1059
:10567C00154600291E4696B00CDAA389002113F0BA
:10568C00800F14BF40234FF48063002031602B60E7
:10569C0016B070BD6A4600F049F80028EDDB0199A0
:1056AC0001F47041A1F50053594259414FF4806304
:1056BC00EBE78B89F7B59D0706460C4607D504F139
:1056CC004703236023610123636103B0F0BD6A4685
:1056DC0001ABFFF7C9FF009F054639463046FFF77F
:1056EC000DFB48B9B4F90C309A05EED423F0030342
:1056FC0043F00203A381E2E7A389C4E9040743F062
:10570C008003A381019B20605BB13046B4F90E107D
:10571C0000F01EF828B1A38923F0030343F0010322
:10572C00A381A3891D43A581CFE7000038B50023D1
:10573C00064D0446084611462B60FCF799FD431CA8
:10574C0002D12B6803B1236038BD00BF28070020AD
:10575C0038B50023054D044608462B60FCF797FD31
:10576C00431C02D12B6803B1236038BD28070020ED
:10577C00F8B500BFF8BC08BC9E467047F8B500BF32
:08578C00F8BC08BC9E46704702
:105794000D3E00002B2644424753454E44494E4794
:1057A40020444154412000000A0000002B264442BA
:1057B4004753454E44494E472044415441204255A5
:1057C40053590A002B26444247524553504F4E53D7
:1057D400453A2041540000002B2644424752455389
:1057E400504F4E53453A204F4B0000002B26444265
:1057F40047524553504F4E53453A204552524F520B
:10580400000000002B26444247524553504F4E534C
:10581400453A205749464920474F542049500000F3
:105824002B26444247524553504F4E53453A205736
:1058340049464920434F4E4E4543544544000000D9
:105844002B26444247524553504F4E53453A205716
:1058540049464920444953434F4E4E4543542F44EF
:105864004953434F4E4E4543544544002B2644422E
:1058740047524553504F4E53453A20444953434FA2
:105884004E4E4543544544002B264442475245530B
:10589400504F4E53453A2053454E44204F4B000041
:1058A4002B26444247524553504F4E53453A2043CA
:1058B4004F4E4E45435400002B2644424752455315
:1058C400504F4E53453A20434C4F5345440000003B
:1058D4002B26444247524553504F4E53453A20429B
:1058E400555359002B26444247524553504F4E536B
:1058F400453A205245414459000000002B264442B9
:1059040047524553504F4E53453A20425553592020
:10591400500000002B26444247524553504F4E53EB
:10592400453A204255535920530000002B26444247
:1059340047524553504F4E53452043494653520A0C
:10594400000000002B264442474552524F52204348
:105954004946535220350A002B26444247524553A8
:10596400504F4E5345204950440A00002B264442D0
:1059740047455350303148415244524553455430C1
:105984000A0000002B264442474553503031484119
:1059940052445245534554310A0000002B264442D8
:1059A40047455350303141540A0000002B264442ED
:1059B400474553503031415443574D4F44450A00F5
:1059C4002B26444247455350303141544349504DAE
:1059D40055580A002B264442474553503031415410
:1059E40043574A41500A00002B264442474553502E
:1059F400303143494653520A000000002B264442EA
:105A04004745535030314154434950434C4F53451B
:105A14000A0000002B26444247455350303141547C
:105A240043495053544152540A000000554E4552C4
:105A3400023A000053544D33322D554E45522D76C3
:105A4400310A0000646A673139646C6B000000003D
:105A54004D4547414341424C452046494252412D20
:105A6400322E34472D636B64300000003139322EFE
:105A74003136382E3130302E350000004E6F206321
:105A84006F6E65637461646F20616C205769466949
:105A94000D0A000046616C6C6F20656E20636F6EAA
:105AA4006578696F6E205544500D0A004553503097
:105AB400312055445020636F6E65637461646F0DCB
:105AC4000A000000484F4C410D0A00004553503075
