:020000040800F2
:1000000000500020D932000855320008573200084D
:10001000593200085B3200085D3200080000000021
:100020000000000000000000000000005F32000837
:1000300061320008000000006332000865320008E9
:100040002133000821330008213300082133000840
:100050002133000821330008213300082133000830
:1000600021330008213300082133000869320008D9
:100070002133000821330008213300082133000810
:10008000753200088132000821330008213300084E
:100090008D32000821330008213300082133000885
:1000A0002133000899320008213300082133000869
:1000B000A53200082133000821330008B1320008BE
:1000C00021330008213300082133000821330008C0
:1000D00021330008BD320008C9320008213300086E
:1000E00021330008213300082133000800000000FC
:1000F0000000000000000000000000000000000000
:0C01000000000000000000005FF808F1A3
:1001100010B5054C237833B9044B13B10448AFF341
:1001200000800123237010BDEC01002000000000BE
:10013000488F000808B5034B1BB103490348AFF3D0
:10014000008008BD00000000F0010020488F00087A
:10015000034613F8012B002AFBD1181A0138704707
:1001600070B54FF0FF0C4CF4E06C1CEA11541DBF4D
:100170001CEA135594EA0C0F95EA0C0F00F0DEF818
:100180002C4481EA030621EA4C5123EA4C5350EAFD
:10019000013518BF52EA033541F4801143F480134E
:1001A00038D0A0FB02CE4FF00005E1FB02E506F0DF
:1001B0000042E0FB03E54FF00006E1FB03569CF034
:1001C000000F18BF4EF0010EA4F1FF04B6F5007F3A
:1001D00064F5407404D25FEA4E0E6D4146EB0606AC
:1001E00042EAC62141EA55514FEAC52040EA5E5035
:1001F0004FEACE2EB4F1FD0C88BFBCF5E06F1ED8DF
:10020000BEF1004F08BF5FEA500E50F1000041EB15
:10021000045170BD06F0004646EA010140EA0200C2
:1002200081EA0301B4EB5C04C2BFD4EB0C0541EAE4
:10023000045170BD41F480114FF0000E013C00F3F9
:10024000AB8014F1360FDEBF002001F0004170BD1D
:10025000C4F10004203C35DA0C341BDC04F1140436
:10026000C4F1200500FA05F320FA04F001FA05F2C2
:1002700040EA020001F0004221F0004110EBD3708F
:1002800021FA04F642EB06015EEA430E08BF20EABB
:10029000D37070BDC4F10C04C4F1200500FA04F35E
:1002A00020FA05F001FA04F240EA020001F00041F0
:1002B00010EBD37041F100015EEA430E08BF20EA63
:1002C000D37070BDC4F1200500FA05F24EEA020EAB
:1002D00020FA04F301FA05F243EA020321FA04F0DA
:1002E00001F0004121FA04F220EA020000EBD37091
:1002F0005EEA430E08BF20EAD37070BD94F0000F91
:100300000FD101F00046400041EB010111F4801FC4
:1003100008BF013CF7D041EA060195F0000F18BF75
:10032000704703F00046520043EB030313F4801FB1
:1003300008BF013DF7D043EA0603704794EA0C0F6B
:100340000CEA135518BF95EA0C0F0CD050EA410681
:1003500018BF52EA4306D1D181EA030101F00041FE
:100360004FF0000070BD50EA410606BF1046194626
:1003700052EA430619D094EA0C0F02D150EA013632
:1003800013D195EA0C0F05D152EA03361CBF104673
:1003900019460AD181EA030101F0004141F0FE4112
:1003A00041F470014FF0000070BD41F0FE4141F496
:1003B000780170BD81F0004102E000BF83F000438E
:1003C00030B54FEA41044FEA430594EA050F08BFF0
:1003D00090EA020F1FBF54EA000C55EA020C7FEAB4
:1003E000645C7FEA655C00F0E2804FEA5454D4EB31
:1003F0005555B8BF6D420CDD2C4480EA020281EAFB
:10040000030382EA000083EA010180EA020281EA32
:100410000303362D88BF30BD11F0004F4FEA013184
:100420004FF4801C4CEA113102D0404261EB410193
:1004300013F0004F4FEA03334CEA133302D0524219
:1004400063EB430394EA050F00F0A780A4F10104D5
:10045000D5F1200E0DDB02FA0EFC22FA05F280180F
:1004600041F1000103FA0EF2801843FA05F35941F5
:100470000EE0A5F120050EF1200E012A03FA0EFC74
:1004800028BF4CF0020C43FA05F3C01851EBE3719E
:1004900001F0004507D54FF0000EDCF1000C7EEBBB
:1004A00000006EEB0101B1F5801F1BD3B1F5001FF9
:1004B0000CD349085FEA30004FEA3C0C04F1010418
:1004C0004FEA445212F5800F80F09A80BCF1004F41
:1004D00008BF5FEA500C50F1000041EB045141EAC3
:1004E000050130BD5FEA4C0C404141EB0101013C8C
:1004F00028BFB1F5801FE9D291F0000F04BF01467B
:100500000020B1FA81F308BF2033A3F10B03B3F14C
:1005100020020CDA0C3208DD02F1140CC2F10C02DC
:1005200001FA0CF021FA02F10CE002F11402D8BF3A
:10053000C2F1200C01FA02F120FA0CFCDCBF41EA06
:100540000C019040E41AA2BF01EB0451294330BDD5
:100550006FEA04041F3C1CDA0C340EDC04F11404B2
:10056000C4F1200220FA04F001FA02F340EA030089
:1005700021FA04F345EA030130BDC4F10C04C4F1CF
:10058000200220FA02F001FA04F340EA03002946AF
:1005900030BD21FA04F0294630BD94F0000F83F4F9
:1005A000801306BF81F480110134013D4EE77FEADC
:1005B000645C18BF7FEA655C29D094EA050F08BF28
:1005C00090EA020F05D054EA000C04BF1946104609
:1005D00030BD91EA030F1EBF0021002030BD5FEA4D
:1005E000545C05D14000494128BF41F0004130BD75
:1005F00014F580043CBF01F5801130BD01F00045C9
:1006000045F0FE4141F470014FF0000030BD7FEA3B
:10061000645C1ABF194610467FEA655C1CBF0B4636
:10062000024650EA013406BF52EA033591EA030F4D
:1006300041F4002130BD00BF90F0000F04BF002145
:10064000704730B54FF4806404F132044FF0000578
:100650004FF0000150E700BF90F0000F04BF0021F1
:10066000704730B54FF4806404F1320410F0004557
:1006700048BF40424FF000013EE700BF42004FEA52
:10068000E2014FEA31014FEA02701FBF12F07F43CF
:1006900093F07F4F81F06051704732F07F4208BF86
:1006A000704793F07F4F04BF41F40021704730B58D
:1006B0004FF4607401F0004521F000411CE700BFD9
:1006C00050EA010208BF704730B54FF000050AE05C
:1006D00050EA010208BF704730B511F0004502D55D
:1006E000404261EB41014FF4806404F132045FEA5F
:1006F000915C3FF4D8AE4FF003025FEADC0C18BF08
:1007000003325FEADC0C18BF033202EBDC02C2F1F9
:10071000200300FA03FC20FA02F001FA03FE40EA8B
:100720000E0021FA02F11444BDE600BF4FEA410277
:1007300012F5001215D211D56FF47873B3EB625233
:1007400012D94FEAC12343F0004343EA505311F05A
:10075000004F23FA02F018BF404270474FF00000EC
:10076000704750EA013005D111F0004008BF6FF02A
:10077000004070474FF00000704700BF80F000401D
:1007800002E000BF81F0004142001FBF5FEA410369
:1007900092EA030F7FEA226C7FEA236C6AD04FEA69
:1007A0001262D2EB1363C1BFD218414048404140AE
:1007B000B8BF5B42192B88BF704710F0004F40F460
:1007C000000020F07F4018BF404211F0004F41F47C
:1007D000000121F07F4118BF494292EA030F3FD048
:1007E000A2F1010241FA03FC10EB0C00C3F120035B
:1007F00001FA03F100F0004302D5494260EB4000EA
:10080000B0F5000F13D3B0F1807F06D340084FEA54
:10081000310102F10102FE2A51D2B1F1004F40EB49
:10082000C25008BF20F0010040EA030070474900B1
:1008300040EB0000013A28BFB0F5000FEDD2B0FA4E
:1008400080FCACF1080CB2EB0C0200FA0CF0AABF71
:1008500000EBC25052421843BCBFD040184370470F
:1008600092F0000F81F4000106BF80F40000013215
:10087000013BB5E74FEA41037FEA226C18BF7FEAEC
:10088000236C21D092EA030F04D092F0000F08BF2E
:100890000846704790EA010F1CBF0020704712F015
:1008A0007F4F04D1400028BF40F00040704712F154
:1008B00000723CBF00F50000704700F0004343F0B9
:1008C000FE4040F4000070477FEA226216BF0846EF
:1008D0007FEA23630146420206BF5FEA412390EAB2
:1008E000010F40F4800070474FF0000304E000BFA8
:1008F00010F0004348BF40425FEA000C08BF704759
:1009000043F0964301464FF000001CE050EA01021C
:1009100008BF70474FF000030AE000BF50EA010231
:1009200008BF704711F0004302D5404261EB41011E
:100930005FEA010C02BF84460146002043F0B64343
:1009400008BFA3F18053A3F50003BCFA8CF2083A68
:10095000A3EBC25310DB01FA02FC634400FA02FC71
:10096000C2F12002BCF1004F20FA02F243EB020078
:1009700008BF20F00100704702F1200201FA02FCDA
:10098000C2F1200250EA4C0021FA02F243EB0200CD
:1009900008BF20EADC7070474FF0FF0C1CEAD05211
:1009A0001EBF1CEAD15392EA0C0F93EA0C0F6FD0D2
:1009B0001A4480EA010C400218BF5FEA41211ED0B0
:1009C0004FF0006343EA501043EA5111A0FB01319C
:1009D0000CF00040B1F5000F3EBF490041EAD37171
:1009E0005B0040EA010062F17F02FD2A1DD8B3F1ED
:1009F000004F40EBC25008BF20F00100704790F05C
:100A0000000F0CF0004C08BF49024CEA502040EAAD
:100A100051207F3AC2BFD2F1FF0340EAC250704773
:100A200040F400004FF00003013A5DDC12F1190FB1
:100A3000DCBF00F000407047C2F10002410021FA23
:100A400002F1C2F1200200FA02FC5FEA310040F13B
:100A5000000053EA4C0308BF20EADC70704792F0B4
:100A6000000F00F0004C02BF400010F4000F013AEC
:100A7000F9D040EA0C0093F0000F01F0004C02BFE7
:100A8000490011F4000F013BF9D041EA0C018FE756
:100A90000CEAD15392EA0C0F18BF93EA0C0F0AD05C
:100AA00030F0004C18BF31F0004CD8D180EA010082
:100AB00000F00040704790F0000F17BF90F0004F1B
:100AC000084691F0000F91F0004F14D092EA0C0FFD
:100AD00001D142020FD193EA0C0F03D14B0218BF90
:100AE000084608D180EA010000F0004040F0FE40D6
:100AF00040F40000704740F0FE4040F44000704772
:100B00004FF0FF0C1CEAD0521EBF1CEAD15392EAF0
:100B10000C0F93EA0C0F69D0A2EB030280EA010CE0
:100B200049024FEA402037D04FF0805343EA111179
:100B300043EA10130CF000408B4238BF5B0042F1D7
:100B40007D024FF4000C8B4224BF5B1A40EA0C007C
:100B5000B3EB510F24BFA3EB510340EA5C00B3EBAE
:100B6000910F24BFA3EB910340EA9C00B3EBD10F9C
:100B700024BFA3EBD10340EADC001B0118BF5FEAEE
:100B80001C1CE0D1FD2A3FF650AF8B4240EBC25017
:100B900008BF20F0010070470CF0004C4CEA5020D8
:100BA0007F32C2BFD2F1FF0340EAC250704740F427
:100BB00000004FF00003013A37E792F0000F00F019
:100BC000004C02BF400010F4000F013AF9D040EA97
:100BD0000C0093F0000F01F0004C02BF490011F42B
:100BE000000F013BF9D041EA0C0195E70CEAD15323
:100BF00092EA0C0F08D142027FF47DAF93EA0C0F0A
:100C00007FF470AF084676E793EA0C0F04D14B02ED
:100C10003FF44CAF08466EE730F0004C18BF31F09F
:100C2000004CCAD130F000427FF45CAF31F0004399
:100C30007FF43CAF5FE700BF4FEA4002B2F1FE4FE6
:100C40000FD34FF09E03B3EB12620DD94FEA00238E
:100C500043F0004310F0004F23FA02F018BF404267
:100C600070474FF00000704712F1610F01D142024E
:100C700005D110F0004008BF6FF0004070474FF002
:100C80000000704700220A4930B50B88094D013831
:100C900010F8014F14B902B10B8030BD5A1C92B24A
:100CA000B2F5807FEC5414BF134600230122EFE716
:100CB000220200202A020020074A10B51188074CA2
:100CC0004B1C9BB2B3F5807F138008BF0023605498
:100CD00008BF138010BD00BF220200202A0200209E
:100CE00038B500240D4B0D461C700D4B01463F22BC
:100CF000184608F0DBF80B4B1F2280F83F402946CE
:100D0000184608F0D3F83222074BC4771A600D2238
:100D1000064B1A70064B1C7038BD00BF50040020F3
:100D2000F9030020D90300204C04002051040020C6
:100D300020020020194B70B55B6806460D4614462C
:100D40003BB347F2305316491648002A08BF1C46E9
:100D500008F0E4F8144B0F221846314608F0A6F8C4
:100D600000221249C2730A22284608F053F80A22C8
:100D700020460F4908F04EF80E4B1B7863B10E4B1E
:100D8000187810F0020003D0092206200B4B1A70CD
:100D900070BD4FF0FF30FBE70120F9E70C020020A7
:100DA000608F000800000020C9030020C30300205A
:100DB000AD030020F903002050040020510400205E
:100DC000054B187810F0020004D004480378002B7B
:100DD00008BF0020704700BF50040020B30300206C
:100DE000064B5B683BB1064B1B7813F0400F0CBF02
:100DF0000520072070474FF0FF3070470C0200209D
:100E000050040020084B10B59B685BB1074A084CA2
:100E100011884B1C9BB2802B138008BF00236054A9
:100E200008BF138010BD00BF0C0200202802002064
:100E30002A0300202DE9FF479A46334B81465B6821
:100E40000E461746002B5AD0DFF8C08098F80040B5
:100E5000630657D514F0080449D10A2201A938467F
:100E600007F0D8FF01A8FFF773F90138C0B20328D3
:100E70003BD82748FFF706FF01A8FFF703FF2548E7
:100E8000FFF700FF2246244924480B88A5B2AF4251
:100E900018D802B10B8098F80030214C23F00C03D5
:100EA00043F00C0388F8003023683BB11D48984795
:100EB000236801A8984723681B489847092004B075
:100EC000BDE8F0875D1CADB2B5F5807F08BF002599
:100ED000721C19F8066092B2C6540134524514BF10
:100EE000164600262B460122D0E70B20E7E70C4BE5
:100EF0001B680BB90820E2E70C489847FAE74FF067
:100F0000FF30DCE70520DAE70C0200205004002067
:100F1000D9940008648F0008220200202A020020D1
:100F20003C040020678F00086A9000087A8F000850
:100F300003460F4A30B500F1100514461868596889
:100F4000083303C4AB422246F7D118680023094A8C
:100F500020601370084A1370084A1380084A1380EF
:100F6000084A1380084A1380084A137030BD00BF36
:100F70000C02002051040020AC03002024020020B9
:100F80002202002026020020280200205004002017
:100F9000094A13680BB1013B1360084A136823B177
:100FA000013B13600BB9064A1370064A13680BB174
:100FB000013B1360704700BF4C0400204804002030
:100FC000AC030020440400202DE9F74F9D4B9E4EBA
:100FD0001B8800270193019A3388934207D0DFF8DA
:100FE0006C8298F800300D3B022B1FD83280984E4F
:100FF000984C3368002B40F046826423934D336055
:101000002B780F2B00F23F82DFE813F07B035302B3
:101010009402A302AD02B702ED02FE020F03280301
:1010200037036F0375031802240233020223DFF82B
:1010300028928A4CC9F800303388019A9A42D6D057
:10104000874AD55C284601F011FA23780C2B00F270
:10105000F281DFE813F00D005300B200F001F0015F
:101060006B01810189019601F001B101B601D10145
:10107000002304229C467B49DFF8ECE1DFF8ECA179
:101080000B708EF80020D8B25AF8202092B9BCF12B
:10109000000F00D0087000226E49C9F800200B78BC
:1010A000D8071FD53E2D1DD162F300030B70704B86
:1010B0001A6017E092F804B00133AB451BD1BCF1C4
:1010C000000F00D0087013785278303B313A03EBB0
:1010D000830302EB4303674A138001232370052334
:1010E0008EF80030338801339BB2802B338004BFED
:1010F00000233380A0E74FF0010CC4E75948DFF824
:101100006CB103785BF82310574B1A788B5CAB42B9
:1011100011D158480388013B9BB203800BB10D2DC0
:1011200043D18B78CA78303B03EB8303303A02EB30
:1011300043032370D6E700239E46C2F57F4A03701F
:101140000AF1D30A5FFA83FC5BF82C1069B9BEF18F
:10115000000F04D0474B1F80424B83F800C0002390
:1011600023703388013B3380BCE708784F783038F0
:10117000574400EB800007EB4007BFB27F2F18D821
:10118000885CA84215D13B4B1F80BEF1000F02D0F6
:10119000344B83F800C047B98B78C978303B03EBF8
:1011A0008303303901EB430323702F4B01321A7054
:1011B00098E74FF0010E0133C4E70A2D92D10022C7
:1011C000284B22701B78023B0D2B8BD801A151F8C4
:1011D00023F000BF0D120008291200088112000838
:1011E000E5100008AF120008AF120008D512000881
:1011F000DF120008F7120008D5120008E5100008F9
:1012000017130008E51000082113000898F80030B3
:10121000022B7FF467AF00220D4B1A600D4A137842
:1012200043F0200313705DE70A4A13781D077FF52A
:1012300059AF23F0480313700F4B1A880F4B1A80D5
:1012400050E700BF280200202602002051040020A1
:101250004C0400205004002048040020AC0300206F
:101260002A030020090200200802002090930008B1
:1012700044040020AA0300202202002024020020AF
:10128000984B1A6098F80030062B974B02BF1A78DB
:1012900042F020021A701A7842F002021A70934B40
:1012A0001B68002B3FF41EAF032098471AE78E4AB5
:1012B000137823F0420313708C4B1B680BB1002092
:1012C000984798F80030062B3FF40CAF0F2388F8AE
:1012D000003007E7844A137823F04003A2E7824AEC
:1012E000137823F008031370804B1B68002B3FF426
:1012F000F9AE0A20D9E77B4B1A607B4A137823F0BA
:10130000600343F060031370784B1B68002B3FF4BD
:10131000E9AE0720C9E7744A137823F0420381E756
:10132000714A137823F042031370CFE7704B2C2DD2
:101330001B6807D106222270002B3FF4D3AE6D4804
:101340009847CFE6002222703288013A3280002B83
:101350003FF4C8AE6848F3E7222D7FF4C3AE0723FD
:1013600023700022654B6AE7222D03D0634A13885D
:10137000102B01D10823DCE6591C1180604AD5549A
:10138000B0E60A2D7FF4AEAE00235C4A23701188CC
:101390005B4A0F299BBF5354534913700A789FBF70
:1013A00042F020020A704F4A1360504B1B68002B1A
:1013B0003FF498AE042078E72C2D338810D10B230E
:1013C000CEE73A2D338807D10C2323704B4B1B8873
:1013D0000233C9F8003085E6A5F13002092A02D9A6
:1013E00000222270BEE6454A138803EB830305EB17
:1013F0004303303B138075E6424AD36819889368EB
:101400005D54D1680B8801339BB20B80128A9A42DB
:1014100008BF0023394A0B801388013B9BB213801D
:10142000002B7FF45FAE2370314B1B68002B3FF421
:1014300059AE354884E700232370CAE7314B0020BA
:101440001B6898472A4B1B680BB1304898470E23FE
:101450002B7018E02B4B01201B689847244B1B680E
:101460000BB12B4898470F232B704FF4FA7333605E
:1014700009E01F4B1B680BB1264898470123002247
:101480002B70254B1A702378DA0740F13C81234AF0
:1014900012685AB962F3000301222370204B2149DC
:1014A0001A700A23088820493360088003B0BDE819
:1014B000F08F194A13782BB1013BDBB213701BB9C3
:1014C0000D23C5E7042313702378184823F0200365
:1014D0002370FFF7D7FB064B1B680BB114489847E6
:1014E0000223B5E74C0400205004002040040020F3
:1014F0003C040020928F0008A78F0008AA03002058
:10150000B30300200C020020BB8F0008CE8F000820
:10151000E48F0008FA8F0008200200204404002015
:1015200051040020220200202402002031950008EE
:10153000389000082278894B90061B6804D50BB1BF
:1015400087489847032383E70BB1864898470123D0
:101550007EE78548FFF796FB804B1B680BB18348FD
:101560009847042374E78248FFF78CFB7B4B1B688A
:101570000BB18048984705236AE72378990701D57E
:10158000072365E77C4F3B78002B3FF47CAF7B481B
:10159000FFF778FB2220FFF78FFB3846FFF772FB3F
:1015A0002220FFF789FB2C20FFF786FB2220FFF784
:1015B00083FB7348FFF766FB2220FFF77DFB0D20BE
:1015C000FFF77AFB0A20FFF777FB644B1B680BB130
:1015D0006C489847237823F02003237006232B7050
:1015E00040F2DC5343E722785C4B92061B6807D538
:1015F0000BB165489847072304222B70634B41E7E2
:10160000002BA4D06248A1E70022624B62481A7006
:10161000FFF738FB514B1B680BB1604898472378A4
:1016200023F020032370082312E723789B060CD5B0
:101630004A4F3B683BB15A4898473B6855489847E2
:101640003B6858489847092302E7504A1378013B02
:10165000DBB21370002B3FF47AAF91E7524B1B784B
:10166000002B3FF410AF5148FFF70CFB3B4B1B68BE
:101670000BB14F4898470A23EAE64E48FFF702FBB2
:101680002220FFF719FB4C48FFF7FCFA2220FFF756
:1016900013FB2C20FFF710FB2220FFF70DFB424825
:1016A000FFF7F0FA2220FFF707FB2C20FFF704FBDF
:1016B0004248FFF7E7FA2C20FFF7FEFA4048FFF711
:1016C000E1FA2C20FFF7F8FA3020FFF7F5FA0D20A9
:1016D000FFF7F2FA0A20FFF7EFFA237823F060030E
:1016E00023700B232B70C823C1E623789F067FF558
:1016F0002EAF0C23ACE6237898077FF528AF590668
:10170000A1D50023B3E62F4D2F492A88098891429D
:101710003FF4CCAE2D4E5F07B05C02D53E2808BF2B
:101720000A202B4B5B68984700283FF4BFAE227815
:101730002B8851070AD5F15C3E2907D1052122F0FB
:10174000050242F001022270224A116001339BB26D
:10175000B3F5807F08BF00232B80A7E63C04002060
:10176000469000086C9000081595000899900008B4
:1017700023950008AD900008F90300200B950008A0
:10178000D9030020C1900008D49000082002002056
:10179000FE900008B3030020009500083391000874
:1017A0004491000865900008C9030020E5940008F2
:1017B00065910008F394000800000020C303002096
:1017C000AD03002024020020220200202A02002073
:1017D0000C02002044040020014B1860704700BF39
:1017E00040040020014B1860704700BF3C040020FB
:1017F000014B1860704700BF6C040020F0B5012554
:1018000000241C4E85B03068009587680DF10E03EA
:101810007522D02100688DF80E40B8479DF80E3033
:10182000682B23D13068009547686B22D0210DF1D9
:101830000F0300688DF80F40B847306800951C22F0
:10184000D02147680DF10F0300688DF80F40B847AD
:101850003068009545681B22D02100680DF10F0308
:101860008DF80F40A847204605B0F0BD4FF0FF307F
:10187000FAE700BF6C040020064B13B51868062376
:101880000093C4683B22D021034B0068A04702B0FC
:1018900010BD00BF6C0400205A040020064B13B595
:1018A000186806230093C4684322D021034B0068C4
:1018B000A04702B010BD00BF6C04002054040020FB
:1018C000014B1878704700BF53040020014B187873
:1018D000704700BF520400200022014B1A7070476D
:1018E000530400200022014B1A707047520400205C
:1018F00018B1074BB3F90030038019B1054BB3F9A8
:1019000000300B801AB1044BB3F9003013807047DC
:101910006A040020680400206604002018B1074B08
:10192000B3F90030038019B1054BB3F900300B80D7
:101930001AB1044BB3F900301380704764040020DF
:10194000620400206004002070B5654D2B78002BE8
:1019500070D0644B18885E88C0BA9C8880EAE073B7
:10196000A3EBE0739BB2B3F5E17FF6BAE4BA5AD9C0
:10197000FEF7BEFF4FF06251FFF70EF8FEF77EFE56
:1019800055A3D3E90023FEF7EBFB0022564BFEF7ED
:10199000E7FBFEF7CBFE00B2544B188086EAE673F5
:1019A000A3EBE6739BB2B3F5E17F3ED93046FEF779
:1019B0009FFF4FF06251FEF7EFFFFEF75FFE46A379
:1019C000D3E90023FEF7CCFB0022474BFEF7C8FB10
:1019D000FEF7ACFE00B244F62062454B188084EA64
:1019E000E473A3EBE4739BB2934220D92046FEF745
:1019F0007FFF4FF06251FEF7CFFFFEF73FFE36A3A9
:101A0000D3E90023FEF7ACFB0022374BFEF7A8FB1F
:101A1000FEF78CFE00B201220024364B1880364BB4
:101A20001A702C7070BD0020B6E70020D3E740F29A
:101A3000D530F0E7314A10885688C0BA948880EAD9
:101A4000E072A2EBE07292B2B2F5E17FF6BAE4BACC
:101A50000AD9FEF74DFF2A49FFF752F82949FEF748
:101A60009BFFFFF7E9F803B2274A138086EAE67383
:101A7000A3EBE6739BB2B3F5AF7F29D93046FEF7EF
:101A800037FF1F49FFF73CF81E49FEF785FFFFF7B8
:101A9000D3F800B21D4B188084EAE473A3EBE4731F
:101AA0009BB2B3F5AF7F15D92046FEF721FF14494D
:101AB000FFF726F81349FEF76FFFFFF7BDF800B2F6
:101AC0000124134B1880134B1C70FFF7E7FEA8E7A7
:101AD0000020DFE70020F3E71F85EB51B89E23408D
:101AE000040000205A040020000059406A0400202D
:101AF00068040020660400205304002054040020E1
:101B0000000003430000C842640400206204002077
:101B10006004002052040020014B1860704700BF91
:101B20007C080020024B1B68D3E90002104700BF6D
:101B30007C080020024B01461B689A691868104710
:101B40007C080020024B1B685A691868104700BFC8
:101B50007C080020044B10B41B680A461C6901462F
:101B60001868234610BC18477C080020F0B5B02444
:101B7000144E154DA3B02B6821469A6818689047FB
:101B80002B6800219A68186890472B6810219A6882
:101B9000186890474023314680220DF105008DF8EA
:101BA000043007F0C3F92B6801348122DF6818681C
:101BB00001A9E4B2B847B82C06F18006DBD123B006
:101BC000F0BD00BF7C0400207C0800202DE9F0411E
:101BD000344D2B7843B1344B1B782BB1334B1A78EF
:101BE00012B92A7001221A70314C2378012B0ED0C1
:101BF000022B37D0002B2FD12C4A127862B32D4AFA
:101C00001370294A1370012222702B4A1370FFF7B8
:101C100099FF294E054608BBDFF89880274F98F8B2
:101C200000103B6850399A681868C9B290473B6801
:101C300029469A68186890473B6810219A68186886
:101C400090471F4B98F80000802103EBC010FFF76E
:101C500081FF022335702370BDE8F08133780133B2
:101C60003370F9E7FFF76EFFB8B9124A1378013302
:101C7000DBB2072B13704FF0010303D823700E4B18
:101C80001870E9E7084A29781370084A2070107024
:101C90000029E1D028701370DEE7074A137801337A
:101CA000F9E700BF7A040020050000207B04002033
:101CB0007204002071040020700400207C080020C1
:101CC0007C04002000284FF4806214BFFF21002113
:101CD000014807F0E3B800BF7C04002010B5524C67
:101CE000FFF720FF0A20FFF725FF2368AE219A683F
:101CF00018689047236820219A68186890472368DD
:101D000010219A68186890472368B0219A6818686B
:101D100090472368C8219A68186890472368002173
:101D20009A6818689047236810219A681868904745
:101D3000236840219A6818689047236881219A682F
:101D4000186890472368FF219A68186890472368AD
:101D5000A1219A68186890472368A6219A68186894
:101D600090472368A8219A681868904723683F2104
:101D70009A68186890472368A4219A681868904761
:101D80002368D3219A6818689047236800219A68CD
:101D9000186890472368D5219A6818689047236887
:101DA000F0219A68186890472368D9219A681868C2
:101DB0009047236822219A68186890472368DA219F
:101DC0009A6818689047236812219A6818689047A3
:101DD0002368DB219A6818689047236820219A6855
:101DE0001868904723688D219A681868904723687F
:101DF00014219A68186890472368AF219A68186878
:101E0000904723682E219A68186890470020FFF7B2
:101E100059FFFFF7ABFE0022044B01201A805A80C5
:101E20004FF480729A8010BD7C080020740400205A
:101E30007F2830B510D83F290ED80D4B0D4C1D7999
:101E4000CB0801F0070145B14AB900EBC3100123EB
:101E5000225C8B401343235430BD012AF5D001226C
:101E600000EBC310235C8A4023EA0203F3E700BFC0
:101E7000740400207C040020014B188059807047B6
:101E8000740400202DE9F04FDFF8909085B0B9F888
:101E9000006001920A78054632447F2A0C463BDCFA
:101EA000B9F802B04A785A443F2A35DC0027A0F13D
:101EB000200303936278974207D322781644A9F847
:101EC0000060284605B0BDE8F08F4FF00008039B86
:101ED000616802FB037231F812300BEB070A0293C0
:101EE0001FFA8AFA2278904501D30137E2E7029B74
:101EF00006EB080003FA08F2130458BF019B514691
:101F000054BFB3FA83F2019A80B258BF5209FFF767
:101F10008FFF08F10108E5E70025D2E774040020EF
:101F200070B50D461646441E14F8010F38B13246FE
:101F30002946FFF7A7FF034620788342F4D070BDFF
:101F4000054B1B782BB1054B1A7812B901221A7078
:101F50007047034BFAE700BF050000207B04002018
:101F60007A040020014B1878704700BF050000205C
:101F70000122044B1A700023034A1370034A1370A2
:101F8000704700BF050000207B0400207A04002079
:101F9000084BFF221860084B82721960002383806F
:101FA00003728B808A71C38043720373C372CB71D7
:101FB000704700BF840800208008002010B5064B41
:101FC0001B685A791968541C5C7188545A79997A3B
:101FD0000A405A7110BD00BF84080020034600204B
:101FE00030B5D87158791C68451C5D71552525544C
:101FF0005C7998790440651C5D714E25186805551B
:102000005C7998790440651C5D7145251868055513
:102010005C7998790440651C5D71522518680555F6
:102020005C7998791D680440601C5871501CC0B2DE
:1020300028555A799C792240551C5D713A251C68B7
:10204000A5545A799C7922401C68551C5D71A15495
:102050005A799C7922405A71DA795140484080F08F
:102060003600D87130BD03465A79006810B5541C4B
:102070005C7181545A79987902405A71DA7981EA0F
:102080000200D87110BD000000220D4B70B51A80FF
:102090001A888C5C0CB9C07970BD44790568661CDF
:1020A00046718A5C2A5542798479224042711A88A5
:1020B000541C1C808A5CC4796240C271E8E700BF8E
:1020C0008808002010B5026883790C46D05CA028EF
:1020D000C1B208D0A1290FD0D15C20460222FFF75F
:1020E0007DFFFE2104E002222046FFF777FFF0216A
:1020F0002046FFF7B8FF08E00C222046FFF76EFFEE
:10210000054B20461968FFF7BFFF2046E179BDE87F
:102110001040FFF7A8BF00BF0800002070B50526DB
:10212000324B1C6865792379AB4200D170BD227AAD
:10213000062A58D8DFE802F0041221272D32410088
:102140002268D35C552B03D101232372052323730B
:102150002379A27A013313402371E4E72268D15C2A
:102160004E2902D102232372F2E7D25C552AEFD026
:102170000022013B22722371EAE72268D25C452AE1
:10218000F6D10323EFE72268D25C522AF0D1042370
:10219000E9E72268D35C2672E371D9E72268D15C53
:1021A000A27A3A29E4D1062101331340A371E379DD
:1021B000217283F036036372CAE7E2792068013A3C
:1021C000D2B2617AE27112B1C35C4B40F3E7227282
:1021D000C35C8B42BCD10123E372054B20461968D6
:1021E000FFF770FFB4E70023BDE700BF84080020BD
:1021F00080080020024B1878003818BF0120704773
:102200000C09002055230B4A70B5137053235370EB
:10221000422393702023D3700023074C8B422370FA
:1022200002DB0433237070BDC65CD51801332E71F8
:10223000DBB2F3E7C70C0020C60C002008B50A4843
:102240000A4A0B4BC0E9002300234FF48042C0E947
:102250000233C0E90423C0E90633036201F096FFAC
:1022600008B172B6FEE708BD700F002000540040B0
:10227000801A0600FFF7E2BF30B500234FF0FF35AC
:1022800085B08DF80C308DF80D10044678210223AE
:102290000648009503AA02F021F8014620B1044B3C
:1022A0002046DB699847284605B030BD700F0020F6
:1022B0004000002030B540231446A5B005460DF17E
:1022C0000D008DF80C3006F031FE631C4FF0FF342A
:1022D0000094782128689BB203AA01F0FFFF014611
:1022E00020B1034B2846DB699847204625B030BD16
:1022F00040000020F8B5436804461E7815463EB1FC
:102300004FF0FF310F4BDB6998474FF0FF30F8BDBE
:102310000D4F4023384600F8013B06F007FE01222E
:10232000636878211A70AB1820683A469BB202F0B5
:10233000AFF801460028EAD0636820461E70014BC2
:10234000DB69E1E7400000208A080020084601F030
:1023500031B8000030B54FF0FF3485B0BDF82050E3
:102360000294CDE90035012302F030F9014620B195
:10237000034B18685A699047204605B030BD00BF2E
:102380002800002030B54FF0FF3485B0BDF8205054
:102390000294CDE90035012302F0A8F9014620B1ED
:1023A000034B18685A699047204605B030BD00BFFE
:1023B0002800002013B5BDF81040CDE900340123FA
:1023C00002F0D8FA014628B1034B18685A699047C1
:1023D0004FF0FF3002B010BD2800002007B5642385
:1023E0008DF8070001220DF10701044804F06DFE8D
:1023F000B0FA80F0400903B05DF804FB100E002035
:10240000021E18BF01224FF40061014801F0AEBC6A
:10241000000C014010B5074B044693F89C32032B87
:1024200007D1FDF795FE81B22046BDE8104006F0C9
:1024300037BB10BD40100020084600F0BBBF0000B5
:102440000268034B9A4202BF0022024B1A70704787
:10245000005400400C0900200268034B9A4201D14D
:10246000FFF772BA704700BF00540040054B1A884E
:1024700092B2511C89B21980034988541A88D2B289
:102480001A80704710090020120900200368094AC9
:10249000934207D10122084B1A70084A137801337E
:1024A00013707047B3F1804F02BF0122044B1A70C2
:1024B000704700BF002C0140C50C0020960A002088
:1024C000C30C00200268084B10B59A420AD1074C91
:1024D0002078FEF797FC2146BDE810400122044811
:1024E00005F00BB810BD00BF00380140C10C002042
:1024F000100E002070B50C4B054693F89C320C462C
:10250000032B09D070BD3146284606F0C9FA0128D0
:10251000F9D0A41B3544A4B2002CF3D0402C26469D
:1025200028BF4026EFE700BF4010002010B504464A
:10253000FDF70EFE81B22046BDE81040FFF7DABF7E
:1025400007B50A2839D8DFE800F0203838061338F4
:10255000382638383B001B48FFF75CFF47F2305203
:1025600047F23A51184803B05DF804EBFEF7E2BBBE
:102570001648FFF7DBFFFEF723FCFFF7D7FF1448F1
:1025800003B05DF804EBFFF7D1BF124803B05DF86C
:1025900004EBFFF73FBF1048FFF73CFFFEF720FCBE
:1025A0000728034609D16A460C490868496803C2EE
:1025B0001A4600216846FEF73DFC03B05DF804FBB7
:1025C0000748E3E785910008B0910008BE91000834
:1025D000A9910008DD9100080292000850920008BD
:1025E0003092000807B5084B020900F00F009A5C12
:1025F0001B5C022101A88DF804208DF80530FFF73F
:1026000079FF03B05DF804FBC29A00087FB530B9CA
:102610000121104804B0BDE87040FFF76BBF0026F1
:102620000A2501A9B0FBF5F205FB1203303301F8CE
:10263000013B0346092B3446104606F10106F1D84A
:1026400001AB18190121FFF755FF013CF8D204B086
:1026500070BD00BF839100080FB437B506AB53F8C7
:10266000044B0193237823B903B0BDE8304004B094
:102670007047252B36D16378651C632B1CD006D898
:10268000252B2CD0582B23D0012128461DE0732B5D
:102690000AD0752B01D0642BF6D1019B1A1D186846
:1026A0000192FFF7B3FF05E0019B1A1D1868019224
:1026B000FFF73CFF6C1CD5E70121019B0DF10300E6
:1026C0001A1D1B6801928DF80330FFF713FFF1E725
:1026D000019B1A1D18780192FFF784FFEAE7012198
:1026E0000348F2E701212046FFF704FF2546E1E712
:1026F0005892000808B50548FFF7AEFF0022044BCA
:102700001A70BDE80840FFF733BC00BF5A920008BA
:102710000C0900200148FFF79FBF00BF729200081C
:1027200010B594B0142200210CA806F0B7FB1422B7
:1027300000210DEB020006F0B1FB1022002101A8E0
:1027400006F0ACFB02244FF480330122CDE91143A3
:10275000CDE90A234FF4E0130AA80E92139303F075
:10276000FFFE08B172B6FEE70F23CDE905344FF442
:1027700080630790CDE90830214605A804F0B2F83F
:1027800008B172B6FEE7122301934FF40043CDE97E
:10279000033001A804F062F908B172B6FEE714B084
:1027A00010BD00002DE9F04FAA4DCBB000F0DEFDCA
:1027B000FFF7B6FF102200210AA806F06FFBAB69F5
:1027C000002243F01003AB61AB694FF4005103F0FA
:1027D00010030493049BAB699F4843F02003AB6153
:1027E000AB69002403F020030593059BAB69012628
:1027F00043F00403AB61AB69022703F004030693C3
:10280000069BAB6943F00803AB61AB6903F00803B7
:102810000793079B01F0AAFA00224FF400618F484A
:1028200001F0A4FA4FF400538B480AA9CDE90A3607
:10283000CDE90C4701F0C6F94FF4006387480AA9B7
:10284000CDE90A36CDE90C4701F0BCF96B692246A7
:1028500033436B616B69214633400B200393039B29
:1028600000F0F4FF0B2001F021F822462146102051
:1028700000F0ECFF102001F019F82246214611204B
:1028800000F0E4FF112001F011F8102221460AA8FF
:1028900006F004FB4723724D7248CDE90844C5E9B0
:1028A0000003F9232846C5E90334C5E90544AC60B3
:1028B00004F042FA08B172B6FEE74FF4805328469E
:1028C0000AA90A9304F06EFA08B172B6FEE7202353
:1028D000CDE908300DEB0301284604F0FDFA03466C
:1028E00008B172B6FEE74FF4E1350C245E485F4A4A
:1028F000C0E90233C0E905430361C361C0E90025B3
:1029000004F0B4FB034608B172B6FEE75848594AD2
:10291000C0E90233C0E90025C0E90434C0E9063348
:1029200004F0A4FB054608B172B6FEE706F042F8D3
:10293000514C524B204623604FF48073A360082310
:10294000CDE90A550C9525732575E5616560236110
:1029500000F0ECFE08B172B6FEE7CDE90A060C9075
:102960000AA9204600F074FD08B172B6FEE72046C1
:102970000AA9CDE90A6700F06BFD08B172B6FEE75F
:102980000425032320460AA9CDE90A5300F060FD7F
:1029900008B172B6FEE7052620460AA9CDE90A6508
:1029A00000F056FD08B172B6FEE7062532480AA9C6
:1029B000CDE90A5600F04CFD08B172B6FEE70724D7
:1029C0002D480AA9CDE90A4500F042FD08B172B6CA
:1029D000FEE7082628480AA9CDE90A6400F038FD78
:1029E00008B172B6FEE7092323480AA9CDE90A36E1
:1029F00000F02EFD054608B172B6FEE71022014632
:102A00000AA806F04BFA41F61F434FF080421C4CD7
:102A1000CDE90855C4E9002363232046C4E9033502
:102A2000A560A56104F088F908B172B6FEE74FF41D
:102A3000805320460AA90A9304F0B4F908B172B68B
:102A4000FEE7CDE9080008A9204604F045FAC8B120
:102A500072B6FEE70010024000100140000C014079
:102A6000A00E0020002C0140100E00200038014074
:102A7000C80D002000440040081000200024014040
:102A8000580E0020FFF7DAFB034804F061F8054612
:102A900020B172B6FEE700BFA00E0020BD48BE4FB9
:102AA00006F014F83246BD49BD483D7000F08AFD7D
:102AB000BC4804F04DF8204604F04AF80122BA4917
:102AC000BA4804F01AFDBA48FEF732FA0120FFF7BF
:102AD00097FC642000F06EFCB648FEF783FEB64813
:102AE000FEF77AFEB549B648FEF7FAF8B548B64B98
:102AF000B64C0360FF23B64A21468372A37122605D
:102B0000FFF746FA4FF4FA7000F054FCB148FFF7B3
:102B100003F8FFF7E3F805212320FFF7ADF90122C1
:102B2000AD49AE48FFF7FCF923210520FFF7A4F9D2
:102B30000122A949AA48FFF7F3F9FFF717F840F671
:102B4000B83000F037FC2846FFF7BCF8FFF70EF866
:102B5000A448FEF74DFEFEF751FE10B1A248FFF764
:102B60007BFDFEF789FE0A23A04EA14A33700023A5
:102B70001370A04AA04D1370A04A1370DFF8708242
:102B8000DFF87092DFF878A298F8003013B10023D4
:102B900088F8003099F80030002B4DD04FF0000B32
:102BA00089F800B0FEF7F4F9FEF70EFA95482A8886
:102BB000038892B29BB29A4210D05946DFF848C2BD
:102BC0000AAAB5F800E003881FFA8EFE9BB29E4564
:102BD00040F0548189B20AA805F062FFDFF82CB2F8
:102BE0008B4BBBF8001018888A4A884240F04B8112
:102BF000FFF794FA884A13780133DBB2012B00F215
:102C00004B811370FEF75CFE20B1844B1B780BB92F
:102C1000FEF762FEFEF75AFE38B1804B1B7823B9EF
:102C2000FEF760FE0122764B1A703378013B13F0F9
:102C3000FF0300F03B8133709AF80030002B00F066
:102C40009480FFF78FF9002800F08F804FF0000B81
:102C50000DF1060201A90DF102008AF800B0FEF79D
:102C600047FE08AA0DF10A0102A8FEF757FE5846D2
:102C7000FFF728F859465846FFF7FEF80122564953
:102C80006748FFF74DF914215846FFF7F5F8012280
:102C900051496448FFF744F90A220AA9BDF9020024
:102CA00006F0B8F801224C490AA8FFF739F90122C9
:102CB00049495D48FFF734F90A220AA9BDF9040021
:102CC00006F0A8F8012244490AA8FFF729F91E21B5
:102CD0005846FFF7D1F801223F495448FFF720F941
:102CE0000A220AA9BDF9060006F094F801223A4921
:102CF0000AA8FFF715F928215846FFF7BDF8012269
:102D000035494B48FFF70CF90A220AA9BDF908001A
:102D100006F080F8012230490AA8FFF701F90122E4
:102D20002D494448FFF7FCF80A220AA9BDF90A0018
:102D300006F070F8012228490AA8FFF7F1F83221BD
:102D40005846FFF799F8012223493B48FFF7E8F876
:102D50000A220AA9BDF9200006F05CF801221E49EA
:102D60000AA8FFF7DDF8FFF7EBF8FEF72FFF22794F
:102D700063799A4200F0B080FEF732F8072840F0FD
:102D8000AB80236894F805B09C46002394F806E0D5
:102D90000AA853E005220008C60C0020980A00206B
:102DA00008100020A00E0020C10C0020100E0020F2
:102DB0001400002015240008412500088A9200080C
:102DC00093920008B00A0020C00B0020A80A00203F
:102DD000C00A0020400000200C000020AD92000836
:102DE000B392000828000020BF920008C40C002005
:102DF000C50C0020C30C00200E090020C00C0020D0
:102E00000B0900201009002012090020120A0020DE
:102E1000140A0020160A00200D0900200C090020C9
:102E2000FE9200080F9300081393000818930008FF
:102E30001C93000820930008259300082179594528
:102E400047D040F201120133934237D14FF48073DF
:102E50001A4600210AA8FDF7EDFF3DE02B889BB242
:102E600003F1010E1FFA8EFE1CF80330A5F800E0F6
:102E700002F8013B2B88DBB22B80A2E6013141290D
:102E8000ECD14021A7E6481C00F07F00ABF8000021
:102E9000505CFFF793F8A3E6002313701A4B1B78DE
:102EA000002B7FF4AFAEFEF7E7FCABE60A234FF44E
:102EB00000511648337000F05EFFBDE64A1CD2B2E6
:102EC00022711CF8011002EA0E0200F8011B2271A7
:102ED000B4E79BB2002BBBD1DFF834B09BF80030D5
:102EE00043B16423012259460A4804F0EEF8002356
:102EF0008BF800303978084805F0D2FD00287FF4BF
:102F000043AE38703AE600BF0C09002000100140C3
:102F1000C20C0020100E0020C70C002072B6FEE785
:102F20000E4B82B09A6942F001029A619A6902F0EE
:102F300001020092009ADA6942F08052DA61DB699C
:102F4000074A03F080530193019B536823F0E06329
:102F500043F00073536002B0704700BF001002409E
:102F600000000140102230B5054689B00DEB02008B
:102F7000002105F093FF2A68244B9A4244D103F5BF
:102F80006C439A69032442F400729A619A6920485A
:102F900002F400720192019A9A6904A942F00402B3
:102FA0009A619A6902F004020292029A9A6942F0C6
:102FB00008029A619B6903F008030393039BF323C0
:102FC000CDE9043400F0FEFD124804A9CDE9044423
:102FD00000F0F8FD0023104C104A8021C4E90023C2
:102FE0004FF48072C4E903124FF48062A360C4E915
:102FF00005234FF480532046E36100F079FC08B1CB
:10300000FFF78CFF2C62656209B030BD00240140DF
:1030100000080140000C0140C40F002008000240DD
:1030200070B51026054686B03246002102A805F08C
:1030300035FF2A68294B9A424ED1294CC021A369F9
:10304000284843F00803A361A36903F00803009331
:10305000009B1223CDE90213032302A9059300F07C
:10306000B1FDE369802243F40013E361E3691E4C80
:1030700003F400130193019B1C4B2046C4E9003666
:103080000023C4E90232C4E90433A3614FF480533E
:10309000E36100F02DFC08B1FFF740FF0023144A64
:1030A0006C636562134CC4E9002380222046C4E9A6
:1030B0000323C4E90533A360E36100F019FC08B100
:1030C000FFF72CFF00221F201146AC63656200F061
:1030D000BDFB1F2000F0EAFB06B070BD00540040AD
:1030E00000100240000C01402C0F00206C00024038
:1030F00080000240E80E002007B50368174A93429B
:1031000014D1174B19209A6942F400629A61002287
:103110009B69114603F400630093009B00F096FB4B
:10312000192003B05DF804EB00F0C0BBB3F1804F91
:1031300011D103F50433DA691C2042F00102DA618F
:103140000022DB69114603F001030193019B00F0AB
:103150007DFB1C20E5E703B05DF804FB002C01407B
:1031600000100240102210B5044688B00DEB02009A
:10317000002105F093FE2368324A934231D1324B4D
:103180004FF400719A69314842F480429A619A6919
:10319000002402F480420092009A9A6942F00402EC
:1031A0009A619B6903F004030193019B0223CDE91B
:1031B0000413032304A9079300F004FD4FF4806374
:1031C000224804A9CDE90434069400F0FBFC252034
:1031D0002246214600F03AFB252000F067FB08B0AC
:1031E00010BD1B4A9342FAD1174B1848DA6904A95B
:1031F00042F40032DA61DA69002402F40032029209
:10320000029A9A6942F004029A619B69042203F0CF
:1032100004030393039B0223CDE9042303230793B1
:1032200000F0D0FC0823094804A9CDE90434069431
:1032300000F0C8FC26202246214600F007FB26208D
:10324000CBE700BF003801400010024000080140F9
:1032500000440040FEE7FEE7FEE7FEE7FEE77047BA
:103260007047704700F094B8014800F013BC00BFED
:10327000C40F0020014800F00DBC00BF2C0F00203F
:10328000014800F007BC00BFE80E0020014802F032
:1032900053BB00BF281B0020014803F087BC00BFC0
:1032A000A00E0020014803F081BC00BF580E002092
:1032B000014801F059BE00BF700F0020014803F023
:1032C000B9BF00BF100E0020014803F0B3BF00BF1C
:1032D000C80D002070470000FFF7FCFF0B480C49A9
:1032E0000C4A002302E0D458C4500433C4188C4262
:1032F000F9D3094A094C002301E013600432A242C9
:10330000FBD305F0E7FDFFF74DFA70470000002002
:10331000EC010020109B0008EC010020001E0020A2
:10332000FEE7000038B50E4B05461A784FF47A7365
:10333000B3FBF2F30B4A1068B0FBF3F000F0C4FAF1
:10334000044658B90F2D09D8024629464FF0FF30E0
:1033500000F07CFA2046044B1D6038BD0120FCE7DC
:103360006C0000206800002070000020074A08B5AB
:103370001368032043F01003136000F055FA0F2088
:10338000FFF7D0FFFFF7CCFD002008BD0020024072
:10339000034A044B11681B780B441360704700BF4D
:1033A000381000206C000020014B1868704700BFE7
:1033B0003810002038B50446FFF7F6FF0546631CB9
:1033C0001EBF044B1B78E418FFF7EEFF431BA3421C
:1033D000FAD338BD6C0000207047436A10B59A6A72
:1033E00012F0500F1BD19A6A42F400729A621A6866
:1033F000926802F46022B2F5602F0CD11A7B52B9A8
:103400009A6A22F480729A629A6AD2045EBF9A6AB9
:1034100042F001029A621846FFF7DEFF10BD1B6AF8
:10342000BDE810401B6B1847704708B5406AFFF7AE
:10343000FBFF08BD7047406A08B5836A43F040034C
:103440008362C36A43F00403C362FFF7F3FF08BD5E
:10345000002373B5019390F824300446012B6CD0FF
:10346000012380F824304D680268062D086805EBBA
:10347000850322D81F26556B053B9E4025EA06058D
:1034800000FA03F32B43536309288B6800EB4005D4
:103490004FF0070129D9D6681E3DA94026EA01014F
:1034A000AB400B43D360A0F11003012B25D90020C2
:1034B000002384F8243002B070BD0C2D4FF01F059E
:1034C00009D8166B233B9D4026EA050500FA03F355
:1034D0002B431363D8E7D66A413B9D4026EA050596
:1034E00000FA03F32B43D362CEE71069A94020EA28
:1034F0000101AB400B431361D9E7114B9A4216D13E
:1035000093681B02D3D49368102843F4000393609C
:10351000CDD10C4B0C4A1B68B3FBF2F30A22534388
:103520000193019B002BC2D0019B013BF8E7A36AEA
:10353000012043F02003A362BAE70220BBE700BFEB
:10354000002401406800002040420F00002337B5EE
:103550000193036804469A68D20702D5002003B09D
:1035600030BD9A6842F001029A60144B144A1B68FD
:10357000B3FBF2F30193019BE3B9FFF715FF054697
:1035800023689B68DB07E9D4FFF70EFF401B022886
:10359000F6D923689B6813F00103F1D1A26A0120D8
:1035A00042F01002A262E26A84F8243042F0010282
:1035B000E262D4E7019B013BDCE700BF680000202A
:1035C00040420F002DE9F041404B9046026804460E
:1035D0009A420F4602D03E498A4203D15B6813F4F7
:1035E000702F6ED194F82430012B6CD0012320462B
:1035F00084F82430FFF7AAFF064600285DD1A56AAB
:103600002168334B25F4706525F0010545F480757C
:103610009942A56204D12D4A536813F4702F3ED10C
:10362000A36A23F48013A3624B685A0505D5A36AE5
:1036300023F4405343F48053A362A36A206A13F433
:10364000805318BFE36A3A4618BF23F00603E362CB
:10365000002384F824301F4B4C3183621E4BC3621D
:103660001E4B03636FF0020341F84C3C51F8443C9D
:1036700043F4807341F8443C434600F069F9236801
:103680009A6802F46022B2F5602F9A680CBF42F487
:10369000A00242F480129A603046BDE8F081A36A2D
:1036A00043F48013A36253685B0541BFA06A20F412
:1036B000405040F48050A062BFE7002384F82430DB
:1036C000EAE70126E8E70226E6E700BF002401401A
:1036D00000280140DB3300082B3400083734000891
:1036E00038B5036804469A68D10701D4002038BD74
:1036F0009A6822F001029A60FFF756FE0546236899
:103700009B68DB07F2D5FFF74FFE401B0228F6D976
:1037100023689B68DA07F2D5A36A012043F01003FF
:10372000A362E36A43F00103E362E0E7F8B504460D
:1037300000286DD0836A23B9C36280F82430FFF774
:1037400011FC2046FFF7CCFFA36A13F0100361D1F0
:1037500000285FD1A26A616822F4885222F0020236
:1037600042F00202E569A668A262227B2943B6F50F
:10377000807F41EA420136D0771E7D427D412D0295
:10378000277D012F06D182BBA269013A45EA423268
:1037900042F400652268B6F5807F576827F46947D0
:1037A00045EA0705556097681D4D05EA070545EA96
:1037B0000105956001D0012E02D12369013B1B0553
:1037C000D56A25F470052B43D3629268154B1340DC
:1037D000994213D10023E362A36A23F0030343F069
:1037E0000103A362F8BD3546CAE7A26A42F020028F
:1037F000A262E26A42F00102E262CBE7A36A23F02E
:10380000120343F01003A362E36A43F00103E3628F
:103810000120E7E7A36A43F01003A362F8E700BFC3
:10382000FDF7E1FFFE0E1FFF07490302CA6803F41C
:10383000E06322F4E0621204120C134343F0BF630E
:1038400043F40033CB60704700ED00E0154B30B51A
:10385000DC68C4F30224C4F10703251D042B28BF30
:103860000423062D4FF0FF3594BF0024033C05FAD6
:1038700003F321EA0303A54022EA0502A34000283E
:1038800043EA0203ACBF00F16040074A4FEA03136A
:10389000DBB2ABBF00F5614000F00F0080F80033F1
:1038A000135430BD00ED00E014ED00E0002807DB0C
:1038B00001234109034A00F01F00834042F82130F0
:1038C000704700BF00E100E00138B0F1807F0BD20B
:1038D0004FF0E023F021054A586182F823100020C0
:1038E000072298611A6170470120704700ED00E0DF
:1038F000034610B530B301681420134A0A44B2FBE2
:10390000F0F292001A64114ADA63022283F821204D
:10391000D3E901242243DC68086822431C696FF361
:103920000D1022435C6922439C692243DC692243D7
:1039300002430A6000200122986383F8200083F884
:10394000212010BD0120FCE7F8FFFDBF0000024070
:10395000F0B590F82040012C34D0012480F82040AC
:1039600090F82140012CE5B24FF0000428D1022646
:1039700080F8216084630468266826F001062660CA
:10398000D0E90F67BD40756063604368102BC36A60
:103990000BBFA260A160E160E2604BB1236843F01D
:1039A0000E0300202360236843F001032360F0BD71
:1039B000236823F004032360236843F00A03F0E73D
:1039C00080F820400220F2E790F821200346022AE6
:1039D00006D0042282630120002283F82020704751
:1039E0000268C06B116821F00E011160116821F0AE
:1039F0000101116001211A6C01FA02F242600020FB
:103A000083F82110E8E7000008B590F82130022B78
:103A100003D004238363012008BD03681A6822F0E1
:103A20000E021A601A6822F001021A60174A9342C5
:103A30001FD0143293421ED0143293421DD0143240
:103A400093421DD0143293421DD01432934214BFBE
:103A50004FF080734FF480130D4A5360012380F8B8
:103A60002130002380F82030436B03B198470020B9
:103A7000D2E70123F0E71023EEE74FF48073EBE782
:103A80004FF48053E8E74FF48033E5E70800024045
:103A90000000024070B40425C66B026C34680368F1
:103AA00095402542196832D04D0730D51A689606E0
:103AB0005EBF1A6822F004021A603E4A934219D08F
:103AC0001432934218D01432934217D014329342D6
:103AD00017D01432934217D01432934214BF4FF0D0
:103AE00080634FF48003344A5360C36A002B5ED076
:103AF00070BC18470423F6E74023F4E74FF48063D3
:103B0000F1E74FF48043EEE74FF48023EBE7022523
:103B10009540254235D08D0733D51A68940606D4D2
:103B20001A6822F00A021A60012280F82120214A34
:103B3000934219D01432934218D01432934217D0C2
:103B40001432934217D01432934217D01432934256
:103B500014BF4FF000734FF40013174A5360002353
:103B600080F82030836AC1E70223F6E72023F4E7D8
:103B70004FF40073F1E74FF40053EEE74FF40033D6
:103B8000EBE708259540254211D009070FD51968A4
:103B900021F00E011960012303FA02F272608363BF
:103BA00080F82130002380F82030036B9EE770BC42
:103BB000704700BF080002400000024090F821005A
:103BC000704700002DE9F74F00244FF00F0E2646F6
:103BD000DFF884C1614B00F104080A6832FA06F587
:103BE00002D103B0BDE8F08F012505FA06F702EA1D
:103BF000070537EA020276D14A68032A07D8013A54
:103C0000022A00F28380DFE802F091969C00122ADB
:103C100000F0948069D8112A00F08A80FF2D94BFAB
:103C20008146C1464FEA8602D9F8007088BF203A23
:103C30000EFA02FA27EA0A0704FA02F21743C9F851
:103C40000070D1F8049019F0805F4CD0DCF8182097
:103C500026F0030742F00102CCF81820DCF8182007
:103C600007F1804702F00102019207F5803706F064
:103C7000030A019A4FEA8A0ABA680EFA0AFB22EA94
:103C80000B0B374A904260D002F5806290425ED0C2
:103C900002F5806290425CD002F58062904214BFCF
:103CA0000422032202FA0AF242EA0B02BA609A687C
:103CB00019F4801F14BF2A43AA439A60DA6819F4E2
:103CC000001F14BF2A43AA43DA605A6819F4003F60
:103CD00014BF2A43AA435A601A6819F4803F14BFDC
:103CE0002A43AA431A60013677E7DFF878904A45FD
:103CF0000CD014D8A9F580194A4507D009F57029C8
:103D00004A4503D0A9F580194A4587D18A68D2B1BE
:103D1000012A4FF008040CBF076147617EE7DFF816
:103D200048904A45F2D009F58039EDE7CC6875E74F
:103D3000CC68043472E7CC6808346FE7CC680C3484
:103D40006CE700246AE7042468E70022AAE701225E
:103D5000A8E70222A6E700BF0010024000040140CD
:103D60000008014000002210000031100AB101617A
:103D700070470904FBE7C36801EA030221EA030173
:103D800041EA024101617047016800224B6913F466
:103D9000806310D06FF480634B612023026380F84E
:103DA0003D3080F83E20036C80F83C2043F0040353
:103DB000036401207047184670472DE9F84606460F
:103DC0000F4691461D464FEA114A3368BAF1010F7A
:103DD0000CBF5C699C6927EA0404A4B2B4FA84F4B9
:103DE0006409A14501D0002025E06A1CEED0FFF750
:103DF000DBFA089BC01AA84201D8002DE5D1336830
:103E0000BAF1010F0CBF5B699B6927EA03039BB200
:103E1000B3FA83F35B099945D7D10023202201200F
:103E2000336386F83D2086F83E30326C86F83C30AD
:103E300042F020023264BDE8F8862DE9F0410446E4
:103E40000F46164698462568686927EA000080B242
:103E5000C0B16B695A0517D52B68202243F4007353
:103E60002B606FF480636B610023236384F83D2033
:103E700084F83E30236C43F00403236400230120C4
:103E800084F83C30BDE8F081731CDDD0FFF78CFA7C
:103E9000A0EB0800B04201D8002ED4D123685A69A3
:103EA00027EA020292B2002ACDD000232022236307
:103EB00084F83D2084F83E30236C1343DDE770B571
:103EC00004460D46164623685B691B0601D5002093
:103ED0001EE02046FFF758FFC8B96A1CF3D0FFF771
:103EE00063FA801BA84201D8002DECD123685B69DE
:103EF00013F08003E7D12022236384F83D2084F867
:103F00003E30226C84F83C3042F0200222640120D2
:103F100070BD00002DE9F04315460268994613680C
:103F200085B043F480731360DDE90C780E463B46A0
:103F300000224FF00111CDF800800446FFF73DFF4D
:103F4000236838B11B68DB0502D54FF40073236486
:103F5000032620E006F0FE061E613A464346204650
:103F60001849FFF76AFFA8B9236803905A693946D0
:103F700003929B69424603932046039BFFF79FFFF2
:103F8000064660B1236C042B01BF2268136843F41A
:103F9000007313600126304605B0BDE8F083B9F127
:103FA000010F236802D1EDB21D61F4E72A0A1A61FC
:103FB000394642462046FFF782FF0028E2D12368B7
:103FC000F1E700BF020001002DE9FF479A46DDE955
:103FD0000C78036815461A680E4642F480621A602F
:103FE0001A684FF0011142F480721A603B460022B9
:103FF000CDF800800446FFF7E0FE236848B11B6857
:10400000DB0548BF4FF400734FF0030048BF236443
:1040100021E05FFA86F906F0FE061E613A46434645
:1040200020462A49FFF709FFA0B9236803905A697F
:10403000394603929B69424603932046039BFFF750
:104040003EFF58B1236C042B01BF2268136843F470
:1040500000731360012004B0BDE8F087BAF1010FCE
:1040600023681AD1EDB24246394620461D61FFF75A
:1040700026FF02460028E5D1216820460B6843F45C
:1040800080730B603B464FF00111CDF80080FFF7C5
:1040900094FE226860B11368B2E72A0A1A613946B1
:1040A00042462046FFF70BFF0028CBD12368D9E713
:1040B00049F001031361204643463A460349FFF79E
:1040C000BCFE003818BF0120C5E700BF0200010098
:1040D00070B504460D46164623685B695B0701D53B
:1040E00000201EE02046FFF74FFEC8B96A1CF3D03F
:1040F000FFF75AF9801BA84201D8002DECD12368A4
:104100005B6913F00403E7D12022236384F83D2088
:1041100084F83E30226C84F83C3042F02002226465
:10412000012070BD70B504460D46164621684B69E6
:1041300013F0400301D0002011E04A69D2060FD5E8
:104140006FF010024A612022236384F83D2084F836
:104150003E30236C23640023012084F83C3070BD82
:10416000FFF722F9801BA84201D8002DDED1236879
:104170005B6913F04003D9D12022236384F83D20EA
:1041800084F83E30236C1343E4E7000070B5044626
:1041900008B9012070BD90F83D3003F0FF021BB953
:1041A00080F83C20FEF73CFF242384F83D30236850
:1041B0001A6822F001021A601A6842F400421A607A
:1041C0001A6822F400421A6002F028FC3F4B65682E
:1041D0009D4294BF3E4B3F4B98428CBF002301232E
:1041E000002BD6D1394E3C4BB542B0FBF3F388BF20
:1041F0004FF496762268516821F03F0141EA0301AD
:1042000082BF73434FF47A76B3FBF6F35160116AC1
:10421000013321F03F010B431362D169431E2B4848
:1042200021F44F41854221F0FF0132D86D00B3FBEC
:10423000F5F340F6FC700133034242D0C3F30B03A5
:104240001943D1611168D4E9073021F0C00103435B
:104250000B4313609168D4E9030321F40341034342
:1042600021F0FF010B439360D168D4E9053021F0C0
:10427000FF0103430B43D3601368002043F00103A5
:1042800013602023206484F83D30206384F83E00CE
:1042900080E7A06850B905EB4505B3FBF5F30133A2
:1042A000C3F30B037BB143F40043C9E71920684310
:1042B000B3FBF0F30133C3F30B0323B143F44043E7
:1042C000BEE70423BCE70123BAE700BFA0860100D4
:1042D0007F841E00FF083D0040420F002DE9F0439F
:1042E000044685B098460D4691460C9FFFF75CF852
:1042F00094F83D300646202B04D00225284605B010
:10430000BDE8F08300901923012220465C49FFF7A5
:1043100054FD0028F1D194F83C30012BEDD001235D
:10432000216884F83C300B68DA075EBF0B6843F005
:1043300001030B600B6823F400630B60212384F8F6
:104340003D30102384F83E3000232364A4F82A80F3
:10435000638DC4F8249023854A4BE362E36A082BFB
:1043600004D0012B02D013F5803F04D10B6843F435
:1043700080730B6002E0236B122BF7D000223B46C8
:104380004FF0011120460096FFF717FD226840B15B
:104390001368DB0501D40125B0E74FF400732364F3
:1043A000F9E72369B3F5804F21D105F0FE051561CA
:1043B00033463A4620463449FFF73FFD054600287C
:1043C000E9D1236803905A6903929B690393039B85
:1043D000238DF3B921680A6842F400720A60202232
:1043E00084F83C3084F83D2084F83E3086E7EB11B9
:1043F00003F0060343F0F0031361204633463A46C8
:104400002249FFF71AFD0028C5D12368EDB21D61CE
:10441000CEE7324639462046FFF751FD40B1236CC6
:10442000042BB8D12268136843F400731360B2E719
:10443000636A20681A4612F8011B01616262628D8C
:10444000013A92B26285228DD0F814C0511E89B211
:104450001CF0040F21850AD049B15978023301615B
:104460006362638D023A013B9BB2638522853246CB
:1044700039462046FFF72CFE0028A9D0CFE700BF21
:10448000020010000000FFFF020001000800010010
:10449000F7B50F4611460022019290F83D200446E0
:1044A000202A02D0022003B0F0BD444A106846F230
:1044B000A812B0FBF2F0192250430190019A013A80
:1044C0000192019A52B92023226384F83D3084F886
:1044D0003E20236C43F020032364E3E72568AA69A8
:1044E0009007EBD494F83C20012ADBD0012284F819
:1044F0003C202A680026D2075EBF2A6842F00102EB
:104500002A602A6822F400622A60212284F83D2071
:10451000102284F83E2026646385638D284A9BB26E
:10452000E262616223856764002B38D0606B98B1CA
:10453000244A46638262244AC0E90B6205F11002F4
:10454000FFF706FAB0B1202384F83D3084F83E60CE
:10455000236C43F0100307E0202384F83D3084F8F7
:104560003E00236C43F0800323640023012084F881
:104570003C3098E7236884F83C005A6842F4407263
:104580005A605A6842F400625A601A6842F48062C3
:104590001A601A6842F480721A60002083E72A6861
:1045A00042F480622A602A6842F480722A6084F8A9
:1045B0003C306B6843F4E0636B60EEE7680000201A
:1045C0000000FFFF414C0008074C00082DE9F743AD
:1045D000044699460F4690460C9EFEF7E5FE94F879
:1045E0003D300546202B03D0022003B0BDE8F08308
:1045F00000901923012220463A49FFF7DEFB0028EC
:10460000F2D194F83C30012BEED00123206884F8DD
:104610003C3003684246D90758BF036839465CBF3F
:1046200043F001030360036823F400630360212364
:1046300084F83D30402384F83E30002323640A9BF5
:1046400020466362BDF82C306385638D2385264B3D
:10465000E3624B46CDE90065FFF75CFC00282AD0F9
:104660000120C2E7FFF72BFC40B1236C042B01BFF4
:104670002268136843F400731360F1E7636A2768E4
:104680001A4612F8011B39616262628D218D013A6E
:1046900092B262857A69481E80B2520720850AD597
:1046A00048B15A7802333A616362638D0239013B43
:1046B0009BB221856385238D2A4631462046002BF7
:1046C000D0D1FFF705FD0028CFD12268136843F44D
:1046D00000731360202384F83C0084F83D3084F894
:1046E0003E0082E7020010000000FFFF2DE9F043CA
:1046F00099460023044689B003930D469046129FC5
:10470000FEF752FE94F83D300646202B04D00225D9
:10471000284609B0BDE8F083009019230122204605
:104720009049FFF74AFB0028F1D194F83C30012B67
:10473000EDD00123206884F83C3003682946DB076C
:1047400058BF036842465CBF43F00103036003683F
:1047500023F400630360222384F83D30402384F86F
:104760003E3000232364109B20466362BDF8443032
:104770006385638D23857C4BE3624B46CDE90076F0
:10478000FFF722FC0546002840F0BA80228D2368FE
:10479000C2B904905A6904929A690492049A1A68F8
:1047A00042F400721A60DFF8C481DFF8C491238DEF
:1047B000002B37D1202284F83C3084F83D2084F847
:1047C0003E30A5E7012A11D11A6822F480621A60EE
:1047D00072B6236805905A6905929A690592059AFE
:1047E0001A6842F400721A6062B6DCE7022A1A689C
:1047F0000ED142F400621A6072B6236806905A69BC
:1048000006929A690692069A1A6822F48062EAE78A
:1048100042F480621A6007905A6907929B69079375
:10482000079BC0E7032B78D8012B15D132463946B8
:104830002046FFF777FC002862D123681A69636A73
:104840001A70636A01336362238D013B2385638D94
:10485000013B9BB26385AAE7022B4FF000023B4667
:1048600041462046009618D1FFF7A7FA002847D105
:1048700072B623681A6842F400721A601A69636A91
:104880001A70636A01336362238D013B2385638D54
:10489000013B9BB2638562B6CFE7FFF78EFA002833
:1048A0002ED12268136823F48063136072B646F237
:1048B000A81123681A69636A1A70626A531C6362DA
:1048C000238D013B2385638D013B9BB26385D9F822
:1048D0000030B3FBF1F323214B430393039B013BD4
:1048E0000393039B73B92022236384F83D2084F84B
:1048F0003E30226C42F02002226462B684F83C30E2
:10490000012505E7236859694907E7D5196841F486
:10491000007119601B695370B3E73246394620466F
:10492000FFF700FC0028EBD123681A69636A1A704C
:10493000628D616A013A92B24B1C628522686362A1
:10494000238D5069013B9BB2400723857FF52FAF34
:10495000032B02BF136823F48063136013694B7049
:104960006FE700BF020010000000FFFF040001001D
:10497000680000202DE9F04786B0044698460E46B0
:104980001746DDF838A0FEF70FFD0023039394F8D7
:104990003D308146202B03D0022006B0BDE8F087D1
:1049A00046F2A812644B1B68B3FBF2F3192253437F
:1049B0000393039B013B0393039B4BB92022236387
:1049C00084F83D2084F83E30236C13432364E3E7EE
:1049D00021688B699A07ECD494F83C30012BDBD02A
:1049E000012384F83C300B680025DB0758BF0B68B7
:1049F000524A5CBF43F001030B600B6823F4006371
:104A00000B60222384F83D30402384F83E30BDF80B
:104A10003C3025646385638DC4F824A09BB2E262B8
:104A200023856664A764C4F84C802565002B66D096
:104A3000A06B58B3424A45638262424A1031C0E9D2
:104A40000B525246FEF784FF824600284BD12323A7
:104A50003A460093314643462046CDF80490FFF78E
:104A6000B3FA00B3A06BFEF7CFFFA36BC3F828A087
:104A700023681A6822F480621A60A4F82AA01A68CF
:104A8000A4F828A022F001021A600AE0202384F88A
:104A90003D3084F83E00236C84F83C0043F08003F2
:104AA0002364012079E7228D2368012A0BBF1A684D
:104AB0005A6822F4806242F480520CBF1A605A6035
:104AC0000022049259690491996984F83C20049168
:104AD00004995A6842F480725A605A6842F400623B
:104AE0005A60002059E7202384F83D3084F83E5076
:104AF000236C84F83C5043F010032364D1E7232354
:104B00003A460093314643462046CDF80490FFF7DD
:104B10005BFA0028C5D1236805905A6905929A6905
:104B20000592059A1A6842F400721A60202384F8EC
:104B30003C0084F83D30D4E7680000200000FFFF0F
:104B4000414C0008074C0008704770477047704799
:104B50007047704790F83D2008B5036DD2B283B915
:104B6000C36C0268012B836C05D1DBB21361036D4A
:104B70000233036508BDC3F307231361036D0133DB
:104B8000F7E7036D012B03D1836C0268DBB2F4E716
:104B9000036D022B2FD1222A05D10268136843F43A
:104BA00080731360EAE7438D9BB263B1212A0AD177
:104BB000436A026813F8011B11614362438D013B94
:104BC0009BB24385D6E7438D9BB2002BD2D1212ADD
:104BD000D0D10268516821F4E0615160116841F45C
:104BE000007111602022036380F83D2080F83E3080
:104BF000FFF7AFFFBEE703685A69120644BF002201
:104C00001A61B7E77047406A08B5436B0BB10022E1
:104C10009A62836B0BB100229A620268136823F4D4
:104C20008063136000232022438580F83D2080F8B4
:104C30003E30036C43F010030364FFF7E3FF08BD4D
:104C400070B5446A236894F83D1094F83E00E26A17
:104C50005D68C9B225F440755D60656BC0B20DB189
:104C60000026AE62A56B0DB10026AE6201F02105F3
:104C7000212D05D001F02205222D23D1202821D17C
:104C80005A68292922F400625A604FF000036385B4
:104C90000DD1212323632823204684F83D30FFF7DC
:104CA00054FF2268536843F44073536070BD2A294F
:104CB000F7D1222323632823204684F83D30FFF7D1
:104CC00045FFEEE794F83E100029EFD0618D89B2E0
:104CD000012902BF196821F480611960596812F531
:104CE000803F21F44071596006D0082A04D0B2F107
:104CF0002A4F01D0202A03D1196841F400711960AC
:104D0000596821F480515960596821F40061596053
:104D100000236385236C1BB12046FFF773FFC5E7B3
:104D2000202184F83D1094F83E1084F83E3040294C
:104D300004D120462363FDF78FFBB7E7082A01D093
:104D4000202A05D1002320462363FFF7FDFEADE7AF
:104D50001223F8E770470000002337B546F2A81188
:104D600001932C4B406A1B6890F83D20B3FBF1F394
:104D700023214B4301930368D2B2019941BB016CDB
:104D800041F020010164446B0CB10021A162816BF0
:104D900009B100258D621D6825F480651D60002520
:104DA000458504B1656301B14D63196821F00101C6
:104DB000196090F83D10602911D1202380F83D3012
:104DC000002380F83E300364FFF7C4FF03B030BD1A
:104DD00001990139019119688905CED4D3E702F010
:104DE0002802282A0ED1196841F0010119601968BA
:104DF00041F4806119600023036380F83D20FFF7D0
:104E000001FFE3E7202380F83D30002380F83E30A7
:104E1000F5E700BF6800002010B590F83D2090F83D
:104E20003E300446102BD9B2D2B2036801D04029DB
:104E300013D1222A11D1196821F40061196059682F
:104E400011F4006106D1602A1EBF202284F83D20A3
:104E500084F83E100022226307E002F0280128298E
:104E6000EDD10022226384F83D105A6812F40062EA
:104E70004FD05A68606B22F400625A6090F821307B
:104E8000012B374B2BD04363FEF7BEFD50B1226898
:104E9000606B136823F001031360202384F83D3016
:104EA000436B9847236C19071FBF2268536823F48C
:104EB000E063536094F83D30226CDBB252070DD5AD
:104EC000282B0BD1274B2022E362002320462363AB
:104ED00084F83D2084F83E30FFF73AFE10BDA06B09
:104EE0004363FEF791FD0028DCD023685A69510620
:104EF00005D51A69636A1A70636A013363622268AE
:104F0000A06B136823F001031360202384F83D3065
:104F1000C6E794F83D10602915D1202184F83D1092
:104F200022645A69520605D51A69636A1A70636A5F
:104F30000133636222682046136823F00103136083
:104F4000FFF708FFAEE75A69500605D51A69636A8C
:104F50001A70636A013363622046FFF753FEA1E7CC
:104F6000594D00080000FFFFF0B5044603688FB0FC
:104F70005A68C66A90F83E0094F83D101028C5B2F1
:104F8000C9B202D0402D40F0E5829F69586910F007
:104F9000010F07D1B6F52A0F02D0B6F12A4F51D131
:104FA0000FB0F0BD96054DD5E26AB2F52A0F0CD1CF
:104FB0000122E26294F83E20402A11D1226D52B9BA
:104FC000626C02F0FE021A61EAE7E26AB2F12A4F6D
:104FD000F0D10822EDE7626C42F00102D2B2F2E7B2
:104FE0002269B2F5804F1AD194F83D20212A626CD3
:104FF00011D102F0FE021A61626B0AB1926A2AB9FB
:10500000A26B002ACCD0926A002AC9D05A6842F416
:1050100000625A60C4E742F00102D2B2EBE7226DAF
:1050200032B9626CD21102F0060242F0F002CAE715
:10503000226D012AB4D1626CD21102F0060242F054
:10504000F102C0E7060703D5960501D5626CE4E7D7
:10505000860740F1F080960540F1ED8094F83E100F
:10506000E26A256B94F83D00C9B2222840F0DB804B
:10507000206D40B9402906D100905A6900929B6981
:105080000093009B8CE7216D89B92069B0F5404FF2
:105090000DD101915A6901929A690192019A1A6897
:1050A00042F480721A60236D0133236578E7618DC5
:1050B00089B251B902915A6902929A690292029A8E
:1050C0001A6842F400721A6019E0618D89B20129F0
:1050D00049D112F5803F1BD11A6822F480621A6010
:1050E0005A6812F400620CD01A6822F480621A60C6
:1050F000002203925A6903929B690393039B002346
:10510000D3E704925A6904929A690492049AD7E701
:10511000082A1CD0202A1AD0122D0DD1012A16D10E
:105120001A6822F480621A60002205925A69059278
:105130009B690593059BE2E7102AF1D8864941FA5D
:1051400002F2D707ECD41A6842F48062EBE71A68DF
:1051500022F480621A60002206925A6906929A69C5
:105160000692069AACE7618D89B2022938D1102ADD
:1051700003D87A49D140CE0718D4196841F40061A8
:105180001960002107915969079199690791079959
:10519000196821F48061196059680D05AFD5202A7E
:1051A0001BD8072A0ED8012AA9D111E0196841F4A9
:1051B00080611960002108915969089199690891E5
:1051C0000899E9E7A2F10801654ACA40D00796D5D7
:1051D0005A6842F480525A6091E712F5803FE3E743
:1051E000196841F4806119605968090510D5202AB1
:1051F00016D8072A06D8012A0AD15A6842F48052E2
:105200005A6005E0A2F10801554ACA40D207F4D419
:10521000002209925A6909929B690993099B6EE7DA
:1052200012F5803FE8E700220A925A690A929B69C8
:105230000A930A9BB4E67F0740F194805E683605C6
:105240003FF5AEAE070600F004063ED550053CD54E
:10525000002E3DD194F83D20258D94F83E10D2B219
:10526000E06AC9B2C5B9212A18D1082858D0202827
:1052700056D010F5803F53D05A6822F4E0625A604D
:1052800011232363002384F83E302023204684F832
:105290003D30FDF7D5F883E6212A05D040297FF47B
:1052A0007FAE222A7FF47CAE628D92B21AB95A6820
:1052B00022F48062ADE694F83E20402A16D12046C2
:1052C0000FB0BDE8F040FFF745BC002E3FF468AEDC
:1052D00097057FF565AE212939D1E16A94F83D2023
:1052E000212A7FF45DAE628D92B24AB1626A12F8F1
:1052F000011B19616262638D013B9BB263854FE6BE
:1053000008290DD020290BD011F5803F08D059680D
:1053100021F4E06159601123236384F83E20B4E74F
:105320005A68204622F4E0625A601A6842F4007219
:105330001A6000232022236384F83D2094F83E2045
:1053400084F83E30402AA4D1FFF703FC28E6402D24
:105350007FF426AEB3E700BFEBFFFEFF14000100B1
:105360000101000159680E053FF51AAE450600F02F
:10537000040140F18680500540F18380002940F00F
:10538000838094F83D20222A7FF40AAEE06A628D81
:1053900092B2032A14D91A69636A1A70636A0133D4
:1053A0006362638D013B9BB26385638D9BB2032B6C
:1053B0007FF4F6AD2268536823F480635360EFE511
:1053C000E56A022D3FF473AF012A3FF670AF0B91EF
:1053D00046F2A811784A1268B2FBF1F202EB82029F
:1053E0000B920B9A013A0B920B99D1B9226C204681
:1053F00042F0200222645A6822F4E0625A601A697C
:10540000636A1A70636A01336362638D013B9BB206
:105410006385202384F83D3084F83E10FFF7F2FBCB
:10542000BEE51A6812F40072DBD1196821F48061BC
:105430001960596821F4E06159601969636A19704B
:10544000636A01336362638D013B9BB263852023F2
:1054500084F83D3094F83E3084F83E20402B04D14F
:1054600022632046FCF7F8FF9AE5082801D020289F
:1054700001D1002300E0122320462363FFF764FBE1
:105480008EE500293FF48CAD92057FF589ADE26A87
:10549000608D616A80B2042809D15A6822F4806262
:1054A0005A601B690B70636A0133636223E7608D86
:1054B00080B203280CD15868042A20F48060586018
:1054C000EFD0022AEDD01A6822F480621A60E8E771
:1054D000608D80B20228E4D1042A33D007D8012A93
:1054E00007D0022A2ED0186840F4007004E0102A79
:1054F000F9D1186820F4806018601B690B70616A2C
:105500004B1C6362638D013B9BB2638523681B69FF
:105510004B70636A216801336362638D013B9BB208
:1055200063854B6823F440734B60202384F83D303F
:1055300094F83E30402B4FF0000384F83E3005D104
:1055400023638EE7186840F48060D5E7082A90D07E
:10555000202A8DE7206C10B30025586987072DD5C8
:1055600096052BD5226C02B19D6994F83D2002F07E
:105570002802282A16D15A682F0622F480625A601F
:105580004FF0000385F00401204654BFA289228B0E
:10559000C1F3800184F83C30FFF7D9FA00E59D693A
:1055A0005869DBE700220C9259690C919B6984F8D9
:1055B0003C200C930C9BF3E468000020C60640F1ED
:1055C000B180950540F1AE8094F83D505A68EDB237
:1055D00022F4E0625A6000220D925A690D921A6814
:1055E00042F001021A600D9A1A6822F480621A6071
:1055F0005A68100520D505F0F702222A4AD1A06B7F
:105600000268526892B26285628D92B21AB1226CBF
:1056100042F0040222645A6822F400625A60FEF7E3
:10562000CDFA012808D0A06B794B4363FEF7ECF963
:1056300010B1A06B436B9847638D9BB213B3236883
:105640005A69510709D51A69636A1A70636A013386
:105650006362638D013B9BB2638523685A6952067E
:1056600009D51A69636A1A70636A01336362638DCC
:10567000013B9BB26385638D9BB21BB1236C43F0EE
:1056800004032364236C13B320460FB0BDE8F0403D
:10569000FFF7C2BB606B0268526892B26285628D8E
:1056A00092B21AB1226C42F0040222645A6822F4C7
:1056B00000625A60FEF782FA0128BDD0606B544B3D
:1056C0004363FEF7A1F90028B6D0606BB2E72A2D3C
:1056D00006D123632823204684F83D30FFF736FAAD
:1056E00094F83D30282B0CD14A4B2022E362002352
:1056F0002046236384F83D2084F83E30FFF728FAE3
:105700004EE4236B222B02D0222D7FF449AC0023E0
:105710002022236384F83D2084F83E302046FFF7A2
:1057200015FA3DE401F0F701212900F0040535D117
:10573000070627D5560525D53DBB94F83D00628D5B
:10574000C0B292B2002A3FF42BAC626A12F8015B3D
:105750001D616262628D013A92B26285628D92B27F
:10576000002A7FF41DAC29287FF41AAC5A68204621
:1057700022F480625A602823216384F83D30FFF7C9
:10578000E4F90DE4002D3FF40BAC95057FF508AC72
:10579000628D92B2002A3FF403ACA7E5400627D5FC
:1057A000510525D53DBB94F83D20618DD2B289B21B
:1057B00000293FF4F5AB1969636A1970636A013314
:1057C0006362638D013B9BB26385638D9BB2002B4B
:1057D0007FF4E6AB2A2A7FF4E3AB2268536823F414
:1057E0008063536022232363282384F83D3095E7A8
:1057F000002D3FF4D5AB92057FF5D2AB628D92B20E
:10580000002A3FF4CDAB1A69636A1A704BE600BFF9
:10581000594D00080000FFFFF8B50446E0B190F8CC
:10582000913203F0FF021BB980F8902203F0D2F905
:10583000032384F8913200232546637155F8040B45
:1058400001F07CFE95E80E00206801F067FE01463D
:1058500028B1022384F8913201252846F8BD20683A
:1058600001F076FE0028F4D102460127267904F1E2
:105870001003C1B28E4203F1280318D800210A4652
:1058800004F5A873C8B2864203F128031BD895E833
:105890000E00206801F05EFE05460028D9D10123E4
:1058A0006073206884F8913202F00AF9D5E743E981
:1058B000062203F8277C03F8281C03F8252C43F85C
:1058C000102C0130D5E743E9062203F8272C03F812
:1058D000280C03F8252C43F8102C0131D2E738B5F9
:1058E00090F890320446012B10D0012580F8905298
:1058F000006801F01AFE2946204603F072FA20687B
:1059000002F0DCF8002084F8900238BD0220FCE7A9
:1059100010B590F890220446012A0AD00122417362
:1059200080F89022006802F0C3F8002084F890020A
:1059300010BD0220FCE700002DE9F04F044685B0C1
:10594000006802F0BFF810F4004500F04F842825ED
:10595000C64E2068B0F844301F0402D405B0BDE83C
:10596000F08FB0F8443013F00F0799B240F0C080C8
:1059700011F0100126D103889BB2334043F4004359
:105980000380B0F85030227C9BB203EBC20300EBE3
:105990004303B3F80434626AC3F309031A44E362AD
:1059A0002046626203F045F9637B002BD1D0A26AE6
:1059B0002168002ACDD1637B43F08003A1F84C30ED
:1059C0006273C6E70788BBB217F4006721D0B0F84E
:1059D000503094F850219BB203EBC20300EB430319
:1059E000B3F80C34B4F85621C3F30903C4F86C318E
:1059F00004F5267102F0B1FA22682046138823F0DC
:105A000070031B051B0D43F08003138003F002F9A4
:105A10009FE719049DD5038823F070031B051B0D18
:105A200043F080030380B0F8503094F850219BB2CB
:105A300003EBC20300EB4303B3F80C34C3F30903D5
:105A4000C4F86C318BB1D4F8641171B1B4F856213B
:105A500002F083FAD4F86431D4F86C213946134447
:105A60002046C4F8643103F0DBF821680A8893B259
:105A700012053FF56EAF03F44053B3F5405F3FF4BA
:105A800068AFB1F8502001F20C4092B2835AC3F3D0
:105A900009038352D4F860313E2B1DD95F09DB0620
:105AA000835A08BF07F1FF379BB243EA87236FEAA7
:105AB00043436FEA53439BB283520B8823F48043E2
:105AC00023F070031B041B0C83F4405343F4004386
:105AD00043F080030B803CE70BB9835AE7E75F088C
