:020000040800F2
:1000000000500020A5180008191800082118000841
:1000100029180008311800083918000800000000ED
:10002000000000000000000000000000411800086F
:100030004D18000800000000591800086518000855
:10004000ED180008ED180008ED180008ED1800087C
:10005000ED180008ED180008ED180008ED1800086C
:10006000ED180008ED180008ED180008ED1800085C
:10007000ED180008ED180008ED180008ED1800084C
:10008000ED180008ED180008ED180008ED1800083C
:10009000ED180008ED180008ED180008ED1800082C
:1000A000ED18000871180008ED180008ED18000898
:1000B000ED180008ED180008ED180008ED1800080C
:1000C000ED180008ED180008ED180008ED180008FC
:1000D000ED18000885180008ED180008ED18000854
:1000E000ED180008ED180008ED18000800000000E9
:1000F0000000000000000000000000000000000000
:0C01000000000000000000005FF808F1A3
:10010C0010B5054C237833B9044B13B10448AFF345
:10011C0000800123237010BD1C0000200000000093
:10012C00CC3E000808B5034B1BB103490348AFF3A1
:10013C00008008BD0000000020000020CC3E00081C
:10014C00034613F8012B002AFBD1181A013870470B
:10015C0080B582B000AF78603960124B00221A7003
:10016C00114B00221A7040227968104803F062FE8D
:10017C000E4B002283F83F20202239680C4803F0F4
:10018C0059FE0B4B0022DA770A4B32221A60054BD0
:10019C000D221A70084B00221A7000BF0837BD469A
:1001AC0080BD00BF380000203C000020540000201F
:1001BC0094000020400000207002002080B582B026
:1001CC0000AF78600B467B8013463B801D4B5B6811
:1001DC00002B02D14FF0FF332FE03B88002B02D1D4
:1001EC0047F230533B80184B184A1A600F2279683B
:1001FC00174803F01FFE164B0022DA737B880A2285
:10020C001449184603F0CAFD3B880A2212491846C5
:10021C0003F0C4FD114B1B78002B01D101230CE022
:10022C000F4B1B7803F00203DBB2002B01D1002330
:10023C0003E00C4B09221A70062318460837BD46FA
:10024C0080BD00BF74020020000000205544500007
:10025C00B4000020C4000020DC000020540000206A
:10026C003C0000203800002080B400AF0A4B5B68D3
:10027C00002B02D14FF0FF3309E0084B1B7803F041
:10028C004003DBB2002B01D0072300E00523184606
:10029C00BD4680BC704700BF740200203C000020AB
:1002AC0080B483B000AF0346FB710B4B1B885A1C08
:1002BC0091B2094A11801946084AFB795354064BEE
:1002CC001B88802B02D1044B00221A8000BF0C37F4
:1002DC00BD4680BC704700BF68020020E8000020CB
:1002EC0080B588B000AFF860084611461A46034640
:1002FC007B810B463B811346FB80464B5B68002B96
:10030C0002D14FF0FF3381E0434B1B7803F04003E5
:10031C00DBB2002B01D1052378E03F4B1B7803F0B7
:10032C000803DBB2002B68D100237B773B8907F1F4
:10033C0010010A22184603F031FD07F1100318468C
:10034C00FFF7FEFE03467B777B7F042B02D87B7F77
:10035C00002B01D10B2359E0304800F031FF07F19D
:10036C001003184600F02CFF2D4800F029FF002345
:10037C00FB8320E07B895A1C7A811A46FB681A445D
:10038C00284B1B88591C88B22649088019461278BC
:10039C00254B5A54234B1B88B3F5807F02D1214B3C
:1003AC0000221A807A89FB889A4201D100237B8132
:1003BC00FB8B0133FB83FA8B3B899A42DAD3164AC7
:1003CC00137843F004031370134A137843F00803B3
:1003DC001370164B1B68002B0DD0144B1B68144864
:1003EC009847124B1B6807F11002104698470F4BA9
:1003FC001B6810489847092308E00C4B1B68002B1E
:10040C0003D00A4B1B680C48984708231846203722
:10041C00BD4680BD740200203C000020B84000089E
:10042C00E43E00086E02002068010020500000200D
:10043C00E83E0008FC3E0008003F000880B582B092
:10044C0000AF78600C227968104803F02BFD104B3C
:10045C0000221A700F4B00221A700F4B00221A80C8
:10046C000E4B00221A800E4B00221A800D4B0022DC
:10047C001A800D4B00221A700C4B00221A600C4B88
:10048C0000221A6000BF0837BD4680BD74020020F0
:10049C0038000020E20000206C0200206E020020D8
:1004AC006A020020680200203C0000204C00002062
:1004BC005000002080B400AF124B1B68002B04D0FE
:1004CC00104B1B68013B0F4A13600F4B1B68002B32
:1004DC000BD00D4B1B68013B0B4A13600A4B1B687E
:1004EC00002B02D1094B00221A70094B1B68002B00
:1004FC0004D0074B1B68013B054A136000BFBD4687
:10050C0080BC70474000002044000020E200002026
:10051C004800002080B500AF084B1A88084B1B8898
:10052C009A4201D000F010F8064B1B68002B01D149
:10053C0000F0C0FB00F0C8FD00BF80BD6A020020C7
:10054C00680200204000002080B582B000AF7F4BD5
:10055C001B780D2B07D07D4B1B780E2B03D07B4BC0
:10056C001B780F2B04D17A4B1A887A4B1A8081E3B3
:10057C00774B1B88FB80784B02221A6074E3754B17
:10058C001B881A46754B9B5C7B71754B1B780C2B2F
:10059C0000F24B8301A252F823F000BFDD050008E6
:1005AC00CD060008AF080008370C0008370C00080F
:1005BC00A70A0008ED0A0008030B00082F0B00081F
:1005CC00370C00087B0B0008A30B0008F90B000884
:1005DC00644B00221A70644B04221A703EE0614B8B
:1005EC001B781A46614B53F822305F4A1278134439
:1005FC001B787A799A422BD15A4B1B781A465B4B53
:10060C0053F822301B78303B9AB2594B1A80584B16
:10061C001B881A46920013445B009AB2544B1A8002
:10062C00504B1B781A46514B53F8223001331B7830
:10063C001A464F4B1B8813449BB2303B9AB24C4B1F
:10064C001A804B4B1B88013B9AB2494B1A800DE028
:10065C00444B1B780133DAB2424B1A70414B1B7876
:10066C001A46424B53F82230002BB8D13D4B1B7825
:10067C001A463E4B53F82230002B09D0384B01223E
:10068C001A70394B1B780133DAB2374B1A70D3E23C
:10069C00314B00221A60374B1B7803F00103DBB29D
:1006AC00002B00F0C9827B793E2B40F0C582314A89
:1006BC00137823F0010313702F4B00221A60BBE256
:1006CC00284B1B781A46294B53F82230264A1278AD
:1006DC0013441B787A799A4233D1254B1B88013B02
:1006EC009AB2234B1A80224B1B88002B03D07B79A8
:1006FC000D2B40F0CF801B4B1B781A461B4B53F82D
:10070C00223002331B78303BDAB2154B1A70144B83
:10071C001B781A46920013445B00DAB2104B1A7025
:10072C00104B1B781A46114B53F8223003331A78AE
:10073C000B4B1B781344DBB2303BDAB2084B1A700C
:10074C0085E2084B00221A7088E000BF38000020B8
:10075C00680200206A02002044000020E80000200B
:10076C00E20000208002002081020020DC41000811
:10077C00E40000203C00002048000020A44B1B7823
:10078C001A46A44B53F822301B78303B9AB2A24B3A
:10079C001A80A14B1B881A46920013445B009AB234
:1007AC009D4B1A809A4B1B781A469A4B53F8223061
:1007BC0001331B781A46984B1B8813449BB2303B71
:1007CC009AB2954B1A80944B1B88944A12789B1AB8
:1007DC009BB203339AB2904B1A808F4B1B887F2BA2
:1007EC0036D88B4B1B781A468A4B53F822308B4ADF
:1007FC00127813441B787A799A4229D1864B1B883C
:10080C00002B34D1824B1B781A46824B53F8223082
:10081C0002331B78303BDAB2814B1A70804B1B7859
:10082C001A46920013445B00DAB27D4B1A70784B77
:10083C001B781A46774B53F8223003331A78784BCF
:10084C001B781344DBB2303BDAB2754B1A700EE0F6
:10085C006F4B1B780133DAB26D4B1A706C4B1B78F3
:10086C001A466C4B53F82230002B87D100E000BFA6
:10087C00674B1B781A46674B53F82230002B09D173
:10088C00674B00221A70674B1B88013B9AB2654B71
:10089C001A80DCE1614B1B780133DAB25F4B1A70C2
:1008AC00D5E17B790A2B40F0C9815D4B00221A708F
:1008BC00574B1B78112B00F2C18101A252F823F087
:1008CC008B0A00088B0A000815090008310900087A
:1008DC005F0900088B0A00089509000895090008B3
:1008EC00C9090008D5090008F10900084D0A0008DB
:1008FC00490C0008590A0008490C00086F0A000846
:10090C008B0A00088B0A0008474B1B78022B40F01F
:10091C00B880464B00221A60454A137843F02003F6
:10092C001370AEE0424B1B7803F00803DBB2002BD4
:10093C0000F0A9803E4A137823F0080313703C4A58
:10094C00137823F0400313703A4B1A883A4B1A80F1
:10095C0099E0364B00221A60334B1B78062B04D1DE
:10096C00334A137843F020031370314A137843F061
:10097C0002031370314B1B68002B00F086802F4B49
:10098C001B680320984780E0294A137823F0400322
:10099C001370274A137823F002031370274B1B683C
:1009AC00002B03D0254B1B68002098471E4B1B784F
:1009BC00062B6CD01C4B0F221A706DE01C4A13785E
:1009CC0023F04003137067E0194A137823F00803EF
:1009DC0013701A4B1B68002B5BD0184B1B680A203A
:1009EC00984756E0114B00221A60114A137843F0D5
:1009FC00200313700E4A137843F0400313700F4B0F
:100A0C001B68002B47D00D4B1B680720984742E012
:100A1C0080020020DC410008E4000020810200205C
:100A2C00E20000206A020020380000204000002074
:100A3C003C0000206E0200206C0200204C000020C4
:100A4C008E4A137823F04003137025E08B4A1378F9
:100A5C0023F040031370894A137823F002031370B8
:100A6C001AE0864A137823F040031370834A1378F4
:100A7C0023F002031370824B0F221A700CE000BF9C
:100A8C00DCE000BFDAE000BFD8E000BFD6E000BF7A
:100A9C00D4E000BFD2E000BFD0E07B792C2B0CD18E
:100AAC00784B06221A70784B1B68002B00F0C8801C
:100ABC00754B1B6875489847C2E0724B00221A7040
:100ACC00734B1B88013B9AB2714B1A806E4B1B689F
:100ADC00002B00F0B5806C4B1B686E489847AFE05C
:100AEC007B79222B40F0AE80664B07221A706A4B42
:100AFC0000221A80A6E07B79222B03D0664B1B8840
:100B0C00102B03D15F4B08221A70A0E0624B1B889C
:100B1C005A1C91B2604A11801946604A7B79535431
:100B2C0095E07B790A2B40F08F80564B00221A708F
:100B3C00594B1B880F2B0ED8574B1B881A46574BFB
:100B4C00002199544D4A137843F020031370544BF1
:100B5C0000221A6002E0514B00221A70514B1B68A4
:100B6C00002B71D04F4B1B68042098476CE07B79AD
:100B7C002C2B06D1434B0B221A70474B00221A80A8
:100B8C0065E0404B00221A70414B1B88013B9AB226
:100B9C003F4B1A805BE07B793A2B03D1394B0C220B
:100BAC001A7054E07B792F2B02D97B79392B09D918
:100BBC00344B00221A70364B1B88013B9AB2344BD3
:100BCC001A8044E0344B1B881A46920013445B0095
:100BDC009AB2314B1A807B799AB22F4B1B881344F3
:100BEC009BB2303B9AB22C4B1A8030E02E4B9B6858
:100BFC00002B04D02C4B9B687A7910469847264BD7
:100C0C001B88013B9AB2244B1A80234B1B88002B68
:100C1C001CD11C4B00221A701B4B1B68002B15D0CF
:100C2C00194B1B682148984710E0164B00221A708C
:100C3C001F4B00221A600AE000BF08E000BF06E06C
:100C4C0000BF04E000BF02E000BF00E000BF104B9B
:100C5C001B8801339AB20E4B1A800D4B1B88802BCC
:100C6C0002D10B4B00221A80094B1B88FA889A423E
:100C7C007FF485AC0837BD4680BD00BF3C0000202A
:100C8C0038000020E200002050000020183F00082F
:100C9C006A020020303F0008E4000020CC00002055
:100CAC00400000204C00002074020020443F00084B
:100CBC004400002080B500AF9C4B64221A609C4B12
:100CCC001B780F2B00F2E58101A252F823F000BF34
:100CDC001D0D00087B0D0008CD0D0008EB0D000864
:100CEC00090E0008270E0008AD0E0008D10E0008F2
:100CFC00FF0E00088D0F0008B50F00084710000804
:100D0C0065100008250D0008450D00086D0D000844
:100D1C00864B00221A60BCE1864B1B68002098476A
:100D2C00854B1B68002B03D0834B1B68834898476B
:100D3C007F4B0E221A70ACE17E4B1B68012098474A
:100D4C007D4B1B68002B03D07B4B1B687C48984762
:100D5C00774B0F221A70754B4FF4FA721A6098E1A8
:100D6C00734B01221A70774B00221A7091E1754B6C
:100D7C001B78002B0DD0734B1B78013BDAB2714BF7
:100D8C001A70704B1B78002B06D1694B0D221A7010
:100D9C007FE16C4B04221A706B4A137823F020030A
:100DAC0013706A4800F00CFA634B1B68002B03D0DD
:100DBC00614B1B68664898475D4B02221A7068E1CC
:100DCC00614B1B7803F02003DBB2002B03D0584B94
:100DDC0003221A705DE1564B01221A7059E15D48ED
:100DEC0000F0EEF9544B1B68002B03D0524B1B68E0
:100DFC00594898474E4B04221A704AE1574800F064
:100E0C00DFF94D4B1B68002B03D04B4B1B68544830
:100E1C009847474B05221A703BE14B4B1B7803F06C
:100E2C000203DBB2002B03D0414B07221A7030E1D6
:100E3C004C4B1B78002B00F029814B4800F0C0F97B
:100E4C00222000F0EDF9474800F0BAF9222000F01A
:100E5C00E7F92C2000F0E4F9222000F0E1F94348F6
:100E6C0000F0AEF9222000F0DBF90D2000F0D8F9EB
:100E7C000A2000F0D5F9304B1B68002B03D02E4B09
:100E8C001B683B489847304A137823F020031370B3
:100E9C00274B06221A70254B40F2DC521A60F8E000
:100EAC00294B1B7803F02003DBB2002B06D0204B20
:100EBC0007221A70234B04221A70EAE01C4B012201
:100ECC001A70E6E02B4B00221A702B4800F078F9D0
:100EDC00194B1B68002B03D0174B1B6827489847EE
:100EEC00194A137823F020031370114B08221A703F
:100EFC00CFE0154B1B7803F02003DBB2002B03D0A3
:100F0C000B4B09221A70C4E00E4B1B78013BDAB272
:100F1C000C4B1A700B4B1B78002B03D1044B01228A
:100F2C001A70B6E0024B07221A70B2E040000020A3
:100F3C00380000207402002050000020583F0008A8
:100F4C00703F0008700200203C0000205840000850
:100F5C00883F000870400008983F00086040000877
:100F6C00AC3F000854000020804000089400002092
:100F7C00C03F0008CC0000208C400008D43F000883
:100F8C00454B1B78002B00F08380444800F018F987
:100F9C00434B1B68002B03D0414B1B6841489847BF
:100FAC00414B0A221A7074E0404800F009F92220E3
:100FBC0000F036F93E4800F003F9222000F030F939
:100FCC002C2000F02DF9222000F02AF9324800F0F4
:100FDC00F7F8222000F024F92C2000F021F93548F4
:100FEC0000F0EEF82C2000F01BF9334800F0E8F884
:100FFC002C2000F015F9302000F012F90D2000F033
:10100C000FF90A2000F00CF9254B1B68002B03D0BC
:10101C00234B1B6829489847294A137823F020034F
:10102C001370274A137823F0400313701E4B0B22C6
:10103C001A70244BC8221A602BE0214B1B7803F04A
:10104C002003DBB2002B03D0174B0C221A7020E0CC
:10105C00154B01221A701CE0194B1B7803F002038C
:10106C00DBB2002B03D1104B01221A7011E0144B90
:10107C001B7803F04003DBB2002B03D10A4B09228F
:10108C001A7006E00F4B00221A6002E000BF00E06D
:10109C0000BF00BF80BD00BFB4000020A840000806
:1010AC0050000020E83F000838000020984000085D
:1010BC0000000020C4000020DC00002000400008DC
:1010CC003C0000204000002080B582B000AF344BC3
:1010DC001B7803F00103DBB2002B13D0314B1B68E0
:1010EC00002B59D1304B1A88304B1A802C4A13786C
:1010FC0023F0010313702E4B01221A702D4B0A2280
:10110C001A6049E0294B1A88274B1B889A4244D015
:10111C00264B1B881A46284B9B5CFB71204B1B787B
:10112C0003F00403DBB2002B04D0FB793E2B01D17E
:10113C000A23FB71214B5B68FA79104698470346EA
:10114C00002B2AD0164B1B7803F00403DBB2002BC8
:10115C0013D0164B1B881A46174B9B5C3E2B0CD19D
:10116C000F4A137823F0040313700D4A137843F0DD
:10117C00010313700B4B05221A600C4B1B880133B7
:10118C009AB20A4B1A80094B1B88B3F5807F04D1A5
:10119C00064B00221A8000E000BF0837BD4680BD18
:1011AC003C000020480000206E0200206C02002051
:1011BC00380000204000002068010020740200204C
:1011CC0080B485B000AF78600023FB6017E0FB684B
:1011DC007A681A44104B1B88591C88B20E49088037
:1011EC00194612780D4B5A540B4B1B88B3F5807F64
:1011FC0002D1094B00221A80FB680133FB60FB68AB
:10120C007A6813441B78002BE1D100BF00BF143760
:10121C00BD4680BC704700BF6E02002068010020F4
:10122C0080B483B000AF0346FB710B4B1B885A1C78
:10123C0091B2094A11801946084AFB795354064B5E
:10124C001B88B3F5807F02D1034B00221A8000BFAC
:10125C000C37BD4680BC70476E0200206801002030
:10126C0080B483B000AF78607B681B68054A9342FA
:10127C0002D1054B01221A6000BF0C37BD4680BC61
:10128C00704700BF002C01401403002080B582B0D1
:10129C0000AF78607B681B68084A93420AD1084B00
:1012AC001B780133DAB2074B1A7001220449064845
:1012BC0001F0CDFF00BF0837BD4680BD00380140AE
:1012CC001D0300201C030020CC02002080B582B03E
:1012DC0000AF0346FB71FB79002B14BF01230023E5
:1012EC00DBB21A460121034800F0A2FE00BF08370A
:1012FC00BD4680BD0008014080B582B000AF0346FA
:10130C00FB71F91D64230122064801F015FF034609
:10131C00002B0CBF01230023DBB218460837BD4657
:10132C0080BD00BFCC02002080B582B000AF034668
:10133C00FB71FB791846FEF7B3FF00BF0837BD46BB
:10134C0080BD000080B582B000AF00F0CBFA00F099
:10135C008BF800F049F900F0CDF800F01BF9354896
:10136C0001F0F8FA01223449344801F070FF344B93
:10137C000A221A60334B00221A60334B00221A7077
:10138C003248FFF75BF832493248FEF7E1FE47F28C
:10139C00315247F230513048FEF710FF294B1B6891
:1013AC00002B37D0274B00221A60FFF783F8244B11
:1013BC001B68013B224A1360214B1B68002B07D191
:1013CC001F4B0A221A604FF40051244800F048FECB
:1013DC00234B1B8801339AB2214B1A80204B1B885C
:1013EC00C72B17D91E4B00221A80FEF73DFF034670
:1013FC00072B0FD11B4A3B4692E8030018600433BD
:10140C00198002330A0C1A70384606230622002172
:10141C00FEF766FFFFF77EF80B4B1B78002BBDD059
:10142C00642301220849054801F086FE064B002280
:10143C001A70B3E7840200201D030020CC020020A8
:10144C0018030020140300201C03002004000020BB
:10145C0018400008244000084040000800100140DB
:10146C001E0300205040000880B590B000AF07F17B
:10147C00180328220021184602F0D4FC3B1D002240
:10148C001A605A609A60DA601A610123BB614FF4EA
:10149C008033FB6100233B620123BB6202237B632D
:1014AC004FF48033BB634FF4E013FB6307F1180375
:1014BC00184600F0EFFD0346002B01D000F0F4F8C5
:1014CC000F237B600223BB600023FB604FF480631F
:1014DC003B6100237B613B1D0221184601F05CF847
:1014EC000346002B01D000F0DFF800BF4037BD46AB
:1014FC0080BD000080B586B000AF07F10803002264
:10150C001A605A609A60DA603B4600221A605A6090
:10151C001E4B1F4A1A601D4B47225A601B4B002260
:10152C009A601A4B42F20F72DA60184B00221A6161
:10153C00164B00225A61154B00229A61134801F098
:10154C00B9F90346002B01D000F0AEF84FF48053EC
:10155C00BB6007F1080319460C4801F03DFB03463C
:10156C00002B01D000F0A0F800233B6000237B602F
:10157C003B461946054801F01FFD0346002B01D0E0
:10158C0000F092F800BF1837BD4680BD84020020E1
:10159C00002C014080B500AF114B124A1A60104B61
:1015AC004FF4E1325A600E4B00229A600C4B002231
:1015BC00DA600B4B00221A61094B0C225A61084B62
:1015CC0000229A61064B0022DA61054801F064FDA5
:1015DC000346002B01D000F067F800BF80BD00BFB0
:1015EC00CC0200200038014080B588B000AF07F174
:1015FC00100300221A605A609A60DA60274B9B69CC
:10160C00264A43F010039361244B9B6903F01003AB
:10161C00FB60FB68214B9B69204A43F020039361DC
:10162C001E4B9B6903F02003BB60BB681B4B9B6983
:10163C001A4A43F004039361184B9B6903F00403AB
:10164C007B607B6800224FF40051154800F0F0FCE1
:10165C0001220121134800F0EBFC4FF400533B61D5
:10166C0001237B610023BB610223FB6107F11003A3
:10167C0019460B4800F058FB01233B6101237B61A9
:10168C000023BB610223FB6107F1100319460548D7
:10169C0000F04AFB00BF2037BD4680BD0010024061
:1016AC00001001400008014080B400AF72B600BFCA
:1016BC0000BFFDE780B485B000AF154B9B69144AA1
:1016CC0043F001039361124B9B6903F00103BB6070
:1016DC00BB680F4BDB690E4A43F08053D3610C4B54
:1016EC00DB6903F080537B607B680A4B5B68FB60B3
:1016FC00FB6823F0E063FB60FB6843F00073FB6066
:10170C00044AFB68536000BF1437BD4680BC704769
:10171C00001002400000014080B584B000AF78603A
:10172C007B681B680D4A934213D10D4B9B690C4A85
:10173C0043F4006393610A4B9B6903F40063FB6001
:10174C00FB6800220021192000F005FA192000F096
:10175C001EFA00BF1037BD4680BD00BF002C0140F3
:10176C000010024080B588B000AF786007F110031C
:10177C0000221A605A609A60DA607B681B68204A03
:10178C00934239D11F4B9B691E4A43F480439361AA
:10179C001C4B9B6903F48043FB60FB68194B9B69F2
:1017AC00184A43F004039361164B9B6903F004033E
:1017BC00BB60BB684FF400733B6102237B61032366
:1017CC00FB6107F1100319460F4800F0ADFA4FF416
:1017DC0080633B6100237B610023BB6107F1100335
:1017EC001946094800F0A0FA00220021252000F03B
:1017FC00B2F9252000F0CBF900BF2037BD4680BDE3
:10180C0000380140001002400008014080B400AFD5
:10181C0000BFFDE780B400AF00BFFDE780B400AFB0
:10182C0000BFFDE780B400AF00BFFDE780B400AFA0
:10183C0000BFFDE780B400AF00BFBD4680BC704761
:10184C0080B400AF00BFBD4680BC704780B400AF11
:10185C0000BFBD4680BC704780B500AF00F088F873
:10186C0000BF80BD80B500AF024801F0C5F800BFD5
:10187C0080BD00BF8402002080B500AF024801F09B
:10188C000BFD00BF80BD00BFCC02002080B400AFB8
:10189C0000BFBD4680BC7047FFF7F8FF0B480C49F2
:1018AC000C4A002302E0D458C4500433C4188C42B0
:1018BC00F9D3094A094C002301E013600432A24217
:1018CC00FBD302F0CBFAFFF73DFD70470000002080
:1018DC001C000020884200081C000020240300206B
:1018EC00FEE7000080B500AF084B1B68074A43F0C9
:1018FC0010031360032000F023F90F2000F008F808
:10190C00FFF7D8FE0023184680BD00BF0020024020
:10191C0080B582B000AF7860124B1A68124B1B78FE
:10192C0019464FF47A73B3FBF1F3B2FBF3F3184699
:10193C0000F03BF90346002B01D001230EE07B683D
:10194C000F2B0AD8002279684FF0FF3000F003F912
:10195C00064A7B681360002300E001231846083711
:10196C00BD4680BD1000002018000020140000208F
:10197C0080B400AF054B1B781A46054B1B6813440B
:10198C00034A136000BFBD4680BC7047180000209E
:10199C002003002080B400AF024B1B681846BD46E4
:1019AC0080BC70472003002080B485B000AF786005
:1019BC007B6803F00703FB600C4BDB68BB60BA6809
:1019CC004FF6FF031340BB60FB681A02BB6813435E
:1019DC0043F0BF6343F40033BB60044ABB68D3607D
:1019EC0000BF1437BD4680BC704700BF00ED00E05F
:1019FC0080B400AF044BDB681B0A03F007031846E6
:101A0C00BD4680BC704700BF00ED00E080B483B0E1
:101A1C0000AF0346FB7197F90730002B0BDBFB790A
:101A2C0003F01F02064997F907305B09012000FA01
:101A3C0002F241F8232000BF0C37BD4680BC704732
:101A4C0000E100E080B483B000AF03463960FB7165
:101A5C0097F90730002B0ADB3B68DAB20C4997F98F
:101A6C0007301201D2B20B4483F800230AE03B6822
:101A7C00DAB20849FB7903F00F03043B1201D2B22E
:101A8C000B441A7600BF0C37BD4680BC704700BFB4
:101A9C0000E100E000ED00E080B489B000AFF86038
:101AAC00B9607A60FB6803F00703FB61FB69C3F163
:101ABC000703042B28BF0423BB61FB690433062BEB
:101ACC0002D9FB69033B00E000237B614FF0FF323E
:101ADC00BB6902FA03F3DA43BB681A407B699A408C
:101AEC004FF0FF317B6901FA03F3D9437B680B405C
:101AFC00134318462437BD4680BC704780B582B06E
:101B0C0000AF78607B68013BB3F1807F01D3012388
:101B1C000FE00A4A7B68013B53600F214FF0FF3006
:101B2C00FFF790FF054B00229A60044B07221A60C6
:101B3C00002318460837BD4680BD00BF10E000E00A
:101B4C0080B582B000AF78607868FFF72DFF00BFDA
:101B5C000837BD4680BD80B586B000AF0346B9607E
:101B6C007A60FB7300237B61FFF742FF78617A6830
:101B7C00B9687869FFF790FF024697F90F30114664
:101B8C001846FFF75FFF00BF1837BD4680BD80B514
:101B9C0082B000AF0346FB7197F907301846FFF788
:101BAC0035FF00BF0837BD4680BD80B582B000AFA1
:101BBC0078607868FFF7A2FF034618460837BD46E1
:101BCC0080BD80B485B000AF78600023FB737B6868
:101BDC0093F82130DBB2022B08D07B6804229A6385
:101BEC007B68002283F82020012320E07B681B689F
:101BFC001A687B681B6822F00E021A607B681B68EF
:101C0C001A687B681B6822F001021A607B681A6CE8
:101C1C007B68DB6B012101FA02F25A607B680122BE
:101C2C0083F821207B68002283F82020FB7B184658
:101C3C001437BD4680BC704780B584B000AF786067
:101C4C000023FB737B6893F82130DBB2022B05D0A9
:101C5C007B6804229A630123FB7351E07B681B6849
:101C6C001A687B681B6822F00E021A607B681B687E
:101C7C001A687B681B6822F001021A607B681B687B
:101C8C00224A934229D07B681B68214A934222D076
:101C9C007B681B681F4A93421AD07B681B681E4ADC
:101CAC00934212D07B681B681C4A93420AD07B6813
:101CBC001B681B4A934202D14FF480130EE04FF085
:101CCC0080730BE04FF4803308E04FF4805305E051
:101CDC004FF4807302E0102300E00123114A53609B
:101CEC007B68012283F821207B68002283F8202066
:101CFC007B685B6B002B03D07B685B6B78689847C9
:101D0C00FB7B18461037BD4680BD00BF0800024063
:101D1C001C000240300002404400024058000240C7
:101D2C006C0002400000024080B48BB000AF7860C1
:101D3C00396000237B6200233B6269E101227B6AEC
:101D4C0002FA03F3FB613B681B68FA691340BB6141
:101D5C00BA69FB699A4240F058813B685B689A4AC1
:101D6C0093425ED0984A934275D8984A934258D081
:101D7C00964A93426FD8964A934252D0944A9342D1
:101D8C0069D8944A93424CD0924A934263D8924A6F
:101D9C00934246D0904A93425DD8122B2AD8122BEC
:101DAC0059D801A252F823F02F1E0008091E000872
:101DBC001B1E00085D1E0008631E0008631E000841
:101DCC00631E0008631E0008631E0008631E0008E3
:101DDC00631E0008631E0008631E0008631E0008D3
:101DEC00631E0008631E0008631E0008111E000815
:101DFC00251E0008794A934213D02CE03B68DB681F
:101E0C003B6229E03B68DB6804333B6224E03B68BF
:101E1C00DB6808333B621FE03B68DB680C333B62DA
:101E2C001AE03B689B68002B02D104233B6213E051
:101E3C003B689B68012B05D108233B627B68FA69E0
:101E4C001A6109E008233B627B68FA695A6103E076
:101E5C0000233B6200E000BFBB69FF2B01D87B680D
:101E6C0001E07B6804337B61BB69FF2B02D87B6A82
:101E7C009B0002E07B6A083B9B003B617B691A6814
:101E8C000F213B6901FA03F3DB431A40396A3B69C2
:101E9C0001FA03F31A437B691A603B685B6803F031
:101EAC008053002B00F0B1804D4B9B694C4A43F0A2
:101EBC00010393614A4B9B6903F00103BB60BB6850
:101ECC00484A7B6A9B08023352F82330FB607B6ADA
:101EDC0003F003039B000F2202FA03F3DB43FA68BF
:101EEC001340FB607B68404A934213D07B683F4AA7
:101EFC0093420DD07B683E4A934207D07B683D4AA3
:101F0C00934201D1032306E0042304E0022302E000
:101F1C00012300E000237A6A02F00302920093404E
:101F2C00FA681343FB602F497B6A9B080233FA68FB
:101F3C0041F823203B685B6803F48013002B06D028
:101F4C002D4B9A682C49BB6913438B6006E02A4BD6
:101F5C009A68BB69DB43284913408B603B685B681C
:101F6C0003F40013002B06D0234BDA682249BB691B
:101F7C001343CB6006E0204BDA68BB69DB431E4998
:101F8C001340CB603B685B6803F40033002B06D036
:101F9C00194B5A681849BB6913434B6006E0164B42
:101FAC005A68BB69DB43144913404B603B685B6860
:101FBC0003F48033002B21D00F4B1A680E49BB69F8
:101FCC0013430B6021E000BF000032100000311001
:101FDC00000022100000211000001210000011104F
:101FEC00001002400000014000080140000C0140BC
:101FFC000010014000140140000401400B4B1A6812
:10200C00BB69DB43094913400B607B6A01337B627C
:10201C003B681A687B6A22FA03F3002B7FF48EAEBE
:10202C0000BF00BF2C37BD4680BC70470004014088
:10203C0080B483B000AF78600B467B8013467B7016
:10204C007B78002B03D07A887B681A6103E07B884D
:10205C001A047B681A6100BF0C37BD4680BC704700
:10206C0080B485B000AF78600B467B807B68DB6802
:10207C00FB607A88FB6813401A04FB68D9437B88A1
:10208C000B401A437B681A6100BF1437BD4680BCF5
:10209C007047000080B586B000AF78607B68002B7D
:1020AC0001D1012372E27B681B6803F00103002B52
:1020BC0000F08780924B5B6803F00C03042B0CD070
:1020CC008F4B5B6803F00C03082B12D18C4B5B68B5
:1020DC0003F48033B3F5803F0BD1894B1B6803F4B9
:1020EC000033002B6CD07B685B68002B68D101231C
:1020FC004CE27B685B68B3F5803F06D1804B1B6874
:10210C007F4A43F4803313602EE07B685B68002BBE
:10211C000CD17B4B1B687A4A23F480331360784BC9
:10212C001B68774A23F4802313601DE07B685B688F
:10213C00B3F5A02F0CD1724B1B68714A43F480236A
:10214C0013606F4B1B686E4A43F4803313600BE0D3
:10215C006B4B1B686A4A23F480331360684B1B6813
:10216C00674A23F4802313607B685B68002B13D0D1
:10217C00FFF710FC386108E0FFF70CFC02463B69E6
:10218C00D31A642B01D9032300E25D4B1B6803F4C3
:10219C000033002BF0D014E0FFF7FCFB386108E0B3
:1021AC00FFF7F8FB02463B69D31A642B01D90323D2
:1021BC00ECE1534B1B6803F40033002BF0D100E02F
:1021CC0000BF7B681B6803F00203002B63D04C4BF1
:1021DC005B6803F00C03002B0BD0494B5B6803F0DE
:1021EC000C03082B1CD1464B5B6803F48033002B8B
:1021FC0016D1434B1B6803F00203002B05D07B6800
:10220C001B69012B01D00123C0E13D4B1B6823F05E
:10221C00F8027B685B69DB00394913430B603AE0D9
:10222C007B681B69002B20D0364B01221A60FFF70C
:10223C00B1FB386108E0FFF7ADFB02463B69D31AEE
:10224C00022B01D90323A1E12D4B1B6803F00203E0
:10225C00002BF0D02A4B1B6823F0F8027B685B69DB
:10226C00DB00274913430B6015E0264B00221A6054
:10227C00FFF790FB386108E0FFF78CFB02463B69E7
:10228C00D31A022B01D9032380E11D4B1B6803F0E9
:10229C000203002BF0D17B681B6803F00803002BB2
:1022AC003AD07B689B69002B19D0174B01221A601E
:1022BC00FFF770FB386108E0FFF76CFB02463B69E7
:1022CC00D31A022B01D9032360E10D4B5B6A03F097
:1022DC000203002BF0D0012000F0CEFA1CE00A4BD8
:1022EC0000221A60FFF756FB38610FE0FFF752FB34
:1022FC0002463B69D31A022B08D9032346E100BFDF
:10230C00001002400000424280044242924B5B6A41
:10231C0003F00203002BE9D17B681B6803F0040374
:10232C00002B00F0A6800023FB758B4BDB6903F0C0
:10233C008053002B0DD1884BDB69874A43F08053C7
:10234C00D361854BDB6903F08053BB60BB68012311
:10235C00FB75824B1B6803F48073002B18D17F4BE9
:10236C001B687E4A43F480731360FFF713FB3861DC
:10237C0008E0FFF70FFB02463B69D31A642B01D927
:10238C00032303E1754B1B6803F48073002BF0D01F
:10239C007B68DB68012B06D16F4B1B6A6E4A43F0DE
:1023AC00010313622DE07B68DB68002B0CD16A4BB8
:1023BC001B6A694A23F001031362674B1B6A664A66
:1023CC0023F0040313621CE07B68DB68052B0CD143
:1023DC00614B1B6A604A43F0040313625E4B1B6A39
:1023EC005D4A43F0010313620BE05B4B1B6A5A4AD4
:1023FC0023F001031362584B1B6A574A23F0040362
:10240C0013627B68DB68002B15D0FFF7C3FA3861C9
:10241C000AE0FFF7BFFA02463B69D31A41F2883251
:10242C00934201D90323B1E04B4B1B6A03F0020327
:10243C00002BEED014E0FFF7ADFA38610AE0FFF79D
:10244C00A9FA02463B69D31A41F28832934201D968
:10245C0003239BE0404B1B6A03F00203002BEED1DD
:10246C00FB7D012B05D13C4BDB693B4A23F08053B0
:10247C00D3617B68DB69002B00F08780364B5B688F
:10248C0003F00C03082B61D07B68DB69022B46D16F
:10249C00334B00221A60FFF77DFA386108E0FFF732
:1024AC0079FA02463B69D31A022B01D903236DE05A
:1024BC00294B1B6803F00073002BF0D17B681B6A5F
:1024CC00B3F5803F08D1244B5B6823F400327B6862
:1024DC009B68214913434B601F4B5B6823F47412B8
:1024EC007B68196A7B685B6A0B431B4913434B601F
:1024FC001B4B01221A60FFF74DFA386108E0FFF719
:10250C0049FA02463B69D31A022B01D903233DE059
:10251C00114B1B6803F00073002BF0D035E0104B0F
:10252C0000221A60FFF736FA386108E0FFF732FA3A
:10253C0002463B69D31A022B01D9032326E0064B32
:10254C001B6803F00073002BF0D11EE07B68DB6985
:10255C00012B07D1012319E000100240007000404C
:10256C00600042420B4B5B68FB60FB6803F48032FB
:10257C007B681B6A9A4206D1FB6803F470127B6875
:10258C005B6A9A4201D0012300E0002318461837F9
:10259C00BD4680BD0010024080B584B000AF7860AD
:1025AC0039607B68002B01D10123D0E06A4B1B689A
:1025BC0003F007033A689A4210D9674B1B6823F063
:1025CC00070265493B6813430B60634B1B6803F0C0
:1025DC0007033A689A4201D00123B8E07B681B6874
:1025EC0003F00203002B20D07B681B6803F004036C
:1025FC00002B05D0594B5B68584A43F4E063536099
:10260C007B681B6803F00803002B05D0534B5B68F9
:10261C00524A43F460535360504B5B6823F0F00212
:10262C007B689B684D4913434B607B681B6803F0C8
:10263C000103002B40D07B685B68012B07D1474B13
:10264C001B6803F40033002B15D101237FE07B685A
:10265C005B68022B07D1414B1B6803F00073002B06
:10266C0009D1012373E03D4B1B6803F00203002BDF
:10267C0001D101236BE0394B5B6823F003027B68CB
:10268C005B68364913434B60FFF784F9F8600AE046
:10269C00FFF780F90246FB68D31A41F28832934265
:1026AC0001D9032353E02D4B5B6803F00C027B68CC
:1026BC005B689B009A42EBD1274B1B6803F0070326
:1026CC003A689A4210D2244B1B6823F00702224925
:1026DC003B6813430B60204B1B6803F007033A68FD
:1026EC009A4201D0012332E07B681B6803F004039B
:1026FC00002B08D0194B5B6823F4E0627B68DB6825
:10270C00164913434B607B681B6803F00803002BCE
:10271C0009D0124B5B6823F460527B681B69DB00A9
:10272C000E4913434B6000F021F802460B4B5B68DB
:10273C001B0903F00F030A49CB5C22FA03F3094A85
:10274C001360094B1B681846FFF7E2F80023184684
:10275C001037BD4680BD00BF002002400010024073
:10276C0028420008100000201400002080B487B01C
:10277C0000AF0023FB600023BB6000237B610023C0
:10278C007B6000233B611E4B5B68FB60FB6803F0C6
:10279C000C03042B02D0082B03D027E0194B3B6110
:1027AC0027E0FB689B0C03F00F03174AD35C7B609C
:1027BC00FB6803F48033002B10D0114B5B685B0C6F
:1027CC0003F00103114AD35CBB607B680D4A03FB29
:1027DC0002F2BB68B2FBF3F37B6104E07B680C4A4A
:1027EC0002FB03F37B617B693B6102E0054B3B61C0
:1027FC0000BF3B6918461C37BD4680BC704700BF04
:10280C000010024000127A004042000850420008BA
:10281C0000093D0080B400AF024B1B681846BD4652
:10282C0080BC70471000002080B500AFFFF7F2FFAE
:10283C000246054B5B681B0A03F007030349CB5C9C
:10284C0022FA03F3184680BD0010024038420008FB
:10285C0080B500AFFFF7DEFF0246054B5B68DB0A75
:10286C0003F007030349CB5C22FA03F3184680BD3F
:10287C00001002403842000880B485B000AF786088
:10288C000A4B1B680A4AA2FB03235B0A7A6802FB09
:10289C0003F3FB6000BFFB685A1EFA60002BF9D1F2
:1028AC0000BF00BF1437BD4680BC7047100000202D
:1028BC00D34D621080B582B000AF78607B68002B7E
:1028CC0001D1012341E07B6893F83D30DBB2002B52
:1028DC0006D17B68002283F83C207868FEF71CFF49
:1028EC007B68022283F83D207B681A687B6804337E
:1028FC001946104600F05CFA7B68012283F84620EA
:10290C007B68012283F83E207B68012283F83F20FC
:10291C007B68012283F840207B68012283F84120E8
:10292C007B68012283F842207B68012283F84320D4
:10293C007B68012283F844207B68012283F84520C0
:10294C007B68012283F83D20002318460837BD46DA
:10295C0080BD000080B485B000AF78607B6893F8D0
:10296C003D30DBB2012B01D001233AE07B6802221F
:10297C0083F83D207B681B68DA687B681B6842F033
:10298C000102DA607B681B68184A93420ED07B68A0
:10299C001B68B3F1804F09D07B681B68144A9342C3
:1029AC0004D07B681B68134A934211D17B681B6867
:1029BC009B6803F00703FB60FB68062B10D07B6859
:1029CC001B681A687B681B6842F001021A6007E0FA
:1029DC007B681B681A687B681B6842F001021A60EE
:1029EC00002318461437BD4680BC7047002C0140AC
:1029FC00000400400008004080B584B000AF78604F
:102A0C007B681B68DB68FB607B681B681B69BB60B1
:102A1C00BB6803F00203002B20D0FB6803F0020319
:102A2C00002B1BD07B681B686FF002021A617B685D
:102A3C0001221A777B681B689B6903F00303002B48
:102A4C0003D0786800F098F905E0786800F08BF90D
:102A5C00786800F09AF97B6800221A77BB6803F05B
:102A6C000403002B20D0FB6803F00403002B1BD0C5
:102A7C007B681B686FF004021A617B6802221A776C
:102A8C007B681B689B6903F44073002B03D0786848
:102A9C0000F072F905E0786800F065F9786800F0EC
:102AAC0074F97B6800221A77BB6803F00803002BCB
:102ABC0020D0FB6803F00803002B1BD07B681B683D
:102ACC006FF008021A617B6804221A777B681B6816
:102ADC00DB6903F00303002B03D0786800F04CF99A
:102AEC0005E0786800F03FF9786800F04EF97B68F3
:102AFC0000221A77BB6803F01003002B20D0FB6870
:102B0C0003F01003002B1BD07B681B686FF01002C6
:102B1C001A617B6808221A777B681B68DB6903F4EF
:102B2C004073002B03D0786800F026F905E0786834
:102B3C0000F019F9786800F028F97B6800221A7700
:102B4C00BB6803F00103002B0CD0FB6803F00103FE
:102B5C00002B07D07B681B686FF001021A61786844
:102B6C00FEF77EFBBB6803F08003002B0CD0FB68E8
:102B7C0003F08003002B07D07B681B686FF080028A
:102B8C001A61786800F07FFABB6803F04003002BF1
:102B9C000CD0FB6803F04003002B07D07B681B684C
:102BAC006FF040021A61786800F0F8F8BB6803F027
:102BBC002003002B0CD0FB6803F02003002B07D064
:102BCC007B681B686FF020021A61786800F052FA7B
:102BDC0000BF1037BD4680BD80B584B000AF7860B3
:102BEC0039600023FB737B6893F83C30012B01D1D7
:102BFC000223B4E07B68012283F83C207B6802222C
:102C0C0083F83D207B681B689B68BB60BB6823F026
:102C1C007703BB60BB6823F47F43BB607B681B6896
:102C2C00BA689A603B681B68B3F5005F3ED0B3F599
:102C3C00005F00F28780B3F5805F00F08680B3F50B
:102C4C00805F7FD8702B1AD0702B7BD8602B50D024
:102C5C00602B77D8502B3CD0502B73D8402B58D0AE
:102C6C00402B6FD8302B64D0302B6BD8202B60D0FE
:102C7C00202B67D8002B5CD0102B5AD062E07B68DD
:102C8C0018683B6899683B685A683B68DB6800F0D9
:102C9C0074F97B681B689B68BB60BB6843F0770367
:102CAC00BB607B681B68BA689A604FE07B681868E9
:102CBC003B6899683B685A683B68DB6800F05DF9D3
:102CCC007B681B689A687B681B6842F480429A6038
:102CDC003CE07B6818683B6859683B68DB681A46BF
:102CEC0000F0D4F87B681B685021184600F02BF9D3
:102CFC002CE07B6818683B6859683B68DB681A46AF
:102D0C0000F0F2F87B681B686021184600F01BF994
:102D1C001CE07B6818683B6859683B68DB681A469E
:102D2C0000F0B4F87B681B684021184600F00BF9E2
:102D3C000CE07B681A683B681B681946104600F06B
:102D4C0002F903E00123FB7300E000BF7B68012262
:102D5C0083F83D207B68002283F83C20FB7B1846DF
:102D6C001037BD4680BD80B483B000AF786000BF23
:102D7C000C37BD4680BC704780B483B000AF786020
:102D8C0000BF0C37BD4680BC704780B483B000AF29
:102D9C00786000BF0C37BD4680BC704780B483B0F0
:102DAC0000AF786000BF0C37BD4680BC7047000098
:102DBC0080B485B000AF786039607B681B68FB60BD
:102DCC007B682F4A93420BD07B68B3F1804F07D0BE
:102DDC007B682C4A934203D07B682B4A934208D1E0
:102DEC00FB6823F07003FB603B685B68FA68134375
:102DFC00FB607B68224A93420BD07B68B3F1804F17
:102E0C0007D07B681F4A934203D07B681E4A9342CB
:102E1C0008D1FB6823F44073FB603B68DB68FA68FD
:102E2C001343FB60FB6823F080023B685B69134330
:102E3C00FB607B68FA681A603B689A687B68DA62A8
:102E4C003B681A687B689A627B680D4A934203D18F
:102E5C003B681A697B681A637B6801225A617B683C
:102E6C001B6903F00103002B05D07B681B6923F061
:102E7C0001027B681A6100BF1437BD4680BC7047E5
:102E8C00002C0140000400400008004080B487B0D2
:102E9C0000AFF860B9607A60FB681B6A7B61FB6805
:102EAC001B6A23F00102FB681A62FB689B693B6199
:102EBC003B6923F0F0033B617B681B013A691343C8
:102ECC003B617B6923F00A037B617A69BB6813431E
:102EDC007B61FB683A699A61FB687A691A6200BF88
:102EEC001C37BD4680BC704780B487B000AFF8601B
:102EFC00B9607A60FB681B6A7B61FB681B6A23F014
:102F0C001002FB681A62FB689B693B613B6923F406
:102F1C0070433B617B681B033A6913433B617B69DC
:102F2C0023F0A0037B61BB681B017A6913437B61AF
:102F3C00FB683A699A61FB687A691A6200BF1C37B0
:102F4C00BD4680BC704780B485B000AF78603960F6
:102F5C007B689B68FB60FB6823F07003FB603A683E
:102F6C00FB68134343F00703FB607B68FA689A60C5
:102F7C0000BF1437BD4680BC704780B487B000AF2B
:102F8C00F860B9607A603B60FB689B687B617B6929
:102F9C0023F47F437B613B681A027B681A43BB684E
:102FAC0013437A6913437B61FB687A699A6000BFAB
:102FBC001C37BD4680BC704780B485B000AF7860CC
:102FCC0039607B6893F83C30012B01D1022346E039
:102FDC007B68012283F83C207B68022283F83D2029
:102FEC007B681B685B68FB607B681B689B68BB60CD
:102FFC00FB6823F07003FB603B681B68FA681343A3
:10300C00FB607B681B68FA685A607B681B68164A11
:10301C0093420ED07B681B68B3F1804F09D07B685C
:10302C001B68124A934204D07B681B68104A934277
:10303C000CD1BB6823F08003BB603B685B68BA684B
:10304C001343BB607B681B68BA689A607B6801227B
:10305C0083F83D207B68002283F83C20002318462F
:10306C001437BD4680BC7047002C01400004004062
:10307C000008004080B483B000AF786000BF0C370C
:10308C00BD4680BC704780B483B000AF786000BF91
:10309C000C37BD4680BC704780B582B000AF7860FD
:1030AC007B68002B01D1012342E07B6893F841300F
:1030BC00DBB2002B06D17B68002283F840207868B5
:1030CC00FEF750FB7B68242283F841207B681B6849
:1030DC00DA687B681B6822F40052DA60786800F0CA
:1030EC00B7FD7B681B681A697B681B6822F49042E9
:1030FC001A617B681B685A697B681B6822F02A027C
:10310C005A617B681B68DA687B681B6842F4005262
:10311C00DA607B6800225A647B68202283F84120A5
:10312C007B68202283F842207B6800225A630023AC
:10313C0018460837BD4680BD80B58AB002AFF8602E
:10314C00B9603B601346FB8000237B61FB6893F8FE
:10315C004130DBB2202B75D1BB68002B02D0FB8831
:10316C00002B01D101236EE0FB6800225A64FB683E
:10317C00212283F84120FEF70DFC7861FB68FA8868
:10318C009A84FB68FA88DA84FB689B68B3F5805FE5
:10319C0008D1FB681B69002B04D10023FB61BB68C1
:1031AC00BB6103E0BB68FB610023BB612EE03B68A5
:1031BC0000937B6900228021F86800F01CFB034619
:1031CC00002B05D0FB68202283F8412003233AE032
:1031DC00FB69002B0BD1BB691B881A46FB681B686B
:1031EC00C2F308025A60BB690233BB6107E0FB699A
:1031FC001A78FB681B685A60FB690133FB61FB683A
:10320C00DB8C9BB2013B9AB2FB68DA84FB68DB8CEB
:10321C009BB2002BCBD13B6800937B6900224021F1
:10322C00F86800F0E8FA0346002B05D0FB68202272
:10323C0083F84120032306E0FB68202283F8412019
:10324C00002300E0022318462037BD4680BD80B520
:10325C0084B000AFF860B9601346FB80FB6893F84C
:10326C004230DBB2202B12D1BB68002B02D0FB8882
:10327C00002B01D101230BE0FB6800221A63FB88B1
:10328C001A46B968F86800F00FFB034600E0022309
:10329C0018461037BD4680BD80B5BAB000AF786017
:1032AC007B681B681B68C7F8E4307B681B68DB68AD
:1032BC00C7F8E0307B681B685B69C7F8DC3000231B
:1032CC00C7F8D8300023C7F8D430D7F8E43003F06F
:1032DC000F03C7F8D830D7F8D830002B0FD1D7F858
:1032EC00E43003F02003002B09D0D7F8E03003F0D2
:1032FC002003002B03D0786800F0ECFB5BE2D7F8DE
:10330C00D830002B00F0DE80D7F8DC3003F001035E
:10331C00002B06D1D7F8E03003F49073002B00F0AB
:10332C00D180D7F8E43003F00103002B0BD0D7F891
:10333C00E03003F48073002B05D07B685B6C43F0AA
:10334C0001027B685A64D7F8E43003F00403002BC5
:10335C000BD0D7F8DC3003F00103002B05D07B68D1
:10336C005B6C43F002027B685A64D7F8E43003F0DC
:10337C000203002B0BD0D7F8DC3003F00103002B39
:10338C0005D07B685B6C43F004027B685A64D7F809
:10339C00E43003F00803002B11D0D7F8E03003F031
:1033AC002003002B05D1D7F8DC3003F00103002BF0
:1033BC0005D07B685B6C43F008027B685A647B68C1
:1033CC005B6C002B00F0F281D7F8E43003F02003A3
:1033DC00002B08D0D7F8E03003F02003002B02D0EC
:1033EC00786800F077FB7B681B685B6903F040032F
:1033FC00002B14BF01230023DBB2C7F8D4307B6849
:10340C005B6C03F00803002B03D1D7F8D430002BEE
:10341C004FD0786800F081FA7B681B685B6903F019
:10342C004003002B41D07B681B681433C7F89C30D9
:10343C00D7F89C3053E8003FC7F89830D7F898304D
:10344C0023F04003C7F8D0307B681B681433D7F8DF
:10345C00D020C7F8A820C7F8A430D7F8A410D7F804
:10346C00A82041E80023C7F8A030D7F8A030002BE3
:10347C00D9D17B68DB6B002B13D07B68DB6B7E4A6E
:10348C005A637B68DB6B1846FEF7D6FB0346002BB2
:10349C0016D07B68DB6B5B6B7A68D26B10469847F7
:1034AC000EE0786800F093F90AE0786800F08FF984
:1034BC0006E0786800F08BF97B6800225A6475E1AD
:1034CC0000BF73E17B681B6B012B40F04F81D7F879
:1034DC00E43003F01003002B00F04881D7F8E03003
:1034EC0003F01003002B00F041810023BB607B68CC
:1034FC001B681B68BB607B681B685B68BB60BB6838
:10350C007B681B685B6903F04003002B00F0B680FE
:10351C007B68DB6B1B685B68A7F8BE30B7F8BE3006
:10352C00002B00F045817B689B8DB7F8BE209A423A
:10353C0080F03E817B68B7F8BE20DA857B68DB6B58
:10354C009B69202B00F088807B681B680C33C7F8C4
:10355C008830D7F8883053E8003FC7F88430D7F864
:10356C00843023F48073C7F8B8307B681B680C3345
:10357C00D7F8B820C7F89420C7F89030D7F8901037
:10358C00D7F8942041E80023C7F88C30D7F88C305A
:10359C00002BD9D17B681B6814337B677B6F53E896
:1035AC00003F3B673B6F23F00103C7F8B4307B68E7
:1035BC001B681433D7F8B420C7F88020FB67F96F69
:1035CC00D7F8802041E80023BB67BB6F002BE1D10B
:1035DC007B681B6814333B663B6E53E8003FFB650E
:1035EC00FB6D23F04003C7F8B0307B681B681433C5
:1035FC00D7F8B020FA66BB66B96EFA6E41E80023C4
:10360C007B667B6E002BE3D17B68202283F8422003
:10361C007B6800221A637B681B680C33FB64FB6CB1
:10362C0053E8003FBB64BB6C23F01003C7F8AC300D
:10363C007B681B680C33D7F8AC20BA657B65796D59
:10364C00BA6D41E800233B653B6D002BE3D17B68F1
:10365C00DB6B1846FEF7B5FA7B6802225A637B686F
:10366C009A8D7B68DB8D9BB2D31A9BB21946786816
:10367C0000F0B6F89CE000BFEB3900087B689A8D2F
:10368C007B68DB8D9BB2D31AA7F8CE307B68DB8DC1
:10369C009BB2002B00F08E80B7F8CE30002B00F0E0
:1036AC0089807B681B680C33BB63BB6B53E8003FA2
:1036BC007B637B6B23F49073C7F8C8307B681B6803
:1036CC000C33D7F8C8207A643B64396C7A6C41E8C7
:1036DC000023FB63FB6B002BE3D17B681B6814336B
:1036EC007B627B6A53E8003F3B623B6A23F0010339
:1036FC00C7F8C4307B681B681433D7F8C4203A630E
:10370C00FB62F96A3A6B41E80023BB62BB6A002B8F
:10371C00E3D17B68202283F842207B6800221A6365
:10372C007B681B680C333B613B6953E8003FFB60D3
:10373C00FB6823F01003C7F8C0307B681B680C33A0
:10374C00D7F8C020FA61BB61B969FA6941E8002376
:10375C007B617B69002BE3D17B6802225A63B7F84B
:10376C00CE301946786800F03BF823E0D7F8E43007
:10377C0003F08003002B09D0D7F8E03003F080036E
:10378C00002B03D0786800F03EF914E0D7F8E43051
:10379C0003F04003002B0ED0D7F8E03003F04003C9
:1037AC00002B08D0786800F07DF904E000BF02E03F
:1037BC0000BF00E000BFE837BD4680BD80B483B0D9
:1037CC0000AF786000BF0C37BD4680BC704780B43A
:1037DC0083B000AF786000BF0C37BD4680BC70472B
:1037EC0080B483B000AF78600B467B8000BF0C3791
:1037FC00BD4680BC704780B586B000AFF860B9603C
:10380C003B601346FB713BE03B6AB3F1FF3F37D0A3
:10381C00FEF7C0F802463B68D31A3A6A9A4202D3C2
:10382C003B6A002B01D103233AE0FB681B68DB6881
:10383C0003F00403002B23D0BB68802B20D0BB6883
:10384C00402B1DD0FB681B681B6803F00803082B7A
:10385C0016D100237B61FB681B681B687B61FB68CE
:10386C001B685B687B617B69F86800F056F8FB6845
:10387C0008225A64FB68002283F8402001230FE0E1
:10388C00FB681B681A68BB681340BA689A420CBF85
:10389C0001230023DBB21A46FB799A42B4D00023F1
:1038AC0018461837BD4680BD80B485B000AFF860AF
:1038BC00B9601346FB80FB68BA689A62FB68FA88A9
:1038CC009A85FB68FA88DA85FB6800225A64FB68E3
:1038DC00222283F84220FB681B69002B07D0FB686F
:1038EC001B68DA68FB681B6842F48072DA60FB685C
:1038FC001B685A69FB681B6842F001025A61FB683D
:10390C001B68DA68FB681B6842F02002DA6000234F
:10391C0018461437BD4680BC704780B495B000AFD4
:10392C0078607B681B680C337B637B6B53E8003FD0
:10393C003B633B6B23F49073FB647B681B680C3319
:10394C00FA6C3A64FB63F96B3A6C41E80023BB6395
:10395C00BB6B002BE5D17B681B6814333B623B6A65
:10396C0053E8003FFB61FB6923F00103BB647B68F8
:10397C001B681433BA6CFA62BB62B96AFA6A41E822
:10398C0000237B627B6A002BE5D17B681B6B012BD0
:10399C0019D17B681B680C33FB60FB6853E8003F54
:1039AC00BB60BB6823F010037B647B681B680C3323
:1039BC007A6CBA617B617969BA6941E800233B6131
:1039CC003B69002BE5D17B68202283F842207B6881
:1039DC0000221A6300BF5437BD4680BC704780B5C7
:1039EC0084B000AF78607B685B6AFB60FB68002288
:1039FC00DA85FB680022DA84F868FFF7E8FE00BF7E
:103A0C001037BD4680BD80B485B000AF78607B6850
:103A1C0093F84130DBB2212B3ED17B689B68B3F528
:103A2C00805F14D17B681B69002B10D17B681B6AEB
:103A3C00FB60FB681B881A467B681B68C2F3080294
:103A4C005A607B681B6A9A1C7B681A6208E07B6868
:103A5C001B6A591C7A6811621A787B681B685A6059
:103A6C007B68DB8C9BB2013B9BB27A681946D18494
:103A7C00002B0FD17B681B68DA687B681B6822F00F
:103A8C008002DA607B681B68DA687B681B6842F02E
:103A9C004002DA60002300E0022318461437BD46CA
:103AAC0080BC704780B582B000AF78607B681B68C3
:103ABC00DA687B681B6822F04002DA607B6820229F
:103ACC0083F841207868FFF779FE00231846083701
:103ADC00BD4680BD80B58CB000AF78607B6893F834
:103AEC004230DBB2222B40F0AE807B689B68B3F592
:103AFC00805F17D17B681B69002B13D10023FB62FD
:103B0C007B689B6ABB627B681B685B689BB2C3F378
:103B1C0008039AB2BB6A1A807B689B6A9A1C7B6802
:103B2C009A6226E07B689B6AFB620023BB627B681F
:103B3C009B68B3F5805F07D07B689B68002B0AD12C
:103B4C007B681B69002B06D17B681B685B68DAB24B
:103B5C00FB6A1A7008E07B681B685B68DBB203F0D9
:103B6C007F03DAB2FB6A1A707B689B6A5A1C7B680B
:103B7C009A627B68DB8D9BB2013B9BB27A681946DB
:103B8C00D185002B5DD17B681B68DA687B681B686C
:103B9C0022F02002DA607B681B68DA687B681B689D
:103BAC0022F48072DA607B681B685A697B681B6838
:103BBC0022F001025A617B68202283F842207B6844
:103BCC0000225A637B681B6B012B35D17B6800226A
:103BDC001A637B681B680C337B617B6953E8003F7D
:103BEC003B613B6923F010037B627B681B680C33E1
:103BFC007A6A3A62FB61F9693A6A41E80023BB616F
:103C0C00BB69002BE5D17B681B681B6803F01003B4
:103C1C00102B0AD10023FB607B681B681B68FB60C0
:103C2C007B681B685B68FB60FB687B689B8D194637
:103C3C007868FFF7D5FD02E07868FDF727FB0023D5
:103C4C0002E0002300E0022318463037BD4680BD59
:103C5C0080B584B000AF78607B681B681B6923F467
:103C6C0040517B68DA687B681B680A431A617B6881
:103C7C009A687B681B691A437B685B691343BB605A
:103C8C007B681B68DB6823F4B05323F00C037A6861
:103C9C001268B9680B43D3607B681B685B6923F4BB
:103CAC0040717B689A697B681B680A435A617B6820
:103CBC001B682C4A934203D1FEF7CAFDF86002E060
:103CCC00FEF7B2FDF860FA6813469B0013449A00A5
:103CDC001A447B685B689B00B2FBF3F3224AA2FB9D
:103CEC0003235B091901FA6813469B0013449A00DD
:103CFC001A447B685B689B00B2FBF3F21A4BA3FB84
:103D0C0002035B09642000FB03F3D31A1B0132335B
:103D1C00154AA2FB03235B0903F0F0031944FA686C
:103D2C0013469B0013449A001A447B685B689B0003
:103D3C00B2FBF3F20C4BA3FB02035B09642000FB08
:103D4C0003F3D31A1B013233074AA2FB03235B098B
:103D5C0003F00F027B681B680A449A6000BF10379F
:103D6C00BD4680BD003801401F85EB51931E222BB0
:103D7C0010B50C4604D900231C460B70204610BD10
:103D8C000A2A09D1002807DA2D230B7001214042A1
:103D9C00214400F005F8F1E70021F9E7FFF7E6BF51
:103DAC00F0B58BB005460B466E461D4C04F1200C4D
:103DBC00374620686168083403C764453E46F7D12E
:103DCC00217920683971911E222938604FF0000149
:103DDC0004D919700B4618460BB0F0BD581E84461A
:103DEC00B5FBF2F702FB175628366E4416F8286C12
:103DFC000C460CF8016F2E46B2423D4601F1010112
:103E0C00EED900225A541919A51AAA42E3DA10F86D
:103E1C00015F0E780132067001F80159F4E700BF1A
:103E2C005242000803460244934200D1704703F803
:103E3C00011BF9E7034610B5013932B111F8014FF6
:103E4C00013A03F8014B002CF7D100211A4493429C
:103E5C0000D110BD03F8011BF9E7000070B5002676
:103E6C000C4D0D4C641BA410A64209D100F028F88F
:103E7C0000260A4D0A4C641BA410A64205D170BD45
:103E8C0055F8043B98470136EEE755F8043B984744
:103E9C000136F2E7804200088042000880420008A8
:103EAC00844200080A44914200F1FF3300D170476C
:103EBC0010B511F8014B914203F8014FF9D110BD27
:103ECC00F8B500BFF8BC08BC9E467047F8B500BFFB
:083EDC00F8BC08BC9E467047CB
:103EE4000D3E00002B2644424753454E44494E475D
:103EF40020444154412000000A0000002B26444283
:103F04004753454E44494E4720444154412042556D
:103F140053590A002B26444247524553504F4E539F
:103F2400452043494653520A000000002B264442D0
:103F3400474552524F5220434946535220350A00B6
:103F44002B26444247524553504F4E534520495027
:103F5400440A00002B26444247455350303148411F
:103F640052445245534554300A0000002B26444223
:103F740047455350303148415244524553455431DA
:103F84000A0000002B264442474553503031415427
:103F94000A0000002B264442474553503031415417
:103FA40043574D4F44450A002B264442474553503E
:103FB400303141544349504D55580A002B26444250
:103FC400474553503031415443574A41500A000049
:103FD4002B26444247455350303143494653520AF5
:103FE400000000002B2644424745535030314154D1
:103FF400434950434C4F53450A0000002B2644428A
:10400400474553503031415443495053544152541D
:104014000A000000646A673139646C6B00000000B8
:104024004D4547414341424C452046494252412D6A
:10403400322E34472D636B64300000003137322E4A
:1040440032332E3230352E3938000000484F4C417F
:104054000D0A000041540D0A0000000041542B4396
:1040640049504D55583D300D0A00000041542B4332
:10407400574D4F44453D330D0A00000041542B4336
:10408400574A41503D00000041542B434946535286
:104094000D0A000041542B43495053544152543D9E
:1040A4000000000041542B434950434C4F53450DED
:1040B4000A00000041542B43495053454E443D00EF
:1040C4003033303241540D003033303241542B0000
:1040D400303430324F4B0D0A00000000303730329C
:1040E4004552524F520D0A00313330325749464936
:1040F40020474F542049500D0A0000003136303219
:104104005749464920434F4E4E45435445440D0AB2
:1041140000000000313730325749464920444953A2
:10412400434F4E4E4543540D0A000000313930329E
:104134005749464920444953434F4E4E45435445FD
:10414400440D0A0031343032444953434F4E4E45F6
:10415400435445440D0A00003039303253454E442F
:10416400204F4B0D0A00000030393032434F4E4E81
:104174004543540D0A00000030383032434C4F534D
:1041840045440D0A00000000313230352B434946C6
:1041940053523A53544149500000000030363032F3
:1041A40062757379202E0000303431302B4950442D
:1041B400000000003037303272656164790D0A0006
:1041C4003036303262757379207000003036303208
:1041D4006275737920730000C4400008CC40000865
:1041E400D4400008E0400008EC400008004100080A
:1041F4001841000830410008484100085C410008AB
:104204006C4100087C4100088C410008A041000872
:10421400AC410008B8410008C4410008D04100087E
:104224000000000000000000000000000102030480
:104234000607080900000000010203040203040544
:10424400060708090A0B0C0D0E0F1010010230317D
:10425400323334353637383961626364656667688A
:10426400696A6B6C6D6E6F70717273747576777842
:04427400797A000053
:08427800D4BEFF7F010000002D
:044280003101000800
:044284000D01000820
:1042880055445000D91200080513000835130008DA
:0C42980000127A0010000000010000007D
:04000005080018A532
:00000001FF
