:020000040800F2
:1000000000500020BD270008B5250008BD250008C8
:10001000C5250008CD250008D525000800000000F2
:10002000000000000000000000000000DD250008C6
:10003000E925000800000000F52500080126000859
:1000400005280008052800080528000805280008DC
:1000500005280008052800080528000805280008CC
:100060000528000805280008052800080D260008B6
:1000700005280008052800080528000805280008AC
:10008000052800080528000805280008052800089C
:100090002126000805280008052800080528000872
:1000A000052800083526000805280008052800084E
:1000B000052800080528000805280008052800086C
:1000C000052800080528000805280008052800085C
:1000D00005280008492600085D26000805280008B4
:1000E0000528000805280008052800080000000071
:1000F0000000000000000000000000000000000000
:0C01000000000000000000005FF808F1A3
:10010C0010B5054C237833B9044B13B10448AFF345
:10011C0000800123237010BDF401002000000000BA
:10012C0040CF000808B5034B1BB103490348AFF39C
:10013C00008008BD00000000F801002040CF00083E
:10014C00034613F8012B002AFBD1181A013870470B
:10015C0080B582B000AF78603960124B00221A7003
:10016C00114B00221A704022796810480BF001FFE5
:10017C000E4B002283F83F20202239680C480BF0EC
:10018C00F8FE0B4B0022DA770A4B32221A60054B31
:10019C000D221A70084B00221A7000BF0837BD469A
:1001AC0080BD00BF180200201C0200203402002079
:1001BC0074020020200200205004002080B582B080
:1001CC0000AF78600B467B8013463B801D4B5B6811
:1001DC00002B02D14FF0FF332FE03B88002B02D1D4
:1001EC0047F230533B80184B184A1A600F2279683B
:1001FC0017480BF0BEFE164B0022DA737B880A22DE
:10020C00144918460BF030FD3B880A221249184657
:10021C000BF02AFD114B1B78002B01D101230CE0B4
:10022C000F4B1B7803F00203DBB2002B01D1002330
:10023C0003E00C4B09221A70062318460837BD46FA
:10024C0080BD00BF54040020040000205544500021
:10025C0094020020A4020020BC02002034020020E2
:10026C001C0200201802002080B400AF0A4B5B680F
:10027C00002B02D14FF0FF3309E0084B1B7803F041
:10028C000203DBB2002B01D0032300E0002318464D
:10029C00BD4680BC704700BF540400201C020020E7
:1002AC0080B400AF0A4B5B68002B02D14FF0FF33D8
:1002BC0009E0084B1B7803F04003DBB2002B01D0A4
:1002CC00072300E005231846BD4680BC704700BFDD
:1002DC00540400201C02002080B483B000AF0346FD
:1002EC00FB710B4B1B885A1C91B2094A11801946A1
:1002FC00084AFB795354064B1B88802B02D1044BC4
:10030C0000221A8000BF0C37BD4680BC704700BF6E
:10031C0048040020C802002080B588B000AFF86007
:10032C00084611461A4603467B810B463B81134611
:10033C00FB80464B5B68002B02D14FF0FF3381E012
:10034C00434B1B7803F04003DBB2002B01D1052398
:10035C0078E03F4B1B7803F00803DBB2002B68D12D
:10036C0000237B773B8907F110010A2218460BF01A
:10037C007BFC07F110031846FFF7E2FE03467B7780
:10038C007B7F042B02D87B7F002B01D10B2359E000
:10039C00304801F005F807F11003184601F000F899
:1003AC002D4800F0FDFF0023FB8320E07B895A1CC5
:1003BC007A811A46FB681A44284B1B88591C88B250
:1003CC002649088019461278254B5A54234B1B8812
:1003DC00B3F5807F02D1214B00221A807A89FB88E9
:1003EC009A4201D100237B81FB8B0133FB83FA8B77
:1003FC003B899A42DAD3164A137843F004031370FC
:10040C00134A137843F008031370164B1B68002B28
:10041C000DD0144B1B6814489847124B1B6807F1FE
:10042C001002104698470F4B1B6810489847092339
:10043C0008E00C4B1B68002B03D00A4B1B680C48C4
:10044C009847082318462037BD4680BD5404002029
:10045C001C0200202CD3000864CF00084E0400209E
:10046C00480300203002002068CF00087CCF000831
:10047C0080CF000880B582B000AF78600C2279681C
:10048C0010480BF0FCFD104B00221A700F4B002291
:10049C001A700F4B00221A800E4B00221A800E4B42
:1004AC0000221A800D4B00221A800D4B00221A706C
:1004BC000C4B00221A600C4B00221A6000BF08374C
:1004CC00BD4680BD5404002018020020C20200204A
:1004DC004C0400204E0400204A0400204804002054
:1004EC001C0200202C0200203002002080B400AF3F
:1004FC00124B1B68002B04D0104B1B68013B0F4A9E
:10050C0013600F4B1B68002B0BD00D4B1B68013B72
:10051C000B4A13600A4B1B68002B02D1094B0022BB
:10052C001A70094B1B68002B04D0074B1B68013B4E
:10053C00054A136000BFBD4680BC704720020020F6
:10054C0024020020C20200202802002080B500AF47
:10055C00084B1A88084B1B889A4201D000F01EF8F1
:10056C00064B1B68002B01D100F074FC00F09CFEC4
:10057C0000BF80BD4A040020480400202002002057
:10058C0080B483B000AF7860034A7B68136000BF0F
:10059C000C37BD4680BC70473002002080B582B05D
:1005AC0000AF804B1B780D2B07D07E4B1B780E2B8E
:1005BC0003D07C4B1B780F2B05D17B4B1A887B4BC4
:1005CC001A8000F036BC784B1B88FB80784B0222DB
:1005DC001A6000F028BC754B1B881A46754B9B5C47
:1005EC007B71754B1B780C2B00F2FE8301A252F829
:1005FC0023F000BF3506000825070008070900088E
:10060C00F50D0008F50D0008110C0008570C00083A
:10061C006D0C0008990C0008F50D0008390D000848
:10062C00610D0008B70D0008644B00221A70644B72
:10063C0004221A703EE0614B1B781A46614B53F84A
:10064C0022305F4A127813441B787A799A422BD164
:10065C005A4B1B781A465B4B53F822301B78303BB5
:10066C009AB2594B1A80584B1B881A469200134465
:10067C005B009AB2544B1A80504B1B781A46514B64
:10068C0053F8223001331B781A464F4B1B88134406
:10069C009BB2303B9AB24C4B1A804B4B1B88013BA4
:1006AC009AB2494B1A800DE0444B1B780133DAB2F5
:1006BC00424B1A70414B1B781A46424B53F822306E
:1006CC00002BB8D13D4B1B781A463E4B53F82230C9
:1006DC00002B09D0384B01221A70394B1B7801338F
:1006EC00DAB2374B1A7086E3314B00221A60374B63
:1006FC001B7803F00103DBB2002B00F07C837B79C9
:10070C003E2B40F07883314A137823F001031370A9
:10071C002F4B00221A606EE3284B1B781A46294B8C
:10072C0053F82230264A127813441B787A799A426D
:10073C0033D1254B1B88013B9AB2234B1A80224B99
:10074C001B88002B03D07B790D2B40F0CF801B4BEB
:10075C001B781A461B4B53F8223002331B78303B64
:10076C00DAB2154B1A70144B1B781A4692001344CC
:10077C005B00DAB2104B1A70104B1B781A46114BF7
:10078C0053F8223003331A780B4B1B781344DBB22B
:10079C00303BDAB2084B1A7038E3084B00221A705F
:1007AC0088E000BF18020020480400204A04002002
:1007BC0024020020C8020020C20200206004002095
:1007CC006104002060D40008C40200201C02002038
:1007DC0028020020984B1B781A46984B53F822306D
:1007EC001B78303B9AB2964B1A80954B1B881A4655
:1007FC00920013445B009AB2914B1A808E4B1B787B
:10080C001A468E4B53F8223001331B781A468C4B08
:10081C001B8813449BB2303B9AB2894B1A80884B8D
:10082C001B88884A12789B1A9BB203339AB2844B6A
:10083C001A80834B1B887F2B36D87F4B1B781A462C
:10084C007E4B53F822307F4A127813441B787A7906
:10085C009A4229D17A4B1B88002B34D1764B1B78CA
:10086C001A46764B53F8223002331B78303BDAB2FF
:10087C00754B1A70744B1B781A46920013445B002C
:10088C00DAB2714B1A706C4B1B781A466B4B53F8DF
:10089C00223003331A786C4B1B781344DBB2303B99
:1008AC00DAB2694B1A700EE0634B1B780133DAB283
:1008BC00614B1A70604B1B781A46604B53F8223010
:1008CC00002B87D100E000BF5B4B1B781A465B4BBB
:1008DC0053F82230002B09D15B4B00221A705B4B72
:1008EC001B88013B9AB2594B1A808FE2554B1B78EF
:1008FC000133DAB2534B1A7088E27B790A2B40F041
:10090C007C82514B00221A704B4B1B78112B00F23E
:10091C00748201A252F823F06D0900086D090008D9
:10092C0081090008AD090008EB090008310A00082C
:10093C008D0A00088D0A0008D30A0008EF0A000887
:10094C001B0B0008570B0008070E0008730B000860
:10095C00070E0008990B0008C50B0008D70B000800
:10096C003B4B1B68002B00F03981394B1B68394815
:10097C00984733E1364B1B68002B03D0344B1B6874
:10098C0035489847354B1B78022B40F02981344B66
:10099C0000221A60334A137843F0200313701FE1CE
:1009AC002B4B1B68002B03D0294B1B682E489847F8
:1009BC002C4B1B7803F00803DBB2002B00F01281E8
:1009CC00284A137823F008031370264A137823F06F
:1009DC0040031370254B1A88254B1A8002E11C4BDF
:1009EC001B68002B03D01A4B1B68224898471C4BE2
:1009FC0000221A60194B1B78062B04D1194A137864
:100A0C0043F020031370174A137843F0020313705A
:100A1C00194B1B68002B00F0E780174B1B68032059
:100A2C009847E1E00A4B1B68002B00F0DF80084B75
:100A3C001B6812489847D9E06004002060D4000875
:100A4C00C402002061040020C20200204A040020DD
:100A5C003002002098CF0008ACCF0008180200200C
:100A6C00200200201C020020C0CF00084E040020F1
:100A7C004C040020D8CF00082C020020F4CF000832
:100A8C00964B1B68002B03D0944B1B6894489847DB
:100A9C00944A137823F040031370924A137823F08E
:100AAC0002031370904B1B68002B03D08E4B1B68FA
:100ABC00002098478D4B1B78062B00F099808B4BB0
:100ACC000F221A709DE0854B1B68002B03D0834BC3
:100ADC001B6887489847834A137823F040031370A8
:100AEC008FE07E4B1B68002B03D07C4B1B6881482E
:100AFC0098477C4A137823F0080313707A4B1B68D1
:100B0C00002B77D0784B1B680A20984772E0734B08
:100B1C001B68002B03D0714B1B6877489847774BA9
:100B2C0000221A606F4A137843F0200313706D4A49
:100B3C00137843F0400313706B4B1B68002B5BD096
:100B4C00694B1B680720984756E0644B1B68002BC9
:100B5C0003D0624B1B686A489847624A137823F0AB
:100B6C00400313704DE05D4B1B68002B03D05B4BB7
:100B7C001B68644898475B4A137823F04003137052
:100B8C00584A137823F0020313703AE0534B1B6856
:100B9C00002B03D0514B1B685B489847514A137884
:100BAC0023F0400313704F4A137823F002031370A1
:100BBC004E4B0F221A7024E0484B1B68002B1DD0A3
:100BCC00464B1B685148984718E0444B1B68002B58
:100BDC0016D0424B1B684E48984711E000BF0CE101
:100BEC0000BF0AE100BF08E100BF06E100BF04E15D
:100BFC0000BF02E100BF00E100BFFEE000BFFCE06F
:100C0C0000BFFAE07B792C2B0CD1424B06221A70D8
:100C1C00324B1B68002B00F0F280304B1B683E48B7
:100C2C009847ECE03B4B00221A703C4B1B88013B75
:100C3C009AB23A4B1A80294B1B68002B00F0DF80CC
:100C4C00264B1B6836489847D9E07B79222B40F01D
:100C5C00D880304B07221A70324B00221A80D0E019
:100C6C007B79222B03D02F4B1B88102B03D1294BC4
:100C7C0008221A70CAE02B4B1B885A1C91B2294AC5
:100C8C0011801946284A7B795354BFE07B790A2B93
:100C9C0040F0B9801F4B00221A70224B1B880F2B7F
:100CAC000ED8204B1B881A461F4B002199540D4A15
:100CBC00137843F020031370104B00221A6002E0EB
:100CCC00194B00221A70084B1B68002B00F09B80FC
:100CDC00054B1B680420984795E000BF30020020AC
:100CEC0014D000081C0200202C0200201802002046
:100CFC0040D000085CD0000874D00008200200200E
:100D0C008CD00008A4D00008B8D00008D0D00008BF
:100D1C00E8D00008C202002000D100084A040020DC
:100D2C0018D10008C4020020AC0200207B792C2BC7
:100D3C0006D1414B0B221A70404B00221A8065E001
:100D4C003D4B00221A703E4B1B88013B9AB23C4B28
:100D5C001A805BE07B793A2B03D1374B0C221A704B
:100D6C0054E07B792F2B02D97B79392B09D9324B63
:100D7C0000221A70324B1B88013B9AB2304B1A80FE
:100D8C0044E02E4B1B881A46920013445B009AB227
:100D9C002A4B1A807B799AB2284B1B8813449BB23E
:100DAC00303B9AB2254B1A8030E0264B9B68002BC7
:100DBC0004D0244B9B687A79104698471F4B1B88AC
:100DCC00013B9AB21D4B1A801C4B1B88002B1CD16B
:100DDC00194B00221A701C4B1B68002B15D01A4B98
:100DEC001B681A48984710E0134B00221A70184BD6
:100DFC0000221A600AE000BF08E000BF06E000BF56
:100E0C0004E000BF02E000BF00E000BF0C4B1B88F9
:100E1C0001339AB20A4B1A80094B1B88802B02D1E2
:100E2C00074B00221A80064B1B88FA889A427FF4E3
:100E3C00D2AB0837BD4680BDC2020020C4020020E0
:100E4C004A04002054040020300200202CD1000859
:100E5C002402002080B500AF9D4B64221A609D4B8C
:100E6C001B78102B00F2028201A252F823F000BF73
:100E7C00C10E00081F0F0008710F00088F0F00082B
:100E8C00AD0F0008CB0F00085110000875100008BA
:100E9C00A31000083111000859110008EB110008CB
:100EAC0009120008C90E0008E90E0008110F00080D
:100EBC003D120008864B00221A60D7E1864B1B6856
:100ECC0000209847854B1B68002B03D0834B1B6875
:100EDC00834898477F4B0E221A70C7E17E4B1B68E4
:100EEC00012098477D4B1B68002B03D07B4B1B6864
:100EFC007C489847774B0F221A70754B4FF4FA7257
:100F0C001A60B3E1734B01221A70774B00221A70EE
:100F1C00ACE1754B1B78002B0DD0734B1B78013B50
:100F2C00DAB2714B1A70704B1B78002B06D1694BDF
:100F3C000D221A709AE16C4B04221A706B4A1378CA
:100F4C0023F0200313706A4800F02AFA634B1B68E5
:100F5C00002B03D0614B1B68664898475D4B0222FF
:100F6C001A7083E1614B1B7803F02003DBB2002B7A
:100F7C0003D0584B03221A7078E1564B01221A7099
:100F8C0074E15D4800F00CFA544B1B68002B03D045
:100F9C00524B1B68594898474E4B04221A7065E116
:100FAC00574800F0FDF94D4B1B68002B03D04B4B01
:100FBC001B6854489847474B05221A7056E14B4B17
:100FCC001B7803F00203DBB2002B03D0414B07224A
:100FDC001A704BE14C4B1B78002B00F044814B48B2
:100FEC0000F0DEF9222000F00BFA474800F0D8F9A7
:100FFC00222000F005FA2C2000F002FA222000F04A
:10100C00FFF9434800F0CCF9222000F0F9F90D204B
:10101C0000F0F6F90A2000F0F3F9304B1B68002BB6
:10102C0003D02E4B1B683B489847304A137823F06B
:10103C0020031370274B06221A70254B40F2DC520A
:10104C001A6013E1294B1B7803F02003DBB2002B51
:10105C0006D0204B07221A70234B04221A7005E18C
:10106C001C4B01221A7001E12B4B00221A702B48E9
:10107C0000F096F9194B1B68002B03D0174B1B681B
:10108C0027489847194A137823F020031370114B03
:10109C0008221A70EAE0154B1B7803F02003DBB230
:1010AC00002B03D00B4B09221A70DFE00E4B1B7880
:1010BC00013BDAB20C4B1A700B4B1B78002B03D193
:1010CC00044B01221A70D1E0024B07221A70CDE0BA
:1010DC0020020020180200205404002030020020BE
:1010EC0040D1000858D10008500400201C020020F8
:1010FC00CCD2000870D10008E4D2000880D10008DE
:10110C00D4D2000894D1000834020020F4D2000894
:10111C0074020020A8D10008AC02002000D3000803
:10112C00BCD10008524B1B78002B00F09E8051481C
:10113C0000F036F9504B1B68002B03D04E4B1B684C
:10114C004E4898474E4B0A221A708FE04D4800F0DB
:10115C0027F9222000F054F94B4800F021F9222005
:10116C0000F04EF92C2000F04BF9222000F048F949
:10117C003F4800F015F9222000F042F92C2000F035
:10118C003FF9424800F00CF92C2000F039F94048A6
:10119C0000F006F92C2000F033F9302000F030F983
:1011AC000D2000F02DF90A2000F02AF9324B1B68B3
:1011BC00002B03D0304B1B6836489847364A1378BF
:1011CC0023F020031370344A137823F04003137078
:1011DC002B4B0B221A70314BC8221A6046E02E4B57
:1011EC001B7803F02003DBB2002B03D0244B0C2222
:1011FC001A703BE0224B01221A7037E0264B1B7809
:10120C0003F00203DBB2002B03D11D4B01221A7039
:10121C002CE0214B1B7803F04003DBB2002B03D1F5
:10122C00174B09221A7021E01C4B00221A601DE09A
:10123C001B4800F0B5F8164800F0B2F80D2000F08D
:10124C00DFF80A2000F0DCF80B4B1B68002B03D0F6
:10125C00094B1B6813489847094B0C221A700F4B0B
:10126C0064221A6002E000BF00E000BF00BF80BD36
:10127C00940200201CD3000830020020D0D10008BA
:10128C00180200200CD3000804000020A402002047
:10129C00BC020020E8D100081C0200202002002023
:1012AC0038D3000800D2000880B582B000AF344BB0
:1012BC001B7803F00103DBB2002B13D0314B1B68FE
:1012CC00002B59D1304B1A88304B1A802C4A13788A
:1012DC0023F0010313702E4B01221A702D4B0A229E
:1012EC001A6049E0294B1A88274B1B889A4244D034
:1012FC00264B1B881A46284B9B5CFB71204B1B789A
:10130C0003F00403DBB2002B04D0FB793E2B01D19C
:10131C000A23FB71214B5B68FA7910469847034608
:10132C00002B2AD0164B1B7803F00403DBB2002BE6
:10133C0013D0164B1B881A46174B9B5C3E2B0CD1BB
:10134C000F4A137823F0040313700D4A137843F0FB
:10135C00010313700B4B05221A600C4B1B880133D5
:10136C009AB20A4B1A80094B1B88B3F5807F04D1C3
:10137C00064B00221A8000E000BF0837BD4680BD36
:10138C001C020020280200204E0400204C040020E7
:10139C0018020020200200204803002054040020E2
:1013AC0080B485B000AF78600023FB6017E0FB6869
:1013BC007A681A44104B1B88591C88B20E49088055
:1013CC00194612780D4B5A540B4B1B88B3F5807F82
:1013DC0002D1094B00221A80FB680133FB60FB68C9
:1013EC007A6813441B78002BE1D100BF00BF14377F
:1013FC00BD4680BC704700BF4E040020480300204F
:10140C0080B483B000AF0346FB710B4B1B885A1C96
:10141C0091B2094A11801946084AFB795354064B7C
:10142C001B88B3F5807F02D1034B00221A8000BFCA
:10143C000C37BD4680BC70474E040020480300208A
:10144C0080B483B000AF78603960134A7B68136056
:10145C00124A3B681360104B1B6800221A710E4B2A
:10146C001B6800225A710C4B1B6800221A720A4B23
:10147C001B68FF229A72094B1B6800221A71074BDA
:10148C001B6800225A71054B1B68FF229A7100BF22
:10149C000C37BD4680BC704710020020140200209F
:1014AC0080B483B000AF0346FB710E4B1B68196808
:1014BC000C4B1B685A79501CC0B2587113460B4424
:1014CC00FA791A70074B1B685979064B1B689A7A84
:1014DC00044B1B680A40D2B25A7100BF0C37BD4690
:1014EC0080BC70471002002080B582B000AF8E4BDC
:1014FC001B685B79FB712DE18B4B1B681B7A062BF0
:10150C0000F2088101A252F823F000BF3515000843
:10151C005F150008AD150008E31500081916000842
:10152C003B160008A91600087F4B1B681B687E4AF7
:10153C001268127913441B78DBB2552B40F0EF8004
:10154C00794B1B6801221A72774B1B6805221A73A0
:10155C00E5E0754B1B681B68734A126812791344DB
:10156C001B78DBB24E2B04D16F4B1B6802221A7214
:10157C00D7E06D4B1B681B686B4A126812791344D9
:10158C001B78DBB2552B00F0CC80674B1B6800221C
:10159C001A72654B1B681A79013AD2B21A71C0E003
:1015AC00614B1B681B68604A1268127913441B78E4
:1015BC00DBB2452B04D15C4B1B6803221A72B8E0DA
:1015CC00594B1B6800221A72574B1B681A79013A47
:1015DC00D2B21A71ADE0544B1B681B68524A1268A8
:1015EC00127913441B78DBB2522B04D14E4B1B687F
:1015FC0004221A729DE04C4B1B6800221A724A4B53
:10160C001B681A79013AD2B21A7192E0464B1B68E8
:10161C001B68454A126812791A44434B1B681278AE
:10162C00D2B2DA71404B1B6805221A7281E03E4B34
:10163C001B681B683C4A1268127913441B78DBB296
:10164C003A2B20D1384B1B6806221A72364B1B687A
:10165C001A79354B1B680132D2B29A71324B1B6826
:10166C009979314B1B689A7A2F4B1B680A40D2B27E
:10167C009A712D4B1B68DA792B4B1B6882F0360262
:10168C00D2B25A7255E0284B1B6800221A72264BB4
:10169C001B681A79013AD2B21A714AE0224B1B68C4
:1016AC00DA79013AD2B2DA711F4B1B68DB79002B65
:1016BC0011D01D4B1B681B681B4A1268127913440E
:1016CC001B78D9B2184B1B685A7A174B1B684A40C7
:1016DC00D2B25A722CE0144B1B6800221A72124BB5
:1016EC001B681B68104A1268127913441B78DAB213
:1016FC000D4B1B685B7A9A421AD10B4B1B6801226B
:10170C00DA72094B1B68094A12681146184600F038
:10171C0047F90DE0044B1B6800221A7209E000BF68
:10172C0007E000BF05E000BF1002002014020020FB
:10173C0000BF0E4B1B681A790132D2B21A710B4BD7
:10174C001B681979094B1B689A7A084B1B680A406D
:10175C00D2B21A71054B1B681B79FA799A427FF445
:10176C00CBAE00BF00BF0837BD4680BD10020020C5
:10177C0080B483B000AF78600B46FB701346BB702F
:10178C007B680022DA717B681A687B685B79591C6C
:10179C00C8B279684871134455221A707B685A791B
:1017AC007B689B791340DAB27B685A717B681A6844
:1017BC007B685B79591CC8B27968487113444E2216
:1017CC001A707B685A797B689B791340DAB27B6814
:1017DC005A717B681A687B685B79591CC8B2796846
:1017EC004871134445221A707B685A797B689B793F
:1017FC001340DAB27B685A717B681A687B685B7934
:10180C00591CC8B279684871134452221A707B680B
:10181C005A797B689B791340DAB27B685A717B6882
:10182C001A687B685B79591CC8B279684871134493
:10183C00BA780132D2B21A707B685A797B689B797C
:10184C001340DAB27B685A717B681A687B685B79E3
:10185C00591CC8B27968487113443A221A707B68D3
:10186C005A797B689B791340DAB27B685A717B6832
:10187C001A687B685B79591CC8B279684871134443
:10188C00FA781A707B685A797B689B791340DAB2C4
:10189C007B685A717B68DB795AB2BB780133DBB257
:1018AC005BB253405BB2DAB27B68DA717B68DA798F
:1018BC00FB785340DBB283F03603DAB27B68DA7123
:1018CC007B68DB7918460C37BD4680BC704780B40A
:1018DC0083B000AF78600B46FB707B681A687B683E
:1018EC005B79591CC8B2796848711344FA781A703C
:1018FC007B685A797B689B791340DAB27B685A71A2
:10190C007B68DA79FB785340DAB27B68DA717B68F2
:10191C00DB7918460C37BD4680BC704790B482B05A
:10192C0000AF786039601D4B00221A7027E01B4B0A
:10193C001B781A463B681A447B6819687B685B798C
:10194C00581CC4B2786844710B4412781A707B68C6
:10195C005A797B689B791340DAB27B685A710F4BCA
:10196C001B785A1CD1B20D4A11701A463B681344AD
:10197C001A787B68DB795340DAB27B68DA71074BF3
:10198C001B781A463B6813441B78002BCFD17B681D
:10199C00DB7918460837BD4690BC7047D808002044
:1019AC0080B582B000AF786039607B681B687A685C
:1019BC00927913441B78DBB2A02B02D0A12B10D050
:1019CC0021E00222A0213868FFF7D2FEF02138680E
:1019DC00FFF77DFF3B68DB7919463868FFF777FF27
:1019EC0028E00C22A1213868FFF7C2FE134B1B68BC
:1019FC0019463868FFF792FF3B68DB79194638685F
:101A0C00FFF765FF16E07B681B687A6892791344D0
:101A1C001B78DBB2022219463868FFF7A9FEFE21BB
:101A2C003868FFF754FF3B68DB7919463868FFF7D5
:101A3C004EFF00BF00BF0837BD4680BD0000002030
:101A4C0080B483B000AF78603960194B55221A709E
:101A5C00174B53225A70164B42229A70144B202269
:101A6C00DA70144B00221A7010E0124B1B781A46D5
:101A7C007B681A440F4B1B78043311780C4AD154F1
:101A8C000C4B1B780133DAB20A4B1A70094B1B78DA
:101A9C001A463B689342E8DC064B1B780433DAB2F7
:101AAC00044B1A7000BF0C37BD4680BC704700BF9A
:101ABC00B0050020B006002080B483B000AF786081
:101ACC007B681B68084A934208D1084B01221A60B4
:101ADC00074B1B780133DAB2054B1A7000BF0C3779
:101AEC00BD4680BC704700BF002C0140B4060020EE
:101AFC006C09002080B582B000AF78607B681B68F1
:101B0C000A4A93420ED10A4B1B781846FEF7E4FBA7
:101B1C00074B1B781846FFF7C3FC01220449054804
:101B2C0004F0F3FE00BF0837BD4680BD003801400D
:101B3C00BD0600202005002080B582B000AF034612
:101B4C00FB71FB79002B14BF01230023DBB21A4677
:101B5C004FF40061034801F0B3FF00BF0837BD46E6
:101B6C0080BD00BF000C014080B582B000AF0346C1
:101B7C00FB71F91D64230122064804F03BFE034669
:101B8C00002B0CBF01230023DBB218460837BD46DF
:101B9C0080BD00BF2005002080B582B000AF034699
:101BAC00FB71FB791846FEF797FB00BF0837BD4663
:101BBC0080BD0000B0B5CEB000AF00F01FFE00F04D
:101BCC004FF900F00FFB00F0EFFA00F047FA00F0CD
:101BDC0097FA00F0BFFA09F029FB00F09FF985484D
:101BEC0009F064FC844B00221A7008228349844853
:101BFC0000F03EFF834804F00BFA0122824983482F
:101C0C0004F083FE824B0A221A60824B00221A6077
:101C1C00814B00221A708148FEF72CFC8048FEF79D
:101C2C00AFFC80498048FEF793FAFEF71DFB034694
:101C3C00032B1AD07D4B07F58C741D460FCD0FC4AA
:101C4C0095E8030020600434218002340B0C2370CF
:101C5C0007F58C731846FEF773FA03469AB207F52C
:101C6C008C716423724804F0C5FD47F23A5247F276
:101C7C0030517048FEF7A2FAFEF712FB0346072B11
:101C8C0016D06D4B07F580741D460FCD0FC495E82B
:101C9C00030084E8030007F580731846FEF750FA3A
:101CAC0003469AB207F580716423614804F0A2FDE3
:101CBC00624B634A1A60634B634A1A6061495F481E
:101CCC00FFF7BEFB534B1B68002B15D0514B00226A
:101CDC001A60FEF70BFC4E4B1B68013B4C4A136021
:101CEC004B4B1B68002B07D1494B0A221A604FF44F
:101CFC000051564801F0FCFE554B1B78002B17D0B9
:101D0C003E4B1B881A46534953480AF0C5F8C7F88E
:101D1C003001D7F830319BB219464F4809F0A0FB7F
:101D2C0008223649364800F0A3FE494B00221A70AF
:101D3C00FEF70CFCFFF7D8FB424B1A79414B5B7951
:101D4C009A423BD0FEF7ACFA0346072B36D1002360
:101D5C00A7F836311CE03B4B1A683A4B1B79591CDF
:101D6C00C8B2384908711A44B7F83631591CA7F86B
:101D7C0036111946127807F59C73A3F59C735A54C7
:101D8C00304B1A792F4B9B791340DAB22D4B1A71C9
:101D9C002C4B1A792B4B5B799A4203D0B7F836311E
:101DAC00FF2BD8D9B7F83631002B07D0B7F836311E
:101DBC00B7F8362138460021FEF7AEFA164B1B78E1
:101DCC00002B08D0642301221349104804F012FDA3
:101DDC00114B00221A70084B1B7819461F4809F04A
:101DEC003FFB0346002B7FF46DAF034B00221A70B0
:101DFC0068E700BF4D1A0008B00600205C090020FF
:101E0C0064040020D8040020BD060020200500201A
:101E1C00B8060020B4060020BC06002008000020F4
:101E2C0081BE000818D2000830D2000854D2000835
:101E3C006805002038D200086CD20008C0080020C9
:101E4C00C0060020D0080020C00700200010014070
:101E5C006C09002048D20008DC080020B0050020E6
:101E6C0080B594B000AF07F1280328220021184652
:101E7C000AF077F807F1140300221A605A609A608E
:101E8C00DA601A613B1D00221A605A609A60DA60AF
:101E9C000123BB624FF48033FB6200233B630123BD
:101EAC00BB6302237B644FF48033BB644FF4E013B9
:101EBC00FB6407F12803184603F094FB0346002B40
:101ECC0001D000F0FDF90F237B610223BB610023DD
:101EDC00FB614FF480633B6200237B6207F11403C8
:101EEC000221184603F000FE0346002B01D000F03F
:101EFC00E7F912237B604FF40043FB6000233B6146
:101F0C003B1D184603F07EFF0346002B01D000F06A
:101F1C00D7F900BF5037BD4680BD000080B584B0F6
:101F2C0000AF3B1D00221A605A609A60494B4A4A26
:101F3C001A60484B4FF480729A60464B00221A7319
:101F4C00444B00221A75434B0022DA61414B0022AC
:101F5C005A60404B08221A613E4800F0B1FC03461F
:101F6C00002B01D000F0ACF900237B600123BB6097
:101F7C000023FB603B1D1946364800F073FE0346F8
:101F8C00002B01D000F09CF901237B600223BB6085
:101F9C003B1D19462F4800F065FE0346002B01D06F
:101FAC0000F08EF904237B600323BB603B1D1946B4
:101FBC00284800F057FE0346002B01D000F080F9B2
:101FCC0005237B600423BB603B1D1946214800F0B0
:101FDC0049FE0346002B01D000F072F906237B600A
:101FEC000523BB603B1D19461A4800F03BFE034617
:101FFC00002B01D000F064F907237B600623BB6043
:10200C003B1D1946134800F02DFE0346002B01D052
:10201C0000F056F908237B600723BB603B1D194673
:10202C000C4800F01FFE0346002B01D000F048F9CD
:10203C0009237B600823BB603B1D1946054800F053
:10204C0011FE0346002B01D000F03AF900BF103707
:10205C00BD4680BD640400200024014080B586B0DC
:10206C0000AF07F1080300221A605A609A60DA6028
:10207C003B4600221A605A601F4B204A1A601E4BC6
:10208C0048F69F425A601C4B00229A601A4B40F251
:10209C00F312DA60184B00221A61174B00225A61B6
:1020AC00154B00229A61144803F062FF0346002B83
:1020BC0001D000F005F94FF48053BB6007F1080321
:1020CC0019460D4804F0E6F80346002B01D000F049
:1020DC00F7F820233B6000237B603B4619460648FB
:1020EC0004F0C8FA0346002B01D000F0E9F800BF59
:1020FC001837BD4680BD00BFD8040020002C01401D
:10210C0080B500AF114B124A1A60104B4FF4E132FC
:10211C005A600E4B00229A600C4B0022DA600B4B7B
:10212C0000221A61094B0C225A61084B00229A6159
:10213C00064B0022DA61054804F00CFB0346002B29
:10214C0001D000F0BDF800BF80BD00BF200500200D
:10215C000038014080B500AF114B124A1A60104B89
:10216C004FF4E1325A600E4B00229A600C4B002265
:10217C00DA600B4B00221A61094B0C225A61084B96
:10218C0000229A61064B0022DA61054804F0E2FA5B
:10219C000346002B01D000F093F800BF80BD00BFB8
:1021AC00680500200044004080B582B000AF0C4BA5
:1021BC005B690B4A43F001035361094B5B6903F004
:1021CC0001037B607B68002200210B2001F01BF8CF
:1021DC000B2001F034F800BF0837BD4680BD00BFAE
:1021EC000010024080B588B000AF07F11003002248
:1021FC001A605A609A60DA602E4B9B692D4A43F044
:10220C00100393612B4B9B6903F01003FB60FB687D
:10221C00284B9B69274A43F020039361254B9B690C
:10222C0003F02003BB60BB68224B9B69214A43F03F
:10223C00040393611F4B9B6903F004037B607B6871
:10224C001C4B9B691B4A43F008039361194B9B6918
:10225C0003F008033B603B6800224FF40051164822
:10226C0001F02EFC00224FF40061144801F028FC10
:10227C004FF400533B6101237B610023BB610223BC
:10228C00FB6107F1100319460B4801F095FA4FF466
:10229C0000633B6101237B610023BB610223FB6173
:1022AC0007F110031946054801F086FA00BF2037E4
:1022BC00BD4680BD0010024000100140000C0140E2
:1022CC0080B400AF72B600BF00BFFDE780B485B02C
:1022DC0000AF154B9B69144A43F001039361124BF9
:1022EC009B6903F00103BB60BB680F4BDB690E4AB3
:1022FC0043F08053D3610C4BDB6903F080537B605C
:10230C007B680A4B5B68FB60FB6823F0E063FB6057
:10231C00FB6843F00073FB60044AFB68536000BF2A
:10232C001437BD4680BC70470010024000000140CD
:10233C0080B58AB000AF786007F1180300221A60EC
:10234C005A609A60DA607B681B68344A934260D1A9
:10235C00334B9B69324A43F400739361304B9B6956
:10236C0003F400737B617B692D4B9B692C4A43F012
:10237C00040393612A4B9B6903F004033B613B69A3
:10238C00274B9B69264A43F008039361244B9B69B6
:10239C0003F00803FB60FB68F323BB610323FB61C1
:1023AC0007F1180319461F4801F006FA0323BB6115
:1023BC000323FB6107F1180319461B4801F0FCF9D4
:1023CC001A4B1B4A1A60194B00225A60174B0022F9
:1023DC009A60164B8022DA60144B4FF480721A61AB
:1023EC00124B4FF480625A61104B00229A610F4BD2
:1023FC004FF48052DA610D4800F03CFF0346002B8D
:10240C0001D0FFF75DFF7B68084A1A62074A7B68B8
:10241C00536200BF2837BD4680BD00BF0024014079
:10242C000010024000080140000C01409404002000
:10243C000800024080B584B000AF78607B681B68F0
:10244C000D4A934213D10D4B9B690C4A43F4006324
:10245C0093610A4B9B6903F40063FB60FB680022E9
:10246C000021192000F0CFFE192000F0E8FE00BF7B
:10247C001037BD4680BD00BF002C0140001002404B
:10248C0080B58AB000AF786007F1180300221A609B
:10249C005A609A60DA607B681B683F4A93423AD173
:1024AC003E4B9B693D4A43F4804393613B4B9B6994
:1024BC0003F480437B617B69384B9B69374A43F05B
:1024CC0004039361354B9B6903F004033B613B6947
:1024DC004FF40073BB610223FB6103237B6207F1A2
:1024EC00180319462E4801F067F94FF48063BB615D
:1024FC000023FB6100233B6207F1180319462848AF
:10250C0001F05AF900220021252000F07CFE252044
:10251C0000F095FE3CE07B681B68224A934237D161
:10252C001E4BDB691D4A43F40033D3611B4BDB6943
:10253C0003F40033FB60FB68184B9B69174A43F0AC
:10254C0004039361154B9B6903F00403BB60BB68E8
:10255C000423BB610223FB6103237B6207F1180395
:10256C0019460F4801F028F90823BB610023FB61D1
:10257C0000233B6207F118031946094801F01CF9C6
:10258C0000220021262000F03EFE262000F057FEFF
:10259C0000BF2837BD4680BD003801400010024006
:1025AC00000801400044004080B400AF00BFFDE7CC
:1025BC0080B400AF00BFFDE780B400AF00BFFDE703
:1025CC0080B400AF00BFFDE780B400AF00BFFDE7F3
:1025DC0080B400AF00BFBD4680BC704780B400AF74
:1025EC0000BFBD4680BC704780B400AF00BFBD4685
:1025FC0080BC704780B500AF00F046F900BF80BDCD
:10260C0080B500AF024800F0A3FF00BF80BD00BF43
:10261C009404002080B500AF024801F09EFB00BF7F
:10262C0080BD00BF4412002080B500AF024803F00B
:10263C0041FD00BF80BD00BFD804002080B500AFB5
:10264C00024804F087F900BF80BD00BF20050020C0
:10265C0080B500AF024804F07DF900BF80BD00BF1B
:10266C006805002080B586B000AFF860B9607A606C
:10267C0000237B610AE0AFF300800146BB685A1C63
:10268C00BA60CAB21A707B6901337B617A697B6864
:10269C009A42F0DB7B6818461837BD4680BD80B582
:1026AC0086B000AFF860B9607A6000237B6109E006
:1026BC00BB685A1CBA601B781846AFF300807B6964
:1026CC0001337B617A697B689A42F1DB7B6818463F
:1026DC001837BD4680BD80B483B000AF78604FF032
:1026EC00FF3318460C37BD4680BC704780B483B0AE
:1026FC0000AF786039603B684FF400525A60002399
:10270C0018460C37BD4680BC704780B483B000AF10
:10271C007860012318460C37BD4680BC704780B4E6
:10272C0085B000AFF860B9607A60002318461437A2
:10273C00BD4680BC7047000080B586B000AF7860A5
:10274C00144A154BD31A7B617B693B61134B1B6895
:10275C00002B02D1114B124A1A60104B1A687B687D
:10276C0013443A699A4207D209F05CFC03460C22E6
:10277C001A604FF0FF3309E0084B1B68FB60074BF6
:10278C001A687B681344054A1360FB6818461837AF
:10279C00BD4680BD005000200004000070090020E0
:1027AC008818002080B400AF00BFBD4680BC7047C5
:1027BC00FFF7F8FF0B480C490C4A002302E0D458F1
:1027CC00C4500433C4188C42F9D3094A094C002371
:1027DC0001E013600432A242FBD309F029FCFFF79D
:1027EC00E9F9704700000020F401002040D50008F2
:1027FC00F401002088180020FEE7000080B500AF2F
:10280C00084B1B68074A43F010031360032000F0C9
:10281C00EFFC0F2000F008F8FFF758FD00231846D6
:10282C0080BD00BF0020024080B582B000AF786050
:10283C00124B1A68124B1B7819464FF47A73B3FB80
:10284C00F1F3B2FBF3F3184600F007FD0346002B3F
:10285C0001D001230EE07B680F2B0AD80022796887
:10286C004FF0FF3000F0CFFC064A7B68136000236A
:10287C0000E0012318460837BD4680BD1400002037
:10288C001C0000201800002080B400AF054B1B7802
:10289C001A46054B1B681344034A136000BFBD4620
:1028AC0080BC70471C0000207409002080B400AF6D
:1028BC00024B1B681846BD4680BC7047740900204B
:1028CC0080B586B000AF78600023FB7500233B61B8
:1028DC000023BB600023FB607B68002B01D101232C
:1028EC00BEE07B689B68002B7B689B6A002B09D140
:1028FC007B680022DA627B68002283F824207868E7
:10290C00FFF716FD786800F0FFFA0346FB757B684D
:10291C009B6A03F01003002B40F09980FB7D002B89
:10292C0040F095807B689B6A23F4885323F0020364
:10293C0043F002027B689A627B685A687B68DB69A9
:10294C001A437B681B7B5B001343BA681343BB6061
:10295C007B689B68B3F5807F03D07B689B68012BF9
:10296C0002D14FF4807300E000233A6913433B61BA
:10297C007B681B7D012B19D17B681B7B002B09D13C
:10298C007B689B69013B5A033B69134343F4006327
:10299C003B610BE07B689B6A43F020027B689A6288
:1029AC007B68DB6A43F001027B68DA627B681B6838
:1029BC005B6823F469417B681B683A690A435A6077
:1029CC007B681B689A68284B13407A681268B96850
:1029DC000B4393607B689B68B3F5807F03D07B6867
:1029EC009B68012B04D17B681B69013B1B05FB60B9
:1029FC007B681B68DB6A23F470017B681B68FA68D0
:102A0C000A43DA627B681B689A68184B1340BA68F1
:102A1C009A420BD17B680022DA627B689B6A23F0B6
:102A2C00030343F001027B689A6218E07B689B6A9F
:102A3C0023F0120343F010027B689A627B68DB6A16
:102A4C0043F001027B68DA620123FB7507E07B68C7
:102A5C009B6A43F010027B689A620123FB75FB7D35
:102A6C0018461837BD4680BDFDF7E1FFFE0E1FFF6F
:102A7C0080B586B000AFF860B9607A600023FB7552
:102A8C00FB681B68644A934204D0FB681B68634A6A
:102A9C00934206D1604B5B6803F47023002B40F02B
:102AAC00B380FB6893F82430012B01D10223AEE0F4
:102ABC00FB68012283F82420F86800F0CBF9034668
:102ACC00FB75FB7D002B40F09A80FB689B6A23F41E
:102ADC00706323F0010343F48072FB689A62FB6815
:102AEC001B684E4A934205D14B4B5B6803F4702331
:102AFC00002B15D1FB689B6A23F48012FB689A6249
:102B0C00FB681B685B6803F48063002B26D0FB68B2
:102B1C009B6A23F4405343F48052FB689A621DE095
:102B2C00FB689B6A43F48012FB689A62FB681B6823
:102B3C00394A934204D0FB681B68384A93420DD142
:102B4C00354B5B6803F48063002B07D0FB689B6AF2
:102B5C0023F4405343F48052FB689A62FB689B6AEF
:102B6C0003F48053002B06D0FB68DB6A23F00602CB
:102B7C00FB68DA6202E0FB680022DA62FB68002282
:102B8C0083F82420FB681B6A254A9A62FB681B6A3F
:102B9C00244ADA62FB681B6A234A1A63FB681B68C7
:102BAC006FF002021A60FB681B689A68FB681B686E
:102BBC0042F480729A60FB68186AFB681B684C339D
:102BCC001946BA687B6800F0AFFBFB681B689B6812
:102BDC0003F46023B3F5602F08D1FB681B689A6877
:102BEC00FB681B6842F4A0029A600FE0FB681B684C
:102BFC009A68FB681B6842F480129A6006E0FB68D6
:102C0C00002283F8242001E00123FB75FB7D18468C
:102C1C001837BD4680BD00BF00240140002801408C
:102C2C00972F0008133000082F30000880B483B0B1
:102C3C0000AF786000BF0C37BD4680BC704780B4D5
:102C4C0083B000AF786000BF0C37BD4680BC7047C6
:102C5C0080B483B000AF786000BF0C37BD4680BC39
:102C6C007047000080B485B000AF786039600023F5
:102C7C00FB730023BB607B6893F82430012B01D1DC
:102C8C000223DCE07B68012283F824203B685B682C
:102C9C00062B1CD87B681B68596B3B685A6813461B
:102CAC009B001344053B1F2202FA03F3DB4319403C
:102CBC003B6818683B685A6813469B001344053BF5
:102CCC0000FA03F27B681B680A435A633CE03B68DA
:102CDC005B680C2B1CD87B681B68196B3B685A68AB
:102CEC0013469B001344233B1F2202FA03F3DB43DE
:102CFC0019403B6818683B685A6813469B0013449C
:102D0C00233B00FA03F27B681B680A431A631BE03F
:102D1C007B681B68D96A3B685A6813469B0013444E
:102D2C00413B1F2202FA03F3DB4319403B6818684E
:102D3C003B685A6813469B001344413B00FA03F26C
:102D4C007B681B680A43DA623B681B68092B1CD939
:102D5C007B681B68D9683B681A6813465B00134490
:102D6C001E3B072202FA03F3DB4319403B689868C9
:102D7C003B681A6813465B0013441E3B00FA03F2CF
:102D8C007B681B680A43DA6019E07B681B68196969
:102D9C003B681A6813465B001344072202FA03F3DC
:102DAC00DB4319403B6898683B681A6813465B0024
:102DBC00134400FA03F27B681B680A431A613B68F0
:102DCC001B68102B03D03B681B68112B32D17B681E
:102DDC001B681D4A934225D17B681B689B6803F4D2
:102DEC000003002B26D17B681B689A687B681B68E4
:102DFC0042F400029A603B681B68102B1AD1134BEB
:102E0C001B68134AA2FB03239A0C13469B00134422
:102E1C005B00BB6002E0BB68013BBB60BB68002B86
:102E2C00F9D107E07B689B6A43F020027B689A62C9
:102E3C000123FB737B68002283F82420FB7B18465C
:102E4C001437BD4680BC704700240140140000209C
:102E5C0083DE1B4380B584B000AF78600023FB6039
:102E6C000023BB607B681B689B6803F00103012B8C
:102E7C0040D07B681B689A687B681B6842F0010233
:102E8C009A601F4B1B681F4AA2FB03239B0CBB6061
:102E9C0002E0BB68013BBB60BB68002BF9D1FFF7BC
:102EAC0005FDF8601FE0FFF701FD0246FB68D31A31
:102EBC00022B18D97B681B689B6803F00103012B5C
:102ECC0011D07B689B6A43F010027B689A627B6826
:102EDC00DB6A43F001027B68DA627B68002283F8CC
:102EEC002420012307E07B681B689B6803F0010327
:102EFC00012BD8D1002318461037BD4680BD00BF2A
:102F0C001400002083DE1B4380B584B000AF7860D2
:102F1C000023FB607B681B689B6803F00103012B9B
:102F2C002ED17B681B689A687B681B6822F00102B3
:102F3C009A60FFF7BBFCF8601BE0FFF7B7FC02469A
:102F4C00FB68D31A022B14D97B681B689B6803F0AF
:102F5C000103012B0DD17B689B6A43F010027B6847
:102F6C009A627B68DB6A43F001027B68DA620123B8
:102F7C0007E07B681B689B6803F00103012BDCD026
:102F8C00002318461037BD4680BD80B584B000AF15
:102F9C0078607B685B6AFB60FB689B6A03F050039C
:102FAC00002B27D1FB689B6A43F40072FB689A6282
:102FBC00FB681B689B6803F46023B3F5602F15D185
:102FCC00FB681B7B002B11D1FB689B6A23F480727E
:102FDC00FB689A62FB689B6A03F48053002B05D153
:102FEC00FB689B6A43F00102FB689A62F868FFF782
:102FFC001DFE04E0FB681B6A1B6B7868984700BFDA
:10300C001037BD4680BD80B584B000AF78607B685A
:10301C005B6AFB60F868FFF712FE00BF1037BD4615
:10302C0080BD80B584B000AF78607B685B6AFB6064
:10303C00FB689B6A43F04002FB689A62FB68DB6AA0
:10304C0043F00402FB68DA62F868FFF701FE00BF88
:10305C001037BD4680BD000080B485B000AF7860ED
:10306C007B6803F00703FB600C4BDB68BB60BA6842
:10307C004FF6FF031340BB60FB681A02BB68134397
:10308C0043F0BF6343F40033BB60044ABB68D360B6
:10309C0000BF1437BD4680BC704700BF00ED00E098
:1030AC0080B400AF044BDB681B0A03F0070318461F
:1030BC00BD4680BC704700BF00ED00E080B483B01B
:1030CC0000AF0346FB7197F90730002B0BDBFB7944
:1030DC0003F01F02064997F907305B09012000FA3B
:1030EC0002F241F8232000BF0C37BD4680BC70476C
:1030FC0000E100E080B483B000AF03463960FB719F
:10310C0097F90730002B0ADB3B68DAB20C4997F9C8
:10311C0007301201D2B20B4483F800230AE03B685B
:10312C00DAB20849FB7903F00F03043B1201D2B267
:10313C000B441A7600BF0C37BD4680BC704700BFED
:10314C0000E100E000ED00E080B489B000AFF86071
:10315C00B9607A60FB6803F00703FB61FB69C3F19C
:10316C000703042B28BF0423BB61FB690433062B24
:10317C0002D9FB69033B00E000237B614FF0FF3277
:10318C00BB6902FA03F3DA43BB681A407B699A40C5
:10319C004FF0FF317B6901FA03F3D9437B680B4095
:1031AC00134318462437BD4680BC704780B582B0A7
:1031BC0000AF78607B68013BB3F1807F01D30123C2
:1031CC000FE00A4A7B68013B53600F214FF0FF3040
:1031DC00FFF790FF054B00229A60044B07221A6000
:1031EC00002318460837BD4680BD00BF10E000E044
:1031FC0080B582B000AF78607868FFF72DFF00BF14
:10320C000837BD4680BD80B586B000AF0346B960B7
:10321C007A60FB7300237B61FFF742FF78617A6869
:10322C00B9687869FFF790FF024697F90F3011469D
:10323C001846FFF75FFF00BF1837BD4680BD80B54D
:10324C0082B000AF0346FB7197F907301846FFF7C1
:10325C0035FF00BF0837BD4680BD80B582B000AFDA
:10326C0078607868FFF7A2FF034618460837BD461A
:10327C0080BD000080B485B000AF78600023FB6097
:10328C007B68002B01D1012343E07B681B681A4645
:10329C00224B1344224AA2FB03231B099A007B688E
:1032AC001A647B681F4ADA637B68022283F8212048
:1032BC007B681B681B68FB60FB6823F47F5323F05F
:1032CC003003FB607B685A687B689B681A437B6899
:1032DC00DB681A437B681B691A437B685B691A437A
:1032EC007B689B691A437B68DB691343FA68134359
:1032FC00FB607B681B68FA681A607B6800229A6323
:10330C007B68012283F821207B68002283F820202F
:10331C00002318461437BD4680BC7047F8FFFDBF2C
:10332C00CDCCCCCC0000024080B586B000AFF860AC
:10333C00B9607A603B600023FB75FB6893F8203022
:10334C00012B01D102234BE0FB68012283F82020E2
:10335C00FB6893F82130DBB2012B3AD1FB680222D7
:10336C0083F82120FB6800229A63FB681B681A68AB
:10337C00FB681B6822F001021A603B687A68B96826
:10338C00F86800F0EBF9FB68DB6A002B08D0FB68EF
:10339C001B681A68FB681B6842F00E021A600FE08B
:1033AC00FB681B681A68FB681B6822F004021A6031
:1033BC00FB681B681A68FB681B6842F00A021A60FB
:1033CC00FB681B681A68FB681B6842F001021A60F4
:1033DC0005E0FB68002283F820200223FB75FB7DAF
:1033EC0018461837BD4680BD80B485B000AF7860F4
:1033FC000023FB737B6893F82130DBB2022B08D0DF
:10340C007B6804229A637B68002283F820200123C6
:10341C0020E07B681B681A687B681B6822F00E0230
:10342C001A607B681B681A687B681B6822F00102B3
:10343C001A607B681A6C7B68DB6B012101FA02F263
:10344C005A607B68012283F821207B68002283F874
:10345C002020FB7B18461437BD4680BC704700000B
:10346C0080B584B000AF78600023FB737B6893F861
:10347C002130DBB2022B05D07B6804229A63012336
:10348C00FB7351E07B681B681A687B681B6822F031
:10349C000E021A607B681B681A687B681B6822F036
:1034AC0001021A607B681B68224A934229D07B6810
:1034BC001B68214A934222D07B681B681F4A9342A7
:1034CC001AD07B681B681E4A934212D07B681B681B
:1034DC001C4A93420AD07B681B681B4A934202D158
:1034EC004FF480130EE04FF080730BE04FF48033F9
:1034FC0008E04FF4805305E04FF4807302E0102392
:10350C0000E00123114A53607B68012283F82120DB
:10351C007B68002283F820207B685B6B002B03D038
:10352C007B685B6B78689847FB7B18461037BD4609
:10353C0080BD00BF080002401C0002403000024069
:10354C0044000240580002406C000240000002405F
:10355C0080B584B000AF78607B68DB6B1B68FB6068
:10356C007B681B681B68BB607B681B6C04229A40E1
:10357C00FB681340002B4FD0BB6803F00403002BF7
:10358C004AD07B681B681B6803F02003002B07D113
:10359C007B681B681A687B681B6822F004021A603F
:1035AC007B681B68664A934229D07B681B68654A16
:1035BC00934222D07B681B68634A93421AD07B6883
:1035CC001B68624A934212D07B681B68604A934224
:1035DC000AD07B681B685F4A934202D14FF4800388
:1035EC000EE04FF080630BE04FF4802308E04FF4C3
:1035FC00804305E04FF4806302E0402300E00423A5
:10360C00554A53607B68DB6A002B00F094807B6822
:10361C00DB6A786898478EE07B681B6C02229A40C4
:10362C00FB681340002B56D0BB6803F00203002B41
:10363C0051D07B681B681B6803F02003002B0BD157
:10364C007B681B681A687B681B6822F00A021A6088
:10365C007B68012283F821207B681B68384A9342DF
:10366C0029D07B681B68374A934222D07B681B6841
:10367C00354A93421AD07B681B68344A934212D065
:10368C007B681B68324A93420AD07B681B68314ABC
:10369C00934202D14FF400130EE04FF000730BE095
:1036AC004FF4003308E04FF4005305E04FF400737F
:1036BC0002E0202300E00223274A53607B680022AB
:1036CC0083F820207B689B6A002B34D07B689B6A34
:1036DC00786898472FE07B681B6C08229A40FB683F
:1036EC001340002B28D0BB6803F00803002B23D019
:1036FC007B681B681A687B681B6822F00E021A60D4
:10370C007B681A6C7B68DB6B012101FA02F25A6050
:10371C007B6801229A637B68012283F821207B68F5
:10372C00002283F820207B681B6B002B04D07B6865
:10373C001B6B7868984700BF00BF1037BD4680BD33
:10374C00080002401C0002403000024044000240CD
:10375C00580002406C0002400000024080B485B06A
:10376C0000AFF860B9607A603B60FB681A6CFB686C
:10377C00DB6B012101FA02F25A60FB681B683A68A4
:10378C005A60FB685B68102B08D1FB681B687A6871
:10379C009A60FB681B68BA68DA6007E0FB681B6814
:1037AC00BA689A60FB681B687A68DA6000BF1437E5
:1037BC00BD4680BC7047000080B48BB000AF786011
:1037CC00396000237B6200233B6269E101227B6A42
:1037DC0002FA03F3FB613B681B68FA691340BB6197
:1037EC00BA69FB699A4240F058813B685B689A4A17
:1037FC0093425ED0984A934275D8984A934258D0D7
:10380C00964A93426FD8964A934252D0944A934226
:10381C0069D8944A93424CD0924A934263D8924AC4
:10382C00934246D0904A93425DD8122B2AD8122B41
:10383C0059D801A252F823F0BF3800089938000873
:10384C00AB380008ED380008F3380008F3380008EE
:10385C00F3380008F3380008F3380008F338000890
:10386C00F3380008F3380008F3380008F338000880
:10387C00F3380008F3380008F3380008A1380008C2
:10388C00B5380008794A934213D02CE03B68DB68CA
:10389C003B6229E03B68DB6804333B6224E03B6815
:1038AC00DB6808333B621FE03B68DB680C333B6230
:1038BC001AE03B689B68002B02D104233B6213E0A7
:1038CC003B689B68012B05D108233B627B68FA6936
:1038DC001A6109E008233B627B68FA695A6103E0CC
:1038EC0000233B6200E000BFBB69FF2B01D87B6863
:1038FC0001E07B6804337B61BB69FF2B02D87B6AD8
:10390C009B0002E07B6A083B9B003B617B691A6869
:10391C000F213B6901FA03F3DB431A40396A3B6917
:10392C0001FA03F31A437B691A603B685B6803F086
:10393C008053002B00F0B1804D4B9B694C4A43F0F7
:10394C00010393614A4B9B6903F00103BB60BB68A5
:10395C00484A7B6A9B08023352F82330FB607B6A2F
:10396C0003F003039B000F2202FA03F3DB43FA6814
:10397C001340FB607B68404A934213D07B683F4AFC
:10398C0093420DD07B683E4A934207D07B683D4AF8
:10399C00934201D1032306E0042304E0022302E056
:1039AC00012300E000237A6A02F0030292009340A4
:1039BC00FA681343FB602F497B6A9B080233FA6851
:1039CC0041F823203B685B6803F48013002B06D07E
:1039DC002D4B9A682C49BB6913438B6006E02A4B2C
:1039EC009A68BB69DB43284913408B603B685B6872
:1039FC0003F40013002B06D0234BDA682249BB6971
:103A0C001343CB6006E0204BDA68BB69DB431E49ED
:103A1C001340CB603B685B6803F40033002B06D08B
:103A2C00194B5A681849BB6913434B6006E0164B97
:103A3C005A68BB69DB43144913404B603B685B68B5
:103A4C0003F48033002B21D00F4B1A680E49BB694D
:103A5C0013430B6021E000BF000032100000311056
:103A6C0000002210000021100000121000001110A4
:103A7C00001002400000014000080140000C014011
:103A8C000010014000140140000401400B4B1A6867
:103A9C00BB69DB43094913400B607B6A01337B62D2
:103AAC003B681A687B6A22FA03F3002B7FF48EAE14
:103ABC0000BF00BF2C37BD4680BC704700040140DE
:103ACC0080B483B000AF78600B467B8013467B706C
:103ADC007B78002B03D07A887B681A6103E07B88A3
:103AEC001A047B681A6100BF0C37BD4680BC704756
:103AFC0080B485B000AF78600B467B807B68DB6858
:103B0C00FB607A88FB6813401A04FB68D9437B88F6
:103B1C000B401A437B681A6100BF1437BD4680BC4A
:103B2C00704780B584B000AF78607B68002B01D102
:103B3C000123E8E07B6893F89132DBB2002B06D1CD
:103B4C007B68002283F89022786807F0CBFD7B68B5
:103B5C00032283F891227B6800225A717B681B68D0
:103B6C00184603F084FC7B6818687B6804330ECB22
:103B7C0003F05AFC0346002B05D07B68022283F825
:103B8C0091220123BFE07B681B680021184603F0DB
:103B9C0088FC0346002B05D07B68022283F8912217
:103BAC000123B0E00023FB733EE0FA7B79681346F7
:103BBC009B001344DB000B44113301221A70FA7B77
:103BCC00796813469B001344DB000B441033FA7BDB
:103BDC001A70FA7B796813469B001344DB000B4484
:103BEC00133300221A70FA7B796813469B00134436
:103BFC00DB000B44203300221A60FA7B79681346F1
:103C0C009B001344DB000B44243300221A60FB7B23
:103C1C0079685A1C13469B001344DB000B440022AA
:103C2C001A60FB7B0133FB737B681B79FA7B9A422E
:103C3C00BBD30023FB7344E0FA7B796813469B00EB
:103C4C001344DB000B4403F2511300221A70FA7B6D
:103C5C00796813469B001344DB000B4403F5A873EF
:103C6C00FA7B1A70FA7B796813469B001344DB00CD
:103C7C000B4403F2531300221A70FA7B7968134633
:103C8C009B001344DB000B4403F5B07300221A6055
:103C9C00FA7B796813469B001344DB000B4403F555
:103CAC00B27300221A60FA7B796813469B001344A6
:103CBC00DB000B4403F5B47300221A60FB7B013369
:103CCC00FB737B681B79FA7B9A42B5D37B681868C7
:103CDC007B6804330ECB03F0F0FB0346002B05D0BE
:103CEC007B68022283F8912201230CE07B6800227E
:103CFC005A737B68012283F891227B681B681846F3
:103D0C0005F06FFE002318461037BD4680BD80B508
:103D1C0082B000AF78607B6893F89032012B01D1B0
:103D2C00022316E07B68012283F890227B681B68D3
:103D3C00184603F086FB0121786807F046FF7B6884
:103D4C001B68184605F043FE7B68002283F890221E
:103D5C00002318460837BD4680BD80B588B000AF3B
:103D6C0078607B681B68184605F045FEB861BB6936
:103D7C0003F40043002B03D0786800F01AFB19E120
:103D8C00BB6903F48063002B13D07B681B68B3F80A
:103D9C0044309AB27B681B6822F4806292B2A3F81A
:103DAC004420786807F019FD0021786800F005F9C7
:103DBC0000E1BB6903F48043002B0CD07B681B68CB
:103DCC00B3F844309AB27B681B6822F4804292B2FA
:103DDC00A3F84420EEE0BB6903F40053002B0CD095
:103DEC007B681B68B3F844309AB27B681B6822F47A
:103DFC00005292B2A3F84420DCE0BB6903F4805378
:103E0C00002B27D07B681B68B3F840309AB27B68D4
:103E1C001B6822F0040292B2A3F840207B681B6856
:103E2C00B3F840309AB27B681B6822F0080292B259
:103E3C00A3F84020786807F009FD7B681B68B3F88D
:103E4C0044309AB27B681B6822F4805292B2A3F879
:103E5C004420AFE0BB6903F40063002B00F08380C7
:103E6C000023FB7710E07B681B681A46FB7F9B00E6
:103E7C001A44FB7F128892B25B0020333B4423F838
:103E8C00182CFB7F0133FB77FB7F072BEBD97B686F
:103E9C001B68B3F840309AB27B681B6842F0010291
:103EAC0092B2A3F840207B681B68B3F840309AB2FA
:103EBC007B681B6822F0010292B2A3F8402000BF7D
:103ECC007B681B68B3F844309BB203F48063002B0F
:103EDC00F6D07B681B68B3F844309AB27B681B68D9
:103EEC0022F4806292B2A3F844200023FB770FE007
:103EFC00FB7F7A6812681146FA7F92000A445B00D5
:103F0C0020333B4433F8183C1380FB7F0133FB77A1
:103F1C00FB7F072BECD97B681B68B3F840309AB257
:103F2C007B681B6842F0080292B2A3F840207B68C1
:103F3C001B68B3F844309AB27B681B6822F40062A9
:103F4C0092B2A3F844207B681B68B3F840309AB255
:103F5C007B681B6842F0040292B2A3F84020786898
:103F6C0007F05AFC26E0BB6903F40073002B0FD05A
:103F7C007B681B68B3F844309AB27B681B6822F4E8
:103F8C00007292B2A3F84420786807F018FC11E094
:103F9C00BB6903F48073002B0CD07B681B68B3F8EF
:103FAC0044309AB27B681B6822F4807292B2A3F8F8
:103FBC00442000BF2037BD4680BD80B582B000AF25
:103FCC0078600B46FB707B6893F89032012B01D123
:103FDC00022312E07B68012283F890227B68FA7836
:103FEC005A737B681B68FA781146184605F0DCFC9E
:103FFC007B68002283F89022002318460837BD46C0
:10400C0080BD80B584B000AF7860084611461A4672
:10401C000346FB700B463B801346BB700023FB72C0
:10402C0097F90330002B0EDAFB7803F007021346E6
:10403C009B001344DB0010337A681344FB60FB686D
:10404C0001225A700EE0FB7803F0070213469B0026
:10405C001344DB0003F5A8737A681344FB60FB6818
:10406C0000225A70FB7803F00703DAB2FB681A706F
:10407C003A88FB681A61FB68BA78DA70BB78022B55
:10408C0002D1FB6800221A717B6893F89032012BE5
:10409C0001D102230EE07B68012283F890227B6819
:1040AC001B68F968184603F025FA7B68002283F830
:1040BC009022FB7A18461037BD4680BD80B584B07F
:1040CC0000AF78600B46FB7097F90330002B0EDACB
:1040DC00FB7803F0070213469B001344DB001033FC
:1040EC007A681344FB60FB6801225A700EE0FB787F
:1040FC0003F0070213469B001344DB0003F5A8737F
:10410C007A681344FB60FB6800225A70FB7803F05A
:10411C000703DAB2FB681A707B6893F89032012BB4
:10412C0001D102230EE07B68012283F890227B6888
:10413C001B68F968184603F09DFD7B68002283F824
:10414C009022002318461037BD4680BD80B586B03E
:10415C0000AFF8607A603B600B46FB72FB7A03F0B1
:10416C00070213469B001344DB0003F5A873FA689F
:10417C0013447B617B697A685A617B693A689A61FE
:10418C007B690022DA617B6900225A70FB7A03F0AA
:10419C000703DAB27B691A70FB681B6879691846E9
:1041AC0003F054FF002318461837BD4680BD80B479
:1041BC0083B000AF78600B46FB70FB7803F007020E
:1041CC00796813469B001344DB000B4403F5B6736C
:1041DC001B6818460C37BD4680BC704780B586B04E
:1041EC0000AFF8607A603B600B46FB72FB7A03F021
:1041FC00070213469B001344DB001033FA68134488
:10420C007B617B697A685A617B693A689A617B69E0
:10421C00012283F824207B693A681A627B690022A8
:10422C00DA617B6901225A70FB7A03F00703DAB278
:10423C007B691A70FB681B687969184603F006FFE6
:10424C00002318461837BD4680BD80B584B000AF3A
:10425C0078600B46FB70FB7803F007037A681279E1
:10426C00934201D901234CE097F90330002B0EDA6D
:10427C00FB7803F0070213469B001344DB0010335A
:10428C007A681344FB60FB6801225A700CE0FA78E0
:10429C0013469B001344DB0003F5A8737A681344A0
:1042AC00FB60FB6800225A70FB6801229A70FB7855
:1042BC0003F00703DAB2FB681A707B6893F890324C
:1042CC00012B01D102231CE07B68012283F8902290
:1042DC007B681B68F968184605F069FAFB7803F0EF
:1042EC000703002B08D17B681A687B6803F52673DB
:1042FC001946104605F08EFB7B68002283F890224D
:10430C00002318461037BD4680BD80B584B000AF81
:10431C0078600B46FB70FB7803F00F037A68127918
:10432C00934201D9012340E097F90330002B0EDAB8
:10433C00FB7803F0070213469B001344DB00103399
:10434C007A681344FB60FB6801225A700EE0FB781C
:10435C0003F0070213469B001344DB0003F5A8731C
:10436C007A681344FB60FB6800225A70FB680022D9
:10437C009A70FB7803F00703DAB2FB681A707B685B
:10438C0093F89032012B01D102230EE07B680122BD
:10439C0083F890227B681B68F968184605F057FA79
:1043AC007B68002283F89022002318461037BD4604
:1043BC0080BD80B596B000AF7860BBE37B681B68AE
:1043CC00B3F84430A7F84E30B7F84E30DBB203F0F8
:1043DC000F0387F84D3097F84D30002B40F0758166
:1043EC00B7F84E3003F01003002B4ED17B681B68DE
:1043FC001B889BB223F4E14323F07003FB817B68A1
:10440C001A68FB896FEA43436FEA53439BB21380EC
:10441C007B6810337B657B681B68B3F850309BB2AC
:10442C001A467B6D1B78DB00134402335B007A6801
:10443C001268134403F580631B88C3F309027B6D78
:10444C00DA617B6D5A697B6DDB691A447B6D5A614D
:10445C000021786807F099F97B685B7BDBB2002B55
:10446C0000F068837B6D9B69002B40F063837B6855
:10447C005B7BDBB263F07F03DAB27B681B68A3F86B
:10448C004C207B6800225A7354E37B6803F5A873B5
:10449C007B657B681B681B88A7F84A30B7F84A30E5
:1044AC0003F40063002B34D07B681B68B3F85030E6
:1044BC009BB21A467B6D1B78DB00134406335B0002
:1044CC007A681268134403F580631B88C3F30902EE
:1044DC007B6DDA617B6818687B6803F526717B6DF0
:1044EC00DA887B6DDB699BB205F0E5FA7B681B68AB
:1044FC001B889AB240F68F7313403B827B681B6813
:10450C003A8A42F0800292B21A80786807F010F969
:10451C0010E3B7F94A30002B80F20C837B681B68E0
:10452C001B889AB240F68F731340FB837B681B6821
:10453C00FA8B42F0800292B21A807B681B68B3F847
:10454C0050309BB21A467B6D1B78DB00134406334C
:10455C005B007A681268134403F580631B88C3F30D
:10456C0009027B6DDA617B6DDB69002B19D07B6DE9
:10457C005B69002B15D07B6818687B6D59697B6D66
:10458C00DA887B6DDB699BB205F095FA7B6D5A6915
:10459C007B6DDB691A447B6D5A610021786807F0EA
:1045AC00D9F87B681B681B88A7F84A30B7F84A30E3
:1045BC0003F40063002B40F0BD82B7F84A3003F4DB
:1045CC004053B3F5405F00F0B5827B681B68BB615C
:1045DC007B681B68B3F850309BB21A46BB69134416
:1045EC00BB61BB6903F20C437B617B691B889BB28B
:1045FC00C3F309039AB27B691A807B6D1B693E2B4E
:10460C001DD97B6D1B695B097B647B6D1B6903F09A
:10461C001F03002B02D17B6C013B7B647B691B88E5
:10462C009AB27B6C9BB29B029BB213439BB26FEA18
:10463C0043436FEA53439AB27B691A8026E07B6D41
:10464C001B69002B0AD17B691B889BB26FEA434321
:10465C006FEA53439AB27B691A8017E07B6D1B6932
:10466C005B087B647B6D1B6903F00103002B02D09C
:10467C007B6C01337B647B691B889AB27B6C9BB22D
:10468C009B029BB213439AB27B691A807B681B68AE
:10469C001B889BB223F4804323F070037B827B8ABC
:1046AC0083F480537B827B8A83F400537B827B6808
:1046BC001A687B8A43F07F4343F47F0343F400433F
:1046CC0043F080039BB2138034E27B681B681A466C
:1046DC0097F84D309B0013441B88A7F84A30B7F964
:1046EC004A30002B80F2FC807B681B681A4697F8D6
:1046FC004D309B0013441B889AB240F68F731340C5
:10470C00A7F848307B681B681A4697F84D309B0019
:10471C001344B7F8482042F0800292B21A8097F8FE
:10472C004D2013469B001344DB0003F5A8737A68F5
:10473C0013447B657B6D1B7B002B25D17B681B6831
:10474C00B3F850309BB21A467B6D1B78DB001344D8
:10475C0006335B007A681268134403F580631B8888
:10476C00C3F30903A7F85030B7F85030002B00F012
:10477C0092807B6818687B6D59697B6DDA88B7F815
:10478C00503005F098F986E07B6DDB78022B0AD16E
:10479C00B7F84A301A46796D786800F0D9F90346B3
:1047AC00A7F8503077E07B681B681A467B6D1B7846
:1047BC009B0013441B889BB223F4E04323F070034B
:1047CC00A7F852307B681B681A467B6D1B789B00E0
:1047DC001A44B7F8523043F07F4343F47F0343F459
:1047EC00004343F0C0039BB213807B681B681A46DE
:1047FC007B6D1B789B0013441B889BB203F4804396
:10480C00002B24D07B681B68B3F850309BB21A463F
:10481C007B6D1B78DB00134402335B007A681268F3
:10482C00134403F580631B88C3F30903A7F85030C6
:10483C00B7F85030002B2ED07B6818687B6D596907
:10484C007B6D1A89B7F8503005F035F923E07B6899
:10485C001B68B3F850309BB21A467B6D1B78DB009B
:10486C00134406335B007A681268134403F58063C3
:10487C001B88C3F30903A7F85030B7F85030002B4E
:10488C0009D07B6818687B6D59697B6D5A89B7F8BC
:10489C00503005F010F97B6DDA69B7F850301A44D6
:1048AC007B6DDA617B6D5A69B7F850301A447B6DB9
:1048BC005A617B6D9B69002B05D0B7F850207B6D3E
:1048CC001B699A4206D27B6D1B781946786806F0F4
:1048DC0041FF05E07B681B68796D184603F0B6FB59
:1048EC00B7F84A3003F08003002B00F0238197F8CF
:1048FC004D2013469B001344DB0010337A6813449D
:10490C007B657B681B681A4697F84D309B001344F7
:10491C001B889BB223F4E14323F07003A7F84230C9
:10492C007B681B681A4697F84D309B001A44B7F801
:10493C0042306FEA43436FEA53439BB213807B6D63
:10494C00DB78012B40F0A2807B6D00229A617B6D9D
:10495C001B7B002B00F09380B7F84A3003F0400328
:10496C00002B46D07B6D5B78002B26D17B681B68B7
:10497C007B627B681B68B3F850309BB21A467B6A2B
:10498C0013447B627B6D1B781A017B6A134403F220
:10499C0004433B623B6A1B889BB2C3F309039AB284
:1049AC003B6A1A803B6A1B889BB26FEA43436FEAEF
:1049BC0053439AB23B6A1A8061E07B6D5B78012BA2
:1049CC005DD17B681B68FB627B681B68B3F8503059
:1049DC009BB21A46FB6A1344FB627B6D1B781A016F
:1049EC00FB6A134403F20443BB62BB6A00221A80C5
:1049FC0045E07B681B68FB637B6D5B78002B26D1E5
:104A0C007B681B687B637B681B68B3F850309BB278
:104A1C001A467B6B13447B637B6D1B781A017B6B93
:104A2C00134403F20C433B633B6B1B889BB2C3F3F5
:104A3C0009039AB23B6B1A803B6B1B889BB26FEAE3
:104A4C0043436FEA53439AB23B6B1A8017E07B6D7A
:104A5C005B78012B13D17B681B68B3F850309BB289
:104A6C001A46FB6B1344FB637B6D1B781A01FB6BC3
:104A7C00134403F20C43BB63BB6B00221A807B6DA7
:104A8C001B781946786806F080FE53E0B7F84A3078
:104A9C0003F48073002B46D17B681B68B3F850304D
:104AAC009BB21A467B6D1B78DB00134402335B0010
:104ABC007A681268134403F580631B88C3F30903F7
:104ACC00A7F840307B6D9A69B7F840309A4207D905
:104ADC007B6D9A69B7F84030D21A7B6D9A6102E00F
:104AEC007B6D00229A617B6D9B69002B06D17B6DDF
:104AFC001B781946786806F048FE1BE07B6D5A69F6
:104B0C00B7F840301A447B6D5A617B6DDA69B7F89F
:104B1C0040301A447B6DDA617B681B68796D1846EE
:104B2C0003F094FA06E0B7F84A301A46796D7868C3
:104B3C0000F01BF97B681B68B3F844309BB21BB2C6
:104B4C00002BFFF63BAC002318465837BD4680BD02
:104B5C0080B588B000AFF860B9601346FB80FB8865
:104B6C0003F48043002B7ED0FB681B68B3F85030F5
:104B7C009BB21A46BB681B78DB00134402335B0004
:104B8C00FA681268134403F580631B88C3F30903A6
:104B9C007B83BB689A697B8B9A4206D3BB689A6904
:104BAC007B8BD21ABB689A6102E0BB6800229A61C7
:104BBC00BB689B69002B23D1FB681B681A46BB683A
:104BCC001B789B0013441B889BB223F4804323F077
:104BDC0070033B833B8B83F400533B83FB681B6864
:104BEC001A46BB681B789B001A443B8B43F07F43EF
:104BFC0043F47F0343F4004343F080039BB21380E0
:104C0C00FB8803F04003002B1FD0FB681B681A467F
:104C1C00BB681B789B0013441B889BB223F4E043B6
:104C2C0023F07003FB82FB681B681A46BB681B7879
:104C3C009B001A44FB8A43F07F4343F47F0343F405
:104C4C00004343F0C0039BB213807B8B002B00F01E
:104C5C008780FB681868BB685969BB681A897B8BAD
:104C6C0004F029FF7CE0FB681B68B3F850309BB262
:104C7C001A46BB681B78DB00134406335B00FA68EA
:104C8C001268134403F580631B88C3F309037B8309
:104C9C00BB689A697B8B9A4206D3BB689A697B8BFB
:104CAC00D21ABB689A6102E0BB6800229A61BB68A9
:104CBC009B69002B23D1FB681B681A46BB681B78C9
:104CCC009B0013441B889BB223F4804323F0700396
:104CDC00FB83FB8B83F40053FB83FB681B681A4636
:104CEC00BB681B789B001A44FB8B43F07F4343F457
:104CFC007F0343F4004343F080039BB21380FB8893
:104D0C0003F04003002B1FD1FB681B681A46BB68DD
:104D1C001B789B0013441B889BB223F4E04323F0C5
:104D2C007003BB83FB681B681A46BB681B789B002F
:104D3C001A44BB8B43F07F4343F47F0343F400439B
:104D4C0043F0C0039BB213807B8B002B08D0FB6815
:104D5C001868BB685969BB685A897B8B04F0ABFE39
:104D6C007B8B18462037BD4680BD80B5A4B000AF04
:104D7C00F860B9601346FB80FB8803F04003002BFE
:104D8C0000F0DD81FB681B68B3F850309BB21A460B
:104D9C00BB681B78DB00134402335B00FA681268B3
:104DAC00134403F580631B88C3F30903A7F886300B
:104DBC00BB689A69B7F886309A4207D9BB689A697A
:104DCC00B7F88630D21ABB689A6102E0BB68002241
:104DDC009A61BB689B69002B40F0B980BB685B781B
:104DEC00002B26D1FB681B68FB62FB681B68B3F8C1
:104DFC0050309BB21A46FB6A1344FB62BB681B78AB
:104E0C001A01FB6A134403F20443BB62BB6A1B889E
:104E1C009BB2C3F309039AB2BB6A1A80BB6A1B88A4
:104E2C009BB26FEA43436FEA53439AB2BB6A1A8050
:104E3C001AE0BB685B78012B16D1FB681B687B639F
:104E4C00FB681B68B3F850309BB21A467B6B13445B
:104E5C007B63BB681B781A017B6B134403F204431E
:104E6C003B633B6B00221A80FB681B687B62BB6850
:104E7C005B78002B26D1FB681B68FB61FB681B6809
:104E8C00B3F850309BB21A46FB691344FB61BB6804
:104E9C001B781A01FB69134403F20C43BB61BB6919
:104EAC001B889BB2C3F309039AB2BB691A80BB6916
:104EBC001B889BB26FEA43436FEA53439AB2BB69B8
:104ECC001A8017E0BB685B78012B13D1FB681B6859
:104EDC00B3F850309BB21A467B6A13447B62BB68B2
:104EEC001B781A017B6A134403F20C433B623B6A46
:104EFC0000221A80BB681B781946F86806F045FC3E
:104F0C00FB8803F48043002B00F0FC82FB681B68D9
:104F1C001A46BB681B789B0013441B889BB223F476
:104F2C00E04323F07003FB82FB681B681A46BB68E6
:104F3C001B789B001A44FB8A43F07F4343F47F03A6
:104F4C0043F4404343F080039BB21380DAE2FB88C6
:104F5C0003F48043002B21D0FB681B681A46BB6806
:104F6C001B789B0013441B889BB223F4E04323F073
:104F7C007003A7F88A30FB681B681A46BB681B785D
:104F8C009B001A44B7F88A3043F07F4343F47F0305
:104F9C0043F4404343F080039BB21380BB6893F807
:104FAC002430012B40F0AE82BB685A69B7F88630CA
:104FBC001A44BB685A61BB68DA69B7F886301A4480
:104FCC00BB68DA61BB681A6ABB681B699A420BD36F
:104FDC00BB681B69C7F88C30BB681A6AD7F88C3071
:104FEC00D21ABB681A6217E0BB681B6A002B08D187
:104FFC00B7F88630C7F88C30BB68002283F82420C1
:10500C000AE0BB68002283F82420BB681B6AC7F83F
:10501C008C30BB6800221A62BB685B78002B65D1B0
:10502C00FB681B68FB63FB681B68B3F850309BB2D2
:10503C001A46FB6B1344FB63BB681B781A01FB6BB2
:10504C00134403F20443BB63BB6B1B889BB2C3F3D7
:10505C0009039AB2BB6B1A80D7F88C303E2B1DD942
:10506C00D7F88C305B09BB64D7F88C3003F01F0386
:10507C00002B02D1BB6C013BBB64BB6B1B889AB28F
:10508C00BB6C9BB29B029BB213439BB26FEA434334
:10509C006FEA53439AB2BB6B1A8044E0D7F88C305A
:1050AC00002B0AD1BB6B1B889BB26FEA43436FEAA0
:1050BC0053439AB2BB6B1A8035E0D7F88C305B083F
:1050CC00BB64D7F88C3003F00103002B02D0BB6C0F
:1050DC000133BB64BB6B1B889AB2BB6C9BB29B024B
:1050EC009BB213439AB2BB6B1A801CE0BB685B7813
:1050FC00012B18D1FB681B687B64FB681B68B3F839
:10510C0050309BB21A467B6C13447B64BB681B7893
:10511C001A017B6C134403F204433B64D7F88C30C4
:10512C009AB23B6C1A80FB681868BB685969BB68FB
:10513C001A89D7F88C309BB204F077FCE2E1FB685B
:10514C001B68B3F850309BB21A46BB681B78DB0067
:10515C00134406335B00FA681268134403F580634A
:10516C001B88C3F30903A7F88630BB689A69B7F8A4
:10517C0086309A4207D3BB689A69B7F88630D21A40
:10518C00BB689A6102E0BB6800229A61BB689B69AC
:10519C00002B40F0C080BB685B78002B26D1FB68ED
:1051AC001B68FB67FB681B68B3F850309BB21A4650
:1051BC00FB6F1344FB67BB681B781A01FB6F13442E
:1051CC0003F20443BB67BB6F1B889BB2C3F3090399
:1051DC009AB2BB6F1A80BB6F1B889BB26FEA4343BA
:1051EC006FEA53439AB2BB6F1A801AE0BB685B78C4
:1051FC00012B16D1FB681B687B66FB681B68B3F838
:10520C0050309BB21A467B6E13447B66BB681B788E
:10521C001A017B6E134403F204433B663B6E00227F
:10522C001A80FB681B687B67BB685B78002B2BD1F3
:10523C00FB681B68FB66FB681B68B3F850309BB2BD
:10524C001A46FB6E1344FB66BB681B781A01FB6E97
:10525C00134403F20C43C7F88030D7F880301B8816
:10526C009BB2C3F309039AB2D7F880301A80D7F8EF
:10527C0080301B889BB26FEA43436FEA53439AB268
:10528C00D7F880301A8017E0BB685B78012B13D1FC
:10529C00FB681B68B3F850309BB21A467B6F134403
:1052AC007B67BB681B781A017B6F134403F20C43BA
:1052BC003B673B6F00221A80BB681B781946F86865
:1052CC0006F063FAFB8803F48043002B40F01A814C
:1052DC00FB681B681A46BB681B789B0013441B8831
:1052EC009BB223F4E04323F07003A7F88830FB68EB
:1052FC001B681A46BB681B789B001A44B7F88830A9
:10530C0043F07F4343F47F0343F4404343F0800373
:10531C009BB21380F6E0FB8803F48043002B21D171
:10532C00FB681B681A46BB681B789B0013441B88E0
:10533C009BB223F4E04323F07003A7F84E30FB68D4
:10534C001B681A46BB681B789B001A44B7F84E3092
:10535C0043F07F4343F47F0343F4404343F0800323
:10536C009BB21380BB6893F82430012B40F0CA80A9
:10537C00BB685A69B7F886301A44BB685A61BB6877
:10538C00DA69B7F886301A44BB68DA61BB681A6A06
:10539C00BB681B699A420BD3BB681B69C7F88C307E
:1053AC00BB681A6AD7F88C30D21ABB681A6217E03D
:1053BC00BB681B6A002B08D1B7F88630C7F88C3055
:1053CC00BB68002283F824200AE0BB681B6AC7F87C
:1053DC008C30BB6800221A62BB68002283F8242040
:1053EC00FB681B687B65BB685B78002B65D1FB6831
:1053FC001B68FB65FB681B68B3F850309BB21A4600
:10540C00FB6D1344FB65BB681B781A01FB6D1344E1
:10541C0003F20C43BB65BB6D1B889BB2C3F3090342
:10542C009AB2BB6D1A80D7F88C303E2B1DD9D7F8A9
:10543C008C305B09BB66D7F88C3003F01F03002B54
:10544C0002D1BB6E013BBB66BB6D1B889AB2BB6EB7
:10545C009BB29B029BB213439BB26FEA43436FEA2E
:10546C0053439AB2BB6D1A8041E0D7F88C30002BB5
:10547C000AD1BB6D1B889BB26FEA43436FEA53435F
:10548C009AB2BB6D1A8032E0D7F88C305B08BB66E1
:10549C00D7F88C3003F00103002B02D0BB6E013324
:1054AC00BB66BB6D1B889AB2BB6E9BB29B029BB258
:1054BC0013439AB2BB6D1A8019E0BB685B78012B61
:1054CC0015D1FB681B68B3F850309BB21A467B6D44
:1054DC0013447B65BB681B781A017B6D134403F284
:1054EC000C433B65D7F88C309AB23B6D1A80FB6845
:1054FC001868BB685969BB685A89D7F88C309BB25D
:10550C0004F093FAFB681B681A46BB681B789B0077
:10551C0013441B889BB223F4E04323F04003BB826B
:10552C00BB8A83F01003BB82BB8A83F02003BB824F
:10553C00FB681B681A46BB681B789B001A44BB8A25
:10554C0043F07F4343F47F0343F4004343F0800371
:10555C009BB21380002318469037BD4680BD80B4A3
:10556C0087B000AFF8607B600B467B8113463B81B4
:10557C007B8903F080039BB2002B0BD07B8903F05B
:10558C00070213469B001344DB001033FA681344E4
:10559C007B6109E07A8913469B001344DB0003F519
:1055AC00A873FA6813447B613B89002B07D17B6994
:1055BC0000221A737B689AB27B69DA800BE07B69F4
:1055CC0001221A737B689AB27B691A817B681B0C67
:1055DC009AB27B695A81002318461C37BD4680BCA1
:1055EC007047000080B586B000AF78607B68002BF8
:1055FC0001D1012372E27B681B6803F00103002BCD
:10560C0000F08780924B5B6803F00C03042B0CD0EA
:10561C008F4B5B6803F00C03082B12D18C4B5B682F
:10562C0003F48033B3F5803F0BD1894B1B6803F433
:10563C000033002B6CD07B685B68002B68D1012396
:10564C004CE27B685B68B3F5803F06D1804B1B68EE
:10565C007F4A43F4803313602EE07B685B68002B39
:10566C000CD17B4B1B687A4A23F480331360784B44
:10567C001B68774A23F4802313601DE07B685B680A
:10568C00B3F5A02F0CD1724B1B68714A43F48023E5
:10569C0013606F4B1B686E4A43F4803313600BE04E
:1056AC006B4B1B686A4A23F480331360684B1B688E
:1056BC00674A23F4802313607B685B68002B13D04C
:1056CC00FDF7F4F8386108E0FDF7F0F802463B69A5
:1056DC00D31A642B01D9032300E25D4B1B6803F43E
:1056EC000033002BF0D014E0FDF7E0F8386108E04F
:1056FC00FDF7DCF802463B69D31A642B01D903236E
:10570C00ECE1534B1B6803F40033002BF0D100E0A9
:10571C0000BF7B681B6803F00203002B63D04C4B6B
:10572C005B6803F00C03002B0BD0494B5B6803F058
:10573C000C03082B1CD1464B5B6803F48033002B05
:10574C0016D1434B1B6803F00203002B05D07B687A
:10575C001B69012B01D00123C0E13D4B1B6823F0D9
:10576C00F8027B685B69DB00394913430B603AE054
:10577C007B681B69002B20D0364B01221A60FDF789
:10578C0095F8386108E0FDF791F802463B69D31AA9
:10579C00022B01D90323A1E12D4B1B6803F002035B
:1057AC00002BF0D02A4B1B6823F0F8027B685B6956
:1057BC00DB00274913430B6015E0264B00221A60CF
:1057CC00FDF774F8386108E0FDF770F802463B69A4
:1057DC00D31A022B01D9032380E11D4B1B6803F064
:1057EC000203002BF0D17B681B6803F00803002B2D
:1057FC003AD07B689B69002B19D0174B01221A6099
:10580C00FDF754F8386108E0FDF750F802463B69A3
:10581C00D31A022B01D9032360E10D4B5B6A03F011
:10582C000203002BF0D0012000F0CEFA1CE00A4B52
:10583C0000221A60FDF73AF838610FE0FDF736F8F0
:10584C0002463B69D31A022B08D9032346E100BF59
:10585C00001002400000424280044242924B5B6ABC
:10586C0003F00203002BE9D17B681B6803F00403EF
:10587C00002B00F0A6800023FB758B4BDB6903F03B
:10588C008053002B0DD1884BDB69874A43F0805342
:10589C00D361854BDB6903F08053BB60BB6801238C
:1058AC00FB75824B1B6803F48073002B18D17F4B64
:1058BC001B687E4A43F480731360FCF7F7FF386172
:1058CC0008E0FCF7F3FF02463B69D31A642B01D9BD
:1058DC00032303E1754B1B6803F48073002BF0D09A
:1058EC007B68DB68012B06D16F4B1B6A6E4A43F059
:1058FC00010313622DE07B68DB68002B0CD16A4B33
:10590C001B6A694A23F001031362674B1B6A664AE0
:10591C0023F0040313621CE07B68DB68052B0CD1BD
:10592C00614B1B6A604A43F0040313625E4B1B6AB3
:10593C005D4A43F0010313620BE05B4B1B6A5A4A4E
:10594C0023F001031362584B1B6A574A23F00403DC
:10595C0013627B68DB68002B15D0FCF7A7FF38615E
:10596C000AE0FCF7A3FF02463B69D31A41F28832E6
:10597C00934201D90323B1E04B4B1B6A03F00203A2
:10598C00002BEED014E0FCF791FF38610AE0FCF735
:10599C008DFF02463B69D31A41F28832934201D9FA
:1059AC0003239BE0404B1B6A03F00203002BEED158
:1059BC00FB7D012B05D13C4BDB693B4A23F080532B
:1059CC00D3617B68DB69002B00F08780364B5B680A
:1059DC0003F00C03082B61D07B68DB69022B46D1EA
:1059EC00334B00221A60FCF761FF386108E0FCF7CA
:1059FC005DFF02463B69D31A022B01D903236DE0EC
:105A0C00294B1B6803F00073002BF0D17B681B6AD9
:105A1C00B3F5803F08D1244B5B6823F400327B68DC
:105A2C009B68214913434B601F4B5B6823F4741232
:105A3C007B68196A7B685B6A0B431B4913434B6099
:105A4C001B4B01221A60FCF731FF386108E0FCF7B0
:105A5C002DFF02463B69D31A022B01D903233DE0EB
:105A6C00114B1B6803F00073002BF0D035E0104B8A
:105A7C0000221A60FCF71AFF386108E0FCF716FFE9
:105A8C0002463B69D31A022B01D9032326E0064BAD
:105A9C001B6803F00073002BF0D11EE07B68DB6900
:105AAC00012B07D1012319E00010024000700040C7
:105ABC00600042420B4B5B68FB60FB6803F4803276
:105ACC007B681B6A9A4206D1FB6803F470127B68F0
