:020000040800F2
:1000000000500020B133000899320008A1320008E6
:10001000A9320008B1320008B9320008000000001F
:10002000000000000000000000000000C1320008D5
:10003000CD32000800000000D9320008E532000887
:10004000F9330008F9330008F9330008F9330008E0
:10005000F9330008F9330008F9330008F9330008D0
:10006000F9330008F9330008F9330008F1320008C9
:10007000F9330008F9330008F9330008F9330008B0
:100080000533000819330008F9330008F933000874
:100090002D330008F9330008F9330008F93300085C
:1000A000F933000841330008F9330008F933000838
:1000B00055330008F9330008F933000869330008A4
:1000C000F9330008F9330008F9330008F933000860
:1000D000F93300087D33000891330008F933000834
:1000E000F9330008F9330008F93300080000000074
:1000F0000000000000000000000000000000000000
:0C01000000000000000000005FF808F1A3
:10010C0010B5054C237833B9044B13B10448AFF345
:10011C0000800123237010BDBC01002000000000F2
:10012C00A4F7000808B5034B1BB103490348AFF310
:10013C00008008BD00000000C0010020A4F70008EA
:10014C00034613F8012B002AFBD1181A013870470B
:10015C0080B582B000AF78603960124B00221A7003
:10016C00114B00221A704022796810480FF0CEFA19
:10017C000E4B002283F83F20202239680C480FF0E8
:10018C00C5FA0B4B0022DA770A4B32221A60054B68
:10019C000D221A70084B00221A7000BF0837BD469A
:1001AC0080BD00BFD8010020DC010020F40100203C
:1001BC0034020020E00100201004002080B582B041
:1001CC0000AF78600B467B8013463B801D4B5B6811
:1001DC00002B02D14FF0FF332FE03B88002B02D1D4
:1001EC0047F230533B80184B184A1A600F2279683B
:1001FC0017480FF08BFA164B0022DA737B880A2211
:10020C00144918460FF036FA3B880A221249184650
:10021C000FF030FA114B1B78002B01D101230CE0AD
:10022C000F4B1B7803F00203DBB2002B01D1002330
:10023C0003E00C4B09221A70062318460837BD46FA
:10024C0080BD00BF14040020000000205544500065
:10025C0054020020640200207C020020F4010020E3
:10026C00DC010020D801002080B400AF084B1B78C3
:10027C0003F00203DBB2002B05D0064B1B78002BDE
:10028C0001D0044B00E000231846BD4680BC7047EB
:10029C00DC0100206C02002080B400AF0A4B5B68CC
:1002AC00002B02D14FF0FF3309E0084B1B7803F011
:1002BC004003DBB2002B01D0072300E005231846D6
:1002CC00BD4680BC704700BF14040020DC01002038
:1002DC0080B483B000AF0346FB710D4B9B68002BC1
:1002EC0011D00C4B1B885A1C91B20A4A118019462A
:1002FC00094AFB795354074B1B88802B04D1054BBF
:10030C0000221A8000E000BF0C37BD4680BC70474D
:10031C0014040020080400208802002080B588B056
:10032C0000AFF860084611461A4603467B810B461F
:10033C003B811346FB80464B5B68002B02D14FF090
:10034C00FF3381E0434B1B7803F04003DBB2002BFF
:10035C0001D1052378E03F4B1B7803F00803DBB297
:10036C00002B68D100237B773B8907F110010A220F
:10037C0018460FF07FF907F110031846FFF7E0FE5F
:10038C0003467B777B7F042B02D87B7F002B01D12C
:10039C000B2359E0304800F099FF07F11003184681
:1003AC0000F094FF2D4800F091FF0023FB8320E028
:1003BC007B895A1C7A811A46FB681A44284B1B8885
:1003CC00591C88B22649088019461278254B5A5474
:1003DC00234B1B88B3F5807F02D1214B00221A805E
:1003EC007A89FB889A4201D100237B81FB8B0133F4
:1003FC00FB83FA8B3B899A42DAD3164A137843F083
:10040C0004031370134A137843F008031370164B4C
:10041C001B68002B0DD0144B1B6814489847124BCB
:10042C001B6807F11002104698470F4B1B681048C9
:10043C009847092308E00C4B1B68002B03D00A4B90
:10044C001B680C489847082318462037BD4680BDCA
:10045C0014040020DC0100204CFC0008BCF7000850
:10046C000E04002008030020F0010020C0F7000853
:10047C00D4F70008D8F7000880B582B000AF7860D8
:10048C00142279680D480FF079F90D4B00221A707F
:10049C000C4B00221A700C4B00221A800B4B0022C2
:1004AC001A800B4B00221A800A4B00221A800A4B2E
:1004BC0000221A7000BF0837BD4680BD140400200E
:1004CC00D8010020820200200C0400200E04002021
:1004DC000A04002008040020DC01002080B400AFD6
:1004EC00124B1B68002B04D0104B1B68013B0F4AAE
:1004FC0013600F4B1B68002B0BD00D4B1B68013B83
:10050C000B4A13600A4B1B68002B02D1094B0022CB
:10051C001A70094B1B68002B04D0074B1B68013B5E
:10052C00054A136000BFBD4680BC7047E001002047
:10053C00E401002082020020E801002080B500AF19
:10054C00084B1A88084B1B889A4201D000F02CF8F3
:10055C00064B1B68002B01D100F0F6FB00F03AFEB5
:10056C0000BF80BD0A04002008040020E001002028
:10057C0080B483B000AF7860034A7B68136000BF1F
:10058C000C37BD4680BC7047EC01002080B483B0B2
:10059C0000AF7860034A7B68136000BF0C37BD4620
:1005AC0080BC7047F001002080B582B000AF814B59
:1005BC001B780D2B07D07F4B1B780E2B03D07D4B5C
:1005CC001B780F2B04D17C4B1A887C4B1A809CE334
:1005DC00794B1B88FB807A4B02221A608FE3774B96
:1005EC001B881A46774B9B5C7B717B79184601F014
:1005FC00ADFC754B1B780C2B00F2628301A252F8F8
:10060C0023F000BF4506000835070008170900084D
:10061C00CD0C0008CD0C00080F0B0008550B000882
:10062C006B0B0008970B0008CD0C0008E50B0008BD
:10063C000D0C00086F0C0008644B00221A70644B00
:10064C0004221A703EE0614B1B781A46614B53F83A
:10065C0022305F4A127813441B787A799A422BD154
:10066C005A4B1B781A465B4B53F822301B78303BA5
:10067C009AB2594B1A80584B1B881A469200134455
:10068C005B009AB2544B1A80504B1B781A46514B54
:10069C0053F8223001331B781A464F4B1B881344F6
:1006AC009BB2303B9AB24C4B1A804B4B1B88013B94
:1006BC009AB2494B1A800DE0444B1B780133DAB2E5
:1006CC00424B1A70414B1B781A46424B53F822305E
:1006DC00002BB8D13D4B1B781A463E4B53F82230B9
:1006EC00002B09D0384B01221A70394B1B7801337F
:1006FC00DAB2374B1A70EAE2314B00221A60374BF0
:10070C001B7803F00103DBB2002B00F0E0827B7955
:10071C003E2B40F0DC82314A137823F00103137036
:10072C002F4B00221A60D2E2284B1B781A46294B19
:10073C0053F82230264A127813441B787A799A425D
:10074C0033D1254B1B88013B9AB2234B1A80224B89
:10075C001B88002B03D07B790D2B40F0CF801B4BDB
:10076C001B781A461B4B53F8223002331B78303B54
:10077C00DAB2154B1A70144B1B781A4692001344BC
:10078C005B00DAB2104B1A70104B1B781A46114BE7
:10079C0053F8223003331A780B4B1B781344DBB21B
:1007AC00303BDAB2084B1A709CE2084B00221A70EC
:1007BC0088E000BFD8010020080400200A040020B3
:1007CC00E40100208802002082020020280400207E
:1007DC002904002070FD000884020020DC010020A8
:1007EC00E8010020A44B1B781A46A44B53F8223086
:1007FC001B78303B9AB2A24B1A80A14B1B881A462D
:10080C00920013445B009AB29D4B1A809A4B1B7852
:10081C001A469A4B53F8223001331B781A46984BE0
:10082C001B8813449BB2303B9AB2954B1A80944B65
:10083C001B88944A12789B1A9BB203339AB2904B42
:10084C001A808F4B1B887F2B36D88B4B1B781A4604
:10085C008A4B53F822308B4A127813441B787A79DE
:10086C009A4229D1864B1B88002B34D1824B1B78A2
:10087C001A46824B53F8223002331B78303BDAB2E3
:10088C00814B1A70804B1B781A46920013445B0004
:10089C00DAB27D4B1A70784B1B781A46774B53F8AB
:1008AC00223003331A78784B1B781344DBB2303B7D
:1008BC00DAB2754B1A700EE06F4B1B780133DAB25B
:1008CC006D4B1A706C4B1B781A466C4B53F82230DC
:1008DC00002B87D100E000BF674B1B781A46674B93
:1008EC0053F82230002B09D1674B00221A70674B4A
:1008FC001B88013B9AB2654B1A80F3E1614B1B7864
:10090C000133DAB25F4B1A70ECE17B790A2B40F0C1
:10091C00E0815D4B00221A70574B1B78112B00F2B3
:10092C00D88101A252F823F0F30A0008F30A000858
:10093C007D09000899090008C7090008F30A000896
:10094C00FD090008FD090008310A00083D0A0008ED
:10095C00590A0008B50A0008DF0C0008C10A000893
:10096C00DF0C0008D70A0008F30A0008F30A000895
:10097C00474B1B78022B40F0B880464B00221A6084
:10098C00454A137843F020031370AEE0424B1B78BA
:10099C0003F00803DBB2002B00F0A9803E4A137869
:1009AC0023F0080313703C4A137823F040031370B0
:1009BC003A4B1A883A4B1A8099E0364B00221A604F
:1009CC00334B1B78062B04D1334A137843F02003A6
:1009DC001370314A137843F002031370314B1B68C8
:1009EC00002B00F086802F4B1B680320984780E07B
:1009FC00294A137823F040031370274A137823F005
:100A0C0002031370274B1B68002B03D0254B1B686C
:100A1C00002098471E4B1B78062B6CD01C4B0F22CA
:100A2C001A706DE01C4A137823F04003137067E0D2
:100A3C00194A137823F0080313701A4B1B68002B08
:100A4C005BD0184B1B680A20984756E0114B0022CC
:100A5C001A60114A137843F0200313700E4A13786E
:100A6C0043F0400313700F4B1B68002B47D00D4B0A
:100A7C001B680720984742E02804002070FD0008FE
:100A8C008402002029040020820200200A04002095
:100A9C00D8010020E0010020DC0100200E04002021
:100AAC000C040020EC010020994A137823F0400339
:100ABC00137025E0964A137823F040031370944A80
:100ACC00137823F0020313701AE0914A137823F081
:100ADC00400313708E4A137823F0020313708D4B6E
:100AEC000F221A700CE000BFF3E000BFF1E000BF72
:100AFC00EFE000BFEDE000BFEBE000BFE9E000BFBE
:100B0C00E7E07B792C2B0CD1834B06221A70834B9C
:100B1C001B68002B00F0DF80804B1B6880489847D7
:100B2C00D9E07D4B00221A707E4B1B88013B9AB298
:100B3C007C4B1A80794B1B68002B00F0CC80774BD8
:100B4C001B6879489847C6E07B79222B40F0C5801A
:100B5C00714B07221A70754B00221A80BDE07B790D
:100B6C00222B03D0714B1B88102B03D16A4B08220C
:100B7C001A70B7E06D4B1B885A1C91B26B4A1180EE
:100B8C0019466B4A7B795354ACE07B790A2B40F0C5
:100B9C00A680614B00221A70644B1B880F2B0ED859
:100BAC00624B1B881A46624B00219954584A1378A1
:100BBC0043F0200313705F4B00221A6002E05C4B81
:100BCC0000221A705C4B1B68002B00F088805A4B7B
:100BDC001B680420984782E07B792C2B06D14E4B66
:100BEC000B221A70514B00221A807BE04A4B0022D8
:100BFC001A704C4B1B88013B9AB24A4B1A8071E01D
:100C0C007B793A2B09D1444B0C221A70474B1B8829
:100C1C0002331A46494B1A6064E07B792F2B02D9B8
:100C2C007B79392B09D93C4B00221A703D4B1B8820
:100C3C00013B9AB23B4B1A8054E03C4B1B881A4642
:100C4C00920013445B009AB2384B1A807B799AB2AB
:100C5C00364B1B8813449BB2303B9AB2334B1A80F1
:100C6C0040E0374B9B68364AD268128813447A7935
:100C7C001A70334BDB681A88013292B21A80304BEF
:100C8C00DB681A882E4B1B8A9A4203D12C4BDB68EB
:100C9C0000221A80254B1B88013B9AB2234B1A80E9
:100CAC00224B1B88002B1CD11B4B00221A701B4B98
:100CBC001B68002B15D0194B1B682248984710E075
:100CCC00154B00221A701D4B00221A600AE000BF5F
:100CDC0008E000BF06E000BF04E000BF02E000BF78
:100CEC0000E000BF0F4B1B8801339AB20D4B1A80EA
:100CFC000C4B1B88802B02D10A4B00221A80094B0B
:100D0C001B88FA889A427FF46AAC0837BD4680BDCE
:100D1C00DC010020D801002082020020F00100201C
:100D2C00F0F700080A04002008F8000884020020EC
:100D3C006C020020E0010020EC010020E401002006
:100D4C00140400201CF8000880B500AF964B6422F8
:100D5C001A60964B1B780F2B00F2188201A252F8E6
:100D6C0023F000BFB10D00081F0E0008710E000823
:100D7C00AF0E0008CD0E0008EB0E0008710F000836
:100D8C00111000083F10000899100008BF1000084F
:100D9C00411100085F110008B90D0008D90D0008B9
:100DAC00010E0008804B00221A60EFE1804B1B689B
:100DBC00002098477F4B1B68002B03D07D4B1B6892
:100DCC007D489847794B0E221A70DFE1784B1B68EF
:100DDC0001209847774B1B68002B03D0754B1B6881
:100DEC0076489847714B0F221A706F4B4FF4FA727A
:100DFC001A60CBE16F4B1B68002B03D06D4B1B684B
:100E0C006F489847694B01221A706E4B00221A707A
:100E1C00BCE16C4B1B78002B0DD06A4B1B78013B53
:100E2C00DAB2684B1A70674B1B78002B06D15F4BFC
:100E3C000D221A70AAE1634B04221A70624A1378CD
:100E4C0023F020031370614800F040FA594B1B68E3
:100E5C00002B03D0574B1B685D489847534B02221D
:100E6C001A7093E1584B1B7803F02003DBB2002B74
:100E7C000BD0504B1B68002B03D04E4B1B685548B6
:100E8C0098474A4B03221A7080E14A4B1B68002B8F
:100E9C0003D0484B1B6850489847444B01221A70AA
:100EAC0074E14E4800F012FA424B1B68002B03D041
:100EBC00404B1B684A4898473C4B04221A7065E12A
:100ECC00484800F003FA3B4B1B68002B03D0394B0E
:100EDC001B6845489847354B05221A7056E13A4B2A
:100EEC001B7803F00203DBB2002B03D02F4B07223D
:100EFC001A704BE13D4B1B78002B00F044813C48B1
:100F0C0000F0E4F9222000F011FA384800F0DEF984
:100F1C00222000F00BFA2C2000F008FA222000F01E
:100F2C0005FA344800F0D2F9222000F0FFF90D2028
:100F3C0000F0FCF90A2000F0F9F91E4B1B68002B9D
:100F4C0003D01C4B1B682C4898471F4A137823F07E
:100F5C0020031370154B06221A70134B40F2DC520F
:100F6C001A6013E1184B1B7803F02003DBB2002B43
:100F7C000ED0104B1B68002B03D00E4B1B681F4868
:100F8C0098470A4B07221A700E4B04221A70FDE088
:100F9C00084B1B68002B03D0064B1B68184898475E
:100FAC00024B01221A70F1E0E0010020D801002070
:100FBC0014040020F001002030F8000848F8000864
:100FCC0060F8000810040020DC010020ECFB000895
:100FDC00A0F80008B0F80008D8F8000804FC0008D5
:100FEC0008F90008F4FB00081CF90008F4010020C3
:100FFC0014FC00083402002030F9000844F9000801
:10100C0070F90008624B00221A70624800F05EF919
:10101C00614B1B68002B03D05F4B1B685F489847E4
:10102C005F4A137823F0200313705E4B08221A706A
:10103C00ACE05B4B1B7803F02003DBB2002B13D02E
:10104C00554B1B68002B0BD0534B1B6856489847CD
:10105C00514B1B684E4898474F4B1B685348984759
:10106C00504B09221A7091E0514B1B78013BDAB2BC
:10107C004F4B1A704E4B1B78002B03D1494B01225E
:10108C001A7083E0474B07221A707FE0494B1B789C
:10109C00002B7AD0484800F019F93F4B1B68002B05
:1010AC0003D03D4B1B68454898473E4B0A221A70AB
:1010BC006CE0434800F00AF9222000F037F941486F
:1010CC0000F004F9222000F031F92C2000F02EF968
:1010DC00222000F02BF9374800F0F8F8222000F01D
:1010EC0025F92C2000F022F9374800F0EFF82C20DD
:1010FC0000F01CF9354800F0E9F82C2000F016F946
:10110C00302000F013F90D2000F010F90A2000F047
:10111C000DF9234A137823F020031370204A137817
:10112C0023F0400313701F4B0B221A70284BC8225C
:10113C001A602BE01A4B1B7803F02003DBB2002B58
:10114C0003D0184B0C221A7020E0164B01221A7097
:10115C001CE0134B1B7803F00203DBB2002B03D112
:10116C00104B01221A7011E00D4B1B7803F0400359
:10117C00DBB2002B03D10B4B09221A7006E0144B87
:10118C0000221A6002E000BF00E000BF00BF80BD7B
:10119C006C02002020FC0008F0010020A8F90008D7
:1011AC00DC010020D8010020BCF90008E0F900089F
:1011BC0010040020540200203CFC0008E8F9000850
:1011CC002CFC000800000020640200207C0200209F
:1011DC00E001002080B582B000AF344B1B7803F0E7
:1011EC000103DBB2002B13D0314B1B68002B59D100
:1011FC00304B1A88304B1A802C4A137823F0010399
:10120C0013702E4B01221A702D4B0A221A6049E0E2
:10121C00294B1A88274B1B889A4244D0264B1B8893
:10122C001A46284B9B5CFB71204B1B7803F0040384
:10123C00DBB2002B04D0FB793E2B01D10A23FB71CE
:10124C00214B5B68FA79104698470346002B2AD04D
:10125C00164B1B7803F00403DBB2002B13D0164B98
:10126C001B881A46174B9B5C3E2B0CD10F4A1378EC
:10127C0023F0040313700D4A137843F00103137029
:10128C000B4B05221A600C4B1B8801339AB20A4B8C
:10129C001A80094B1B88B3F5807F04D1064B0022C2
:1012AC001A8000E000BF0837BD4680BDDC0100207D
:1012BC00E80100200E0400200C040020D8010020BE
:1012CC00E0010020080300201404002080B485B045
:1012DC0000AF78600023FB6017E0FB687A681A4463
:1012EC00104B1B88591C88B20E490880194612787D
:1012FC000D4B5A540B4B1B88B3F5807F02D1094B15
:10130C0000221A80FB680133FB60FB687A68134487
:10131C001B78002BE1D100BF00BF1437BD4680BC49
:10132C00704700BF0E0400200803002080B483B077
:10133C0000AF0346FB710B4B1B885A1C91B2094A38
:10134C0011801946084AFB795354064B1B88B3F598
:10135C00807F02D1034B00221A8000BF0C37BD46A0
:10136C0080BC70470E0400200803002080B483B0BA
:10137C0000AF7860034A7B68136000BF0C37BD4632
:10138C0080BC70472C04002090B585B002AF0023C0
:10139C00FB71204B1B689C681E4B1B681868FB1D5F
:1013AC00012200927522D021A047FB79682B02D034
:1013BC004FF0FF332AE00023BB71164B1B685C68AF
:1013CC00144B1B681868BB1D012200926B22D021A4
:1013DC00A0470023BB710F4B1B685C680D4B1B684F
:1013EC001868BB1D012200921C22D021A0470023AB
:1013FC00BB71084B1B685C68064B1B681868BB1DEF
:10140C00012200921B22D021A047002318460C3742
:10141C00BD4690BD2C04002090B583B002AF084BA4
:10142C001B68DC68064B1B68186806230093054B89
:10143C003B22D021A04700BF0437BD4690BD00BF62
:10144C002C0400203C04002090B583B002AF084B64
:10145C001B68DC68064B1B68186806230093054B59
:10146C004322D021A04700BF0437BD4690BD00BF2A
:10147C002C0400204404002080B400AF024B1B78E5
:10148C001846BD4680BC70474A04002080B400AFAB
:10149C00024B1B781846BD4680BC70474B0400209D
:1014AC0080B400AF034B00221A7000BFBD4680BC55
:1014BC00704700BF4A04002080B400AF034B0022E9
:1014CC001A7000BFBD4680BC704700BF4B040020A3
:1014DC0080B485B000AFF860B9607A60FB68002B0F
:1014EC0004D00D4BB3F90020FB681A80BB68002BAD
:1014FC0004D00A4BB3F90020BB681A807B68002B20
:10150C0004D0074BB3F900207B681A8000BF143756
:10151C00BD4680BC704700BF300400203204002060
:10152C003404002080B485B000AFF860B9607A60F4
:10153C00FB68002B04D00D4BB3F90020FB681A801C
:10154C00BB68002B04D00A4BB3F90020BB681A808F
:10155C007B68002B04D0074BB3F900207B681A8002
:10156C0000BF1437BD4680BC704700BF3604002056
:10157C00380400203A04002080B584B000AF754BCD
:10158C001B78002B6BD0744B1B781BB21B021AB24E
:10159C00714B5B781BB213433B816F4B9B781BB237
:1015AC001B021AB26C4BDB781BB21343FB806A4BE9
:1015BC001B791BB21B021AB2674B5B791BB213432C
:1015CC00BB80B7F90830002BB8BF5B429BB2B3F5B8
:1015DC00E17F03D8614B00221A8009E0B7F908308B
:1015EC0040F2D53202FB03F39B131AB25B4B1A8009
:1015FC00B7F90630002BB8BF5B429BB2B3F5E17F65
:10160C0003D8574B00221A8009E0B7F9063040F294
:10161C00D53202FB03F39B131AB2514B1A80B7F964
:10162C000430002BB8BF5B429BB244F6206293425D
:10163C0004D84C4B40F2D5321A8009E0B7F904308B
:10164C0040F2D53202FB03F39B131AB2454B1A80BE
:10165C00454B01221A703F4B00221A7076E0434B27
:10166C001B781BB21B021AB2404B5B781BB21343A4
:10167C00FB813E4B9B781BB21B021AB23B4BDB78B7
:10168C001BB21343BB81394B1B791BB21B021AB221
:10169C00364B5B791BB213437B81B7F90E30002BB1
:1016AC00B8BF5B429BB2B3F5E17F03D8304B00224D
:1016BC001A800DE0B7F90E30642202FB03F32D4AB9
:1016CC0082FB03125211DB17D31A1AB2284B1A8061
:1016DC00B7F90C30002BB8BF5B429BB2B3F5AF7FB0
:1016EC0003D8254B00221A800DE0B7F90C30642288
:1016FC0002FB03F31F4A82FB03125211DB17D31AAE
:10170C001AB21D4B1A80B7F90A30002BB8BF5B42D6
:10171C009BB2B3F5AF7F03D8184B00221A800DE0B3
:10172C00B7F90A30642202FB03F3124A82FB03125C
:10173C005211DB17D31A1AB2104B1A80104B01221C
:10174C001A70FFF781FE034B01221A7000BF10378D
:10175C00BD4680BD040000203C0400203004002065
:10176C0032040020340400204A04002044040020E9
:10177C00360400203DCB883E380400203A0400207B
:10178C004B04002080B483B000AF786039601F4AEE
:10179C007B6813601E4A3B6813601C4B1B6800225D
:1017AC001A711A4B1B6800225A71184B1B680022C5
:1017BC001A72164B1B68FF229A72154B1B6800227B
:1017CC001A71134B1B6800225A71114B1B68FF22B4
:1017DC009A710E4B1B6800229A710C4B1B680022ED
:1017EC00DA710A4B1B6800225A72084B1B680022E4
:1017FC001A73064B1B680022DA72054B1B68002219
:10180C00DA7100BF0C37BD4680BC70475004002015
:10181C005404002080B483B000AF0346FB710E4B20
:10182C001B6819680C4B1B685A79501CC0B2587154
:10183C0013460B44FA791A70074B1B685979064BFF
:10184C001B689A7A044B1B680A40D2B25A7100BFCB
:10185C000C37BD4680BC70475004002080B582B068
:10186C0000AF8E4B1B685B79FB712DE18B4B1B68BA
:10187C001B7A062B00F2088101A252F823F000BF5C
:10188C00A9180008D31800082119000857190008D6
:10189C008D190008AF1900081D1A00087F4B1B6832
:1018AC001B687E4A1268127913441B78DBB2552BE5
:1018BC0040F0EF80794B1B6801221A72774B1B6842
:1018CC0005221A73E5E0754B1B681B68734A126896
:1018DC00127913441B78DBB24E2B04D16F4B1B686F
:1018EC0002221A72D7E06D4B1B681B686B4A126898
:1018FC00127913441B78DBB2552B00F0CC80674B6C
:10190C001B6800221A72654B1B681A79013AD2B215
:10191C001A71C0E0614B1B681B68604A126812792F
:10192C0013441B78DBB2452B04D15C4B1B680322A0
:10193C001A72B8E0594B1B6800221A72574B1B687D
:10194C001A79013AD2B21A71ADE0544B1B681B687C
:10195C00524A1268127913441B78DBB2522B04D111
:10196C004E4B1B6804221A729DE04C4B1B680022E4
:10197C001A724A4B1B681A79013AD2B21A7192E068
:10198C00464B1B681B68454A126812791A44434B34
:10199C001B681278D2B2DA71404B1B6805221A729E
:1019AC0081E03E4B1B681B683C4A12681279134459
:1019BC001B78DBB23A2B20D1384B1B6806221A72EB
:1019CC00364B1B681A79354B1B680132D2B29A71AF
:1019DC00324B1B689979314B1B689A7A2F4B1B68D9
:1019EC000A40D2B29A712D4B1B68DA792B4B1B68CB
:1019FC0082F03602D2B25A7255E0284B1B68002294
:101A0C001A72264B1B681A79013AD2B21A714AE043
:101A1C00224B1B68DA79013AD2B2DA711F4B1B6880
:101A2C00DB79002B11D01D4B1B681B681B4A1268FD
:101A3C00127913441B78D9B2184B1B685A7A174B7E
:101A4C001B684A40D2B25A722CE0144B1B6800221D
:101A5C001A72124B1B681B68104A126812791344D5
:101A6C001B78DAB20D4B1B685B7A9A421AD10B4B7E
:101A7C001B680122DA72094B1B68094A126811466D
:101A8C00184600F047F90DE0044B1B6800221A724F
:101A9C0009E000BF07E000BF05E000BF50040020D4
:101AAC005404002000BF0E4B1B681A790132D2B2CD
:101ABC001A710B4B1B681979094B1B689A7A084BE6
:101ACC001B680A40D2B21A71054B1B681B79FA7954
:101ADC009A427FF4CBAE00BF00BF0837BD4680BD35
:101AEC005004002080B483B000AF78600B46FB70CC
:101AFC001346BB707B680022DA717B681A687B68BE
:101B0C005B79591CC8B279684871134455221A7014
:101B1C007B685A797B689B791340DAB27B685A717F
:101B2C007B681A687B685B79591CC8B27968487104
:101B3C0013444E221A707B685A797B689B79134048
:101B4C00DAB27B685A717B681A687B685B79591CBE
:101B5C00C8B279684871134445221A707B685A7967
:101B6C007B689B791340DAB27B685A717B681A6880
:101B7C007B685B79591CC8B279684871134452224E
:101B8C001A707B685A797B689B791340DAB27B6850
:101B9C005A717B681A687B685B79591CC8B2796882
:101BAC0048711344BA780132D2B21A707B685A79F0
:101BBC007B689B791340DAB27B685A717B681A6830
:101BCC007B685B79591CC8B27968487113443A2216
:101BDC001A707B685A797B689B791340DAB27B6800
:101BEC005A717B681A687B685B79591CC8B2796832
:101BFC0048711344FA781A707B685A797B689B7920
:101C0C001340DAB27B685A717B68DB795AB2BB78C5
:101C1C000133DBB25BB253405BB2DAB27B68DA7190
:101C2C007B68DA79FB785340DBB283F03603DAB2A7
:101C3C007B68DA717B68DB7918460C37BD4680BC53
:101C4C00704780B483B000AF78600B46FB707B6844
:101C5C001A687B685B79591CC8B27968487113445F
:101C6C00FA781A707B685A797B689B791340DAB2E0
:101C7C007B685A717B68DA79FB785340DAB27B68FF
:101C8C00DA717B68DB7918460C37BD4680BC70472F
:101C9C0090B482B000AF786039601D4B00221A807E
:101CAC0027E01B4B1B881A463B681A447B68196853
:101CBC007B685B79581CC4B2786844710B44127809
:101CCC001A707B685A797B689B791340DAB27B680F
:101CDC005A710F4B1B885A1C91B20D4A11801A462F
:101CEC003B6813441A787B68DB795340DAB27B6823
:101CFC00DA71074B1B881A463B6813441B78002B80
:101D0C00CFD17B68DB7918460837BD4690BC70474D
:101D1C004C04002080B582B000AF786039607B68DD
:101D2C001B687A68927913441B78DBB2A02B02D023
:101D3C00A12B10D021E00222A0213868FFF7D2FE9F
:101D4C00F0213868FFF77DFF3B68DB79194638686E
:101D5C00FFF777FF28E00C22A1213868FFF7C2FEBD
:101D6C00134B1B6819463868FFF792FF3B68DB7909
:101D7C0019463868FFF765FF16E07B681B687A68C0
:101D8C00927913441B78DBB2022219463868FFF7AC
:101D9C00A9FEFE213868FFF754FF3B68DB79194632
:101DAC003868FFF74EFF00BF00BF0837BD4680BD47
:101DBC000800002080B483B000AF78607B681B689B
:101DCC00054A934202D1054B00221A7000BF0C3712
:101DDC00BD4680BC704700BF00540040850B0020FE
:101DEC0080B58AB004AFF8607B600B46FB7213467B
:101DFC00BB72FB7A99B2BB7A9AB24FF0FF33029363
:101E0C003B8C01937B6800930123F86802F00CFE75
:101E1C000346FB75FB7D002B09D0074B5B69064A1B
:101E2C001268F97D104698474FF0FF3300E000230D
:101E3C0018461837BD4680BD0C00002080B58AB00E
:101E4C0004AFF8607B600B46FB721346BB72FB7AE7
:101E5C0099B2BB7A9AB24FF0FF3302933B8C019349
:101E6C007B6800930123F86802F0D8FE0346FB75EB
:101E7C00FB7D002B09D0074B5B69064A1268F97D84
:101E8C00104698474FF0FF3300E0002318461837F0
:101E9C00BD4680BD0C00002080B588B002AFF86054
:101EAC007B600B46FB721346BB72FB7A99B2BB7A12
:101EBC009AB23B8C01937B6800930123F86803F082
:101ECC0021F90346FB75FB7D002B09D0074B5B69A1
:101EDC00064A1268F97D104698474FF0FF3300E030
:101EEC00002318461837BD4680BD00BF0C000020EB
:101EFC0080B582B000AF78603960386801F0DAFAEA
:101F0C0000BF0837BD4680BD80B582B000AF786099
:101F1C0039603968034800F019FA00BF0837BD462C
:101F2C0080BD00BF0CFA000880B582B000AF7860AD
:101F3C007B681B68044A934202D1FFF71DFB00E04B
:101F4C0000BF0837BD4680BD0054004080B483B04C
:101F5C0000AF0346FB710B4B1B889BB25A1C91B212
:101F6C00084A11801946084AFB795354054B1B88C3
:101F7C009BB2DBB29AB2034B1A8000BF0C37BD4642
:101F8C0080BC7047800B0020800A002080B483B096
:101F9C0000AF78603960194B55221A70174B5322D9
:101FAC005A70164B42229A70144B2022DA70144B42
:101FBC0000221A7010E0124B1B781A467B681A44E8
:101FCC000F4B1B78043311780C4AD1540C4B1B78F3
:101FDC000133DAB20A4B1A70094B1B781A463B686C
:101FEC009342E8DC064B1B780433DAB2044B1A70CC
:101FFC0000BF0C37BD4680BC704700BFC806002030
:10200C00C807002080B483B000AF78607B681B6881
:10201C000C4A934208D10C4B01221A700B4B1B78C3
:10202C000133DAB2094B1A707B681B68B3F1804F2D
:10203C0002D1074B01221A7000BF0C37BD4680BC81
:10204C00704700BF002C0140C9070020F809002090
:10205C00CB07002080B582B000AF78607B681B682E
:10206C00084A934209D1084B1B781846FEF730F901
:10207C0001220549054808F04EF900BF0837BD4656
:10208C0080BD00BF00380140CD070020380600207D
:10209C0080B582B000AF0346FB71FB79002B14BFF7
:1020AC0001230023DBB21A464FF40061034802F00F
:1020BC0031FB00BF0837BD4680BD00BF000C01409E
:1020CC0080B582B000AF0346FB71F91D6423012279
:1020DC00064808F095F80346002B0CBF012300239B
:1020EC00DBB218460837BD4680BD00BF380600205D
:1020FC0080B584B000AF0346FB7197F907300A2B0B
:10210C0052D801A252F823F071210008B521000821
:10211C00B52100084121000857210008B52100080D
:10212C00B521000879210008B5210008B521000867
:10213C00AD210008204800F051F847F2305247F228
:10214C003A511E48FEF73AF831E01D4800F08AF883
:10215C00FEF78AF80346184600F084F8194800F098
:10216C0081F824E0184800F039F820E0174800F016
:10217C0035F8FEF791F80346072B17D1144A07F1EF
:10218C00080392E8030083E80300124800F026F8E5
:10219C0007F10800072307220021FEF7BFF805E02E
:1021AC000D4800F01BF802E000BF00E000BF00BFCC
:1021BC001037BD4680BD00BF24FA000850FA000855
:1021CC0060FA000880FA000888FA0008B0FA0008E3
:1021DC002CFB0008E0FA00080CFB000880B582B06C
:1021EC0000AF7860084B93F89C32032B08D17868C9
:1021FC00FDF7A6FF03469BB2194678680CF036FE35
:10220C0000BF0837BD4680BD940B002080B584B05C
:10221C0000AF78600B467B80114B93F89C32032BFC
:10222C0019D114E07B88402B28BF4023FB81FB890C
:10223C00194678680CF01AFE0346012B07D0FB896F
:10224C007A6813447B607A88FB89D31A7B807B88FD
:10225C00002BE7D100E000BF1037BD4680BD00BFAA
:10226C00940B002080B582B000AF78607868FDF7E1
:10227C0067FF03469BB219467868FFF7C7FF00BF9C
:10228C000837BD4680BD000080B584B000AF034662
:10229C00FB71FB791B09DBB21A46094B9B5C3B7348
:1022AC00FB7903F00F03064AD35C7B7307F10C0335
:1022BC0002211846FFF7AAFF00BF1037BD4680BDAC
:1022CC00BCFD000880B588B000AF78600023FB61CE
:1022DC007B68002B1ED101211A48FFF797FF2EE0D7
:1022EC007968194BA3FB0123DA0813469B001344AE
:1022FC005B00CA1AD2B2FB69591CF9613032D2B2F6
:10230C0020333B4403F8142C7B680F4AA2FB0323B5
:10231C00DB087B607B68002BE2D1FB69013BBB6176
:10232C000AE007F10C02BB69134401211846FFF7C0
:10233C006DFFBB69013BBB61BB69002BF1DA203738
:10234C00BD4680BD34FB0008CDCCCCCC0FB480B5E1
:10235C0086B000AF07F12403BB608CE03B6A1B78AE
:10236C00252B40F081803B6A01333B623B6A1B7832
:10237C00252B6FD0252B72DB752B70DC582B6EDB6D
:10238C00583B1D2B6BD801A252F823F04D240008AA
:10239C006B2400086B2400086B2400086B240008D5
:1023AC006B2400086B2400086B2400086B240008C5
:1023BC006B2400086B240008232400083B2400082D
:1023CC006B2400086B2400086B2400086B240008A5
:1023DC006B2400086B2400086B2400086B24000895
:1023EC006B2400086B2400086B2400086B24000885
:1023FC006B2400086B240008112400086B240008CF
:10240C003B240008BB681A1DBA601B687B617869A5
:10241C00FFF728FF2CE0BB681A1DBA601B68DBB203
:10242C00FB71FB1D01211846FFF7F0FE20E0BB6895
:10243C001A1DBA601B683B613869FFF743FF17E050
:10244C00BB681A1DBA601B68FB73FB7B1846FFF751
:10245C001BFF0DE001210E48FFF7D8FE08E001211B
:10246C00386AFFF7D3FE03E00121386AFFF7CEFE8E
:10247C003B6A01333B623B6A1B78002B7FF46EAFE7
:10248C0000BF00BF1837BD46BDE8804004B07047A0
:10249C0038FB000880B5C6B000AF00F0A9FF00F013
:1024AC0013FA00F05BFC00F02BFC00F039FB00F0A1
:1024BC00D3FB00F0FBFB0CF0BFFB00F063FA00F069
:1024CC007FFB00F0FFFA6F4807F0A8FA0346002BD9
:1024DC0001D000F0B1FC6C480CF0EEFC6B4B002210
:1024EC001A7008226A496B4801F0E0F8654807F059
:1024FC0095FA694807F092FA01226849684807F092
:10250C000AFF6848FDF7B8FF0120FFF7C1FD642002
:10251C0000F0D0FF6448FEF739F86448FEF728F85D
:10252C0063496448FDF714FE634B644A1A60624BBE
:10253C00FF229A72624B634A1A60614BFF229A71B6
:10254C005F495D48FFF71EF95F48FEF70FFFFEF786
:10255C001BFFC7F81001D7F81031002B02D05B48D5
:10256C00FFF7F4FEFEF758FF594B0A221A70594B2D
:10257C0000221A70584B00221A70584B00221A80F5
:10258C00544B1B78002B02D0524B00221A70524B2A
:10259C001B78002B00F007814F4B00221A704F4B19
:1025AC001B8801339AB24D4B1A804C4B1B88B3F5E8
:1025BC00FA7F26D3494B00221A80FDF76DFE0346A5
:1025CC00072B1ED13E4B00225A713D4B0022DA7173
:1025DC000222A0213A48FFF785FAF0213848FFF78C
:1025EC0030FB374BDB7919463548FFF72AFB344B68
:1025FC001868334B5B791A46314B5B790021FDF738
:10260C008DFEFDF76BFFFDF799FF354B1B889AB2DA
:10261C00344B1B889BB29A427FD00023A7F816310B
:10262C001BE02F4B1B889BB25A1C91B22C4A118079
:10263C001946B7F816315A1CA7F816211A462A4B18
:10264C00595C07F58C73A3F58C739954244B1B8838
:10265C009BB2DBB29AB2224B1A80214B1B889AB2E6
:10266C00204B1B889BB29A4203D0B7F816313F2BF4
:10267C00D7D9B7F816213B46114618460CF0F6FB95
:10268C004BE000BFA8050020991F0008C8070020D8
:10269C00E809002058040020F0050020CD07002098
:1026AC003806002024000020E9210008FD20000845
:1026BC003CFB000848FB0008D0090020D007002094
:1026CC00E0090020D00800200C00002064FB00086A
:1026DC00CA070020C9070020CB070020880B002068
:1026EC00820B0020800B0020800A0020694B1B8885
:1026FC005A1C91B2674A11801A46674B9B5C87F84B
:10270C000F31644B1B8803F07F039AB2614B1A8024
:10271C0097F80F311846FFF77DF85E4B1A885F4B20
:10272C001B889A42E2D1FFF799F85D4B1B78013375
:10273C00DAB25B4B1A705A4B1B78012B08D9584BE9
:10274C0000221A70574B1B78002B01D1FEF764FE48
:10275C00FEF792FE0346002B05D0524B1B78002B44
:10276C0001D1FEF79DFEFEF791FE0346002B08D02B
:10277C004C4B1B78002B04D1FEF79EFE4A4B0122DA
:10278C001A704A4B1B78013BDAB2484B1A70474B14
:10279C001B78002B07D1454B0A221A704FF40051BD
:1027AC00434801F0CFFF404B1B78002B14D03E4B1D
:1027BC0000221A7007F5847207F5857107F5867388
:1027CC001846FEF785FE07F5817207F5827107F54D
:1027DC0083731846FEF7A6FE364B1A79354B5B7998
:1027EC009A423BD0FDF758FD0346072B36D1002308
:1027FC00A7F814311CE02F4B1A682E4B1B79591C6F
:10280C00C8B22C4908711A44B7F81431591CA7F8EE
:10281C0014111946127807F58C73A3F58C735A545E
:10282C00244B1A79234B9B791340DAB2214B1A7142
:10283C00204B1A791F4B5B799A4203D0B7F81431AD
:10284C00FF2BD8D9B7F81431002B07D0B7F81431B7
:10285C00B7F8142138460021FDF760FD164B1B78A4
:10286C00002B08D0642301221349144807F0C8FC3C
:10287C00114B00221A70124B1B78194611480CF0A0
:10288C00F5FA0346002B7FF47BAE0D4B00221A7039
:10289C0076E600BF7E0A0020FC0900207C0A00209E
:1028AC00840B0020850B0020860B0020CA0700201B
:1028BC0000100140E0090020CC0700203806002061
:1028CC00C8070020C806002080B594B000AF07F1FF
:1028DC0028032822002118460CF010FF07F11403DE
:1028EC0000221A605A609A60DA601A613B1D00225D
:1028FC001A605A609A60DA600123BB624FF480332D
:10290C00FB6200233B630123BB6302237B644FF414
:10291C008033BB644FF4E013FB6407F128031846C3
:10292C0006F066FB0346002B01D000F085FA0F235E
:10293C007B610223BB610023FB614FF480633B622C
:10294C0000237B6207F114030221184606F0D2FD26
:10295C000346002B01D000F06FFA12237B604FF47A
:10296C000043FB6000233B613B1D184606F050FF03
:10297C000346002B01D000F05FFA00BF5037BD4674
:10298C0080BD000080B584B000AF3B1D00221A60F2
:10299C005A609A60494B4A4A1A60484B4FF480720D
:1029AC009A60464B00221A73444B00221A75434B13
:1029BC000022DA61414B00225A60404B08221A6116
:1029CC003E4800F09BFD0346002B01D000F034FA8A
:1029DC0000237B600123BB600023FB603B1D194679
:1029EC00364800F05DFF0346002B01D000F024FABE
:1029FC0001237B600223BB603B1D19462F4800F06E
:102A0C004FFF0346002B01D000F016FA04237B6025
:102A1C000323BB603B1D1946284800F041FF0346C9
:102A2C00002B01D000F008FA05237B600423BB6067
:102A3C003B1D1946214800F033FF0346002B01D003
:102A4C0000F0FAF906237B600523BB603B1D194699
:102A5C001A4800F025FF0346002B01D000F0ECF9DA
:102A6C0007237B600623BB603B1D1946134800F00F
:102A7C0017FF0346002B01D000F0DEF908237B6022
:102A8C000723BB603B1D19460C4800F009FF0346A9
:102A9C00002B01D000F0D0F909237B600823BB6028
:102AAC003B1D1946054800F0FBFE0346002B01D0E8
:102ABC0000F0C2F900BF1037BD4680BD580400209D
:102ACC000024014080B500AF124B134A1A60114B21
:102ADC00124A5A600F4B00229A600E4B0022DA60A9
:102AEC000C4B4FF480421A610A4B00225A61094B7D
:102AFC0000229A61074B0022DA61064B00221A620F
:102B0C00044801F039FE0346002B01D000F094F983
:102B1C0000BF80BDCC04002000540040801A060089
:102B2C0080B586B000AF07F1080300221A605A6026
:102B3C009A60DA603B4600221A605A601E4B1F4AAC
:102B4C001A601D4B47225A601B4B00229A601A4B8D
:102B5C00F922DA60184B00221A61174B00225A61D5
:102B6C00154B00229A61144806F008FF0346002B0F
:102B7C0001D000F061F94FF48053BB6007F10803FA
:102B8C0019460D4807F08CF80346002B01D000F0D5
:102B9C0053F920233B6000237B603B4619460648D3
:102BAC0007F06EFA0346002B01D000F045F900BF88
:102BBC001837BD4680BD00BFA8050020002C014081
:102BCC0080B586B000AF07F1080300221A605A6086
:102BDC009A60DA603B4600221A605A601D4B4FF037
:102BEC0080421A601B4B41F61F425A60194B00225F
:102BFC009A60184B6322DA60164B00221A61154B4F
:102C0C0000229A61134806F0B9FE0346002B01D04E
:102C1C0000F012F94FF48053BB6007F1080319461A
:102C2C000C4807F03DF80346002B01D000F004F9E6
:102C3C0000233B6000237B603B461946054807F0A8
:102C4C001FFA0346002B01D000F0F6F800BF18372E
:102C5C00BD4680BDF005002080B500AF114B124A77
:102C6C001A60104B4FF4E1325A600E4B00229A60FE
:102C7C000C4B0022DA600B4B00221A61094B0C2220
:102C8C005A61084B00229A61064B0022DA61054812
:102C9C0007F066FA0346002B01D000F0CDF800BF18
:102CAC0080BD00BF380600200038014080B500AF61
:102CBC00114B124A1A60104B4FF4E1325A600E4B12
:102CCC0000229A600C4B0022DA600B4B00221A6136
:102CDC00094B0C225A61084B00229A61064B0022C8
:102CEC00DA61054807F03CFA0346002B01D000F0EE
:102CFC00A3F800BF80BD00BF800600200044004048
:102D0C0080B582B000AF144B5B69134A43F00103EA
:102D1C005361114B5B6903F001037B607B680022FC
:102D2C0000210B2001F08DF80B2001F0A6F80022F9
:102D3C000021102001F085F8102001F09EF80022EF
:102D4C000021112001F07DF8112001F096F800BF50
:102D5C000837BD4680BD00BF0010024080B588B06A
:102D6C0000AF07F1100300221A605A609A60DA6013
:102D7C002E4B9B692D4A43F0100393612B4B9B699F
:102D8C0003F01003FB60FB68284B9B69274A43F058
:102D9C0020039361254B9B6903F02003BB60BB6848
:102DAC00224B9B69214A43F0040393611F4B9B699F
:102DBC0003F004037B607B681C4B9B691B4A43F04C
:102DCC0008039361194B9B6903F008033B603B6854
:102DDC0000224FF40051164801F09CFC00224FF4E5
:102DEC000061144801F096FC4FF400533B61012341
:102DFC007B610023BB610223FB6107F110031946C1
:102E0C000B4801F003FB4FF400633B6101237B6132
:102E1C000023BB610223FB6107F11003194605482F
:102E2C0001F0F4FA00BF2037BD4680BD001002400F
:102E3C0000100140000C014080B400AF72B600BF1E
:102E4C0000BFFDE780B485B000AF154B9B69144AF9
:102E5C0043F001039361124B9B6903F00103BB60C8
:102E6C00BB680F4BDB690E4A43F08053D3610C4BAC
:102E7C00DB6903F080537B607B680A4B5B68FB600B
:102E8C00FB6823F0E063FB60FB6843F00073FB60BE
:102E9C00044AFB68536000BF1437BD4680BC7047C2
:102EAC00001002400000014080B58AB000AF78608D
:102EBC0007F1180300221A605A609A60DA607B6886
:102ECC001B68344A934260D1334B9B69324A43F4BA
:102EDC0000739361304B9B6903F400737B617B69D6
:102EEC002D4B9B692C4A43F0040393612A4B9B693D
:102EFC0003F004033B613B69274B9B69264A43F073
:102F0C0008039361244B9B6903F00803FB60FB6887
:102F1C00F323BB610323FB6107F1180319461F4818
:102F2C0001F074FA0323BB610323FB6107F118035F
:102F3C0019461B4801F06AFA1A4B1B4A1A60194BC6
:102F4C0000225A60174B00229A60164B8022DA60DE
:102F5C00144B4FF480721A61124B4FF480625A6119
:102F6C00104B00229A610F4B4FF48052DA610D48DE
:102F7C0000F09EFF0346002B01D0FFF75DFF7B683E
:102F8C00084A1A62074A7B68536200BF2837BD465D
:102F9C0080BD00BF00240140001002400008014029
:102FAC00000C0140880400200800024080B588B065
:102FBC0000AF786007F1100300221A605A609A6023
:102FCC00DA607B681B68404A934278D13F4B9B691F
:102FDC003E4A43F0080393613C4B9B6903F00803A2
:102FEC00FB60FB68C0233B6112237B610323FB6105
:102FFC0007F110031946364801F008FA334BDB6928
:10300C00324A43F40013D361304BDB6903F40013F1
:10301C00BB60BB682F4B304A1A602E4B10225A6093
:10302C002C4B00229A602B4B8022DA60294B002219
:10303C001A61284B00225A61264B00229A61254BBB
:10304C004FF48052DA61234800F032FF0346002B24
:10305C0001D0FFF7F1FE7B681E4A5A631D4A7B685C
:10306C0053621E4B1E4A1A601C4B00225A601B4BAB
:10307C0000229A60194B8022DA60184B00221A61E8
:10308C00164B00225A61154B00229A61134B0022F9
:10309C00DA61124800F00CFF0346002B01D0FFF759
:1030AC00CBFE7B680D4A9A630C4A7B685362002204
:1030BC0000211F2000F0C5FE1F2000F0DEFE00BF27
:1030CC002037BD4680BD00BF0054004000100240B8
:1030DC00000C0140200500206C000240640500201B
:1030EC008000024080B584B000AF78607B681B68BC
:1030FC001A4A934214D11A4B9B69194A43F4006340
:10310C009361174B9B6903F40063FB60FB6800221F
:10311C000021192000F095FE192000F0AEFE18E0F9
:10312C007B681B68B3F1804F13D10D4BDB690C4AE4
:10313C0043F00103D3610A4BDB6903F00103BB606D
:10314C00BB68002200211C2000F07BFE1C2000F03C
:10315C0094FE00BF1037BD4680BD00BF002C01405F
:10316C000010024080B58AB000AF786007F11803F8
:10317C0000221A605A609A60DA607B681B683F4ACA
:10318C0093423AD13E4B9B693D4A43F48043936151
:10319C003B4B9B6903F480437B617B69384B9B6998
:1031AC00374A43F004039361354B9B6903F00403E6
:1031BC003B613B694FF40073BB610223FB6103234A
:1031CC007B6207F1180319462E4801F01FF94FF4E2
:1031DC008063BB610023FB6100233B6207F1180392
:1031EC001946284801F012F900220021252000F090
:1031FC0028FE252000F041FE3CE07B681B68224A3B
:10320C00934237D11E4BDB691D4A43F40033D36123
:10321C001B4BDB6903F40033FB60FB68184B9B69A9
:10322C00174A43F004039361154B9B6903F00403A5
:10323C00BB60BB680423BB610223FB6103237B627D
:10324C0007F1180319460F4801F0E0F80823BB6199
:10325C000023FB6100233B6207F118031946094860
:10326C0001F0D4F800220021262000F0EAFD2620EF
:10327C0000F003FE00BF2837BD4680BD003801407A
:10328C0000100240000801400044004080B400AF30
:10329C0000BFFDE780B400AF00BFFDE780B400AF16
:1032AC0000BFFDE780B400AF00BFFDE780B400AF06
:1032BC0000BFFDE780B400AF00BFBD4680BC7047C7
:1032CC0080B400AF00BFBD4680BC704780B400AF77
:1032DC0000BFBD4680BC704780B500AF00F0CEF893
:1032EC0000BF80BD80B500AF024800F04FFF00BFAB
:1032FC0080BD00BF8804002080B500AF024800F0FC
:10330C0045FF00BF80BD00BF2005002080B500AF89
:10331C00024800F03BFF00BF80BD00BF64050020E9
:10332C0080B500AF024804F01EFA00BF80BD00BF9C
:10333C005C14002080B500AF024806F0C1FB00BF52
:10334C0080BD00BFA805002080B500AF024806F084
:10335C00B7FB00BF80BD00BFF005002080B500AFFB
:10336C00024802F055F800BF80BD00BFCC0400201D
:10337C0080B500AF024806F0F3FF00BF80BD00BF70
:10338C003806002080B500AF024806F0E9FF00BF08
:10339C0080BD00BF8006002080B400AF00BFBD46DA
:1033AC0080BC7047FFF7F8FF0B480C490C4A002310
:1033BC0002E0D458C4500433C4188C42F9D3094ADF
:1033CC00094C002301E013600432A242FBD30CF041
:1033DC00B1F9FFF75FF8704700000020BC01002036
:1033EC0030FE0008BC01002054190020FEE700004C
:1033FC0080B500AF084B1B68074A43F010031360FD
:10340C00032000F013FD0F2000F008F8FFF71AFD61
:10341C000023184680BD00BF0020024080B582B05A
:10342C0000AF7860124B1A68124B1B7819464FF498
:10343C007A73B3FBF1F3B2FBF3F3184600F02BFDF8
:10344C000346002B01D001230EE07B680F2B0AD81A
:10345C00002279684FF0FF3000F0F3FC064A7B68DD
:10346C001360002300E0012318460837BD4680BDD9
:10347C0038000020400000203C00002080B400AF49
:10348C00054B1B781A46054B1B681344034A136003
:10349C0000BFBD4680BC7047400000208C0B002054
:1034AC0080B400AF024B1B681846BD4680BC704709
:1034BC008C0B002080B584B000AF7860FFF7F0FF74
:1034CC00B8607B68FB60FB68B3F1FF3F05D00A4B2B
:1034DC001B781A46FB681344FB6000BFFFF7E0FF44
:1034EC000246BB68D31AFA689A42F7D800BF00BFED
:1034FC001037BD4680BD00BF4000002080B586B0AF
:10350C0000AF78600023FB7500233B610023BB6098
:10351C000023FB607B68002B01D10123BEE07B689C
:10352C009B68002B7B689B6A002B09D17B6800226F
:10353C00DA627B68002283F824207868FFF7B4FCF9
:10354C00786800F0FFFA0346FB757B689B6A03F012
:10355C001003002B40F09980FB7D002B40F09580F0
:10356C007B689B6A23F4885323F0020343F0020226
:10357C007B689A627B685A687B68DB691A437B6854
:10358C001B7B5B001343BA681343BB607B689B686F
:10359C00B3F5807F03D07B689B68012B02D14FF47D
:1035AC00807300E000233A6913433B617B681B7D09
:1035BC00012B19D17B681B7B002B09D17B689B6984
:1035CC00013B5A033B69134343F400633B610BE03B
:1035DC007B689B6A43F020027B689A627B68DB6A9B
:1035EC0043F001027B68DA627B681B685B6823F43A
:1035FC0069417B681B683A690A435A607B681B689F
:10360C009A68284B13407A681268B9680B43936028
:10361C007B689B68B3F5807F03D07B689B68012B2C
:10362C0004D17B681B69013B1B05FB607B681B6835
:10363C00DB6A23F470017B681B68FA680A43DA6260
:10364C007B681B689A68184B1340BA689A420BD176
:10365C007B680022DA627B689B6A23F0030343F0E9
:10366C0001027B689A6218E07B689B6A23F0120364
:10367C0043F010027B689A627B68DB6A43F00102BC
:10368C007B68DA620123FB7507E07B689B6A43F079
:10369C0010027B689A620123FB75FB7D1846183774
:1036AC00BD4680BDFDF7E1FFFE0E1FFF80B586B065
:1036BC0000AFF860B9607A600023FB75FB681B688B
:1036CC00644A934204D0FB681B68634A934206D158
:1036DC00604B5B6803F47023002B40F0B380FB68F5
:1036EC0093F82430012B01D10223AEE0FB680122B8
:1036FC0083F82420F86800F0CBF90346FB75FB7DBA
:10370C00002B40F09A80FB689B6A23F4706323F0D3
:10371C00010343F48072FB689A62FB681B684E4A93
:10372C00934205D14B4B5B6803F47023002B15D1EE
:10373C00FB689B6A23F48012FB689A62FB681B6827
:10374C005B6803F48063002B26D0FB689B6A23F430
:10375C00405343F48052FB689A621DE0FB689B6AFD
:10376C0043F48012FB689A62FB681B68394A9342E7
:10377C0004D0FB681B68384A93420DD1354B5B680B
:10378C0003F48063002B07D0FB689B6A23F440533F
:10379C0043F48052FB689A62FB689B6A03F4805383
:1037AC00002B06D0FB68DB6A23F00602FB68DA62AA
:1037BC0002E0FB680022DA62FB68002283F8242016
:1037CC00FB681B6A254A9A62FB681B6A244ADA6208
:1037DC00FB681B6A234A1A63FB681B686FF00202C2
:1037EC001A60FB681B689A68FB681B6842F480725D
:1037FC009A60FB68186AFB681B684C331946BA68F8
:10380C007B6800F0AFFBFB681B689B6803F46023CC
:10381C00B3F5602F08D1FB681B689A68FB681B68BE
:10382C0042F4A0029A600FE0FB681B689A68FB6880
:10383C001B6842F480129A6006E0FB68002283F851
:10384C00242001E00123FB75FB7D18461837BD468B
:10385C0080BD00BF0024014000280140D33B00087C
:10386C004F3C00086B3C000880B483B000AF78601C
:10387C0000BF0C37BD4680BC704780B483B000AF2E
:10388C00786000BF0C37BD4680BC704780B483B0F5
:10389C0000AF786000BF0C37BD4680BC704700009D
:1038AC0080B485B000AF786039600023FB730023CF
:1038BC00BB607B6893F82430012B01D10223DCE040
:1038CC007B68012283F824203B685B68062B1CD89C
:1038DC007B681B68596B3B685A6813469B00134402
:1038EC00053B1F2202FA03F3DB4319403B681868BF
:1038FC003B685A6813469B001344053B00FA03F2DD
:10390C007B681B680A435A633CE03B685B680C2B82
:10391C001CD87B681B68196B3B685A6813469B0064
:10392C001344233B1F2202FA03F3DB4319403B6889
:10393C0018683B685A6813469B001344233B00FAF3
:10394C0003F27B681B680A431A631BE07B681B68E5
:10395C00D96A3B685A6813469B001344413B1F22AB
:10396C0002FA03F3DB4319403B6818683B685A685A
:10397C0013469B001344413B00FA03F27B681B681F
:10398C000A43DA623B681B68092B1CD97B681B68ED
:10399C00D9683B681A6813465B0013441E3B072228
:1039AC0002FA03F3DB4319403B6898683B681A68DA
:1039BC0013465B0013441E3B00FA03F27B681B6842
:1039CC000A43DA6019E07B681B6819693B681A685E
:1039DC0013465B001344072202FA03F3DB4319403E
:1039EC003B6898683B681A6813465B00134400FAFE
:1039FC0003F27B681B680A431A613B681B68102B37
:103A0C0003D03B681B68112B32D17B681B681D4AA5
:103A1C00934225D17B681B689B6803F40003002B41
:103A2C0026D17B681B689A687B681B6842F400028D
:103A3C009A603B681B68102B1AD1134B1B68134AF6
:103A4C00A2FB03239A0C13469B0013445B00BB6040
:103A5C0002E0BB68013BBB60BB68002BF9D107E0FF
:103A6C007B689B6A43F020027B689A620123FB739C
:103A7C007B68002283F82420FB7B18461437BD4654
:103A8C0080BC7047002401403800002083DE1B43BB
:103A9C0080B584B000AF78600023FB600023BB606E
:103AAC007B681B689B6803F00103012B40D07B688B
:103ABC001B689A687B681B6842F001029A601F4B76
:103ACC001B681F4AA2FB03239B0CBB6002E0BB6874
:103ADC00013BBB60BB68002BF9D1FFF7E1FCF86040
:103AEC001FE0FFF7DDFC0246FB68D31A022B18D946
:103AFC007B681B689B6803F00103012B11D07B686A
:103B0C009B6A43F010027B689A627B68DB6A43F025
:103B1C0001027B68DA627B68002283F8242001238F
:103B2C0007E07B681B689B6803F00103012BD8D16D
:103B3C00002318461037BD4680BD00BF380000205A
:103B4C0083DE1B4380B584B000AF78600023FB603C
:103B5C007B681B689B6803F00103012B2ED17B68EB
:103B6C001B689A687B681B6822F001029A60FFF759
:103B7C0097FCF8601BE0FFF793FC0246FB68D31A36
:103B8C00022B14D97B681B689B6803F00103012B83
:103B9C000DD17B689B6A43F010027B689A627B684C
:103BAC00DB6A43F001027B68DA62012307E07B6881
:103BBC001B689B6803F00103012BDCD00023184623
:103BCC001037BD4680BD80B584B000AF78607B688F
:103BDC005B6AFB60FB689B6A03F05003002B27D1E8
:103BEC00FB689B6A43F40072FB689A62FB681B6873
:103BFC009B6803F46023B3F5602F15D1FB681B7B26
:103C0C00002B11D1FB689B6A23F48072FB689A62CB
:103C1C00FB689B6A03F48053002B05D1FB689B6AFD
:103C2C0043F00102FB689A62F868FFF71DFE04E09E
:103C3C00FB681B6A1B6B7868984700BF1037BD4642
:103C4C0080BD80B584B000AF78607B685B6AFB6038
:103C5C00F868FFF712FE00BF1037BD4680BD80B577
:103C6C0084B000AF78607B685B6AFB60FB689B6A22
:103C7C0043F04002FB689A62FB68DB6A43F0040283
:103C8C00FB68DA62F868FFF701FE00BF1037BD462B
:103C9C0080BD000080B485B000AF78607B6803F015
:103CAC000703FB600C4BDB68BB60BA684FF6FF0385
:103CBC001340BB60FB681A02BB68134343F0BF633D
:103CCC0043F40033BB60044ABB68D36000BF1437B5
:103CDC00BD4680BC704700BF00ED00E080B400AF73
:103CEC00044BDB681B0A03F007031846BD4680BC77
:103CFC00704700BF00ED00E080B483B000AF034616
:103D0C00FB7197F90730002B0BDBFB7903F01F02DB
:103D1C00064997F907305B09012000FA02F241F8D5
:103D2C00232000BF0C37BD4680BC704700E100E08B
:103D3C0080B483B000AF03463960FB7197F907304C
:103D4C00002B0ADB3B68DAB20C4997F907301201F9
:103D5C00D2B20B4483F800230AE03B68DAB208497C
:103D6C00FB7903F00F03043B1201D2B20B441A7619
:103D7C0000BF0C37BD4680BC704700BF00E100E0BF
:103D8C0000ED00E080B489B000AFF860B9607A60F3
:103D9C00FB6803F00703FB61FB69C3F10703042B0A
:103DAC0028BF0423BB61FB690433062B02D9FB69D2
:103DBC00033B00E000237B614FF0FF32BB6902FA4A
:103DCC0003F3DA43BB681A407B699A404FF0FF312A
:103DDC007B6901FA03F3D9437B680B401343184604
:103DEC002437BD4680BC704780B582B000AF786088
:103DFC007B68013BB3F1807F01D301230FE00A4ABA
:103E0C007B68013B53600F214FF0FF30FFF790FFB1
:103E1C00054B00229A60044B07221A6000231846B7
:103E2C000837BD4680BD00BF10E000E080B582B011
:103E3C0000AF78607868FFF72DFF00BF0837BD46EC
:103E4C0080BD80B586B000AF0346B9607A60FB7365
:103E5C0000237B61FFF742FF78617A68B968786963
:103E6C00FFF790FF024697F90F3011461846FFF7FF
:103E7C005FFF00BF1837BD4680BD80B582B000AF74
:103E8C000346FB7197F907301846FFF735FF00BF63
:103E9C000837BD4680BD80B582B000AF78607868C9
:103EAC00FFF7A2FF034618460837BD4680BD000049
:103EBC0080B485B000AF78600023FB607B68002B7A
:103ECC0001D1012343E07B681B681A46224B134443
:103EDC00224AA2FB03231B099A007B681A647B68A5
:103EEC001F4ADA637B68022283F821207B681B68F7
:103EFC001B68FB60FB6823F47F5323F03003FB60EB
:103F0C007B685A687B689B681A437B68DB681A433A
:103F1C007B681B691A437B685B691A437B689B69E6
:103F2C001A437B68DB691343FA681343FB607B68B5
:103F3C001B68FA681A607B6800229A637B6801220E
:103F4C0083F821207B68002283F820200023184668
:103F5C001437BD4680BC7047F8FFFDBFCDCCCCCC30
:103F6C000000024080B586B000AFF860B9607A609E
:103F7C003B600023FB75FB6893F82030012B01D1CB
:103F8C0002234BE0FB68012283F82020FB6893F8A6
:103F9C002130DBB2012B3AD1FB68022283F82120BD
:103FAC00FB6800229A63FB681B681A68FB681B6835
:103FBC0022F001021A603B687A68B968F86800F070
:103FCC00F8F9FB68DB6A002B08D0FB681B681A68E1
:103FDC00FB681B6842F00E021A600FE0FB681B685E
:103FEC001A68FB681B6822F004021A60FB681B68E5
:103FFC001A68FB681B6842F00A021A60FB681B68AF
:10400C001A68FB681B6842F001021A6005E0FB6845
:10401C00002283F820200223FB75FB7D18461837FD
:10402C00BD4680BD80B485B000AF78600023FB73C3
:10403C007B6893F82130DBB2022B08D07B6804221A
:10404C009A637B68002283F82020012320E07B68A0
:10405C001B681A687B681B6822F00E021A607B686A
:10406C001B681A687B681B6822F001021A607B6867
:10407C001A6C7B68DB6B012101FA02F25A607B68D7
:10408C00012283F821207B68002283F82020FB7B0F
:10409C0018461437BD4680BC7047000080B584B00C
:1040AC0000AF78600023FB737B6893F82130DBB2A0
:1040BC00022B05D07B6804229A630123FB7351E029
:1040CC007B681B681A687B681B6822F00E021A60FA
:1040DC007B681B681A687B681B6822F001021A60F7
:1040EC007B681B68224A934229D07B681B68214A53
:1040FC00934222D07B681B681F4A93421AD07B687C
:10410C001B681E4A934212D07B681B681C4A934260
:10411C000AD07B681B681B4A934202D14FF4801370
:10412C000EE04FF080730BE04FF4803308E04FF457
:10413C00805305E04FF4807302E0102300E001236C
:10414C00114A53607B68012283F821207B6800228E
:10415C0083F820207B685B6B002B03D07B685B6B48
:10416C0078689847FB7B18461037BD4680BD00BF6A
:10417C00080002401C000240300002404400024093
:10418C00580002406C0002400000024080B584B030
:10419C0000AF78607B68DB6B1B68FB607B681B681F
:1041AC001B68BB607B681B6C04229A40FB68134045
:1041BC00002B4FD0BB6803F00403002B4AD07B6864
:1041CC001B681B6803F02003002B07D17B681B685E
:1041DC001A687B681B6822F004021A607B681B68F3
:1041EC00664A934229D07B681B68654A934222D069
:1041FC007B681B68634A93421AD07B681B68624ACF
:10420C00934212D07B681B68604A93420AD07B6849
:10421C001B685F4A934202D14FF480030EE04FF0CB
:10422C0080630BE04FF4802308E04FF4804305E0FB
:10423C004FF4806302E0402300E00423554A5360AE
:10424C007B68DB6A002B00F094807B68DB6A786803
:10425C0098478EE07B681B6C02229A40FB681340E7
:10426C00002B56D0BB6803F00203002B51D07B68A7
:10427C001B681B6803F02003002B0BD17B681B68A9
:10428C001A687B681B6822F00A021A607B6801229C
:10429C0083F821207B681B68384A934229D07B68BD
:1042AC001B68374A934222D07B681B68354A93427D
:1042BC001AD07B681B68344A934212D07B681B6807
:1042CC00324A93420AD07B681B68314A934202D12E
:1042DC004FF400130EE04FF000730BE04FF400337B
:1042EC0008E04FF4005305E04FF4007302E0202384
:1042FC0000E00223274A53607B68002283F82020C9
:10430C007B689B6A002B34D07B689B6A78689847E3
:10431C002FE07B681B6C08229A40FB681340002B33
:10432C0028D0BB6803F00803002B23D07B681B68E4
:10433C001A687B681B6822F00E021A607B681A6C84
:10434C007B68DB6B012101FA02F25A607B68012267
:10435C009A637B68012283F821207B68002283F812
:10436C0020207B681B6B002B04D07B681B6B786850
:10437C00984700BF00BF1037BD4680BD0800024003
:10438C001C00024030000240440002405800024031
:10439C006C0002400000024080B483B000AF786033
:1043AC007B6893F82130DBB218460C37BD4680BCD5
:1043BC00704780B485B000AFF860B9607A603B603C
:1043CC00FB681A6CFB68DB6B012101FA02F25A6084
:1043DC00FB681B683A685A60FB685B68102B08D155
:1043EC00FB681B687A689A60FB681B68BA68DA60BD
:1043FC0007E0FB681B68BA689A60FB681B687A6800
:10440C00DA6000BF1437BD4680BC704780B48BB0F7
:10441C0000AF7860396000237B6200233B6269E166
:10442C0001227B6A02FA03F3FB613B681B68FA69A1
:10443C001340BB61BA69FB699A4240F058813B68F2
:10444C005B689A4A93425ED0984A934275D8984AD0
:10445C00934258D0964A93426FD8964A934252D080
:10446C00944A934269D8944A93424CD0924A9342CC
:10447C0063D8924A934246D0904A93425DD8122B0D
:10448C002AD8122B59D801A252F823F01345000850
:10449C00ED440008FF44000841450008474500086A
:1044AC0047450008474500084745000847450008B0
:1044BC0047450008474500084745000847450008A0
:1044CC004745000847450008474500084745000890
:1044DC00F544000809450008794A934213D02CE0B2
:1044EC003B68DB683B6229E03B68DB6804333B627A
:1044FC0024E03B68DB6808333B621FE03B68DB6809
:10450C000C333B621AE03B689B68002B02D10423FE
:10451C003B6213E03B689B68012B05D108233B628F
:10452C007B68FA691A6109E008233B627B68FA69C7
:10453C005A6103E000233B6200E000BFBB69FF2B24
:10454C0001D87B6801E07B6804337B61BB69FF2B7E
:10455C0002D87B6A9B0002E07B6A083B9B003B61B4
:10456C007B691A680F213B6901FA03F3DB431A409C
:10457C00396A3B6901FA03F31A437B691A603B6899
:10458C005B6803F08053002B00F0B1804D4B9B69AE
:10459C004C4A43F0010393614A4B9B6903F00103BE
:1045AC00BB60BB68484A7B6A9B08023352F82330D5
:1045BC00FB607B6A03F003039B000F2202FA03F3F8
:1045CC00DB43FA681340FB607B68404A934213D08C
:1045DC007B683F4A93420DD07B683E4A934207D09A
:1045EC007B683D4A934201D1032306E0042304E097
:1045FC00022302E0012300E000237A6A02F00302A6
:10460C0092009340FA681343FB602F497B6A9B0826
:10461C000233FA6841F823203B685B6803F480138B
:10462C00002B06D02D4B9A682C49BB6913438B6029
:10463C0006E02A4B9A68BB69DB43284913408B6020
:10464C003B685B6803F40013002B06D0234BDA683D
:10465C002249BB691343CB6006E0204BDA68BB6987
:10466C00DB431E491340CB603B685B6803F40033AB
:10467C00002B06D0194B5A681849BB6913434B6081
:10468C0006E0164B5A68BB69DB43144913404B6078
:10469C003B685B6803F48033002B21D00F4B1A6806
:1046AC000E49BB6913430B6021E000BF00003210C0
:1046BC000000311000002210000021100000121028
:1046CC0000001110001002400000014000080140E1
:1046DC00000C014000100140001401400004014096
:1046EC000B4B1A68BB69DB43094913400B607B6AAF
:1046FC0001337B623B681A687B6A22FA03F3002B56
:10470C007FF48EAE00BF00BF2C37BD4680BC704717
:10471C000004014080B483B000AF78600B467B800E
:10472C0013467B707B78002B03D07A887B681A61E8
:10473C0003E07B881A047B681A6100BF0C37BD4606
:10474C0080BC704780B485B000AF78600B467B802E
:10475C007B68DB68FB607A88FB6813401A04FB6893
:10476C00D9437B880B401A437B681A6100BF14370E
:10477C00BD4680BC7047000080B584B000AF786047
:10478C007B68002B01D101232BE17B6893F83D3032
:10479C00DBB2002B06D17B68002283F83C207868C2
:1047AC00FEF704FC7B68242283F83D207B681B68A1
:1047BC001A687B681B6822F001021A607B681B6810
:1047CC001A687B681B6842F400421A607B681B689D
:1047DC001A687B681B6822F400421A6004F0D2FF4E
:1047EC00F8607B685B68814A934207D8FB68804A13
:1047FC00934294BF01230023DBB206E0FB687D4AA1
:10480C00934294BF01230023DBB2002B01D0012380
:10481C00E7E0FB68784AA2FB03239B0CBB607B6838
:10482C001B685B6823F03F017B681B68BA680A430E
:10483C005A607B681B681B6A23F03F017B685B68CE
:10484C006A4A934202D8BB68013309E0BB684FF453
:10485C00967202FB03F3694AA2FB03239B09013303
:10486C007A6812680B4313627B681B68DB6923F45C
:10487C004F4222F0FF027B685B685C498B4219D87F
:10488C00FB68591E7B685B685B00B1FBF3F3591C3A
:10489C0040F6FC730B40002B0AD0FB68591E7B685A
:1048AC005B685B00B1FBF3F30133C3F30B0351E023
:1048BC0004234FE07B689B68002B11D1FB68581ECA
:1048CC007B6859680B465B000B44B0FBF3F3013378
:1048DC00C3F30B03002B0CBF01230023DBB212E04C
:1048EC00FB68581E7B6859680B469B000B4499006B
:1048FC000B44B0FBF3F30133C3F30B03002B0CBFDE
:10490C0001230023DBB2002B01D0012322E07B68C2
:10491C009B68002B0ED1FB68581E7B6859680B46B0
:10492C005B000B44B0FBF3F30133C3F30B0343F411
:10493C0000430FE0FB68581E7B6859680B469B00D0
:10494C000B4499000B44B0FBF3F30133C3F30B039B
:10495C0043F44043796809681343CB617B681B6857
:10496C001B6823F0C0017B68DA697B681B6A1A43F9
:10497C007B681B680A431A607B681B689B6823F47E
:10498C00034323F0FF037A6811697A68D2681143F4
:10499C007A6812680B4393607B681B68DB6823F0B2
:1049AC00FF017B685A697B689B691A437B681B68AB
:1049BC000A43DA607B681B681A687B681B6842F0E4
:1049CC0001021A607B6800221A647B68202283F83B
:1049DC003D207B6800221A637B68002283F83E200E
:1049EC00002318461037BD4680BD00BFA0860100CD
:1049FC007F841E00FF083D0083DE1B43D34D6210F5
:104A0C0080B483B000AF78607B681B685B6903F08F
:104A1C008003802B03D17B681B6800221A6100BFC6
:104A2C000C37BD4680BC704780B588B002AFF860CB
:104A3C00084611461A4603467B810B463B811346BA
:104A4C00FB80FEF72DFD7861FB6893F83D30DBB2FF
:104A5C00202B40F0D9807B690093192301226D49EA
:104A6C00F86802F0E3FA0346002B01D00223CCE0F5
:104A7C00FB6893F83C30012B01D10223C5E0FB68A5
:104A8C00012283F83C20FB681B681B6803F00103C0
:104A9C00012B07D0FB681B681A68FB681B6842F087
:104AAC0001021A60FB681B681A68FB681B6822F419
:104ABC0000621A60FB68212283F83D20FB684022CB
:104ACC0083F83E20FB6800221A64FB683A6A5A623B
:104ADC00FB68BA8C5A85FB685B8D9AB2FB681A85A9
:104AEC00FB684D4ADA62F8883A8979897B690193C7
:104AFC00BB6A00930346F86801F05CFF0346002B89
:104B0C0052D0012381E07A69B96AF86802F0A8FBF7
:104B1C000346002B0DD0FB681B6C042B07D1FB68E4
:104B2C001B681A68FB681B6842F400721A60012348
:104B3C006BE0FB685B6A1A78FB681B681A61FB68A0
:104B4C005B6A5A1CFB685A62FB681B8D013B9AB26C
:104B5C00FB681A85FB685B8D9BB2013B9AB2FB68C4
:104B6C005A85FB681B685B6903F00403042B1BD19B
:104B7C00FB681B8D002B17D0FB685B6A1A78FB68EF
:104B8C001B681A61FB685B6A5A1CFB685A62FB68FB
:104B9C001B8D013B9AB2FB681A85FB685B8D9BB23F
:104BAC00013B9AB2FB685A85FB681B8D002BAAD17E
:104BBC007A69B96AF86802F09BFB0346002B0DD0AA
:104BCC00FB681B6C042B07D1FB681B681A68FB681D
:104BDC001B6842F400721A60012316E0FB681B6824
:104BEC001A68FB681B6842F400721A60FB6820228A
:104BFC0083F83D20FB68002283F83E20FB680022EE
:104C0C0083F83C20002300E0022318461837BD46E9
:104C1C0080BD00BF020010000000FFFF80B58CB00B
:104C2C0002AFF860084611461A4603467B810B46D4
:104C3C003B811346FB8000233B62FEF731FC78621C
:104C4C00FB6893F83D30DBB2202B40F050827B6A3E
:104C5C000093192301228249F86802F0E7F9034610
:104C6C00002B01D0022343E2FB6893F83C30012B6C
:104C7C0001D102233CE2FB68012283F83C20FB6853
:104C8C001B681B6803F00103012B07D0FB681B6832
:104C9C001A68FB681B6842F001021A60FB681B680B
:104CAC001A68FB681B6822F400621A60FB682222F7
:104CBC0083F83D20FB68402283F83E20FB680022ED
:104CCC001A64FB683A6B5A62FB68BA8E5A85FB68A9
:104CDC005B8D9AB2FB681A85FB68624ADA62F888C7
:104CEC003A8979897B6A0193BB6B00930346F86818
:104CFC0001F0F6FE0346002B01D00123F8E1FB681E
:104D0C001B8D002B13D10023FB61FB681B685B69B7
:104D1C00FB61FB681B689B69FB61FB69FB681B689B
:104D2C001A68FB681B6842F400721A60CCE1FB68DD
:104D3C001B8D012B1ED1FB681B681A68FB681B6856
:104D4C0022F480621A6072B600BF0023BB61FB685C
:104D5C001B685B69BB61FB681B689B69BB61BB69BA
:104D6C00FB681B681A68FB681B6842F400721A60C7
:104D7C0062B635E0FB681B8D022B1ED1FB681B68ED
:104D8C001A68FB681B6842F400621A6072B600BFB6
:104D9C0000237B61FB681B685B697B61FB681B689C
:104DAC009B697B617B69FB681B681A68FB681B68E5
:104DBC0022F480621A6062B612E0FB681B681A6803
:104DCC00FB681B6842F480621A6000233B61FB683D
:104DDC001B685B693B61FB681B689B693B613B69BA
:104DEC0072E1FB681B8D032B00F21F81FB681B8D8E
:104DFC00012B23D17A6AB96BF86802F0F3FA0346F7
:104E0C00002B01D0012373E1FB681B681A69FB6856
:104E1C005B6AD2B21A70FB685B6A5A1CFB685A62F6
:104E2C00FB681B8D013B9AB2FB681A85FB685B8D96
:104E3C009BB2013B9AB2FB685A8545E1FB681B8D1E
:104E4C00022B52D17B6A0093BB6B00220649F86897
:104E5C0002F0ECF80346002B08D0012348E100BF18
:104E6C00020010000000FFFF0400010072B600BF3A
:104E7C00FB681B681A68FB681B6842F400721A60B6
:104E8C00FB681B681A69FB685B6AD2B21A70FB6814
:104E9C005B6A5A1CFB685A62FB681B8D013B9AB219
:104EAC00FB681A85FB685B8D9BB2013B9AB2FB6871
:104EBC005A8562B600BFFB681B681A69FB685B6A9F
:104ECC00D2B21A70FB685B6A5A1CFB685A62FB68A8
:104EDC001B8D013B9AB2FB681A85FB685B8D9BB2FC
:104EEC00013B9AB2FB685A85EEE07B6A0093BB6B80
:104EFC0000228149F86802F099F80346002B01D092
:104F0C000123F5E0FB681B681A68FB681B6822F438
:104F1C0080621A6072B600BFFB681B681A69FB6876
:104F2C005B6AD2B21A70FB685B6A5A1CFB685A62E5
:104F3C00FB681B8D013B9AB2FB681A85FB685B8D85
:104F4C009BB2013B9AB2FB685A856C4B1B68DB0821
:104F5C006B4AA2FB03231A0A13469B001344DA0084
:104F6C00D31A3B623B6A013B3B623B6A002B18D174
:104F7C00FB6800221A63FB68202283F83D20FB6843
:104F8C00002283F83E20FB681B6C43F02002FB6878
:104F9C001A6462B600BFFB68002283F83C20012330
:104FAC00A6E0FB681B685B6903F00403042BD9D1F2
:104FBC00FB681B681A68FB681B6842F400721A6075
:104FCC00FB681B681A69FB685B6AD2B21A70FB68D3
:104FDC005B6A5A1CFB685A62FB681B8D013B9AB2D8
:104FEC00FB681A85FB685B8D9BB2013B9AB2FB6830
:104FFC005A8562B600BFFB681B681A69FB685B6A5E
:10500C00D2B21A70FB685B6A5A1CFB685A62FB6866
:10501C001B8D013B9AB2FB681A85FB685B8D9BB2BA
:10502C00013B9AB2FB685A854EE07A6AB96BF86814
:10503C0002F0D8F90346002B01D0012358E0FB689D
:10504C001B681A69FB685B6AD2B21A70FB685B6AF0
:10505C005A1CFB685A62FB681B8D013B9AB2FB68B9
:10506C001A85FB685B8D9BB2013B9AB2FB685A8533
:10507C00FB681B685B6903F00403042B24D1FB68F9
:10508C001B8D032B07D1FB681B681A68FB681B6818
:10509C0022F480621A60FB681B681A69FB685B6A01
:1050AC00D2B21A70FB685B6A5A1CFB685A62FB68C6
:1050BC001B8D013B9AB2FB681A85FB685B8D9BB21A
:1050CC00013B9AB2FB685A85FB681B8D002B7FF461
:1050DC0088AEFB68202283F83D20FB68002283F811
:1050EC003E20FB68002283F83C20002300E00223D2
:1050FC0018462837BD4680BD04000100380000204A
:10510C0089B5F81480B58CB002AFF860084611462A
:10511C001A4603467B810B463B811346FB80FEF708
:10512C00BFF978620023FB61FB6893F83D30DBB27A
:10513C00202B40F06881984B1B68DB08974AA2FB38
:10514C0003231A0A13469B0013449A001344FB6171
:10515C00FB69013BFB61FB69002B12D1FB68002250
:10516C001A63FB68202283F83D20FB68002283F839
:10517C003E20FB681B6C43F02002FB681A64022380
:10518C0042E1FB681B689B6903F00203022BDFD032
:10519C00FB6893F83C30012B01D1022334E1FB680E
:1051AC00012283F83C20FB681B681B6803F0010399
:1051BC00012B07D0FB681B681A68FB681B6842F060
:1051CC0001021A60FB681B681A68FB681B6822F4F2
:1051DC0000621A60FB68222283F83D20FB684022A3
:1051EC0083F83E20FB6800221A64FB683A6B5A6213
:1051FC00FB68BA8E5A85FB685B8D9AB2FB681A8580
:10520C00FB68674ADA627A89FB685A643A89FB68F8
:10521C009A64FA88FB68DA64FB6800221A65FB68FA
:10522C001B8D002B00F0C280FB689B6B002B24D0E5
:10523C00FB689B6B5B4A9A62FB689B6B5A4A1A63CE
:10524C00FB689B6B0022DA62FB689B6B00225A6343
:10525C00FB68986BFB681B6810331946FB685B6A2C
:10526C001A46FB681B8DFEF77DFE034687F823303C
:10527C0097F82330002B7BD113E0FB68202283F8B6
:10528C003D20FB68002283F83E20FB681B6C43F03A
:10529C008002FB681A64FB68002283F83C2001231F
:1052AC00B2E0F8883A8979897B6A019323230093C9
:1052BC000346F86801F014FC0346002B23D0FB686E
:1052CC009B6B1846FEF7EAFE034687F82330FB6813
:1052DC009B6B00229A62FB681B681A68FB681B6850
:1052EC0022F480621A60FB6800221A85FB68002297
:1052FC005A85FB681B681A68FB681B6822F0010260
:10530C001A60012380E0FB681B8D012B08D1FB6820
:10531C001B681A68FB681B6822F480621A6007E03D
:10532C00FB681B685A68FB681B6842F480525A6021
:10533C000023BB61FB681B685B69BB61FB681B6876
:10534C009B69BB61BB69FB68002283F83C20FB684E
:10535C001B685A68FB681B6842F480725A60FB68D1
:10536C001B685A68FB681B6842F400625A6048E08C
:10537C00FB68202283F83D20FB68002283F83E2046
:10538C00FB681B6C43F01002FB681A64FB6800227C
:10539C0083F83C20012337E03800002089B5F8144D
:1053AC000000FFFFBD6C00087B6E0008F8883A898E
:1053BC0079897B6A0193232300930346F86801F0F3
:1053CC008FFB0346002B01D001231DE000237B61E2
:1053DC00FB681B685B697B61FB681B689B697B6175
:1053EC007B69FB681B681A68FB681B6842F40072D7
:1053FC001A60FB68202283F83D20FB68002283F8AA
:10540C003C20002300E0022318462837BD4680BD0F
:10541C0080B588B000AF78600023BB617B681B68E7
:10542C005B687B617B68DB6A3B617B6893F83E3031
:10543C00FB737B6893F83D30BB73FB7B102B03D065
:10544C00FB7B402B40F0C1807B681B689B69BB6178
:10545C007B681B685B69FB61FB6903F00103002B34
:10546C000DD13B69B3F52A0F03D03B69B3F12A4F39
:10547C0001D1012300E00023012B00F03281FB69F4
:10548C0003F00103002B0CD07B695B0A03F00103D2
:10549C00002B06D0786802F030F8786800F0D8FC61
:1054AC0092E0FB69DB0803F00103002B09D07B6958
:1054BC005B0A03F00103002B03D0786800F04DFD6C
:1054CC0082E0FB695B0803F00103002B09D07B69C8
:1054DC005B0A03F00103002B03D0786800F066FD33
:1054EC0072E0BB699B0803F00103002B3BD07B6887
:1054FC001B685B6803F40063B3F5006F00F0F38086
:10550C00FB69DB0903F00103002B0FD07B699B0ABD
:10551C0003F00103002B09D0FB699B0803F0010386
:10552C00002B03D1786800F030F94DE0FB699B0843
:10553C0003F00103002B00F0D6807B695B0A03F0BB
:10554C000103002B00F0CF80BB7B212B03D17868AB
:10555C0000F0B7F9C7E0FB7B402B40F0C4807868C3
:10556C0000F025FABFE07B681B685B6803F40063FE
:10557C00B3F5006F00F0B780FB699B0903F00103E2
:10558C00002B0FD07B699B0A03F00103002B09D081
:10559C00FB699B0803F00103002B03D1786800F032
:1055AC009EFA11E0FB699B0803F00103002B00F04D
:1055BC009A807B695B0A03F00103002B00F0938057
:1055CC00786800F054FB8EE08DE07B681B6C002B40
:1055DC0004D07B681B685B69FB6107E07B681B6818
:1055EC009B69BB617B681B685B69FB61FB695B0842
:1055FC0003F00103002B12D07B695B0A03F001035B
:10560C00002B0CD07B681B6C002B03D07B681B68B9
:10561C009B69BB61B969786800F01FFF66E0FB69A4
:10562C001B0903F00103002B09D07B695B0A03F013
:10563C000103002B03D0786800F05AFF56E0BB7BC7
:10564C00212B02D0BB7B292B25D1FB69DB0903F075
:10565C000103002B0FD07B699B0A03F00103002B85
:10566C0009D0FB699B0803F00103002B03D1786878
:10567C0000F037FE39E0FB699B0803F00103002BB7
:10568C0033D07B695B0A03F00103002B2DD07868C3
:10569C0000F064FE29E0FB699B0903F00103002B79
:1056AC000FD07B699B0A03F00103002B09D0FB6927
:1056BC009B0803F00103002B03D1786800F06EFE09
:1056CC0014E0FB699B0803F00103002B0ED07B69EF
:1056DC005B0A03F00103002B08D0786800F09CFEF5
:1056EC0004E000BF02E000BF00E000BF2037BD4671
:1056FC0080BD80B483B000AF786000BF0C37BD466E
:10570C0080BC704780B483B000AF786000BF0C37AA
:10571C00BD4680BC704780B483B000AF786000BFDA
:10572C000C37BD4680BC704780B483B000AF786046
:10573C000B46FB7013463B8000BF0C37BD4680BC4C
:10574C00704780B483B000AF786000BF0C37BD46A3
:10575C0080BC704780B483B000AF786000BF0C375A
:10576C00BD4680BC704780B483B000AF786000BF8A
:10577C000C37BD4680BC704780B483B000AF7860F6
:10578C0000BF0C37BD4680BC704780B584B000AFFD
:10579C0078607B6893F83D30FB737B6893F83E3000
:1057AC00BB737B68DB6ABB607B681B8D002B50D1A5
:1057BC00FB7B212B4DD1BB68082B1DD0BB68202B4C
:1057CC001AD0BB6813F5803F16D07B681B685A68EB
:1057DC007B681B6822F4E0625A607B6811221A63B2
:1057EC007B68002283F83E207B68202283F83D20D2
:1057FC007868FCF7DFFA60E07B681B685A687B68A6
:10580C001B6822F4E0625A607B681B681A687B682C
:10581C001B6842F400721A607B6800221A637B6872
:10582C00202283F83D207B6893F83E30DBB2402B7E
:10583C0007D17B68002283F83E207868FFF78AFF47
:10584C003BE07B68002283F83E207868FCF7B2FAD4
:10585C0033E0FB7B212B05D0BB7B402B2DD1FB7B7D
:10586C00222B2AD17B685B8D9BB2002B08D17B68E5
:10587C001B685A687B681B6822F480625A601CE0C3
:10588C007B6893F83E30DBB2402B03D1786800F094
:10589C008EF812E07B685B6A1A787B681B681A6169
:1058AC007B685B6A5A1C7B685A627B685B8D9BB217
:1058BC00013B9AB27B685A85FFE700BF1037BD46A3
:1058CC0080BD80B584B000AF78607B68DB6AFB601C
:1058DC007B6893F83D30DBB2212B64D17B685B8D08
:1058EC009BB2002B12D07B685B6A1A787B681B68B2
:1058FC001A617B685B6A5A1C7B685A627B685B8D99
:10590C009BB2013B9AB27B685A854CE0FB68082B32
:10591C001DD0FB68202B1AD0FB6813F5803F16D0E6
:10592C007B681B685A687B681B6822F4E0625A60CB
:10593C007B6811221A637B68002283F83E207B6807
:10594C00202283F83D207868FCF734FA2BE07B6842
:10595C001B685A687B681B6822F4E0625A607B689B
:10596C001B681A687B681B6842F400721A607B68BB
:10597C0000221A637B68202283F83D207B6893F811
:10598C003E30DBB2402B07D17B68002283F83E20EF
:10599C007868FFF7DFFE06E07B68002283F83E2084
:1059AC007868FCF707FA00BF1037BD4680BD80B59C
:1059BC0084B000AF78607B6893F83D30FB737B68F4
:1059CC001B6D002B1DD17B68DB6C012B0BD17B6815
:1059DC009B6CDAB27B681B681A617B681B6D9A1C26
:1059EC007B681A6577E07B689B6C9BB21B12DAB202
:1059FC007B681B681A617B681B6D5A1C7B681A6577
:105A0C0069E07B681B6D012B0BD17B689B6CDAB258
:105A1C007B681B681A617B681B6D5A1C7B681A6556
:105A2C0059E07B681B6D022B52D1FB7B222B0DD1D5
:105A3C007B681B681A687B681B6842F480721A606A
:105A4C007B681B6D5A1C7B681A6544E07B685B8D18
:105A5C009BB2002B15D0FB7B212B12D17B685B6A90
:105A6C001A787B681B681A617B685B6A5A1C7B68B6
:105A7C005A627B685B8D9BB2013B9AB27B685A85FC
:105A8C0029E07B685B8D9BB2002B24D1FB7B212B07
:105A9C0021D17B681B685A687B681B6822F4E06222
:105AAC005A607B681B681A687B681B6842F400723A
:105ABC001A607B6800221A637B68202283F83D20E1
:105ACC007B68002283F83E207868FFF743FE02E0F3
